{"poseidon-solidity/PoseidonT3.sol":{"PoseidonT3":{"abi":[{"inputs":[{"internalType":"uint256[2]","name":"","type":"uint256[2]"}],"name":"hash","outputs":[{"internalType":"uint256","name":"","type":"uint256"}],"stateMutability":"pure","type":"function"}],"evm":{"bytecode":{"linkReferences":{},"object":"6141d461003a600b82828239805160001a60731461002d57634e487b7160e01b600052600060045260246000fd5b30600052607381538281f3fe73000000000000000000000000000000000000000030146080604052600436106100355760003560e01c8063561558fe1461003a575b600080fd5b61004d610048366004614050565b61005f565b60405190815260200160405180910390f35b60007f30644e72e131a029b85045b68181585d2833e84879b9709143e1f593f00000017f2b90bba00fca0589f617e7dcbfe82e0df706ab640ceb247b791a93b74e36736d7f101071f0032379b697315876690f053d148d4e109f5fb065c8aacc55a0f89bfa7f19a3fc0a56702bf417ba7fee3802593fa644470307043f7773279cd71d25d5e07ef1445235f2148c5986587169fc1bcd887b08d4d00868df5696fff40956e8648460805106017f08dff3487e8ac99e1f29a058d0fa80b930c728730b7ab36ce879f3890ecf73f58560a051060185828309868388838409099250868283099050868288838409099150868683098760008051602061411f8339815191528509017f5151bcc773d05d360fc9c923795441a9618605f30e31f2b8f087d1575b9c613b019050868583098760008051602061417f8339815191528509017f547424ff6c2e186923faa2cf5794c8cd2b5d3e8f151620ffda4a15b70cc05b3f0187858409886000805160206140ff8339815191528609017f23dc61092dc247151d38da17703c1ccb157f035575fe333d62fda4d2a5ae1bf5018883800989848b83840909935089838409905089838b83840909925089828309905089828b838409099150898983098a60008051602061411f83398151915285098b60008051602061415f833981519152870901017f28813dcaebaeaa828a376df87af4a63bc8b7bf27ad49c6298ef7b387bf28526d019050898883098a60008051602061417f83398151915285098b6000805160206140df833981519152870901017f2727673b2ccbc903f181bf38e1c1d40d2033865200c352bc150928adddf9cb78019550898783098a6000805160206140ff83398151915285098b60008051602061413f833981519152870901017f234ec45ca27727c2e74abd2b2a1494cd6efbd43e340587d6b8fb9e31e65cc63201945089818209935089818b86870909905089868709935089868b86870909955089858609935089858b868709099450898986098a60008051602061411f83398151915288098b60008051602061415f833981519152840901017f15b52534031ae18f7f862cb2cf7cf760ab10a8150a337b1ccd99ff6e8797d428019350898886098a60008051602061417f83398151915288098b6000805160206140df833981519152840901017f0dc8fad6d9e4b35f5ed9a3d186b79ce38e0e8a8d1b58b132d701d4eecf68d1f6019250898786098a6000805160206140ff83398151915288098b60008051602061413f833981519152840901017f1bcd95ffc211fbca600f705fad3fb567ea4eb378f62e1fec97805518a47e4d9c01915089848509905089848b83840909935089838409905089838b83840909925089828309905089828b838409099150898983098a60008051602061411f83398151915285098b60008051602061415f833981519152870901017f10520b0ab721cadfe9eff81b016fc34dc76da36c2578937817cb978d069de559019050898883098a60008051602061417f83398151915285098b6000805160206140df833981519152870901017f1f6d48149b8e7f7d9b257d8ed5fbbaf42932498075fed0ace88a9eb81f5627f6019550898783098a6000805160206140ff83398151915285098b60008051602061413f833981519152870901017f1d9655f652309014d29e00ef35a2089bfff8dc1c816f0dc9ca34bdb5460c870501945089818209935089818b868709099050898986098a60008051602061411f83398151915288098b60008051602061415f833981519152840901017f04df5a56ff95bcafb051f7b1cd43a99ba731ff67e47032058fe3d4185697cc7d019350898886098a60008051602061417f83398151915288098b6000805160206140df833981519152840901017f0672d995f8fff640151b3d290cedaf148690a10a8c8424a7f6ec282b6e4be828019250898786098a6000805160206140ff83398151915288098b60008051602061413f833981519152840901017f099952b414884454b21200d7ffafdd5f0c9a9dcc06f2708e9fc1d8209b5c75b901915089848509905089848b838409099350898983098a60008051602061411f83398151915285098b60008051602061415f833981519152870901017f052cba2255dfd00c7c483143ba8d469448e43586a9b4cd9183fd0e843a6b9fa6019050898883098a60008051602061417f83398151915285098b6000805160206140df833981519152870901017f0b8badee690adb8eb0bd74712b7999af82de55707251ad7716077cb93c464ddc019550898783098a6000805160206140ff83398151915285098b60008051602061413f833981519152870901017f119b1590f13307af5a1ee651020c07c749c15d60683a8050b963d0a8e4b2bdd101945089818209935089818b868709099050898986098a60008051602061411f83398151915288098b60008051602061415f833981519152840901017f03150b7cd6d5d17b2529d36be0f67b832c4acfc884ef4ee5ce15be0bfb4a8d09019350898886098a60008051602061417f83398151915288098b6000805160206140df833981519152840901017f2cc6182c5e14546e3cf1951f173912355374efb83d80898abe69cb317c9ea565019250898786098a6000805160206140ff83398151915288098b60008051602061413f833981519152840901017e5032551e6378c450cfe129a404b3764218cadedac14e2b92d2cd73111bf0f901915089848509905089848b838409099350898983098a60008051602061411f83398151915285098b60008051602061415f833981519152870901017f233237e3289baa34bb147e972ebcb9516469c399fcc069fb88f9da2cc28276b5019050898883098a60008051602061417f83398151915285098b6000805160206140df833981519152870901017f05c8f4f4ebd4a6e3c980d31674bfbe6323037f21b34ae5a4e80c2d4c24d60280019550898783098a6000805160206140ff83398151915285098b60008051602061413f833981519152870901017f0a7b1db13042d396ba05d818a319f25252bcf35ef3aeed91ee1f09b2590fc65b01945089818209935089818b868709099050898986098a60008051602061411f83398151915288098b60008051602061415f833981519152840901017f2a73b71f9b210cf5b14296572c9d32dbf156e2b086ff47dc5df542365a404ec0019350898886098a60008051602061417f83398151915288098b6000805160206140df833981519152840901017f1ac9b0417abcc9a1935107e9ffc91dc3ec18f2c4dbe7f22976a760bb5c50c460019250898786098a6000805160206140ff83398151915288098b60008051602061413f833981519152840901017f12c0339ae08374823fabb076707ef479269f3e4d6cb104349015ee046dc93fc001915089848509905089848b838409099350898983098a60008051602061411f83398151915285098b60008051602061415f833981519152870901017f0b7475b102a165ad7f5b18db4e1e704f52900aa3253baac68246682e56e9a28e019050898883098a60008051602061417f83398151915285098b6000805160206140df833981519152870901017f037c2849e191ca3edb1c5e49f6e8b8917c843e379366f2ea32ab3aa88d7f8448019550898783098a6000805160206140ff83398151915285098b60008051602061413f833981519152870901017f05a6811f8556f014e92674661e217e9bd5206c5c93a07dc145fdb176a716346f01945089818209935089818b868709099050898986098a60008051602061411f83398151915288098b60008051602061415f833981519152840901017f29a795e7d98028946e947b75d54e9f044076e87a7b2883b47b675ef5f38bd66e019350898886098a60008051602061417f83398151915288098b6000805160206140df833981519152840901017f20439a0c84b322eb45a3857afc18f5826e8c7382c8a1585c507be199981fd22f019250898786098a6000805160206140ff83398151915288098b60008051602061413f833981519152840901017f2e0ba8d94d9ecf4a94ec2050c7371ff1bb50f27799a84b6d4a2a6f2a0982c88701915089848509905089848b838409099350898983098a60008051602061411f83398151915285098b60008051602061415f833981519152870901017f143fd115ce08fb27ca38eb7cce822b4517822cd2109048d2e6d0ddcca17d71c8019050898883098a60008051602061417f83398151915285098b6000805160206140df833981519152870901017f0c64cbecb1c734b857968dbbdcf813cdf8611659323dbcbfc84323623be9caf1019550898783098a6000805160206140ff83398151915285098b60008051602061413f833981519152870901017f028a305847c683f646fca925c163ff5ae74f348d62c2b670f1426cef9403da5301945089818209935089818b868709099050898986098a60008051602061411f83398151915288098b60008051602061415f833981519152840901017f2e4ef510ff0b6fda5fa940ab4c4380f26a6bcb64d89427b824d6755b5db9e30c019350898886098a60008051602061417f83398151915288098b6000805160206140df833981519152840901017e81c95bc43384e663d79270c956ce3b8925b4f6d033b078b96384f50579400e019250898786098a6000805160206140ff83398151915288098b60008051602061413f833981519152840901017f2ed5f0c91cbd9749187e2fade687e05ee2491b349c039a0bba8a9f4023a0bb3801915089848509905089848b838409099350898983098a60008051602061411f83398151915285098b60008051602061415f833981519152870901017f30509991f88da3504bbf374ed5aae2f03448a22c76234c8c990f01f33a735206019050898883098a60008051602061417f83398151915285098b6000805160206140df833981519152870901017f1c3f20fd55409a53221b7c4d49a356b9f0a1119fb2067b41a7529094424ec6ad019550898783098a6000805160206140ff83398151915285098b60008051602061413f833981519152870901017f10b4e7f3ab5df003049514459b6e18eec46bb2213e8e131e170887b47ddcb96c01945089818209935089818b868709099050898986098a60008051602061411f83398151915288098b60008051602061415f833981519152840901017f2a1982979c3ff7f43ddd543d891c2abddd80f804c077d775039aa3502e43adef019350898886098a60008051602061417f83398151915288098b6000805160206140df833981519152840901017f1c74ee64f15e1db6feddbead56d6d55dba431ebc396c9af95cad0f1315bd5c91019250898786098a6000805160206140ff83398151915288098b60008051602061413f833981519152840901017f07533ec850ba7f98eab9303cace01b4b9e4f2e8b82708cfa9c2fe45a0ae146a001915089848509905089848b838409099350898983098a60008051602061411f83398151915285098b60008051602061415f833981519152870901017f21576b438e500449a151e4eeaf17b154285c68f42d42c1808a11abf3764c0750019050898883098a60008051602061417f83398151915285098b6000805160206140df833981519152870901017f2f17c0559b8fe79608ad5ca193d62f10bce8384c815f0906743d6930836d4a9e019550898783098a6000805160206140ff83398151915285098b60008051602061413f833981519152870901017f2d477e3862d07708a79e8aae946170bc9775a4201318474ae665b0b1b7e2730e01945089818209935089818b868709099050898986098a60008051602061411f83398151915288098b60008051602061415f833981519152840901017f162f5243967064c390e095577984f291afba2266c38f5abcd89be0f5b2747eab019350898886098a60008051602061417f83398151915288098b6000805160206140df833981519152840901017f2b4cb233ede9ba48264ecd2c8ae50d1ad7a8596a87f29f8a7777a70092393311019250898786098a6000805160206140ff83398151915288098b60008051602061413f833981519152840901017f2c8fbcb2dd8573dc1dbaf8f4622854776db2eece6d85c4cf4254e7c35e03b07a01915089848509905089848b838409099350898983098a60008051602061411f83398151915285098b60008051602061415f833981519152870901017f1d6f347725e4816af2ff453f0cd56b199e1b61e9f601e9ade5e88db870949da9019050898883098a60008051602061417f83398151915285098b6000805160206140df833981519152870901017f204b0c397f4ebe71ebc2d8b3df5b913df9e6ac02b68d31324cd49af5c4565529019550898783098a6000805160206140ff83398151915285098b60008051602061413f833981519152870901017f0c4cb9dc3c4fd8174f1149b3c63c3c2f9ecb827cd7dc25534ff8fb75bc79c50201945089818209935089818b868709099050898986098a60008051602061411f83398151915288098b60008051602061415f833981519152840901017f174ad61a1448c899a25416474f4930301e5c49475279e0639a616ddc45bc7b54019350898886098a60008051602061417f83398151915288098b6000805160206140df833981519152840901017f1a96177bcf4d8d89f759df4ec2f3cde2eaaa28c177cc0fa13a9816d49a38d2ef019250898786098a6000805160206140ff83398151915288098b60008051602061413f833981519152840901017f066d04b24331d71cd0ef8054bc60c4ff05202c126a233c1a8242ace360b8a30a01915089848509905089848b838409099350898983098a60008051602061411f83398151915285098b60008051602061415f833981519152870901017f2a4c4fc6ec0b0cf52195782871c6dd3b381cc65f72e02ad527037a62aa1bd804019050898883098a60008051602061417f83398151915285098b6000805160206140df833981519152870901017f13ab2d136ccf37d447e9f2e14a7cedc95e727f8446f6d9d7e55afc01219fd649019550898783098a6000805160206140ff83398151915285098b60008051602061413f833981519152870901017f1121552fca26061619d24d843dc82769c1b04fcec26f55194c2e3e869acc6a9a01945089818209935089818b868709099050898986098a60008051602061411f83398151915288098b60008051602061415f833981519152840901017eef653322b13d6c889bc81715c37d77a6cd267d595c4a8909a5546c7c97cff1019350898886098a60008051602061417f83398151915288098b6000805160206140df833981519152840901017f0e25483e45a665208b261d8ba74051e6400c776d652595d9845aca35d8a397d3019250898786098a6000805160206140ff83398151915288098b60008051602061413f833981519152840901017f29f536dcb9dd7682245264659e15d88e395ac3d4dde92d8c46448db979eeba8901915089848509905089848b838409099350898983098a60008051602061411f83398151915285098b60008051602061415f833981519152870901017f2a56ef9f2c53febadfda33575dbdbd885a124e2780bbea170e456baace0fa5be019050898883098a60008051602061417f83398151915285098b6000805160206140df833981519152870901017f1c8361c78eb5cf5decfb7a2d17b5c409f2ae2999a46762e8ee416240a8cb9af1019550898783098a6000805160206140ff83398151915285098b60008051602061413f833981519152870901017f151aff5f38b20a0fc0473089aaf0206b83e8e68a764507bfd3d0ab4be74319c501945089818209935089818b868709099050898986098a60008051602061411f83398151915288098b60008051602061415f833981519152840901017f04c6187e41ed881dc1b239c88f7f9d43a9f52fc8c8b6cdd1e76e47615b51f100019350898886098a60008051602061417f83398151915288098b6000805160206140df833981519152840901017f13b37bd80f4d27fb10d84331f6fb6d534b81c61ed15776449e801b7ddc9c2967019250898786098a6000805160206140ff83398151915288098b60008051602061413f833981519152840901017f01a5c536273c2d9df578bfbd32c17b7a2ce3664c2a52032c9321ceb1c4e8a8e401915089848509905089848b838409099350898983098a60008051602061411f83398151915285098b60008051602061415f833981519152870901017f2ab3561834ca73835ad05f5d7acb950b4a9a2c666b9726da832239065b7c3b02019050898883098a60008051602061417f83398151915285098b6000805160206140df833981519152870901017f1d4d8ec291e720db200fe6d686c0d613acaf6af4e95d3bf69f7ed516a597b646019550898783098a6000805160206140ff83398151915285098b60008051602061413f833981519152870901017f041294d2cc484d228f5784fe7919fd2bb925351240a04b711514c9c80b65af1d01945089818209935089818b868709099050898986098a60008051602061411f83398151915288098b60008051602061415f833981519152840901017f154ac98e01708c611c4fa715991f004898f57939d126e392042971dd90e81fc6019350898886098a60008051602061417f83398151915288098b6000805160206140df833981519152840901017f0b339d8acca7d4f83eedd84093aef51050b3684c88f8b0b04524563bc6ea4da4019250898786098a6000805160206140ff83398151915288098b60008051602061413f833981519152840901017f0955e49e6610c94254a4f84cfbab344598f0e71eaff4a7dd81ed95b50839c82e01915089848509905089848b838409099350898983098a60008051602061411f83398151915285098b60008051602061415f833981519152870901017f06746a6156eba54426b9e22206f15abca9a6f41e6f535c6f3525401ea0654626019050898883098a60008051602061417f83398151915285098b6000805160206140df833981519152870901017f0f18f5a0ecd1423c496f3820c549c27838e5790e2bd0a196ac917c7ff32077fb019550898783098a6000805160206140ff83398151915285098b60008051602061413f833981519152870901017f04f6eeca1751f7308ac59eff5beb261e4bb563583ede7bc92a738223d6f76e1301945089818209935089818b868709099050898986098a60008051602061411f83398151915288098b60008051602061415f833981519152840901017f2b56973364c4c4f5c1a3ec4da3cdce038811eb116fb3e45bc1768d26fc0b3758019350898886098a60008051602061417f83398151915288098b6000805160206140df833981519152840901017f123769dd49d5b054dcd76b89804b1bcb8e1392b385716a5d83feb65d437f29ef019250898786098a6000805160206140ff83398151915288098b60008051602061413f833981519152840901017f2147b424fc48c80a88ee52b91169aacea989f6446471150994257b2fb01c63e901915089848509905089848b838409099350898983098a60008051602061411f83398151915285098b60008051602061415f833981519152870901017f0fdc1f58548b85701a6c5505ea332a29647e6f34ad4243c2ea54ad897cebe54d019050898883098a60008051602061417f83398151915285098b6000805160206140df833981519152870901017f12373a8251fea004df68abcf0f7786d4bceff28c5dbbe0c3944f685cc0a0b1f2019550898783098a6000805160206140ff83398151915285098b60008051602061413f833981519152870901017f21e4f4ea5f35f85bad7ea52ff742c9e8a642756b6af44203dd8a1f35c1a9003501945089818209935089818b868709099050898986098a60008051602061411f83398151915288098b60008051602061415f833981519152840901017f16243916d69d2ca3dfb4722224d4c462b57366492f45e90d8a81934f1bc3b147019350898886098a60008051602061417f83398151915288098b6000805160206140df833981519152840901017f1efbe46dd7a578b4f66f9adbc88b4378abc21566e1a0453ca13a4159cac04ac2019250898786098a6000805160206140ff83398151915288098b60008051602061413f833981519152840901017f07ea5e8537cf5dd08886020e23a7f387d468d5525be66f853b672cc96a88969a01915089848509905089848b838409099350898983098a60008051602061411f83398151915285098b60008051602061415f833981519152870901017f05a8c4f9968b8aa3b7b478a30f9a5b63650f19a75e7ce11ca9fe16c0b76c00bc019050898883098a60008051602061417f83398151915285098b6000805160206140df833981519152870901017f20f057712cc21654fbfe59bd345e8dac3f7818c701b9c7882d9d57b72a32e83f019550898783098a6000805160206140ff83398151915285098b60008051602061413f833981519152870901017f04a12ededa9dfd689672f8c67fee31636dcd8e88d01d49019bd90b33eb33db6901945089818209935089818b868709099050898986098a60008051602061411f83398151915288098b60008051602061415f833981519152840901017f27e88d8c15f37dcee44f1e5425a51decbd136ce5091a6767e49ec9544ccd101a019350898886098a60008051602061417f83398151915288098b6000805160206140df833981519152840901017f2feed17b84285ed9b8a5c8c5e95a41f66e096619a7703223176c41ee433de4d1019250898786098a6000805160206140ff83398151915288098b60008051602061413f833981519152840901017f1ed7cc76edf45c7c404241420f729cf394e5942911312a0d6972b8bd53aff2b801915089848509905089848b838409099350898983098a60008051602061411f83398151915285098b60008051602061415f833981519152870901017f15742e99b9bfa323157ff8c586f5660eac6783476144cdcadf2874be45466b1a019050898883098a60008051602061417f83398151915285098b6000805160206140df833981519152870901017f1aac285387f65e82c895fc6887ddf40577107454c6ec0317284f033f27d0c785019550898783098a6000805160206140ff83398151915285098b60008051602061413f833981519152870901017f25851c3c845d4790f9ddadbdb6057357832e2e7a49775f71ec75a96554d67c7701945089818209935089818b868709099050898986098a60008051602061411f83398151915288098b60008051602061415f833981519152840901017f15a5821565cc2ec2ce78457db197edf353b7ebba2c5523370ddccc3d9f146a67019350898886098a60008051602061417f83398151915288098b6000805160206140df833981519152840901017f2411d57a4813b9980efa7e31a1db5966dcf64f36044277502f15485f28c71727019250898786098a6000805160206140ff83398151915288098b60008051602061413f833981519152840901017e2e6f8d6520cd4713e335b8c0b6d2e647e9a98e12f4cd2558828b5ef6cb4c9b01915089848509905089848b838409099350898983098a60008051602061411f83398151915285098b60008051602061415f833981519152870901017f2ff7bc8f4380cde997da00b616b0fcd1af8f0e91e2fe1ed7398834609e0315d2019050898883098a60008051602061417f83398151915285098b6000805160206140df833981519152870901017eb9831b948525595ee02724471bcd182e9521f6b7bb68f1e93be4febb0d3cbe019550898783098a6000805160206140ff83398151915285098b60008051602061413f833981519152870901017f0a2f53768b8ebf6a86913b0e57c04e011ca408648a4743a87d77adbf0c9c351201945089818209935089818b868709099050898986098a60008051602061411f83398151915288098b60008051602061415f833981519152840901017e248156142fd0373a479f91ff239e960f599ff7e94be69b7f2a290305e1198d019350898886098a60008051602061417f83398151915288098b6000805160206140df833981519152840901017f171d5620b87bfb1328cf8c02ab3f0c9a397196aa6a542c2350eb512a2b2bcda9019250898786098a6000805160206140ff83398151915288098b60008051602061413f833981519152840901017f170a4f55536f7dc970087c7c10d6fad760c952172dd54dd99d1045e4ec34a80801915089848509905089848b838409099350898983098a60008051602061411f83398151915285098b60008051602061415f833981519152870901017f29aba33f799fe66c2ef3134aea04336ecc37e38c1cd211ba482eca17e2dbfae1019050898883098a60008051602061417f83398151915285098b6000805160206140df833981519152870901017f1e9bc179a4fdd758fdd1bb1945088d47e70d114a03f6a0e8b5ba650369e64973019550898783098a6000805160206140ff83398151915285098b60008051602061413f833981519152870901017f1dd269799b660fad58f7f4892dfb0b5afeaad869a9c4b44f9c9e1c43bdaf8f0901945089818209935089818b868709099050898986098a60008051602061411f83398151915288098b60008051602061415f833981519152840901017f22cdbc8b70117ad1401181d02e15459e7ccd426fe869c7c95d1dd2cb0f24af38019350898886098a60008051602061417f83398151915288098b6000805160206140df833981519152840901017f0ef042e454771c533a9f57a55c503fcefd3150f52ed94a7cd5ba93b9c7dacefd019250898786098a6000805160206140ff83398151915288098b60008051602061413f833981519152840901017f11609e06ad6c8fe2f287f3036037e8851318e8b08a0359a03b304ffca62e828401915089848509905089848b838409099350898983098a60008051602061411f83398151915285098b60008051602061415f833981519152870901017f1166d9e554616dba9e753eea427c17b7fecd58c076dfe42708b08f5b783aa9af019050898883098a60008051602061417f83398151915285098b6000805160206140df833981519152870901017f2de52989431a859593413026354413db177fbf4cd2ac0b56f855a888357ee466019550898783098a6000805160206140ff83398151915285098b60008051602061413f833981519152870901017f3006eb4ffc7a85819a6da492f3a8ac1df51aee5b17b8e89d74bf01cf5f71e9ad01945089818209935089818b868709099050898986098a60008051602061411f83398151915288098b60008051602061415f833981519152840901017f2af41fbb61ba8a80fdcf6fff9e3f6f422993fe8f0a4639f962344c8225145086019350898886098a60008051602061417f83398151915288098b6000805160206140df833981519152840901017f119e684de476155fe5a6b41a8ebc85db8718ab27889e85e781b214bace4827c3019250898786098a6000805160206140ff83398151915288098b60008051602061413f833981519152840901017f1835b786e2e8925e188bea59ae363537b51248c23828f047cff784b97b3fd80001915089848509905089848b838409099350898983098a60008051602061411f83398151915285098b60008051602061415f833981519152870901017f28201a34c594dfa34d794996c6433a20d152bac2a7905c926c40e285ab32eeb6019050898883098a60008051602061417f83398151915285098b6000805160206140df833981519152870901017f083efd7a27d1751094e80fefaf78b000864c82eb571187724a761f88c22cc4e7019550898783098a6000805160206140ff83398151915285098b60008051602061413f833981519152870901017f0b6f88a3577199526158e61ceea27be811c16df7774dd8519e079564f61fd13b01945089818209935089818b868709099050898986098a60008051602061411f83398151915288098b60008051602061415f833981519152840901017f0ec868e6d15e51d9644f66e1d6471a94589511ca00d29e1014390e6ee4254f5b019350898886098a60008051602061417f83398151915288098b6000805160206140df833981519152840901017f2af33e3f866771271ac0c9b3ed2e1142ecd3e74b939cd40d00d937ab84c98591019250898786098a6000805160206140ff83398151915288098b60008051602061413f833981519152840901017f0b520211f904b5e7d09b5d961c6ace7734568c547dd6858b364ce5e47951f17801915089848509905089848b838409099350898983098a60008051602061411f83398151915285098b60008051602061415f833981519152870901017f0b2d722d0919a1aad8db58f10062a92ea0c56ac4270e822cca228620188a1d40019050898883098a60008051602061417f83398151915285098b6000805160206140df833981519152870901017f1f790d4d7f8cf094d980ceb37c2453e957b54a9991ca38bbe0061d1ed6e562d4019550898783098a6000805160206140ff83398151915285098b60008051602061413f833981519152870901017f0171eb95dfbf7d1eaea97cd385f780150885c16235a2a6a8da92ceb01e50423301945089818209935089818b868709099050898986098a60008051602061411f83398151915288098b60008051602061415f833981519152840901017f0c2d0e3b5fd57549329bf6885da66b9b790b40defd2c8650762305381b168873019350898886098a60008051602061417f83398151915288098b6000805160206140df833981519152840901017f1162fb28689c27154e5a8228b4e72b377cbcafa589e283c35d3803054407a18d019250898786098a6000805160206140ff83398151915288098b60008051602061413f833981519152840901017f2f1459b65dee441b64ad386a91e8310f282c5a92a89e19921623ef8249711bc001915089848509905089848b838409099350898983098a60008051602061411f83398151915285098b60008051602061415f833981519152870901017f1e6ff3216b688c3d996d74367d5cd4c1bc489d46754eb712c243f70d1b53cfbb019050898883098a60008051602061417f83398151915285098b6000805160206140df833981519152870901017f01ca8be73832b8d0681487d27d157802d741a6f36cdc2a0576881f9326478875019550898783098a6000805160206140ff83398151915285098b60008051602061413f833981519152870901017f1f7735706ffe9fc586f976d5bdf223dc680286080b10cea00b9b5de315f9650e01945089818209935089818b868709099050898986098a60008051602061411f83398151915288098b60008051602061415f833981519152840901017f2522b60f4ea3307640a0c2dce041fba921ac10a3d5f096ef4745ca838285f019019350898886098a60008051602061417f83398151915288098b6000805160206140df833981519152840901017f23f0bee001b1029d5255075ddc957f833418cad4f52b6c3f8ce16c235572575b019250898786098a6000805160206140ff83398151915288098b60008051602061413f833981519152840901017f2bc1ae8b8ddbb81fcaac2d44555ed5685d142633e9df905f66d9401093082d5901915089848509905089848b838409099350898983098a60008051602061411f83398151915285098b60008051602061415f833981519152870901017f0f9406b8296564a37304507b8dba3ed162371273a07b1fc98011fcd6ad72205f019050898883098a60008051602061417f83398151915285098b6000805160206140df833981519152870901017f2360a8eb0cc7defa67b72998de90714e17e75b174a52ee4acb126c8cd995f0a8019550898783098a6000805160206140ff83398151915285098b60008051602061413f833981519152870901017f15871a5cddead976804c803cbaef255eb4815a5e96df8b006dcbbc2767f8894801945089818209935089818b868709099050898986098a60008051602061411f83398151915288098b60008051602061415f833981519152840901017f193a56766998ee9e0a8652dd2f3b1da0362f4f54f72379544f957ccdeefb420f019350898886098a60008051602061417f83398151915288098b6000805160206140df833981519152840901017f2a394a43934f86982f9be56ff4fab1703b2e63c8ad334834e4309805e777ae0f019250898786098a6000805160206140ff83398151915288098b60008051602061413f833981519152840901017f1859954cfeb8695f3e8b635dcb345192892cd11223443ba7b4166e8876c0d14201915089848509905089848b838409099350898983098a60008051602061411f83398151915285098b60008051602061415f833981519152870901017f04e1181763050e58013444dbcb99f1902b11bc25d90bbdca408d3819f4fed32b019050898883098a60008051602061417f83398151915285098b6000805160206140df833981519152870901017f0fdb253dee83869d40c335ea64de8c5bb10eb82db08b5e8b1f5e5552bfd05f23019550898783098a6000805160206140ff83398151915285098b60008051602061413f833981519152870901017f058cbe8a9a5027bdaa4efb623adead6275f08686f1c08984a9d7c5bae9b4f1c001945089818209935089818b868709099050898986098a60008051602061411f83398151915288098b60008051602061415f833981519152840901017f1382edce9971e186497eadb1aeb1f52b23b4b83bef023ab0d15228b4cceca59a019350898886098a60008051602061417f83398151915288098b6000805160206140df833981519152840901017f03464990f045c6ee0819ca51fd11b0be7f61b8eb99f14b77e1e6634601d9e8b5019250898786098a6000805160206140ff83398151915288098b60008051602061413f833981519152840901017f23f7bfc8720dc296fff33b41f98ff83c6fcab4605db2eb5aaa5bc137aeb70a5801915089848509905089848b838409099350898983098a60008051602061411f83398151915285098b60008051602061415f833981519152870901017f0a59a158e3eec2117e6e94e7f0e9decf18c3ffd5e1531a9219636158bbaf62f2019050898883098a60008051602061417f83398151915285098b6000805160206140df833981519152870901017f06ec54c80381c052b58bf23b312ffd3ce2c4eba065420af8f4c23ed0075fd07b019550898783098a6000805160206140ff83398151915285098b60008051602061413f833981519152870901017f118872dc832e0eb5476b56648e867ec8b09340f7a7bcb1b4962f0ff9ed1f9d0101945089818209935089818b868709099050898986098a60008051602061411f83398151915288098b60008051602061415f833981519152840901017f13d69fa127d834165ad5c7cba7ad59ed52e0b0f0e42d7fea95e1906b520921b1019350898886098a60008051602061417f83398151915288098b6000805160206140df833981519152840901017f169a177f63ea681270b1c6877a73d21bde143942fb71dc55fd8a49f19f10c77b019250898786098a6000805160206140ff83398151915288098b60008051602061413f833981519152840901017f04ef51591c6ead97ef42f287adce40d93abeb032b922f66ffb7e9a5a7450544d01915089848509905089848b838409099350898983098a60008051602061411f83398151915285098b60008051602061415f833981519152870901017f256e175a1dc079390ecd7ca703fb2e3b19ec61805d4f03ced5f45ee6dd0f69ec019050898883098a60008051602061417f83398151915285098b6000805160206140df833981519152870901017f30102d28636abd5fe5f2af412ff6004f75cc360d3205dd2da002813d3e2ceeb2019550898783098a6000805160206140ff83398151915285098b60008051602061413f833981519152870901017f10998e42dfcd3bbf1c0714bc73eb1bf40443a3fa99bef4a31fd31be182fcc79201945089818209935089818b868709099050898986098a60008051602061411f83398151915288098b60008051602061415f833981519152840901017f193edd8e9fcf3d7625fa7d24b598a1d89f3362eaf4d582efecad76f879e36860019350898886098a60008051602061417f83398151915288098b6000805160206140df833981519152840901017f18168afd34f2d915d0368ce80b7b3347d1c7a561ce611425f2664d7aa51f0b5d019250898786098a6000805160206140ff83398151915288098b60008051602061413f833981519152840901017f29383c01ebd3b6ab0c017656ebe658b6a328ec77bc33626e29e2e95b33ea611101915089848509905089848b838409099350898983098a60008051602061411f83398151915285098b60008051602061415f833981519152870901017f10646d2f2603de39a1f4ae5e7771a64a702db6e86fb76ab600bf573f9010c711019050898883098a60008051602061417f83398151915285098b6000805160206140df833981519152870901017f0beb5e07d1b27145f575f1395a55bf132f90c25b40da7b3864d0242dcb1117fb019550898783098a6000805160206140ff83398151915285098b60008051602061413f833981519152870901017f16d685252078c133dc0d3ecad62b5c8830f95bb2e54b59abdffbf018d96fa33601945089818209935089818b868709099050898986098a60008051602061411f83398151915288098b60008051602061415f833981519152840901017f0a6abd1d833938f33c74154e0404b4b40a555bbbec21ddfafd672dd62047f01a019350898886098a60008051602061417f83398151915288098b6000805160206140df833981519152840901017f1a679f5d36eb7b5c8ea12a4c2dedc8feb12dffeec450317270a6f19b34cf1860019250898786098a6000805160206140ff83398151915288098b60008051602061413f833981519152840901017f0980fb233bd456c23974d50e0ebfde4726a423eada4e8f6ffbc7592e3f1b93d601915089848509905089848b838409099350898983098a60008051602061411f83398151915285098b60008051602061415f833981519152870901017f161b42232e61b84cbf1810af93a38fc0cece3d5628c9282003ebacb5c312c72b019050898883098a60008051602061417f83398151915285098b6000805160206140df833981519152870901017f0ada10a90c7f0520950f7d47a60d5e6a493f09787f1564e5d09203db47de1a0b019550898783098a6000805160206140ff83398151915285098b60008051602061413f833981519152870901017f1a730d372310ba82320345a29ac4238ed3f07a8a2b4e121bb50ddb9af407f45101945089818209935089818b868709099050898986098a60008051602061411f83398151915288098b60008051602061415f833981519152840901017f2c8120f268ef054f817064c369dda7ea908377feaba5c4dffbda10ef58e8c556019350898886098a60008051602061417f83398151915288098b6000805160206140df833981519152840901017f1c7c8824f758753fa57c00789c684217b930e95313bcb73e6e7b8649a4968f70019250898786098a6000805160206140ff83398151915288098b60008051602061413f833981519152840901017f2cd9ed31f5f8691c8e39e4077a74faa0f400ad8b491eb3f7b47b27fa3fd1cf7701915089848509905089848b838409099350898983098a60008051602061411f83398151915285098b60008051602061415f833981519152870901017f23ff4f9d46813457cf60d92f57618399a5e022ac321ca550854ae23918a22eea019050898883098a60008051602061417f83398151915285098b6000805160206140df833981519152870901017f09945a5d147a4f66ceece6405dddd9d0af5a2c5103529407dff1ea58f180426d019550898783098a6000805160206140ff83398151915285098b60008051602061413f833981519152870901017f188d9c528025d4c2b67660c6b771b90f7c7da6eaa29d3f268a6dd223ec6fc63001945089818209935089818b868709099050898986098a60008051602061411f83398151915288098b60008051602061415f833981519152840901017f3050e37996596b7f81f68311431d8734dba7d926d3633595e0c0d8ddf4f0f47f019350898886098a60008051602061417f83398151915288098b6000805160206140df833981519152840901017f15af1169396830a91600ca8102c35c426ceae5461e3f95d89d829518d30afd78019250898786098a6000805160206140ff83398151915288098b60008051602061413f833981519152840901017f1da6d09885432ea9a06d9f37f873d985dae933e351466b2904284da3320d8acc01915089848509905089848b838409099350898983098a60008051602061411f83398151915285098b60008051602061415f833981519152870901017f2796ea90d269af29f5f8acf33921124e4e4fad3dbe658945e546ee411ddaa9cb019050898883098a60008051602061417f83398151915285098b6000805160206140df833981519152870901017f202d7dd1da0f6b4b0325c8b3307742f01e15612ec8e9304a7cb0319e01d32d60019550898783098a6000805160206140ff83398151915285098b60008051602061413f833981519152870901017f096d6790d05bb759156a952ba263d672a2d7f9c788f4c831a29dace4c0f8be5f01945089818209935089818b868709099050898986098a60008051602061411f83398151915288098b60008051602061415f833981519152840901017f054efa1f65b0fce283808965275d877b438da23ce5b13e1963798cb1447d25a4019350898886098a60008051602061417f83398151915288098b6000805160206140df833981519152840901017f1b162f83d917e93edb3308c29802deb9d8aa690113b2e14864ccf6e18e4165f1019250898786098a6000805160206140ff83398151915288098b60008051602061413f833981519152840901017f21e5241e12564dd6fd9f1cdd2a0de39eedfefc1466cc568ec5ceb745a0506edc01915089848509905089848b83840909935089838409905089838b83840909925089828309905089828b838409099150898983098a60008051602061411f83398151915285098b60008051602061415f833981519152870901017f1cfb5662e8cf5ac9226a80ee17b36abecb73ab5f87e161927b4349e10e4bdf08019050898883098a60008051602061417f83398151915285098b6000805160206140df833981519152870901017f0f21177e302a771bbae6d8d1ecb373b62c99af346220ac0129c53f666eb24100019550898783098a6000805160206140ff83398151915285098b60008051602061413f833981519152870901017f1671522374606992affb0dd7f71b12bec4236aede6290546bcef7e1f515c232001945089818209935089818b86870909905089868709935089868b86870909955089858609935089858b868709099450898986098a60008051602061411f83398151915288098b60008051602061415f833981519152840901017f0fa3ec5b9488259c2eb4cf24501bfad9be2ec9e42c5cc8ccd419d2a692cad870019350898886098a60008051602061417f83398151915288098b6000805160206140df833981519152840901017f193c0e04e0bd298357cb266c1506080ed36edce85c648cc085e8c57b1ab54bba019250898786098a6000805160206140ff83398151915288098b60008051602061413f833981519152840901017f102adf8ef74735a27e9128306dcbc3c99f6f7291cd406578ce14ea2adaba68f801915089848509905089848b83840909935089838409905089838b83840909925089828309905089828b838409099150898983098a60008051602061411f83398151915285098b60008051602061415f833981519152870901017f0fe0af7858e49859e2a54d6f1ad945b1316aa24bfbdd23ae40a6d0cb70c3eab1019050898883098a60008051602061417f83398151915285098b6000805160206140df833981519152870901017f216f6717bbc7dedb08536a2220843f4e2da5f1daa9ebdefde8a5ea7344798d22019550898783098a6000805160206140ff83398151915285098b60008051602061413f833981519152870901017f1da55cc900f0d21f4a3e694391918a1b3c23b2ac773c6b3ef88e2e422832516101945089818209935089818b86870909905089868709935089868b86870909955089858609935089858b868709099450898a8a87098b60008051602061411f83398151915289098c60008051602061415f833981519152850901010660005260206000f35b60006040828403121561406257600080fd5b82601f83011261407157600080fd5b6040516040810181811067ffffffffffffffff821117156140a257634e487b7160e01b600052604160045260246000fd5b80604052508060408401858111156140b957600080fd5b845b818110156140d35780358352602092830192016140bb565b50919594505050505056fe2969f27eed31a480b9c36c764379dbca2cc8fdd1415c3dded62940bcde0bd771176cc029695ad02582a70eff08a6fd99d057e12e58e7d7b6b16cdfabc8ee291116ed41e13bb9c0c66ae119424fddbcbc9314dc9fdbdeea55d6c64543dc4903e0143021ec686a3f330d5f9e654638065ce6cd79e28c5b3753326244ee65a1b1a7109b7f411ba0e4c9b2b70caf5c36a7b194be7c11ad24378bfedb68592ba8118b2e2419f9ec02ec394c9871c832963dc1b89d743c8c7b964029b2311687b1fe23a26469706673582212201f0010029e8bb8347153de1a4156b801c8cd154d020718b622cdf98ffa68a8c764736f6c63430008170033","opcodes":"PUSH2 0x41D4 PUSH2 0x3A PUSH1 0xB DUP3 DUP3 DUP3 CODECOPY DUP1 MLOAD PUSH1 0x0 BYTE PUSH1 0x73 EQ PUSH2 0x2D JUMPI PUSH4 0x4E487B71 PUSH1 0xE0 SHL PUSH1 0x0 MSTORE PUSH1 0x0 PUSH1 0x4 MSTORE PUSH1 0x24 PUSH1 0x0 REVERT JUMPDEST ADDRESS PUSH1 0x0 MSTORE PUSH1 0x73 DUP2 MSTORE8 DUP3 DUP2 RETURN INVALID PUSH20 0x0 ADDRESS EQ PUSH1 0x80 PUSH1 0x40 MSTORE PUSH1 0x4 CALLDATASIZE LT PUSH2 0x35 JUMPI PUSH1 0x0 CALLDATALOAD PUSH1 0xE0 SHR DUP1 PUSH4 0x561558FE EQ PUSH2 0x3A JUMPI JUMPDEST PUSH1 0x0 DUP1 REVERT JUMPDEST PUSH2 0x4D PUSH2 0x48 CALLDATASIZE PUSH1 0x4 PUSH2 0x4050 JUMP JUMPDEST PUSH2 0x5F JUMP JUMPDEST PUSH1 0x40 MLOAD SWAP1 DUP2 MSTORE PUSH1 0x20 ADD PUSH1 0x40 MLOAD DUP1 SWAP2 SUB SWAP1 RETURN JUMPDEST PUSH1 0x0 PUSH32 0x30644E72E131A029B85045B68181585D2833E84879B9709143E1F593F0000001 PUSH32 0x2B90BBA00FCA0589F617E7DCBFE82E0DF706AB640CEB247B791A93B74E36736D PUSH32 0x101071F0032379B697315876690F053D148D4E109F5FB065C8AACC55A0F89BFA PUSH32 0x19A3FC0A56702BF417BA7FEE3802593FA644470307043F7773279CD71D25D5E0 PUSH31 0xF1445235F2148C5986587169FC1BCD887B08D4D00868DF5696FFF40956E864 DUP5 PUSH1 0x80 MLOAD MOD ADD PUSH32 0x8DFF3487E8AC99E1F29A058D0FA80B930C728730B7AB36CE879F3890ECF73F5 DUP6 PUSH1 0xA0 MLOAD MOD ADD DUP6 DUP3 DUP4 MULMOD DUP7 DUP4 DUP9 DUP4 DUP5 MULMOD MULMOD SWAP3 POP DUP7 DUP3 DUP4 MULMOD SWAP1 POP DUP7 DUP3 DUP9 DUP4 DUP5 MULMOD MULMOD SWAP2 POP DUP7 DUP7 DUP4 MULMOD DUP8 PUSH1 0x0 DUP1 MLOAD PUSH1 0x20 PUSH2 0x411F DUP4 CODECOPY DUP2 MLOAD SWAP2 MSTORE DUP6 MULMOD ADD PUSH32 0x5151BCC773D05D360FC9C923795441A9618605F30E31F2B8F087D1575B9C613B ADD SWAP1 POP DUP7 DUP6 DUP4 MULMOD DUP8 PUSH1 0x0 DUP1 MLOAD PUSH1 0x20 PUSH2 0x417F DUP4 CODECOPY DUP2 MLOAD SWAP2 MSTORE DUP6 MULMOD ADD PUSH32 0x547424FF6C2E186923FAA2CF5794C8CD2B5D3E8F151620FFDA4A15B70CC05B3F ADD DUP8 DUP6 DUP5 MULMOD DUP9 PUSH1 0x0 DUP1 MLOAD PUSH1 0x20 PUSH2 0x40FF DUP4 CODECOPY DUP2 MLOAD SWAP2 MSTORE DUP7 MULMOD ADD PUSH32 0x23DC61092DC247151D38DA17703C1CCB157F035575FE333D62FDA4D2A5AE1BF5 ADD DUP9 DUP4 DUP1 MULMOD DUP10 DUP5 DUP12 DUP4 DUP5 MULMOD MULMOD SWAP4 POP DUP10 DUP4 DUP5 MULMOD SWAP1 POP DUP10 DUP4 DUP12 DUP4 DUP5 MULMOD MULMOD SWAP3 POP DUP10 DUP3 DUP4 MULMOD SWAP1 POP DUP10 DUP3 DUP12 DUP4 DUP5 MULMOD MULMOD SWAP2 POP DUP10 DUP10 DUP4 MULMOD DUP11 PUSH1 0x0 DUP1 MLOAD PUSH1 0x20 PUSH2 0x411F DUP4 CODECOPY DUP2 MLOAD SWAP2 MSTORE DUP6 MULMOD DUP12 PUSH1 0x0 DUP1 MLOAD PUSH1 0x20 PUSH2 0x415F DUP4 CODECOPY DUP2 MLOAD SWAP2 MSTORE DUP8 MULMOD ADD ADD PUSH32 0x28813DCAEBAEAA828A376DF87AF4A63BC8B7BF27AD49C6298EF7B387BF28526D ADD SWAP1 POP DUP10 DUP9 DUP4 MULMOD DUP11 PUSH1 0x0 DUP1 MLOAD PUSH1 0x20 PUSH2 0x417F DUP4 CODECOPY DUP2 MLOAD SWAP2 MSTORE DUP6 MULMOD DUP12 PUSH1 0x0 DUP1 MLOAD PUSH1 0x20 PUSH2 0x40DF DUP4 CODECOPY DUP2 MLOAD SWAP2 MSTORE DUP8 MULMOD ADD ADD PUSH32 0x2727673B2CCBC903F181BF38E1C1D40D2033865200C352BC150928ADDDF9CB78 ADD SWAP6 POP DUP10 DUP8 DUP4 MULMOD DUP11 PUSH1 0x0 DUP1 MLOAD PUSH1 0x20 PUSH2 0x40FF DUP4 CODECOPY DUP2 MLOAD SWAP2 MSTORE DUP6 MULMOD DUP12 PUSH1 0x0 DUP1 MLOAD PUSH1 0x20 PUSH2 0x413F DUP4 CODECOPY DUP2 MLOAD SWAP2 MSTORE DUP8 MULMOD ADD ADD PUSH32 0x234EC45CA27727C2E74ABD2B2A1494CD6EFBD43E340587D6B8FB9E31E65CC632 ADD SWAP5 POP DUP10 DUP2 DUP3 MULMOD SWAP4 POP DUP10 DUP2 DUP12 DUP7 DUP8 MULMOD MULMOD SWAP1 POP DUP10 DUP7 DUP8 MULMOD SWAP4 POP DUP10 DUP7 DUP12 DUP7 DUP8 MULMOD MULMOD SWAP6 POP DUP10 DUP6 DUP7 MULMOD SWAP4 POP DUP10 DUP6 DUP12 DUP7 DUP8 MULMOD MULMOD SWAP5 POP DUP10 DUP10 DUP7 MULMOD DUP11 PUSH1 0x0 DUP1 MLOAD PUSH1 0x20 PUSH2 0x411F DUP4 CODECOPY DUP2 MLOAD SWAP2 MSTORE DUP9 MULMOD DUP12 PUSH1 0x0 DUP1 MLOAD PUSH1 0x20 PUSH2 0x415F DUP4 CODECOPY DUP2 MLOAD SWAP2 MSTORE DUP5 MULMOD ADD ADD PUSH32 0x15B52534031AE18F7F862CB2CF7CF760AB10A8150A337B1CCD99FF6E8797D428 ADD SWAP4 POP DUP10 DUP9 DUP7 MULMOD DUP11 PUSH1 0x0 DUP1 MLOAD PUSH1 0x20 PUSH2 0x417F DUP4 CODECOPY DUP2 MLOAD SWAP2 MSTORE DUP9 MULMOD DUP12 PUSH1 0x0 DUP1 MLOAD PUSH1 0x20 PUSH2 0x40DF DUP4 CODECOPY DUP2 MLOAD SWAP2 MSTORE DUP5 MULMOD ADD ADD PUSH32 0xDC8FAD6D9E4B35F5ED9A3D186B79CE38E0E8A8D1B58B132D701D4EECF68D1F6 ADD SWAP3 POP DUP10 DUP8 DUP7 MULMOD DUP11 PUSH1 0x0 DUP1 MLOAD PUSH1 0x20 PUSH2 0x40FF DUP4 CODECOPY DUP2 MLOAD SWAP2 MSTORE DUP9 MULMOD DUP12 PUSH1 0x0 DUP1 MLOAD PUSH1 0x20 PUSH2 0x413F DUP4 CODECOPY DUP2 MLOAD SWAP2 MSTORE DUP5 MULMOD ADD ADD PUSH32 0x1BCD95FFC211FBCA600F705FAD3FB567EA4EB378F62E1FEC97805518A47E4D9C ADD SWAP2 POP DUP10 DUP5 DUP6 MULMOD SWAP1 POP DUP10 DUP5 DUP12 DUP4 DUP5 MULMOD MULMOD SWAP4 POP DUP10 DUP4 DUP5 MULMOD SWAP1 POP DUP10 DUP4 DUP12 DUP4 DUP5 MULMOD MULMOD SWAP3 POP DUP10 DUP3 DUP4 MULMOD SWAP1 POP DUP10 DUP3 DUP12 DUP4 DUP5 MULMOD MULMOD SWAP2 POP DUP10 DUP10 DUP4 MULMOD DUP11 PUSH1 0x0 DUP1 MLOAD PUSH1 0x20 PUSH2 0x411F DUP4 CODECOPY DUP2 MLOAD SWAP2 MSTORE DUP6 MULMOD DUP12 PUSH1 0x0 DUP1 MLOAD PUSH1 0x20 PUSH2 0x415F DUP4 CODECOPY DUP2 MLOAD SWAP2 MSTORE DUP8 MULMOD ADD ADD PUSH32 0x10520B0AB721CADFE9EFF81B016FC34DC76DA36C2578937817CB978D069DE559 ADD SWAP1 POP DUP10 DUP9 DUP4 MULMOD DUP11 PUSH1 0x0 DUP1 MLOAD PUSH1 0x20 PUSH2 0x417F DUP4 CODECOPY DUP2 MLOAD SWAP2 MSTORE DUP6 MULMOD DUP12 PUSH1 0x0 DUP1 MLOAD PUSH1 0x20 PUSH2 0x40DF DUP4 CODECOPY DUP2 MLOAD SWAP2 MSTORE DUP8 MULMOD ADD ADD PUSH32 0x1F6D48149B8E7F7D9B257D8ED5FBBAF42932498075FED0ACE88A9EB81F5627F6 ADD SWAP6 POP DUP10 DUP8 DUP4 MULMOD DUP11 PUSH1 0x0 DUP1 MLOAD PUSH1 0x20 PUSH2 0x40FF DUP4 CODECOPY DUP2 MLOAD SWAP2 MSTORE DUP6 MULMOD DUP12 PUSH1 0x0 DUP1 MLOAD PUSH1 0x20 PUSH2 0x413F DUP4 CODECOPY DUP2 MLOAD SWAP2 MSTORE DUP8 MULMOD ADD ADD PUSH32 0x1D9655F652309014D29E00EF35A2089BFFF8DC1C816F0DC9CA34BDB5460C8705 ADD SWAP5 POP DUP10 DUP2 DUP3 MULMOD SWAP4 POP DUP10 DUP2 DUP12 DUP7 DUP8 MULMOD MULMOD SWAP1 POP DUP10 DUP10 DUP7 MULMOD DUP11 PUSH1 0x0 DUP1 MLOAD PUSH1 0x20 PUSH2 0x411F DUP4 CODECOPY DUP2 MLOAD SWAP2 MSTORE DUP9 MULMOD DUP12 PUSH1 0x0 DUP1 MLOAD PUSH1 0x20 PUSH2 0x415F DUP4 CODECOPY DUP2 MLOAD SWAP2 MSTORE DUP5 MULMOD ADD ADD PUSH32 0x4DF5A56FF95BCAFB051F7B1CD43A99BA731FF67E47032058FE3D4185697CC7D ADD SWAP4 POP DUP10 DUP9 DUP7 MULMOD DUP11 PUSH1 0x0 DUP1 MLOAD PUSH1 0x20 PUSH2 0x417F DUP4 CODECOPY DUP2 MLOAD SWAP2 MSTORE DUP9 MULMOD DUP12 PUSH1 0x0 DUP1 MLOAD PUSH1 0x20 PUSH2 0x40DF DUP4 CODECOPY DUP2 MLOAD SWAP2 MSTORE DUP5 MULMOD ADD ADD PUSH32 0x672D995F8FFF640151B3D290CEDAF148690A10A8C8424A7F6EC282B6E4BE828 ADD SWAP3 POP DUP10 DUP8 DUP7 MULMOD DUP11 PUSH1 0x0 DUP1 MLOAD PUSH1 0x20 PUSH2 0x40FF DUP4 CODECOPY DUP2 MLOAD SWAP2 MSTORE DUP9 MULMOD DUP12 PUSH1 0x0 DUP1 MLOAD PUSH1 0x20 PUSH2 0x413F DUP4 CODECOPY DUP2 MLOAD SWAP2 MSTORE DUP5 MULMOD ADD ADD PUSH32 0x99952B414884454B21200D7FFAFDD5F0C9A9DCC06F2708E9FC1D8209B5C75B9 ADD SWAP2 POP DUP10 DUP5 DUP6 MULMOD SWAP1 POP DUP10 DUP5 DUP12 DUP4 DUP5 MULMOD MULMOD SWAP4 POP DUP10 DUP10 DUP4 MULMOD DUP11 PUSH1 0x0 DUP1 MLOAD PUSH1 0x20 PUSH2 0x411F DUP4 CODECOPY DUP2 MLOAD SWAP2 MSTORE DUP6 MULMOD DUP12 PUSH1 0x0 DUP1 MLOAD PUSH1 0x20 PUSH2 0x415F DUP4 CODECOPY DUP2 MLOAD SWAP2 MSTORE DUP8 MULMOD ADD ADD PUSH32 0x52CBA2255DFD00C7C483143BA8D469448E43586A9B4CD9183FD0E843A6B9FA6 ADD SWAP1 POP DUP10 DUP9 DUP4 MULMOD DUP11 PUSH1 0x0 DUP1 MLOAD PUSH1 0x20 PUSH2 0x417F DUP4 CODECOPY DUP2 MLOAD SWAP2 MSTORE DUP6 MULMOD DUP12 PUSH1 0x0 DUP1 MLOAD PUSH1 0x20 PUSH2 0x40DF DUP4 CODECOPY DUP2 MLOAD SWAP2 MSTORE DUP8 MULMOD ADD ADD PUSH32 0xB8BADEE690ADB8EB0BD74712B7999AF82DE55707251AD7716077CB93C464DDC ADD SWAP6 POP DUP10 DUP8 DUP4 MULMOD DUP11 PUSH1 0x0 DUP1 MLOAD PUSH1 0x20 PUSH2 0x40FF DUP4 CODECOPY DUP2 MLOAD SWAP2 MSTORE DUP6 MULMOD DUP12 PUSH1 0x0 DUP1 MLOAD PUSH1 0x20 PUSH2 0x413F DUP4 CODECOPY DUP2 MLOAD SWAP2 MSTORE DUP8 MULMOD ADD ADD PUSH32 0x119B1590F13307AF5A1EE651020C07C749C15D60683A8050B963D0A8E4B2BDD1 ADD SWAP5 POP DUP10 DUP2 DUP3 MULMOD SWAP4 POP DUP10 DUP2 DUP12 DUP7 DUP8 MULMOD MULMOD SWAP1 POP DUP10 DUP10 DUP7 MULMOD DUP11 PUSH1 0x0 DUP1 MLOAD PUSH1 0x20 PUSH2 0x411F DUP4 CODECOPY DUP2 MLOAD SWAP2 MSTORE DUP9 MULMOD DUP12 PUSH1 0x0 DUP1 MLOAD PUSH1 0x20 PUSH2 0x415F DUP4 CODECOPY DUP2 MLOAD SWAP2 MSTORE DUP5 MULMOD ADD ADD PUSH32 0x3150B7CD6D5D17B2529D36BE0F67B832C4ACFC884EF4EE5CE15BE0BFB4A8D09 ADD SWAP4 POP DUP10 DUP9 DUP7 MULMOD DUP11 PUSH1 0x0 DUP1 MLOAD PUSH1 0x20 PUSH2 0x417F DUP4 CODECOPY DUP2 MLOAD SWAP2 MSTORE DUP9 MULMOD DUP12 PUSH1 0x0 DUP1 MLOAD PUSH1 0x20 PUSH2 0x40DF DUP4 CODECOPY DUP2 MLOAD SWAP2 MSTORE DUP5 MULMOD ADD ADD PUSH32 0x2CC6182C5E14546E3CF1951F173912355374EFB83D80898ABE69CB317C9EA565 ADD SWAP3 POP DUP10 DUP8 DUP7 MULMOD DUP11 PUSH1 0x0 DUP1 MLOAD PUSH1 0x20 PUSH2 0x40FF DUP4 CODECOPY DUP2 MLOAD SWAP2 MSTORE DUP9 MULMOD DUP12 PUSH1 0x0 DUP1 MLOAD PUSH1 0x20 PUSH2 0x413F DUP4 CODECOPY DUP2 MLOAD SWAP2 MSTORE DUP5 MULMOD ADD ADD PUSH31 0x5032551E6378C450CFE129A404B3764218CADEDAC14E2B92D2CD73111BF0F9 ADD SWAP2 POP DUP10 DUP5 DUP6 MULMOD SWAP1 POP DUP10 DUP5 DUP12 DUP4 DUP5 MULMOD MULMOD SWAP4 POP DUP10 DUP10 DUP4 MULMOD DUP11 PUSH1 0x0 DUP1 MLOAD PUSH1 0x20 PUSH2 0x411F DUP4 CODECOPY DUP2 MLOAD SWAP2 MSTORE DUP6 MULMOD DUP12 PUSH1 0x0 DUP1 MLOAD PUSH1 0x20 PUSH2 0x415F DUP4 CODECOPY DUP2 MLOAD SWAP2 MSTORE DUP8 MULMOD ADD ADD PUSH32 0x233237E3289BAA34BB147E972EBCB9516469C399FCC069FB88F9DA2CC28276B5 ADD SWAP1 POP DUP10 DUP9 DUP4 MULMOD DUP11 PUSH1 0x0 DUP1 MLOAD PUSH1 0x20 PUSH2 0x417F DUP4 CODECOPY DUP2 MLOAD SWAP2 MSTORE DUP6 MULMOD DUP12 PUSH1 0x0 DUP1 MLOAD PUSH1 0x20 PUSH2 0x40DF DUP4 CODECOPY DUP2 MLOAD SWAP2 MSTORE DUP8 MULMOD ADD ADD PUSH32 0x5C8F4F4EBD4A6E3C980D31674BFBE6323037F21B34AE5A4E80C2D4C24D60280 ADD SWAP6 POP DUP10 DUP8 DUP4 MULMOD DUP11 PUSH1 0x0 DUP1 MLOAD PUSH1 0x20 PUSH2 0x40FF DUP4 CODECOPY DUP2 MLOAD SWAP2 MSTORE DUP6 MULMOD DUP12 PUSH1 0x0 DUP1 MLOAD PUSH1 0x20 PUSH2 0x413F DUP4 CODECOPY DUP2 MLOAD SWAP2 MSTORE DUP8 MULMOD ADD ADD PUSH32 0xA7B1DB13042D396BA05D818A319F25252BCF35EF3AEED91EE1F09B2590FC65B ADD SWAP5 POP DUP10 DUP2 DUP3 MULMOD SWAP4 POP DUP10 DUP2 DUP12 DUP7 DUP8 MULMOD MULMOD SWAP1 POP DUP10 DUP10 DUP7 MULMOD DUP11 PUSH1 0x0 DUP1 MLOAD PUSH1 0x20 PUSH2 0x411F DUP4 CODECOPY DUP2 MLOAD SWAP2 MSTORE DUP9 MULMOD DUP12 PUSH1 0x0 DUP1 MLOAD PUSH1 0x20 PUSH2 0x415F DUP4 CODECOPY DUP2 MLOAD SWAP2 MSTORE DUP5 MULMOD ADD ADD PUSH32 0x2A73B71F9B210CF5B14296572C9D32DBF156E2B086FF47DC5DF542365A404EC0 ADD SWAP4 POP DUP10 DUP9 DUP7 MULMOD DUP11 PUSH1 0x0 DUP1 MLOAD PUSH1 0x20 PUSH2 0x417F DUP4 CODECOPY DUP2 MLOAD SWAP2 MSTORE DUP9 MULMOD DUP12 PUSH1 0x0 DUP1 MLOAD PUSH1 0x20 PUSH2 0x40DF DUP4 CODECOPY DUP2 MLOAD SWAP2 MSTORE DUP5 MULMOD ADD ADD PUSH32 0x1AC9B0417ABCC9A1935107E9FFC91DC3EC18F2C4DBE7F22976A760BB5C50C460 ADD SWAP3 POP DUP10 DUP8 DUP7 MULMOD DUP11 PUSH1 0x0 DUP1 MLOAD PUSH1 0x20 PUSH2 0x40FF DUP4 CODECOPY DUP2 MLOAD SWAP2 MSTORE DUP9 MULMOD DUP12 PUSH1 0x0 DUP1 MLOAD PUSH1 0x20 PUSH2 0x413F DUP4 CODECOPY DUP2 MLOAD SWAP2 MSTORE DUP5 MULMOD ADD ADD PUSH32 0x12C0339AE08374823FABB076707EF479269F3E4D6CB104349015EE046DC93FC0 ADD SWAP2 POP DUP10 DUP5 DUP6 MULMOD SWAP1 POP DUP10 DUP5 DUP12 DUP4 DUP5 MULMOD MULMOD SWAP4 POP DUP10 DUP10 DUP4 MULMOD DUP11 PUSH1 0x0 DUP1 MLOAD PUSH1 0x20 PUSH2 0x411F DUP4 CODECOPY DUP2 MLOAD SWAP2 MSTORE DUP6 MULMOD DUP12 PUSH1 0x0 DUP1 MLOAD PUSH1 0x20 PUSH2 0x415F DUP4 CODECOPY DUP2 MLOAD SWAP2 MSTORE DUP8 MULMOD ADD ADD PUSH32 0xB7475B102A165AD7F5B18DB4E1E704F52900AA3253BAAC68246682E56E9A28E ADD SWAP1 POP DUP10 DUP9 DUP4 MULMOD DUP11 PUSH1 0x0 DUP1 MLOAD PUSH1 0x20 PUSH2 0x417F DUP4 CODECOPY DUP2 MLOAD SWAP2 MSTORE DUP6 MULMOD DUP12 PUSH1 0x0 DUP1 MLOAD PUSH1 0x20 PUSH2 0x40DF DUP4 CODECOPY DUP2 MLOAD SWAP2 MSTORE DUP8 MULMOD ADD ADD PUSH32 0x37C2849E191CA3EDB1C5E49F6E8B8917C843E379366F2EA32AB3AA88D7F8448 ADD SWAP6 POP DUP10 DUP8 DUP4 MULMOD DUP11 PUSH1 0x0 DUP1 MLOAD PUSH1 0x20 PUSH2 0x40FF DUP4 CODECOPY DUP2 MLOAD SWAP2 MSTORE DUP6 MULMOD DUP12 PUSH1 0x0 DUP1 MLOAD PUSH1 0x20 PUSH2 0x413F DUP4 CODECOPY DUP2 MLOAD SWAP2 MSTORE DUP8 MULMOD ADD ADD PUSH32 0x5A6811F8556F014E92674661E217E9BD5206C5C93A07DC145FDB176A716346F ADD SWAP5 POP DUP10 DUP2 DUP3 MULMOD SWAP4 POP DUP10 DUP2 DUP12 DUP7 DUP8 MULMOD MULMOD SWAP1 POP DUP10 DUP10 DUP7 MULMOD DUP11 PUSH1 0x0 DUP1 MLOAD PUSH1 0x20 PUSH2 0x411F DUP4 CODECOPY DUP2 MLOAD SWAP2 MSTORE DUP9 MULMOD DUP12 PUSH1 0x0 DUP1 MLOAD PUSH1 0x20 PUSH2 0x415F DUP4 CODECOPY DUP2 MLOAD SWAP2 MSTORE DUP5 MULMOD ADD ADD PUSH32 0x29A795E7D98028946E947B75D54E9F044076E87A7B2883B47B675EF5F38BD66E ADD SWAP4 POP DUP10 DUP9 DUP7 MULMOD DUP11 PUSH1 0x0 DUP1 MLOAD PUSH1 0x20 PUSH2 0x417F DUP4 CODECOPY DUP2 MLOAD SWAP2 MSTORE DUP9 MULMOD DUP12 PUSH1 0x0 DUP1 MLOAD PUSH1 0x20 PUSH2 0x40DF DUP4 CODECOPY DUP2 MLOAD SWAP2 MSTORE DUP5 MULMOD ADD ADD PUSH32 0x20439A0C84B322EB45A3857AFC18F5826E8C7382C8A1585C507BE199981FD22F ADD SWAP3 POP DUP10 DUP8 DUP7 MULMOD DUP11 PUSH1 0x0 DUP1 MLOAD PUSH1 0x20 PUSH2 0x40FF DUP4 CODECOPY DUP2 MLOAD SWAP2 MSTORE DUP9 MULMOD DUP12 PUSH1 0x0 DUP1 MLOAD PUSH1 0x20 PUSH2 0x413F DUP4 CODECOPY DUP2 MLOAD SWAP2 MSTORE DUP5 MULMOD ADD ADD PUSH32 0x2E0BA8D94D9ECF4A94EC2050C7371FF1BB50F27799A84B6D4A2A6F2A0982C887 ADD SWAP2 POP DUP10 DUP5 DUP6 MULMOD SWAP1 POP DUP10 DUP5 DUP12 DUP4 DUP5 MULMOD MULMOD SWAP4 POP DUP10 DUP10 DUP4 MULMOD DUP11 PUSH1 0x0 DUP1 MLOAD PUSH1 0x20 PUSH2 0x411F DUP4 CODECOPY DUP2 MLOAD SWAP2 MSTORE DUP6 MULMOD DUP12 PUSH1 0x0 DUP1 MLOAD PUSH1 0x20 PUSH2 0x415F DUP4 CODECOPY DUP2 MLOAD SWAP2 MSTORE DUP8 MULMOD ADD ADD PUSH32 0x143FD115CE08FB27CA38EB7CCE822B4517822CD2109048D2E6D0DDCCA17D71C8 ADD SWAP1 POP DUP10 DUP9 DUP4 MULMOD DUP11 PUSH1 0x0 DUP1 MLOAD PUSH1 0x20 PUSH2 0x417F DUP4 CODECOPY DUP2 MLOAD SWAP2 MSTORE DUP6 MULMOD DUP12 PUSH1 0x0 DUP1 MLOAD PUSH1 0x20 PUSH2 0x40DF DUP4 CODECOPY DUP2 MLOAD SWAP2 MSTORE DUP8 MULMOD ADD ADD PUSH32 0xC64CBECB1C734B857968DBBDCF813CDF8611659323DBCBFC84323623BE9CAF1 ADD SWAP6 POP DUP10 DUP8 DUP4 MULMOD DUP11 PUSH1 0x0 DUP1 MLOAD PUSH1 0x20 PUSH2 0x40FF DUP4 CODECOPY DUP2 MLOAD SWAP2 MSTORE DUP6 MULMOD DUP12 PUSH1 0x0 DUP1 MLOAD PUSH1 0x20 PUSH2 0x413F DUP4 CODECOPY DUP2 MLOAD SWAP2 MSTORE DUP8 MULMOD ADD ADD PUSH32 0x28A305847C683F646FCA925C163FF5AE74F348D62C2B670F1426CEF9403DA53 ADD SWAP5 POP DUP10 DUP2 DUP3 MULMOD SWAP4 POP DUP10 DUP2 DUP12 DUP7 DUP8 MULMOD MULMOD SWAP1 POP DUP10 DUP10 DUP7 MULMOD DUP11 PUSH1 0x0 DUP1 MLOAD PUSH1 0x20 PUSH2 0x411F DUP4 CODECOPY DUP2 MLOAD SWAP2 MSTORE DUP9 MULMOD DUP12 PUSH1 0x0 DUP1 MLOAD PUSH1 0x20 PUSH2 0x415F DUP4 CODECOPY DUP2 MLOAD SWAP2 MSTORE DUP5 MULMOD ADD ADD PUSH32 0x2E4EF510FF0B6FDA5FA940AB4C4380F26A6BCB64D89427B824D6755B5DB9E30C ADD SWAP4 POP DUP10 DUP9 DUP7 MULMOD DUP11 PUSH1 0x0 DUP1 MLOAD PUSH1 0x20 PUSH2 0x417F DUP4 CODECOPY DUP2 MLOAD SWAP2 MSTORE DUP9 MULMOD DUP12 PUSH1 0x0 DUP1 MLOAD PUSH1 0x20 PUSH2 0x40DF DUP4 CODECOPY DUP2 MLOAD SWAP2 MSTORE DUP5 MULMOD ADD ADD PUSH31 0x81C95BC43384E663D79270C956CE3B8925B4F6D033B078B96384F50579400E ADD SWAP3 POP DUP10 DUP8 DUP7 MULMOD DUP11 PUSH1 0x0 DUP1 MLOAD PUSH1 0x20 PUSH2 0x40FF DUP4 CODECOPY DUP2 MLOAD SWAP2 MSTORE DUP9 MULMOD DUP12 PUSH1 0x0 DUP1 MLOAD PUSH1 0x20 PUSH2 0x413F DUP4 CODECOPY DUP2 MLOAD SWAP2 MSTORE DUP5 MULMOD ADD ADD PUSH32 0x2ED5F0C91CBD9749187E2FADE687E05EE2491B349C039A0BBA8A9F4023A0BB38 ADD SWAP2 POP DUP10 DUP5 DUP6 MULMOD SWAP1 POP DUP10 DUP5 DUP12 DUP4 DUP5 MULMOD MULMOD SWAP4 POP DUP10 DUP10 DUP4 MULMOD DUP11 PUSH1 0x0 DUP1 MLOAD PUSH1 0x20 PUSH2 0x411F DUP4 CODECOPY DUP2 MLOAD SWAP2 MSTORE DUP6 MULMOD DUP12 PUSH1 0x0 DUP1 MLOAD PUSH1 0x20 PUSH2 0x415F DUP4 CODECOPY DUP2 MLOAD SWAP2 MSTORE DUP8 MULMOD ADD ADD PUSH32 0x30509991F88DA3504BBF374ED5AAE2F03448A22C76234C8C990F01F33A735206 ADD SWAP1 POP DUP10 DUP9 DUP4 MULMOD DUP11 PUSH1 0x0 DUP1 MLOAD PUSH1 0x20 PUSH2 0x417F DUP4 CODECOPY DUP2 MLOAD SWAP2 MSTORE DUP6 MULMOD DUP12 PUSH1 0x0 DUP1 MLOAD PUSH1 0x20 PUSH2 0x40DF DUP4 CODECOPY DUP2 MLOAD SWAP2 MSTORE DUP8 MULMOD ADD ADD PUSH32 0x1C3F20FD55409A53221B7C4D49A356B9F0A1119FB2067B41A7529094424EC6AD ADD SWAP6 POP DUP10 DUP8 DUP4 MULMOD DUP11 PUSH1 0x0 DUP1 MLOAD PUSH1 0x20 PUSH2 0x40FF DUP4 CODECOPY DUP2 MLOAD SWAP2 MSTORE DUP6 MULMOD DUP12 PUSH1 0x0 DUP1 MLOAD PUSH1 0x20 PUSH2 0x413F DUP4 CODECOPY DUP2 MLOAD SWAP2 MSTORE DUP8 MULMOD ADD ADD PUSH32 0x10B4E7F3AB5DF003049514459B6E18EEC46BB2213E8E131E170887B47DDCB96C ADD SWAP5 POP DUP10 DUP2 DUP3 MULMOD SWAP4 POP DUP10 DUP2 DUP12 DUP7 DUP8 MULMOD MULMOD SWAP1 POP DUP10 DUP10 DUP7 MULMOD DUP11 PUSH1 0x0 DUP1 MLOAD PUSH1 0x20 PUSH2 0x411F DUP4 CODECOPY DUP2 MLOAD SWAP2 MSTORE DUP9 MULMOD DUP12 PUSH1 0x0 DUP1 MLOAD PUSH1 0x20 PUSH2 0x415F DUP4 CODECOPY DUP2 MLOAD SWAP2 MSTORE DUP5 MULMOD ADD ADD PUSH32 0x2A1982979C3FF7F43DDD543D891C2ABDDD80F804C077D775039AA3502E43ADEF ADD SWAP4 POP DUP10 DUP9 DUP7 MULMOD DUP11 PUSH1 0x0 DUP1 MLOAD PUSH1 0x20 PUSH2 0x417F DUP4 CODECOPY DUP2 MLOAD SWAP2 MSTORE DUP9 MULMOD DUP12 PUSH1 0x0 DUP1 MLOAD PUSH1 0x20 PUSH2 0x40DF DUP4 CODECOPY DUP2 MLOAD SWAP2 MSTORE DUP5 MULMOD ADD ADD PUSH32 0x1C74EE64F15E1DB6FEDDBEAD56D6D55DBA431EBC396C9AF95CAD0F1315BD5C91 ADD SWAP3 POP DUP10 DUP8 DUP7 MULMOD DUP11 PUSH1 0x0 DUP1 MLOAD PUSH1 0x20 PUSH2 0x40FF DUP4 CODECOPY DUP2 MLOAD SWAP2 MSTORE DUP9 MULMOD DUP12 PUSH1 0x0 DUP1 MLOAD PUSH1 0x20 PUSH2 0x413F DUP4 CODECOPY DUP2 MLOAD SWAP2 MSTORE DUP5 MULMOD ADD ADD PUSH32 0x7533EC850BA7F98EAB9303CACE01B4B9E4F2E8B82708CFA9C2FE45A0AE146A0 ADD SWAP2 POP DUP10 DUP5 DUP6 MULMOD SWAP1 POP DUP10 DUP5 DUP12 DUP4 DUP5 MULMOD MULMOD SWAP4 POP DUP10 DUP10 DUP4 MULMOD DUP11 PUSH1 0x0 DUP1 MLOAD PUSH1 0x20 PUSH2 0x411F DUP4 CODECOPY DUP2 MLOAD SWAP2 MSTORE DUP6 MULMOD DUP12 PUSH1 0x0 DUP1 MLOAD PUSH1 0x20 PUSH2 0x415F DUP4 CODECOPY DUP2 MLOAD SWAP2 MSTORE DUP8 MULMOD ADD ADD PUSH32 0x21576B438E500449A151E4EEAF17B154285C68F42D42C1808A11ABF3764C0750 ADD SWAP1 POP DUP10 DUP9 DUP4 MULMOD DUP11 PUSH1 0x0 DUP1 MLOAD PUSH1 0x20 PUSH2 0x417F DUP4 CODECOPY DUP2 MLOAD SWAP2 MSTORE DUP6 MULMOD DUP12 PUSH1 0x0 DUP1 MLOAD PUSH1 0x20 PUSH2 0x40DF DUP4 CODECOPY DUP2 MLOAD SWAP2 MSTORE DUP8 MULMOD ADD ADD PUSH32 0x2F17C0559B8FE79608AD5CA193D62F10BCE8384C815F0906743D6930836D4A9E ADD SWAP6 POP DUP10 DUP8 DUP4 MULMOD DUP11 PUSH1 0x0 DUP1 MLOAD PUSH1 0x20 PUSH2 0x40FF DUP4 CODECOPY DUP2 MLOAD SWAP2 MSTORE DUP6 MULMOD DUP12 PUSH1 0x0 DUP1 MLOAD PUSH1 0x20 PUSH2 0x413F DUP4 CODECOPY DUP2 MLOAD SWAP2 MSTORE DUP8 MULMOD ADD ADD PUSH32 0x2D477E3862D07708A79E8AAE946170BC9775A4201318474AE665B0B1B7E2730E ADD SWAP5 POP DUP10 DUP2 DUP3 MULMOD SWAP4 POP DUP10 DUP2 DUP12 DUP7 DUP8 MULMOD MULMOD SWAP1 POP DUP10 DUP10 DUP7 MULMOD DUP11 PUSH1 0x0 DUP1 MLOAD PUSH1 0x20 PUSH2 0x411F DUP4 CODECOPY DUP2 MLOAD SWAP2 MSTORE DUP9 MULMOD DUP12 PUSH1 0x0 DUP1 MLOAD PUSH1 0x20 PUSH2 0x415F DUP4 CODECOPY DUP2 MLOAD SWAP2 MSTORE DUP5 MULMOD ADD ADD PUSH32 0x162F5243967064C390E095577984F291AFBA2266C38F5ABCD89BE0F5B2747EAB ADD SWAP4 POP DUP10 DUP9 DUP7 MULMOD DUP11 PUSH1 0x0 DUP1 MLOAD PUSH1 0x20 PUSH2 0x417F DUP4 CODECOPY DUP2 MLOAD SWAP2 MSTORE DUP9 MULMOD DUP12 PUSH1 0x0 DUP1 MLOAD PUSH1 0x20 PUSH2 0x40DF DUP4 CODECOPY DUP2 MLOAD SWAP2 MSTORE DUP5 MULMOD ADD ADD PUSH32 0x2B4CB233EDE9BA48264ECD2C8AE50D1AD7A8596A87F29F8A7777A70092393311 ADD SWAP3 POP DUP10 DUP8 DUP7 MULMOD DUP11 PUSH1 0x0 DUP1 MLOAD PUSH1 0x20 PUSH2 0x40FF DUP4 CODECOPY DUP2 MLOAD SWAP2 MSTORE DUP9 MULMOD DUP12 PUSH1 0x0 DUP1 MLOAD PUSH1 0x20 PUSH2 0x413F DUP4 CODECOPY DUP2 MLOAD SWAP2 MSTORE DUP5 MULMOD ADD ADD PUSH32 0x2C8FBCB2DD8573DC1DBAF8F4622854776DB2EECE6D85C4CF4254E7C35E03B07A ADD SWAP2 POP DUP10 DUP5 DUP6 MULMOD SWAP1 POP DUP10 DUP5 DUP12 DUP4 DUP5 MULMOD MULMOD SWAP4 POP DUP10 DUP10 DUP4 MULMOD DUP11 PUSH1 0x0 DUP1 MLOAD PUSH1 0x20 PUSH2 0x411F DUP4 CODECOPY DUP2 MLOAD SWAP2 MSTORE DUP6 MULMOD DUP12 PUSH1 0x0 DUP1 MLOAD PUSH1 0x20 PUSH2 0x415F DUP4 CODECOPY DUP2 MLOAD SWAP2 MSTORE DUP8 MULMOD ADD ADD PUSH32 0x1D6F347725E4816AF2FF453F0CD56B199E1B61E9F601E9ADE5E88DB870949DA9 ADD SWAP1 POP DUP10 DUP9 DUP4 MULMOD DUP11 PUSH1 0x0 DUP1 MLOAD PUSH1 0x20 PUSH2 0x417F DUP4 CODECOPY DUP2 MLOAD SWAP2 MSTORE DUP6 MULMOD DUP12 PUSH1 0x0 DUP1 MLOAD PUSH1 0x20 PUSH2 0x40DF DUP4 CODECOPY DUP2 MLOAD SWAP2 MSTORE DUP8 MULMOD ADD ADD PUSH32 0x204B0C397F4EBE71EBC2D8B3DF5B913DF9E6AC02B68D31324CD49AF5C4565529 ADD SWAP6 POP DUP10 DUP8 DUP4 MULMOD DUP11 PUSH1 0x0 DUP1 MLOAD PUSH1 0x20 PUSH2 0x40FF DUP4 CODECOPY DUP2 MLOAD SWAP2 MSTORE DUP6 MULMOD DUP12 PUSH1 0x0 DUP1 MLOAD PUSH1 0x20 PUSH2 0x413F DUP4 CODECOPY DUP2 MLOAD SWAP2 MSTORE DUP8 MULMOD ADD ADD PUSH32 0xC4CB9DC3C4FD8174F1149B3C63C3C2F9ECB827CD7DC25534FF8FB75BC79C502 ADD SWAP5 POP DUP10 DUP2 DUP3 MULMOD SWAP4 POP DUP10 DUP2 DUP12 DUP7 DUP8 MULMOD MULMOD SWAP1 POP DUP10 DUP10 DUP7 MULMOD DUP11 PUSH1 0x0 DUP1 MLOAD PUSH1 0x20 PUSH2 0x411F DUP4 CODECOPY DUP2 MLOAD SWAP2 MSTORE DUP9 MULMOD DUP12 PUSH1 0x0 DUP1 MLOAD PUSH1 0x20 PUSH2 0x415F DUP4 CODECOPY DUP2 MLOAD SWAP2 MSTORE DUP5 MULMOD ADD ADD PUSH32 0x174AD61A1448C899A25416474F4930301E5C49475279E0639A616DDC45BC7B54 ADD SWAP4 POP DUP10 DUP9 DUP7 MULMOD DUP11 PUSH1 0x0 DUP1 MLOAD PUSH1 0x20 PUSH2 0x417F DUP4 CODECOPY DUP2 MLOAD SWAP2 MSTORE DUP9 MULMOD DUP12 PUSH1 0x0 DUP1 MLOAD PUSH1 0x20 PUSH2 0x40DF DUP4 CODECOPY DUP2 MLOAD SWAP2 MSTORE DUP5 MULMOD ADD ADD PUSH32 0x1A96177BCF4D8D89F759DF4EC2F3CDE2EAAA28C177CC0FA13A9816D49A38D2EF ADD SWAP3 POP DUP10 DUP8 DUP7 MULMOD DUP11 PUSH1 0x0 DUP1 MLOAD PUSH1 0x20 PUSH2 0x40FF DUP4 CODECOPY DUP2 MLOAD SWAP2 MSTORE DUP9 MULMOD DUP12 PUSH1 0x0 DUP1 MLOAD PUSH1 0x20 PUSH2 0x413F DUP4 CODECOPY DUP2 MLOAD SWAP2 MSTORE DUP5 MULMOD ADD ADD PUSH32 0x66D04B24331D71CD0EF8054BC60C4FF05202C126A233C1A8242ACE360B8A30A ADD SWAP2 POP DUP10 DUP5 DUP6 MULMOD SWAP1 POP DUP10 DUP5 DUP12 DUP4 DUP5 MULMOD MULMOD SWAP4 POP DUP10 DUP10 DUP4 MULMOD DUP11 PUSH1 0x0 DUP1 MLOAD PUSH1 0x20 PUSH2 0x411F DUP4 CODECOPY DUP2 MLOAD SWAP2 MSTORE DUP6 MULMOD DUP12 PUSH1 0x0 DUP1 MLOAD PUSH1 0x20 PUSH2 0x415F DUP4 CODECOPY DUP2 MLOAD SWAP2 MSTORE DUP8 MULMOD ADD ADD PUSH32 0x2A4C4FC6EC0B0CF52195782871C6DD3B381CC65F72E02AD527037A62AA1BD804 ADD SWAP1 POP DUP10 DUP9 DUP4 MULMOD DUP11 PUSH1 0x0 DUP1 MLOAD PUSH1 0x20 PUSH2 0x417F DUP4 CODECOPY DUP2 MLOAD SWAP2 MSTORE DUP6 MULMOD DUP12 PUSH1 0x0 DUP1 MLOAD PUSH1 0x20 PUSH2 0x40DF DUP4 CODECOPY DUP2 MLOAD SWAP2 MSTORE DUP8 MULMOD ADD ADD PUSH32 0x13AB2D136CCF37D447E9F2E14A7CEDC95E727F8446F6D9D7E55AFC01219FD649 ADD SWAP6 POP DUP10 DUP8 DUP4 MULMOD DUP11 PUSH1 0x0 DUP1 MLOAD PUSH1 0x20 PUSH2 0x40FF DUP4 CODECOPY DUP2 MLOAD SWAP2 MSTORE DUP6 MULMOD DUP12 PUSH1 0x0 DUP1 MLOAD PUSH1 0x20 PUSH2 0x413F DUP4 CODECOPY DUP2 MLOAD SWAP2 MSTORE DUP8 MULMOD ADD ADD PUSH32 0x1121552FCA26061619D24D843DC82769C1B04FCEC26F55194C2E3E869ACC6A9A ADD SWAP5 POP DUP10 DUP2 DUP3 MULMOD SWAP4 POP DUP10 DUP2 DUP12 DUP7 DUP8 MULMOD MULMOD SWAP1 POP DUP10 DUP10 DUP7 MULMOD DUP11 PUSH1 0x0 DUP1 MLOAD PUSH1 0x20 PUSH2 0x411F DUP4 CODECOPY DUP2 MLOAD SWAP2 MSTORE DUP9 MULMOD DUP12 PUSH1 0x0 DUP1 MLOAD PUSH1 0x20 PUSH2 0x415F DUP4 CODECOPY DUP2 MLOAD SWAP2 MSTORE DUP5 MULMOD ADD ADD PUSH31 0xEF653322B13D6C889BC81715C37D77A6CD267D595C4A8909A5546C7C97CFF1 ADD SWAP4 POP DUP10 DUP9 DUP7 MULMOD DUP11 PUSH1 0x0 DUP1 MLOAD PUSH1 0x20 PUSH2 0x417F DUP4 CODECOPY DUP2 MLOAD SWAP2 MSTORE DUP9 MULMOD DUP12 PUSH1 0x0 DUP1 MLOAD PUSH1 0x20 PUSH2 0x40DF DUP4 CODECOPY DUP2 MLOAD SWAP2 MSTORE DUP5 MULMOD ADD ADD PUSH32 0xE25483E45A665208B261D8BA74051E6400C776D652595D9845ACA35D8A397D3 ADD SWAP3 POP DUP10 DUP8 DUP7 MULMOD DUP11 PUSH1 0x0 DUP1 MLOAD PUSH1 0x20 PUSH2 0x40FF DUP4 CODECOPY DUP2 MLOAD SWAP2 MSTORE DUP9 MULMOD DUP12 PUSH1 0x0 DUP1 MLOAD PUSH1 0x20 PUSH2 0x413F DUP4 CODECOPY DUP2 MLOAD SWAP2 MSTORE DUP5 MULMOD ADD ADD PUSH32 0x29F536DCB9DD7682245264659E15D88E395AC3D4DDE92D8C46448DB979EEBA89 ADD SWAP2 POP DUP10 DUP5 DUP6 MULMOD SWAP1 POP DUP10 DUP5 DUP12 DUP4 DUP5 MULMOD MULMOD SWAP4 POP DUP10 DUP10 DUP4 MULMOD DUP11 PUSH1 0x0 DUP1 MLOAD PUSH1 0x20 PUSH2 0x411F DUP4 CODECOPY DUP2 MLOAD SWAP2 MSTORE DUP6 MULMOD DUP12 PUSH1 0x0 DUP1 MLOAD PUSH1 0x20 PUSH2 0x415F DUP4 CODECOPY DUP2 MLOAD SWAP2 MSTORE DUP8 MULMOD ADD ADD PUSH32 0x2A56EF9F2C53FEBADFDA33575DBDBD885A124E2780BBEA170E456BAACE0FA5BE ADD SWAP1 POP DUP10 DUP9 DUP4 MULMOD DUP11 PUSH1 0x0 DUP1 MLOAD PUSH1 0x20 PUSH2 0x417F DUP4 CODECOPY DUP2 MLOAD SWAP2 MSTORE DUP6 MULMOD DUP12 PUSH1 0x0 DUP1 MLOAD PUSH1 0x20 PUSH2 0x40DF DUP4 CODECOPY DUP2 MLOAD SWAP2 MSTORE DUP8 MULMOD ADD ADD PUSH32 0x1C8361C78EB5CF5DECFB7A2D17B5C409F2AE2999A46762E8EE416240A8CB9AF1 ADD SWAP6 POP DUP10 DUP8 DUP4 MULMOD DUP11 PUSH1 0x0 DUP1 MLOAD PUSH1 0x20 PUSH2 0x40FF DUP4 CODECOPY DUP2 MLOAD SWAP2 MSTORE DUP6 MULMOD DUP12 PUSH1 0x0 DUP1 MLOAD PUSH1 0x20 PUSH2 0x413F DUP4 CODECOPY DUP2 MLOAD SWAP2 MSTORE DUP8 MULMOD ADD ADD PUSH32 0x151AFF5F38B20A0FC0473089AAF0206B83E8E68A764507BFD3D0AB4BE74319C5 ADD SWAP5 POP DUP10 DUP2 DUP3 MULMOD SWAP4 POP DUP10 DUP2 DUP12 DUP7 DUP8 MULMOD MULMOD SWAP1 POP DUP10 DUP10 DUP7 MULMOD DUP11 PUSH1 0x0 DUP1 MLOAD PUSH1 0x20 PUSH2 0x411F DUP4 CODECOPY DUP2 MLOAD SWAP2 MSTORE DUP9 MULMOD DUP12 PUSH1 0x0 DUP1 MLOAD PUSH1 0x20 PUSH2 0x415F DUP4 CODECOPY DUP2 MLOAD SWAP2 MSTORE DUP5 MULMOD ADD ADD PUSH32 0x4C6187E41ED881DC1B239C88F7F9D43A9F52FC8C8B6CDD1E76E47615B51F100 ADD SWAP4 POP DUP10 DUP9 DUP7 MULMOD DUP11 PUSH1 0x0 DUP1 MLOAD PUSH1 0x20 PUSH2 0x417F DUP4 CODECOPY DUP2 MLOAD SWAP2 MSTORE DUP9 MULMOD DUP12 PUSH1 0x0 DUP1 MLOAD PUSH1 0x20 PUSH2 0x40DF DUP4 CODECOPY DUP2 MLOAD SWAP2 MSTORE DUP5 MULMOD ADD ADD PUSH32 0x13B37BD80F4D27FB10D84331F6FB6D534B81C61ED15776449E801B7DDC9C2967 ADD SWAP3 POP DUP10 DUP8 DUP7 MULMOD DUP11 PUSH1 0x0 DUP1 MLOAD PUSH1 0x20 PUSH2 0x40FF DUP4 CODECOPY DUP2 MLOAD SWAP2 MSTORE DUP9 MULMOD DUP12 PUSH1 0x0 DUP1 MLOAD PUSH1 0x20 PUSH2 0x413F DUP4 CODECOPY DUP2 MLOAD SWAP2 MSTORE DUP5 MULMOD ADD ADD PUSH32 0x1A5C536273C2D9DF578BFBD32C17B7A2CE3664C2A52032C9321CEB1C4E8A8E4 ADD SWAP2 POP DUP10 DUP5 DUP6 MULMOD SWAP1 POP DUP10 DUP5 DUP12 DUP4 DUP5 MULMOD MULMOD SWAP4 POP DUP10 DUP10 DUP4 MULMOD DUP11 PUSH1 0x0 DUP1 MLOAD PUSH1 0x20 PUSH2 0x411F DUP4 CODECOPY DUP2 MLOAD SWAP2 MSTORE DUP6 MULMOD DUP12 PUSH1 0x0 DUP1 MLOAD PUSH1 0x20 PUSH2 0x415F DUP4 CODECOPY DUP2 MLOAD SWAP2 MSTORE DUP8 MULMOD ADD ADD PUSH32 0x2AB3561834CA73835AD05F5D7ACB950B4A9A2C666B9726DA832239065B7C3B02 ADD SWAP1 POP DUP10 DUP9 DUP4 MULMOD DUP11 PUSH1 0x0 DUP1 MLOAD PUSH1 0x20 PUSH2 0x417F DUP4 CODECOPY DUP2 MLOAD SWAP2 MSTORE DUP6 MULMOD DUP12 PUSH1 0x0 DUP1 MLOAD PUSH1 0x20 PUSH2 0x40DF DUP4 CODECOPY DUP2 MLOAD SWAP2 MSTORE DUP8 MULMOD ADD ADD PUSH32 0x1D4D8EC291E720DB200FE6D686C0D613ACAF6AF4E95D3BF69F7ED516A597B646 ADD SWAP6 POP DUP10 DUP8 DUP4 MULMOD DUP11 PUSH1 0x0 DUP1 MLOAD PUSH1 0x20 PUSH2 0x40FF DUP4 CODECOPY DUP2 MLOAD SWAP2 MSTORE DUP6 MULMOD DUP12 PUSH1 0x0 DUP1 MLOAD PUSH1 0x20 PUSH2 0x413F DUP4 CODECOPY DUP2 MLOAD SWAP2 MSTORE DUP8 MULMOD ADD ADD PUSH32 0x41294D2CC484D228F5784FE7919FD2BB925351240A04B711514C9C80B65AF1D ADD SWAP5 POP DUP10 DUP2 DUP3 MULMOD SWAP4 POP DUP10 DUP2 DUP12 DUP7 DUP8 MULMOD MULMOD SWAP1 POP DUP10 DUP10 DUP7 MULMOD DUP11 PUSH1 0x0 DUP1 MLOAD PUSH1 0x20 PUSH2 0x411F DUP4 CODECOPY DUP2 MLOAD SWAP2 MSTORE DUP9 MULMOD DUP12 PUSH1 0x0 DUP1 MLOAD PUSH1 0x20 PUSH2 0x415F DUP4 CODECOPY DUP2 MLOAD SWAP2 MSTORE DUP5 MULMOD ADD ADD PUSH32 0x154AC98E01708C611C4FA715991F004898F57939D126E392042971DD90E81FC6 ADD SWAP4 POP DUP10 DUP9 DUP7 MULMOD DUP11 PUSH1 0x0 DUP1 MLOAD PUSH1 0x20 PUSH2 0x417F DUP4 CODECOPY DUP2 MLOAD SWAP2 MSTORE DUP9 MULMOD DUP12 PUSH1 0x0 DUP1 MLOAD PUSH1 0x20 PUSH2 0x40DF DUP4 CODECOPY DUP2 MLOAD SWAP2 MSTORE DUP5 MULMOD ADD ADD PUSH32 0xB339D8ACCA7D4F83EEDD84093AEF51050B3684C88F8B0B04524563BC6EA4DA4 ADD SWAP3 POP DUP10 DUP8 DUP7 MULMOD DUP11 PUSH1 0x0 DUP1 MLOAD PUSH1 0x20 PUSH2 0x40FF DUP4 CODECOPY DUP2 MLOAD SWAP2 MSTORE DUP9 MULMOD DUP12 PUSH1 0x0 DUP1 MLOAD PUSH1 0x20 PUSH2 0x413F DUP4 CODECOPY DUP2 MLOAD SWAP2 MSTORE DUP5 MULMOD ADD ADD PUSH32 0x955E49E6610C94254A4F84CFBAB344598F0E71EAFF4A7DD81ED95B50839C82E ADD SWAP2 POP DUP10 DUP5 DUP6 MULMOD SWAP1 POP DUP10 DUP5 DUP12 DUP4 DUP5 MULMOD MULMOD SWAP4 POP DUP10 DUP10 DUP4 MULMOD DUP11 PUSH1 0x0 DUP1 MLOAD PUSH1 0x20 PUSH2 0x411F DUP4 CODECOPY DUP2 MLOAD SWAP2 MSTORE DUP6 MULMOD DUP12 PUSH1 0x0 DUP1 MLOAD PUSH1 0x20 PUSH2 0x415F DUP4 CODECOPY DUP2 MLOAD SWAP2 MSTORE DUP8 MULMOD ADD ADD PUSH32 0x6746A6156EBA54426B9E22206F15ABCA9A6F41E6F535C6F3525401EA0654626 ADD SWAP1 POP DUP10 DUP9 DUP4 MULMOD DUP11 PUSH1 0x0 DUP1 MLOAD PUSH1 0x20 PUSH2 0x417F DUP4 CODECOPY DUP2 MLOAD SWAP2 MSTORE DUP6 MULMOD DUP12 PUSH1 0x0 DUP1 MLOAD PUSH1 0x20 PUSH2 0x40DF DUP4 CODECOPY DUP2 MLOAD SWAP2 MSTORE DUP8 MULMOD ADD ADD PUSH32 0xF18F5A0ECD1423C496F3820C549C27838E5790E2BD0A196AC917C7FF32077FB ADD SWAP6 POP DUP10 DUP8 DUP4 MULMOD DUP11 PUSH1 0x0 DUP1 MLOAD PUSH1 0x20 PUSH2 0x40FF DUP4 CODECOPY DUP2 MLOAD SWAP2 MSTORE DUP6 MULMOD DUP12 PUSH1 0x0 DUP1 MLOAD PUSH1 0x20 PUSH2 0x413F DUP4 CODECOPY DUP2 MLOAD SWAP2 MSTORE DUP8 MULMOD ADD ADD PUSH32 0x4F6EECA1751F7308AC59EFF5BEB261E4BB563583EDE7BC92A738223D6F76E13 ADD SWAP5 POP DUP10 DUP2 DUP3 MULMOD SWAP4 POP DUP10 DUP2 DUP12 DUP7 DUP8 MULMOD MULMOD SWAP1 POP DUP10 DUP10 DUP7 MULMOD DUP11 PUSH1 0x0 DUP1 MLOAD PUSH1 0x20 PUSH2 0x411F DUP4 CODECOPY DUP2 MLOAD SWAP2 MSTORE DUP9 MULMOD DUP12 PUSH1 0x0 DUP1 MLOAD PUSH1 0x20 PUSH2 0x415F DUP4 CODECOPY DUP2 MLOAD SWAP2 MSTORE DUP5 MULMOD ADD ADD PUSH32 0x2B56973364C4C4F5C1A3EC4DA3CDCE038811EB116FB3E45BC1768D26FC0B3758 ADD SWAP4 POP DUP10 DUP9 DUP7 MULMOD DUP11 PUSH1 0x0 DUP1 MLOAD PUSH1 0x20 PUSH2 0x417F DUP4 CODECOPY DUP2 MLOAD SWAP2 MSTORE DUP9 MULMOD DUP12 PUSH1 0x0 DUP1 MLOAD PUSH1 0x20 PUSH2 0x40DF DUP4 CODECOPY DUP2 MLOAD SWAP2 MSTORE DUP5 MULMOD ADD ADD PUSH32 0x123769DD49D5B054DCD76B89804B1BCB8E1392B385716A5D83FEB65D437F29EF ADD SWAP3 POP DUP10 DUP8 DUP7 MULMOD DUP11 PUSH1 0x0 DUP1 MLOAD PUSH1 0x20 PUSH2 0x40FF DUP4 CODECOPY DUP2 MLOAD SWAP2 MSTORE DUP9 MULMOD DUP12 PUSH1 0x0 DUP1 MLOAD PUSH1 0x20 PUSH2 0x413F DUP4 CODECOPY DUP2 MLOAD SWAP2 MSTORE DUP5 MULMOD ADD ADD PUSH32 0x2147B424FC48C80A88EE52B91169AACEA989F6446471150994257B2FB01C63E9 ADD SWAP2 POP DUP10 DUP5 DUP6 MULMOD SWAP1 POP DUP10 DUP5 DUP12 DUP4 DUP5 MULMOD MULMOD SWAP4 POP DUP10 DUP10 DUP4 MULMOD DUP11 PUSH1 0x0 DUP1 MLOAD PUSH1 0x20 PUSH2 0x411F DUP4 CODECOPY DUP2 MLOAD SWAP2 MSTORE DUP6 MULMOD DUP12 PUSH1 0x0 DUP1 MLOAD PUSH1 0x20 PUSH2 0x415F DUP4 CODECOPY DUP2 MLOAD SWAP2 MSTORE DUP8 MULMOD ADD ADD PUSH32 0xFDC1F58548B85701A6C5505EA332A29647E6F34AD4243C2EA54AD897CEBE54D ADD SWAP1 POP DUP10 DUP9 DUP4 MULMOD DUP11 PUSH1 0x0 DUP1 MLOAD PUSH1 0x20 PUSH2 0x417F DUP4 CODECOPY DUP2 MLOAD SWAP2 MSTORE DUP6 MULMOD DUP12 PUSH1 0x0 DUP1 MLOAD PUSH1 0x20 PUSH2 0x40DF DUP4 CODECOPY DUP2 MLOAD SWAP2 MSTORE DUP8 MULMOD ADD ADD PUSH32 0x12373A8251FEA004DF68ABCF0F7786D4BCEFF28C5DBBE0C3944F685CC0A0B1F2 ADD SWAP6 POP DUP10 DUP8 DUP4 MULMOD DUP11 PUSH1 0x0 DUP1 MLOAD PUSH1 0x20 PUSH2 0x40FF DUP4 CODECOPY DUP2 MLOAD SWAP2 MSTORE DUP6 MULMOD DUP12 PUSH1 0x0 DUP1 MLOAD PUSH1 0x20 PUSH2 0x413F DUP4 CODECOPY DUP2 MLOAD SWAP2 MSTORE DUP8 MULMOD ADD ADD PUSH32 0x21E4F4EA5F35F85BAD7EA52FF742C9E8A642756B6AF44203DD8A1F35C1A90035 ADD SWAP5 POP DUP10 DUP2 DUP3 MULMOD SWAP4 POP DUP10 DUP2 DUP12 DUP7 DUP8 MULMOD MULMOD SWAP1 POP DUP10 DUP10 DUP7 MULMOD DUP11 PUSH1 0x0 DUP1 MLOAD PUSH1 0x20 PUSH2 0x411F DUP4 CODECOPY DUP2 MLOAD SWAP2 MSTORE DUP9 MULMOD DUP12 PUSH1 0x0 DUP1 MLOAD PUSH1 0x20 PUSH2 0x415F DUP4 CODECOPY DUP2 MLOAD SWAP2 MSTORE DUP5 MULMOD ADD ADD PUSH32 0x16243916D69D2CA3DFB4722224D4C462B57366492F45E90D8A81934F1BC3B147 ADD SWAP4 POP DUP10 DUP9 DUP7 MULMOD DUP11 PUSH1 0x0 DUP1 MLOAD PUSH1 0x20 PUSH2 0x417F DUP4 CODECOPY DUP2 MLOAD SWAP2 MSTORE DUP9 MULMOD DUP12 PUSH1 0x0 DUP1 MLOAD PUSH1 0x20 PUSH2 0x40DF DUP4 CODECOPY DUP2 MLOAD SWAP2 MSTORE DUP5 MULMOD ADD ADD PUSH32 0x1EFBE46DD7A578B4F66F9ADBC88B4378ABC21566E1A0453CA13A4159CAC04AC2 ADD SWAP3 POP DUP10 DUP8 DUP7 MULMOD DUP11 PUSH1 0x0 DUP1 MLOAD PUSH1 0x20 PUSH2 0x40FF DUP4 CODECOPY DUP2 MLOAD SWAP2 MSTORE DUP9 MULMOD DUP12 PUSH1 0x0 DUP1 MLOAD PUSH1 0x20 PUSH2 0x413F DUP4 CODECOPY DUP2 MLOAD SWAP2 MSTORE DUP5 MULMOD ADD ADD PUSH32 0x7EA5E8537CF5DD08886020E23A7F387D468D5525BE66F853B672CC96A88969A ADD SWAP2 POP DUP10 DUP5 DUP6 MULMOD SWAP1 POP DUP10 DUP5 DUP12 DUP4 DUP5 MULMOD MULMOD SWAP4 POP DUP10 DUP10 DUP4 MULMOD DUP11 PUSH1 0x0 DUP1 MLOAD PUSH1 0x20 PUSH2 0x411F DUP4 CODECOPY DUP2 MLOAD SWAP2 MSTORE DUP6 MULMOD DUP12 PUSH1 0x0 DUP1 MLOAD PUSH1 0x20 PUSH2 0x415F DUP4 CODECOPY DUP2 MLOAD SWAP2 MSTORE DUP8 MULMOD ADD ADD PUSH32 0x5A8C4F9968B8AA3B7B478A30F9A5B63650F19A75E7CE11CA9FE16C0B76C00BC ADD SWAP1 POP DUP10 DUP9 DUP4 MULMOD DUP11 PUSH1 0x0 DUP1 MLOAD PUSH1 0x20 PUSH2 0x417F DUP4 CODECOPY DUP2 MLOAD SWAP2 MSTORE DUP6 MULMOD DUP12 PUSH1 0x0 DUP1 MLOAD PUSH1 0x20 PUSH2 0x40DF DUP4 CODECOPY DUP2 MLOAD SWAP2 MSTORE DUP8 MULMOD ADD ADD PUSH32 0x20F057712CC21654FBFE59BD345E8DAC3F7818C701B9C7882D9D57B72A32E83F ADD SWAP6 POP DUP10 DUP8 DUP4 MULMOD DUP11 PUSH1 0x0 DUP1 MLOAD PUSH1 0x20 PUSH2 0x40FF DUP4 CODECOPY DUP2 MLOAD SWAP2 MSTORE DUP6 MULMOD DUP12 PUSH1 0x0 DUP1 MLOAD PUSH1 0x20 PUSH2 0x413F DUP4 CODECOPY DUP2 MLOAD SWAP2 MSTORE DUP8 MULMOD ADD ADD PUSH32 0x4A12EDEDA9DFD689672F8C67FEE31636DCD8E88D01D49019BD90B33EB33DB69 ADD SWAP5 POP DUP10 DUP2 DUP3 MULMOD SWAP4 POP DUP10 DUP2 DUP12 DUP7 DUP8 MULMOD MULMOD SWAP1 POP DUP10 DUP10 DUP7 MULMOD DUP11 PUSH1 0x0 DUP1 MLOAD PUSH1 0x20 PUSH2 0x411F DUP4 CODECOPY DUP2 MLOAD SWAP2 MSTORE DUP9 MULMOD DUP12 PUSH1 0x0 DUP1 MLOAD PUSH1 0x20 PUSH2 0x415F DUP4 CODECOPY DUP2 MLOAD SWAP2 MSTORE DUP5 MULMOD ADD ADD PUSH32 0x27E88D8C15F37DCEE44F1E5425A51DECBD136CE5091A6767E49EC9544CCD101A ADD SWAP4 POP DUP10 DUP9 DUP7 MULMOD DUP11 PUSH1 0x0 DUP1 MLOAD PUSH1 0x20 PUSH2 0x417F DUP4 CODECOPY DUP2 MLOAD SWAP2 MSTORE DUP9 MULMOD DUP12 PUSH1 0x0 DUP1 MLOAD PUSH1 0x20 PUSH2 0x40DF DUP4 CODECOPY DUP2 MLOAD SWAP2 MSTORE DUP5 MULMOD ADD ADD PUSH32 0x2FEED17B84285ED9B8A5C8C5E95A41F66E096619A7703223176C41EE433DE4D1 ADD SWAP3 POP DUP10 DUP8 DUP7 MULMOD DUP11 PUSH1 0x0 DUP1 MLOAD PUSH1 0x20 PUSH2 0x40FF DUP4 CODECOPY DUP2 MLOAD SWAP2 MSTORE DUP9 MULMOD DUP12 PUSH1 0x0 DUP1 MLOAD PUSH1 0x20 PUSH2 0x413F DUP4 CODECOPY DUP2 MLOAD SWAP2 MSTORE DUP5 MULMOD ADD ADD PUSH32 0x1ED7CC76EDF45C7C404241420F729CF394E5942911312A0D6972B8BD53AFF2B8 ADD SWAP2 POP DUP10 DUP5 DUP6 MULMOD SWAP1 POP DUP10 DUP5 DUP12 DUP4 DUP5 MULMOD MULMOD SWAP4 POP DUP10 DUP10 DUP4 MULMOD DUP11 PUSH1 0x0 DUP1 MLOAD PUSH1 0x20 PUSH2 0x411F DUP4 CODECOPY DUP2 MLOAD SWAP2 MSTORE DUP6 MULMOD DUP12 PUSH1 0x0 DUP1 MLOAD PUSH1 0x20 PUSH2 0x415F DUP4 CODECOPY DUP2 MLOAD SWAP2 MSTORE DUP8 MULMOD ADD ADD PUSH32 0x15742E99B9BFA323157FF8C586F5660EAC6783476144CDCADF2874BE45466B1A ADD SWAP1 POP DUP10 DUP9 DUP4 MULMOD DUP11 PUSH1 0x0 DUP1 MLOAD PUSH1 0x20 PUSH2 0x417F DUP4 CODECOPY DUP2 MLOAD SWAP2 MSTORE DUP6 MULMOD DUP12 PUSH1 0x0 DUP1 MLOAD PUSH1 0x20 PUSH2 0x40DF DUP4 CODECOPY DUP2 MLOAD SWAP2 MSTORE DUP8 MULMOD ADD ADD PUSH32 0x1AAC285387F65E82C895FC6887DDF40577107454C6EC0317284F033F27D0C785 ADD SWAP6 POP DUP10 DUP8 DUP4 MULMOD DUP11 PUSH1 0x0 DUP1 MLOAD PUSH1 0x20 PUSH2 0x40FF DUP4 CODECOPY DUP2 MLOAD SWAP2 MSTORE DUP6 MULMOD DUP12 PUSH1 0x0 DUP1 MLOAD PUSH1 0x20 PUSH2 0x413F DUP4 CODECOPY DUP2 MLOAD SWAP2 MSTORE DUP8 MULMOD ADD ADD PUSH32 0x25851C3C845D4790F9DDADBDB6057357832E2E7A49775F71EC75A96554D67C77 ADD SWAP5 POP DUP10 DUP2 DUP3 MULMOD SWAP4 POP DUP10 DUP2 DUP12 DUP7 DUP8 MULMOD MULMOD SWAP1 POP DUP10 DUP10 DUP7 MULMOD DUP11 PUSH1 0x0 DUP1 MLOAD PUSH1 0x20 PUSH2 0x411F DUP4 CODECOPY DUP2 MLOAD SWAP2 MSTORE DUP9 MULMOD DUP12 PUSH1 0x0 DUP1 MLOAD PUSH1 0x20 PUSH2 0x415F DUP4 CODECOPY DUP2 MLOAD SWAP2 MSTORE DUP5 MULMOD ADD ADD PUSH32 0x15A5821565CC2EC2CE78457DB197EDF353B7EBBA2C5523370DDCCC3D9F146A67 ADD SWAP4 POP DUP10 DUP9 DUP7 MULMOD DUP11 PUSH1 0x0 DUP1 MLOAD PUSH1 0x20 PUSH2 0x417F DUP4 CODECOPY DUP2 MLOAD SWAP2 MSTORE DUP9 MULMOD DUP12 PUSH1 0x0 DUP1 MLOAD PUSH1 0x20 PUSH2 0x40DF DUP4 CODECOPY DUP2 MLOAD SWAP2 MSTORE DUP5 MULMOD ADD ADD PUSH32 0x2411D57A4813B9980EFA7E31A1DB5966DCF64F36044277502F15485F28C71727 ADD SWAP3 POP DUP10 DUP8 DUP7 MULMOD DUP11 PUSH1 0x0 DUP1 MLOAD PUSH1 0x20 PUSH2 0x40FF DUP4 CODECOPY DUP2 MLOAD SWAP2 MSTORE DUP9 MULMOD DUP12 PUSH1 0x0 DUP1 MLOAD PUSH1 0x20 PUSH2 0x413F DUP4 CODECOPY DUP2 MLOAD SWAP2 MSTORE DUP5 MULMOD ADD ADD PUSH31 0x2E6F8D6520CD4713E335B8C0B6D2E647E9A98E12F4CD2558828B5EF6CB4C9B ADD SWAP2 POP DUP10 DUP5 DUP6 MULMOD SWAP1 POP DUP10 DUP5 DUP12 DUP4 DUP5 MULMOD MULMOD SWAP4 POP DUP10 DUP10 DUP4 MULMOD DUP11 PUSH1 0x0 DUP1 MLOAD PUSH1 0x20 PUSH2 0x411F DUP4 CODECOPY DUP2 MLOAD SWAP2 MSTORE DUP6 MULMOD DUP12 PUSH1 0x0 DUP1 MLOAD PUSH1 0x20 PUSH2 0x415F DUP4 CODECOPY DUP2 MLOAD SWAP2 MSTORE DUP8 MULMOD ADD ADD PUSH32 0x2FF7BC8F4380CDE997DA00B616B0FCD1AF8F0E91E2FE1ED7398834609E0315D2 ADD SWAP1 POP DUP10 DUP9 DUP4 MULMOD DUP11 PUSH1 0x0 DUP1 MLOAD PUSH1 0x20 PUSH2 0x417F DUP4 CODECOPY DUP2 MLOAD SWAP2 MSTORE DUP6 MULMOD DUP12 PUSH1 0x0 DUP1 MLOAD PUSH1 0x20 PUSH2 0x40DF DUP4 CODECOPY DUP2 MLOAD SWAP2 MSTORE DUP8 MULMOD ADD ADD PUSH31 0xB9831B948525595EE02724471BCD182E9521F6B7BB68F1E93BE4FEBB0D3CBE ADD SWAP6 POP DUP10 DUP8 DUP4 MULMOD DUP11 PUSH1 0x0 DUP1 MLOAD PUSH1 0x20 PUSH2 0x40FF DUP4 CODECOPY DUP2 MLOAD SWAP2 MSTORE DUP6 MULMOD DUP12 PUSH1 0x0 DUP1 MLOAD PUSH1 0x20 PUSH2 0x413F DUP4 CODECOPY DUP2 MLOAD SWAP2 MSTORE DUP8 MULMOD ADD ADD PUSH32 0xA2F53768B8EBF6A86913B0E57C04E011CA408648A4743A87D77ADBF0C9C3512 ADD SWAP5 POP DUP10 DUP2 DUP3 MULMOD SWAP4 POP DUP10 DUP2 DUP12 DUP7 DUP8 MULMOD MULMOD SWAP1 POP DUP10 DUP10 DUP7 MULMOD DUP11 PUSH1 0x0 DUP1 MLOAD PUSH1 0x20 PUSH2 0x411F DUP4 CODECOPY DUP2 MLOAD SWAP2 MSTORE DUP9 MULMOD DUP12 PUSH1 0x0 DUP1 MLOAD PUSH1 0x20 PUSH2 0x415F DUP4 CODECOPY DUP2 MLOAD SWAP2 MSTORE DUP5 MULMOD ADD ADD PUSH31 0x248156142FD0373A479F91FF239E960F599FF7E94BE69B7F2A290305E1198D ADD SWAP4 POP DUP10 DUP9 DUP7 MULMOD DUP11 PUSH1 0x0 DUP1 MLOAD PUSH1 0x20 PUSH2 0x417F DUP4 CODECOPY DUP2 MLOAD SWAP2 MSTORE DUP9 MULMOD DUP12 PUSH1 0x0 DUP1 MLOAD PUSH1 0x20 PUSH2 0x40DF DUP4 CODECOPY DUP2 MLOAD SWAP2 MSTORE DUP5 MULMOD ADD ADD PUSH32 0x171D5620B87BFB1328CF8C02AB3F0C9A397196AA6A542C2350EB512A2B2BCDA9 ADD SWAP3 POP DUP10 DUP8 DUP7 MULMOD DUP11 PUSH1 0x0 DUP1 MLOAD PUSH1 0x20 PUSH2 0x40FF DUP4 CODECOPY DUP2 MLOAD SWAP2 MSTORE DUP9 MULMOD DUP12 PUSH1 0x0 DUP1 MLOAD PUSH1 0x20 PUSH2 0x413F DUP4 CODECOPY DUP2 MLOAD SWAP2 MSTORE DUP5 MULMOD ADD ADD PUSH32 0x170A4F55536F7DC970087C7C10D6FAD760C952172DD54DD99D1045E4EC34A808 ADD SWAP2 POP DUP10 DUP5 DUP6 MULMOD SWAP1 POP DUP10 DUP5 DUP12 DUP4 DUP5 MULMOD MULMOD SWAP4 POP DUP10 DUP10 DUP4 MULMOD DUP11 PUSH1 0x0 DUP1 MLOAD PUSH1 0x20 PUSH2 0x411F DUP4 CODECOPY DUP2 MLOAD SWAP2 MSTORE DUP6 MULMOD DUP12 PUSH1 0x0 DUP1 MLOAD PUSH1 0x20 PUSH2 0x415F DUP4 CODECOPY DUP2 MLOAD SWAP2 MSTORE DUP8 MULMOD ADD ADD PUSH32 0x29ABA33F799FE66C2EF3134AEA04336ECC37E38C1CD211BA482ECA17E2DBFAE1 ADD SWAP1 POP DUP10 DUP9 DUP4 MULMOD DUP11 PUSH1 0x0 DUP1 MLOAD PUSH1 0x20 PUSH2 0x417F DUP4 CODECOPY DUP2 MLOAD SWAP2 MSTORE DUP6 MULMOD DUP12 PUSH1 0x0 DUP1 MLOAD PUSH1 0x20 PUSH2 0x40DF DUP4 CODECOPY DUP2 MLOAD SWAP2 MSTORE DUP8 MULMOD ADD ADD PUSH32 0x1E9BC179A4FDD758FDD1BB1945088D47E70D114A03F6A0E8B5BA650369E64973 ADD SWAP6 POP DUP10 DUP8 DUP4 MULMOD DUP11 PUSH1 0x0 DUP1 MLOAD PUSH1 0x20 PUSH2 0x40FF DUP4 CODECOPY DUP2 MLOAD SWAP2 MSTORE DUP6 MULMOD DUP12 PUSH1 0x0 DUP1 MLOAD PUSH1 0x20 PUSH2 0x413F DUP4 CODECOPY DUP2 MLOAD SWAP2 MSTORE DUP8 MULMOD ADD ADD PUSH32 0x1DD269799B660FAD58F7F4892DFB0B5AFEAAD869A9C4B44F9C9E1C43BDAF8F09 ADD SWAP5 POP DUP10 DUP2 DUP3 MULMOD SWAP4 POP DUP10 DUP2 DUP12 DUP7 DUP8 MULMOD MULMOD SWAP1 POP DUP10 DUP10 DUP7 MULMOD DUP11 PUSH1 0x0 DUP1 MLOAD PUSH1 0x20 PUSH2 0x411F DUP4 CODECOPY DUP2 MLOAD SWAP2 MSTORE DUP9 MULMOD DUP12 PUSH1 0x0 DUP1 MLOAD PUSH1 0x20 PUSH2 0x415F DUP4 CODECOPY DUP2 MLOAD SWAP2 MSTORE DUP5 MULMOD ADD ADD PUSH32 0x22CDBC8B70117AD1401181D02E15459E7CCD426FE869C7C95D1DD2CB0F24AF38 ADD SWAP4 POP DUP10 DUP9 DUP7 MULMOD DUP11 PUSH1 0x0 DUP1 MLOAD PUSH1 0x20 PUSH2 0x417F DUP4 CODECOPY DUP2 MLOAD SWAP2 MSTORE DUP9 MULMOD DUP12 PUSH1 0x0 DUP1 MLOAD PUSH1 0x20 PUSH2 0x40DF DUP4 CODECOPY DUP2 MLOAD SWAP2 MSTORE DUP5 MULMOD ADD ADD PUSH32 0xEF042E454771C533A9F57A55C503FCEFD3150F52ED94A7CD5BA93B9C7DACEFD ADD SWAP3 POP DUP10 DUP8 DUP7 MULMOD DUP11 PUSH1 0x0 DUP1 MLOAD PUSH1 0x20 PUSH2 0x40FF DUP4 CODECOPY DUP2 MLOAD SWAP2 MSTORE DUP9 MULMOD DUP12 PUSH1 0x0 DUP1 MLOAD PUSH1 0x20 PUSH2 0x413F DUP4 CODECOPY DUP2 MLOAD SWAP2 MSTORE DUP5 MULMOD ADD ADD PUSH32 0x11609E06AD6C8FE2F287F3036037E8851318E8B08A0359A03B304FFCA62E8284 ADD SWAP2 POP DUP10 DUP5 DUP6 MULMOD SWAP1 POP DUP10 DUP5 DUP12 DUP4 DUP5 MULMOD MULMOD SWAP4 POP DUP10 DUP10 DUP4 MULMOD DUP11 PUSH1 0x0 DUP1 MLOAD PUSH1 0x20 PUSH2 0x411F DUP4 CODECOPY DUP2 MLOAD SWAP2 MSTORE DUP6 MULMOD DUP12 PUSH1 0x0 DUP1 MLOAD PUSH1 0x20 PUSH2 0x415F DUP4 CODECOPY DUP2 MLOAD SWAP2 MSTORE DUP8 MULMOD ADD ADD PUSH32 0x1166D9E554616DBA9E753EEA427C17B7FECD58C076DFE42708B08F5B783AA9AF ADD SWAP1 POP DUP10 DUP9 DUP4 MULMOD DUP11 PUSH1 0x0 DUP1 MLOAD PUSH1 0x20 PUSH2 0x417F DUP4 CODECOPY DUP2 MLOAD SWAP2 MSTORE DUP6 MULMOD DUP12 PUSH1 0x0 DUP1 MLOAD PUSH1 0x20 PUSH2 0x40DF DUP4 CODECOPY DUP2 MLOAD SWAP2 MSTORE DUP8 MULMOD ADD ADD PUSH32 0x2DE52989431A859593413026354413DB177FBF4CD2AC0B56F855A888357EE466 ADD SWAP6 POP DUP10 DUP8 DUP4 MULMOD DUP11 PUSH1 0x0 DUP1 MLOAD PUSH1 0x20 PUSH2 0x40FF DUP4 CODECOPY DUP2 MLOAD SWAP2 MSTORE DUP6 MULMOD DUP12 PUSH1 0x0 DUP1 MLOAD PUSH1 0x20 PUSH2 0x413F DUP4 CODECOPY DUP2 MLOAD SWAP2 MSTORE DUP8 MULMOD ADD ADD PUSH32 0x3006EB4FFC7A85819A6DA492F3A8AC1DF51AEE5B17B8E89D74BF01CF5F71E9AD ADD SWAP5 POP DUP10 DUP2 DUP3 MULMOD SWAP4 POP DUP10 DUP2 DUP12 DUP7 DUP8 MULMOD MULMOD SWAP1 POP DUP10 DUP10 DUP7 MULMOD DUP11 PUSH1 0x0 DUP1 MLOAD PUSH1 0x20 PUSH2 0x411F DUP4 CODECOPY DUP2 MLOAD SWAP2 MSTORE DUP9 MULMOD DUP12 PUSH1 0x0 DUP1 MLOAD PUSH1 0x20 PUSH2 0x415F DUP4 CODECOPY DUP2 MLOAD SWAP2 MSTORE DUP5 MULMOD ADD ADD PUSH32 0x2AF41FBB61BA8A80FDCF6FFF9E3F6F422993FE8F0A4639F962344C8225145086 ADD SWAP4 POP DUP10 DUP9 DUP7 MULMOD DUP11 PUSH1 0x0 DUP1 MLOAD PUSH1 0x20 PUSH2 0x417F DUP4 CODECOPY DUP2 MLOAD SWAP2 MSTORE DUP9 MULMOD DUP12 PUSH1 0x0 DUP1 MLOAD PUSH1 0x20 PUSH2 0x40DF DUP4 CODECOPY DUP2 MLOAD SWAP2 MSTORE DUP5 MULMOD ADD ADD PUSH32 0x119E684DE476155FE5A6B41A8EBC85DB8718AB27889E85E781B214BACE4827C3 ADD SWAP3 POP DUP10 DUP8 DUP7 MULMOD DUP11 PUSH1 0x0 DUP1 MLOAD PUSH1 0x20 PUSH2 0x40FF DUP4 CODECOPY DUP2 MLOAD SWAP2 MSTORE DUP9 MULMOD DUP12 PUSH1 0x0 DUP1 MLOAD PUSH1 0x20 PUSH2 0x413F DUP4 CODECOPY DUP2 MLOAD SWAP2 MSTORE DUP5 MULMOD ADD ADD PUSH32 0x1835B786E2E8925E188BEA59AE363537B51248C23828F047CFF784B97B3FD800 ADD SWAP2 POP DUP10 DUP5 DUP6 MULMOD SWAP1 POP DUP10 DUP5 DUP12 DUP4 DUP5 MULMOD MULMOD SWAP4 POP DUP10 DUP10 DUP4 MULMOD DUP11 PUSH1 0x0 DUP1 MLOAD PUSH1 0x20 PUSH2 0x411F DUP4 CODECOPY DUP2 MLOAD SWAP2 MSTORE DUP6 MULMOD DUP12 PUSH1 0x0 DUP1 MLOAD PUSH1 0x20 PUSH2 0x415F DUP4 CODECOPY DUP2 MLOAD SWAP2 MSTORE DUP8 MULMOD ADD ADD PUSH32 0x28201A34C594DFA34D794996C6433A20D152BAC2A7905C926C40E285AB32EEB6 ADD SWAP1 POP DUP10 DUP9 DUP4 MULMOD DUP11 PUSH1 0x0 DUP1 MLOAD PUSH1 0x20 PUSH2 0x417F DUP4 CODECOPY DUP2 MLOAD SWAP2 MSTORE DUP6 MULMOD DUP12 PUSH1 0x0 DUP1 MLOAD PUSH1 0x20 PUSH2 0x40DF DUP4 CODECOPY DUP2 MLOAD SWAP2 MSTORE DUP8 MULMOD ADD ADD PUSH32 0x83EFD7A27D1751094E80FEFAF78B000864C82EB571187724A761F88C22CC4E7 ADD SWAP6 POP DUP10 DUP8 DUP4 MULMOD DUP11 PUSH1 0x0 DUP1 MLOAD PUSH1 0x20 PUSH2 0x40FF DUP4 CODECOPY DUP2 MLOAD SWAP2 MSTORE DUP6 MULMOD DUP12 PUSH1 0x0 DUP1 MLOAD PUSH1 0x20 PUSH2 0x413F DUP4 CODECOPY DUP2 MLOAD SWAP2 MSTORE DUP8 MULMOD ADD ADD PUSH32 0xB6F88A3577199526158E61CEEA27BE811C16DF7774DD8519E079564F61FD13B ADD SWAP5 POP DUP10 DUP2 DUP3 MULMOD SWAP4 POP DUP10 DUP2 DUP12 DUP7 DUP8 MULMOD MULMOD SWAP1 POP DUP10 DUP10 DUP7 MULMOD DUP11 PUSH1 0x0 DUP1 MLOAD PUSH1 0x20 PUSH2 0x411F DUP4 CODECOPY DUP2 MLOAD SWAP2 MSTORE DUP9 MULMOD DUP12 PUSH1 0x0 DUP1 MLOAD PUSH1 0x20 PUSH2 0x415F DUP4 CODECOPY DUP2 MLOAD SWAP2 MSTORE DUP5 MULMOD ADD ADD PUSH32 0xEC868E6D15E51D9644F66E1D6471A94589511CA00D29E1014390E6EE4254F5B ADD SWAP4 POP DUP10 DUP9 DUP7 MULMOD DUP11 PUSH1 0x0 DUP1 MLOAD PUSH1 0x20 PUSH2 0x417F DUP4 CODECOPY DUP2 MLOAD SWAP2 MSTORE DUP9 MULMOD DUP12 PUSH1 0x0 DUP1 MLOAD PUSH1 0x20 PUSH2 0x40DF DUP4 CODECOPY DUP2 MLOAD SWAP2 MSTORE DUP5 MULMOD ADD ADD PUSH32 0x2AF33E3F866771271AC0C9B3ED2E1142ECD3E74B939CD40D00D937AB84C98591 ADD SWAP3 POP DUP10 DUP8 DUP7 MULMOD DUP11 PUSH1 0x0 DUP1 MLOAD PUSH1 0x20 PUSH2 0x40FF DUP4 CODECOPY DUP2 MLOAD SWAP2 MSTORE DUP9 MULMOD DUP12 PUSH1 0x0 DUP1 MLOAD PUSH1 0x20 PUSH2 0x413F DUP4 CODECOPY DUP2 MLOAD SWAP2 MSTORE DUP5 MULMOD ADD ADD PUSH32 0xB520211F904B5E7D09B5D961C6ACE7734568C547DD6858B364CE5E47951F178 ADD SWAP2 POP DUP10 DUP5 DUP6 MULMOD SWAP1 POP DUP10 DUP5 DUP12 DUP4 DUP5 MULMOD MULMOD SWAP4 POP DUP10 DUP10 DUP4 MULMOD DUP11 PUSH1 0x0 DUP1 MLOAD PUSH1 0x20 PUSH2 0x411F DUP4 CODECOPY DUP2 MLOAD SWAP2 MSTORE DUP6 MULMOD DUP12 PUSH1 0x0 DUP1 MLOAD PUSH1 0x20 PUSH2 0x415F DUP4 CODECOPY DUP2 MLOAD SWAP2 MSTORE DUP8 MULMOD ADD ADD PUSH32 0xB2D722D0919A1AAD8DB58F10062A92EA0C56AC4270E822CCA228620188A1D40 ADD SWAP1 POP DUP10 DUP9 DUP4 MULMOD DUP11 PUSH1 0x0 DUP1 MLOAD PUSH1 0x20 PUSH2 0x417F DUP4 CODECOPY DUP2 MLOAD SWAP2 MSTORE DUP6 MULMOD DUP12 PUSH1 0x0 DUP1 MLOAD PUSH1 0x20 PUSH2 0x40DF DUP4 CODECOPY DUP2 MLOAD SWAP2 MSTORE DUP8 MULMOD ADD ADD PUSH32 0x1F790D4D7F8CF094D980CEB37C2453E957B54A9991CA38BBE0061D1ED6E562D4 ADD SWAP6 POP DUP10 DUP8 DUP4 MULMOD DUP11 PUSH1 0x0 DUP1 MLOAD PUSH1 0x20 PUSH2 0x40FF DUP4 CODECOPY DUP2 MLOAD SWAP2 MSTORE DUP6 MULMOD DUP12 PUSH1 0x0 DUP1 MLOAD PUSH1 0x20 PUSH2 0x413F DUP4 CODECOPY DUP2 MLOAD SWAP2 MSTORE DUP8 MULMOD ADD ADD PUSH32 0x171EB95DFBF7D1EAEA97CD385F780150885C16235A2A6A8DA92CEB01E504233 ADD SWAP5 POP DUP10 DUP2 DUP3 MULMOD SWAP4 POP DUP10 DUP2 DUP12 DUP7 DUP8 MULMOD MULMOD SWAP1 POP DUP10 DUP10 DUP7 MULMOD DUP11 PUSH1 0x0 DUP1 MLOAD PUSH1 0x20 PUSH2 0x411F DUP4 CODECOPY DUP2 MLOAD SWAP2 MSTORE DUP9 MULMOD DUP12 PUSH1 0x0 DUP1 MLOAD PUSH1 0x20 PUSH2 0x415F DUP4 CODECOPY DUP2 MLOAD SWAP2 MSTORE DUP5 MULMOD ADD ADD PUSH32 0xC2D0E3B5FD57549329BF6885DA66B9B790B40DEFD2C8650762305381B168873 ADD SWAP4 POP DUP10 DUP9 DUP7 MULMOD DUP11 PUSH1 0x0 DUP1 MLOAD PUSH1 0x20 PUSH2 0x417F DUP4 CODECOPY DUP2 MLOAD SWAP2 MSTORE DUP9 MULMOD DUP12 PUSH1 0x0 DUP1 MLOAD PUSH1 0x20 PUSH2 0x40DF DUP4 CODECOPY DUP2 MLOAD SWAP2 MSTORE DUP5 MULMOD ADD ADD PUSH32 0x1162FB28689C27154E5A8228B4E72B377CBCAFA589E283C35D3803054407A18D ADD SWAP3 POP DUP10 DUP8 DUP7 MULMOD DUP11 PUSH1 0x0 DUP1 MLOAD PUSH1 0x20 PUSH2 0x40FF DUP4 CODECOPY DUP2 MLOAD SWAP2 MSTORE DUP9 MULMOD DUP12 PUSH1 0x0 DUP1 MLOAD PUSH1 0x20 PUSH2 0x413F DUP4 CODECOPY DUP2 MLOAD SWAP2 MSTORE DUP5 MULMOD ADD ADD PUSH32 0x2F1459B65DEE441B64AD386A91E8310F282C5A92A89E19921623EF8249711BC0 ADD SWAP2 POP DUP10 DUP5 DUP6 MULMOD SWAP1 POP DUP10 DUP5 DUP12 DUP4 DUP5 MULMOD MULMOD SWAP4 POP DUP10 DUP10 DUP4 MULMOD DUP11 PUSH1 0x0 DUP1 MLOAD PUSH1 0x20 PUSH2 0x411F DUP4 CODECOPY DUP2 MLOAD SWAP2 MSTORE DUP6 MULMOD DUP12 PUSH1 0x0 DUP1 MLOAD PUSH1 0x20 PUSH2 0x415F DUP4 CODECOPY DUP2 MLOAD SWAP2 MSTORE DUP8 MULMOD ADD ADD PUSH32 0x1E6FF3216B688C3D996D74367D5CD4C1BC489D46754EB712C243F70D1B53CFBB ADD SWAP1 POP DUP10 DUP9 DUP4 MULMOD DUP11 PUSH1 0x0 DUP1 MLOAD PUSH1 0x20 PUSH2 0x417F DUP4 CODECOPY DUP2 MLOAD SWAP2 MSTORE DUP6 MULMOD DUP12 PUSH1 0x0 DUP1 MLOAD PUSH1 0x20 PUSH2 0x40DF DUP4 CODECOPY DUP2 MLOAD SWAP2 MSTORE DUP8 MULMOD ADD ADD PUSH32 0x1CA8BE73832B8D0681487D27D157802D741A6F36CDC2A0576881F9326478875 ADD SWAP6 POP DUP10 DUP8 DUP4 MULMOD DUP11 PUSH1 0x0 DUP1 MLOAD PUSH1 0x20 PUSH2 0x40FF DUP4 CODECOPY DUP2 MLOAD SWAP2 MSTORE DUP6 MULMOD DUP12 PUSH1 0x0 DUP1 MLOAD PUSH1 0x20 PUSH2 0x413F DUP4 CODECOPY DUP2 MLOAD SWAP2 MSTORE DUP8 MULMOD ADD ADD PUSH32 0x1F7735706FFE9FC586F976D5BDF223DC680286080B10CEA00B9B5DE315F9650E ADD SWAP5 POP DUP10 DUP2 DUP3 MULMOD SWAP4 POP DUP10 DUP2 DUP12 DUP7 DUP8 MULMOD MULMOD SWAP1 POP DUP10 DUP10 DUP7 MULMOD DUP11 PUSH1 0x0 DUP1 MLOAD PUSH1 0x20 PUSH2 0x411F DUP4 CODECOPY DUP2 MLOAD SWAP2 MSTORE DUP9 MULMOD DUP12 PUSH1 0x0 DUP1 MLOAD PUSH1 0x20 PUSH2 0x415F DUP4 CODECOPY DUP2 MLOAD SWAP2 MSTORE DUP5 MULMOD ADD ADD PUSH32 0x2522B60F4EA3307640A0C2DCE041FBA921AC10A3D5F096EF4745CA838285F019 ADD SWAP4 POP DUP10 DUP9 DUP7 MULMOD DUP11 PUSH1 0x0 DUP1 MLOAD PUSH1 0x20 PUSH2 0x417F DUP4 CODECOPY DUP2 MLOAD SWAP2 MSTORE DUP9 MULMOD DUP12 PUSH1 0x0 DUP1 MLOAD PUSH1 0x20 PUSH2 0x40DF DUP4 CODECOPY DUP2 MLOAD SWAP2 MSTORE DUP5 MULMOD ADD ADD PUSH32 0x23F0BEE001B1029D5255075DDC957F833418CAD4F52B6C3F8CE16C235572575B ADD SWAP3 POP DUP10 DUP8 DUP7 MULMOD DUP11 PUSH1 0x0 DUP1 MLOAD PUSH1 0x20 PUSH2 0x40FF DUP4 CODECOPY DUP2 MLOAD SWAP2 MSTORE DUP9 MULMOD DUP12 PUSH1 0x0 DUP1 MLOAD PUSH1 0x20 PUSH2 0x413F DUP4 CODECOPY DUP2 MLOAD SWAP2 MSTORE DUP5 MULMOD ADD ADD PUSH32 0x2BC1AE8B8DDBB81FCAAC2D44555ED5685D142633E9DF905F66D9401093082D59 ADD SWAP2 POP DUP10 DUP5 DUP6 MULMOD SWAP1 POP DUP10 DUP5 DUP12 DUP4 DUP5 MULMOD MULMOD SWAP4 POP DUP10 DUP10 DUP4 MULMOD DUP11 PUSH1 0x0 DUP1 MLOAD PUSH1 0x20 PUSH2 0x411F DUP4 CODECOPY DUP2 MLOAD SWAP2 MSTORE DUP6 MULMOD DUP12 PUSH1 0x0 DUP1 MLOAD PUSH1 0x20 PUSH2 0x415F DUP4 CODECOPY DUP2 MLOAD SWAP2 MSTORE DUP8 MULMOD ADD ADD PUSH32 0xF9406B8296564A37304507B8DBA3ED162371273A07B1FC98011FCD6AD72205F ADD SWAP1 POP DUP10 DUP9 DUP4 MULMOD DUP11 PUSH1 0x0 DUP1 MLOAD PUSH1 0x20 PUSH2 0x417F DUP4 CODECOPY DUP2 MLOAD SWAP2 MSTORE DUP6 MULMOD DUP12 PUSH1 0x0 DUP1 MLOAD PUSH1 0x20 PUSH2 0x40DF DUP4 CODECOPY DUP2 MLOAD SWAP2 MSTORE DUP8 MULMOD ADD ADD PUSH32 0x2360A8EB0CC7DEFA67B72998DE90714E17E75B174A52EE4ACB126C8CD995F0A8 ADD SWAP6 POP DUP10 DUP8 DUP4 MULMOD DUP11 PUSH1 0x0 DUP1 MLOAD PUSH1 0x20 PUSH2 0x40FF DUP4 CODECOPY DUP2 MLOAD SWAP2 MSTORE DUP6 MULMOD DUP12 PUSH1 0x0 DUP1 MLOAD PUSH1 0x20 PUSH2 0x413F DUP4 CODECOPY DUP2 MLOAD SWAP2 MSTORE DUP8 MULMOD ADD ADD PUSH32 0x15871A5CDDEAD976804C803CBAEF255EB4815A5E96DF8B006DCBBC2767F88948 ADD SWAP5 POP DUP10 DUP2 DUP3 MULMOD SWAP4 POP DUP10 DUP2 DUP12 DUP7 DUP8 MULMOD MULMOD SWAP1 POP DUP10 DUP10 DUP7 MULMOD DUP11 PUSH1 0x0 DUP1 MLOAD PUSH1 0x20 PUSH2 0x411F DUP4 CODECOPY DUP2 MLOAD SWAP2 MSTORE DUP9 MULMOD DUP12 PUSH1 0x0 DUP1 MLOAD PUSH1 0x20 PUSH2 0x415F DUP4 CODECOPY DUP2 MLOAD SWAP2 MSTORE DUP5 MULMOD ADD ADD PUSH32 0x193A56766998EE9E0A8652DD2F3B1DA0362F4F54F72379544F957CCDEEFB420F ADD SWAP4 POP DUP10 DUP9 DUP7 MULMOD DUP11 PUSH1 0x0 DUP1 MLOAD PUSH1 0x20 PUSH2 0x417F DUP4 CODECOPY DUP2 MLOAD SWAP2 MSTORE DUP9 MULMOD DUP12 PUSH1 0x0 DUP1 MLOAD PUSH1 0x20 PUSH2 0x40DF DUP4 CODECOPY DUP2 MLOAD SWAP2 MSTORE DUP5 MULMOD ADD ADD PUSH32 0x2A394A43934F86982F9BE56FF4FAB1703B2E63C8AD334834E4309805E777AE0F ADD SWAP3 POP DUP10 DUP8 DUP7 MULMOD DUP11 PUSH1 0x0 DUP1 MLOAD PUSH1 0x20 PUSH2 0x40FF DUP4 CODECOPY DUP2 MLOAD SWAP2 MSTORE DUP9 MULMOD DUP12 PUSH1 0x0 DUP1 MLOAD PUSH1 0x20 PUSH2 0x413F DUP4 CODECOPY DUP2 MLOAD SWAP2 MSTORE DUP5 MULMOD ADD ADD PUSH32 0x1859954CFEB8695F3E8B635DCB345192892CD11223443BA7B4166E8876C0D142 ADD SWAP2 POP DUP10 DUP5 DUP6 MULMOD SWAP1 POP DUP10 DUP5 DUP12 DUP4 DUP5 MULMOD MULMOD SWAP4 POP DUP10 DUP10 DUP4 MULMOD DUP11 PUSH1 0x0 DUP1 MLOAD PUSH1 0x20 PUSH2 0x411F DUP4 CODECOPY DUP2 MLOAD SWAP2 MSTORE DUP6 MULMOD DUP12 PUSH1 0x0 DUP1 MLOAD PUSH1 0x20 PUSH2 0x415F DUP4 CODECOPY DUP2 MLOAD SWAP2 MSTORE DUP8 MULMOD ADD ADD PUSH32 0x4E1181763050E58013444DBCB99F1902B11BC25D90BBDCA408D3819F4FED32B ADD SWAP1 POP DUP10 DUP9 DUP4 MULMOD DUP11 PUSH1 0x0 DUP1 MLOAD PUSH1 0x20 PUSH2 0x417F DUP4 CODECOPY DUP2 MLOAD SWAP2 MSTORE DUP6 MULMOD DUP12 PUSH1 0x0 DUP1 MLOAD PUSH1 0x20 PUSH2 0x40DF DUP4 CODECOPY DUP2 MLOAD SWAP2 MSTORE DUP8 MULMOD ADD ADD PUSH32 0xFDB253DEE83869D40C335EA64DE8C5BB10EB82DB08B5E8B1F5E5552BFD05F23 ADD SWAP6 POP DUP10 DUP8 DUP4 MULMOD DUP11 PUSH1 0x0 DUP1 MLOAD PUSH1 0x20 PUSH2 0x40FF DUP4 CODECOPY DUP2 MLOAD SWAP2 MSTORE DUP6 MULMOD DUP12 PUSH1 0x0 DUP1 MLOAD PUSH1 0x20 PUSH2 0x413F DUP4 CODECOPY DUP2 MLOAD SWAP2 MSTORE DUP8 MULMOD ADD ADD PUSH32 0x58CBE8A9A5027BDAA4EFB623ADEAD6275F08686F1C08984A9D7C5BAE9B4F1C0 ADD SWAP5 POP DUP10 DUP2 DUP3 MULMOD SWAP4 POP DUP10 DUP2 DUP12 DUP7 DUP8 MULMOD MULMOD SWAP1 POP DUP10 DUP10 DUP7 MULMOD DUP11 PUSH1 0x0 DUP1 MLOAD PUSH1 0x20 PUSH2 0x411F DUP4 CODECOPY DUP2 MLOAD SWAP2 MSTORE DUP9 MULMOD DUP12 PUSH1 0x0 DUP1 MLOAD PUSH1 0x20 PUSH2 0x415F DUP4 CODECOPY DUP2 MLOAD SWAP2 MSTORE DUP5 MULMOD ADD ADD PUSH32 0x1382EDCE9971E186497EADB1AEB1F52B23B4B83BEF023AB0D15228B4CCECA59A ADD SWAP4 POP DUP10 DUP9 DUP7 MULMOD DUP11 PUSH1 0x0 DUP1 MLOAD PUSH1 0x20 PUSH2 0x417F DUP4 CODECOPY DUP2 MLOAD SWAP2 MSTORE DUP9 MULMOD DUP12 PUSH1 0x0 DUP1 MLOAD PUSH1 0x20 PUSH2 0x40DF DUP4 CODECOPY DUP2 MLOAD SWAP2 MSTORE DUP5 MULMOD ADD ADD PUSH32 0x3464990F045C6EE0819CA51FD11B0BE7F61B8EB99F14B77E1E6634601D9E8B5 ADD SWAP3 POP DUP10 DUP8 DUP7 MULMOD DUP11 PUSH1 0x0 DUP1 MLOAD PUSH1 0x20 PUSH2 0x40FF DUP4 CODECOPY DUP2 MLOAD SWAP2 MSTORE DUP9 MULMOD DUP12 PUSH1 0x0 DUP1 MLOAD PUSH1 0x20 PUSH2 0x413F DUP4 CODECOPY DUP2 MLOAD SWAP2 MSTORE DUP5 MULMOD ADD ADD PUSH32 0x23F7BFC8720DC296FFF33B41F98FF83C6FCAB4605DB2EB5AAA5BC137AEB70A58 ADD SWAP2 POP DUP10 DUP5 DUP6 MULMOD SWAP1 POP DUP10 DUP5 DUP12 DUP4 DUP5 MULMOD MULMOD SWAP4 POP DUP10 DUP10 DUP4 MULMOD DUP11 PUSH1 0x0 DUP1 MLOAD PUSH1 0x20 PUSH2 0x411F DUP4 CODECOPY DUP2 MLOAD SWAP2 MSTORE DUP6 MULMOD DUP12 PUSH1 0x0 DUP1 MLOAD PUSH1 0x20 PUSH2 0x415F DUP4 CODECOPY DUP2 MLOAD SWAP2 MSTORE DUP8 MULMOD ADD ADD PUSH32 0xA59A158E3EEC2117E6E94E7F0E9DECF18C3FFD5E1531A9219636158BBAF62F2 ADD SWAP1 POP DUP10 DUP9 DUP4 MULMOD DUP11 PUSH1 0x0 DUP1 MLOAD PUSH1 0x20 PUSH2 0x417F DUP4 CODECOPY DUP2 MLOAD SWAP2 MSTORE DUP6 MULMOD DUP12 PUSH1 0x0 DUP1 MLOAD PUSH1 0x20 PUSH2 0x40DF DUP4 CODECOPY DUP2 MLOAD SWAP2 MSTORE DUP8 MULMOD ADD ADD PUSH32 0x6EC54C80381C052B58BF23B312FFD3CE2C4EBA065420AF8F4C23ED0075FD07B ADD SWAP6 POP DUP10 DUP8 DUP4 MULMOD DUP11 PUSH1 0x0 DUP1 MLOAD PUSH1 0x20 PUSH2 0x40FF DUP4 CODECOPY DUP2 MLOAD SWAP2 MSTORE DUP6 MULMOD DUP12 PUSH1 0x0 DUP1 MLOAD PUSH1 0x20 PUSH2 0x413F DUP4 CODECOPY DUP2 MLOAD SWAP2 MSTORE DUP8 MULMOD ADD ADD PUSH32 0x118872DC832E0EB5476B56648E867EC8B09340F7A7BCB1B4962F0FF9ED1F9D01 ADD SWAP5 POP DUP10 DUP2 DUP3 MULMOD SWAP4 POP DUP10 DUP2 DUP12 DUP7 DUP8 MULMOD MULMOD SWAP1 POP DUP10 DUP10 DUP7 MULMOD DUP11 PUSH1 0x0 DUP1 MLOAD PUSH1 0x20 PUSH2 0x411F DUP4 CODECOPY DUP2 MLOAD SWAP2 MSTORE DUP9 MULMOD DUP12 PUSH1 0x0 DUP1 MLOAD PUSH1 0x20 PUSH2 0x415F DUP4 CODECOPY DUP2 MLOAD SWAP2 MSTORE DUP5 MULMOD ADD ADD PUSH32 0x13D69FA127D834165AD5C7CBA7AD59ED52E0B0F0E42D7FEA95E1906B520921B1 ADD SWAP4 POP DUP10 DUP9 DUP7 MULMOD DUP11 PUSH1 0x0 DUP1 MLOAD PUSH1 0x20 PUSH2 0x417F DUP4 CODECOPY DUP2 MLOAD SWAP2 MSTORE DUP9 MULMOD DUP12 PUSH1 0x0 DUP1 MLOAD PUSH1 0x20 PUSH2 0x40DF DUP4 CODECOPY DUP2 MLOAD SWAP2 MSTORE DUP5 MULMOD ADD ADD PUSH32 0x169A177F63EA681270B1C6877A73D21BDE143942FB71DC55FD8A49F19F10C77B ADD SWAP3 POP DUP10 DUP8 DUP7 MULMOD DUP11 PUSH1 0x0 DUP1 MLOAD PUSH1 0x20 PUSH2 0x40FF DUP4 CODECOPY DUP2 MLOAD SWAP2 MSTORE DUP9 MULMOD DUP12 PUSH1 0x0 DUP1 MLOAD PUSH1 0x20 PUSH2 0x413F DUP4 CODECOPY DUP2 MLOAD SWAP2 MSTORE DUP5 MULMOD ADD ADD PUSH32 0x4EF51591C6EAD97EF42F287ADCE40D93ABEB032B922F66FFB7E9A5A7450544D ADD SWAP2 POP DUP10 DUP5 DUP6 MULMOD SWAP1 POP DUP10 DUP5 DUP12 DUP4 DUP5 MULMOD MULMOD SWAP4 POP DUP10 DUP10 DUP4 MULMOD DUP11 PUSH1 0x0 DUP1 MLOAD PUSH1 0x20 PUSH2 0x411F DUP4 CODECOPY DUP2 MLOAD SWAP2 MSTORE DUP6 MULMOD DUP12 PUSH1 0x0 DUP1 MLOAD PUSH1 0x20 PUSH2 0x415F DUP4 CODECOPY DUP2 MLOAD SWAP2 MSTORE DUP8 MULMOD ADD ADD PUSH32 0x256E175A1DC079390ECD7CA703FB2E3B19EC61805D4F03CED5F45EE6DD0F69EC ADD SWAP1 POP DUP10 DUP9 DUP4 MULMOD DUP11 PUSH1 0x0 DUP1 MLOAD PUSH1 0x20 PUSH2 0x417F DUP4 CODECOPY DUP2 MLOAD SWAP2 MSTORE DUP6 MULMOD DUP12 PUSH1 0x0 DUP1 MLOAD PUSH1 0x20 PUSH2 0x40DF DUP4 CODECOPY DUP2 MLOAD SWAP2 MSTORE DUP8 MULMOD ADD ADD PUSH32 0x30102D28636ABD5FE5F2AF412FF6004F75CC360D3205DD2DA002813D3E2CEEB2 ADD SWAP6 POP DUP10 DUP8 DUP4 MULMOD DUP11 PUSH1 0x0 DUP1 MLOAD PUSH1 0x20 PUSH2 0x40FF DUP4 CODECOPY DUP2 MLOAD SWAP2 MSTORE DUP6 MULMOD DUP12 PUSH1 0x0 DUP1 MLOAD PUSH1 0x20 PUSH2 0x413F DUP4 CODECOPY DUP2 MLOAD SWAP2 MSTORE DUP8 MULMOD ADD ADD PUSH32 0x10998E42DFCD3BBF1C0714BC73EB1BF40443A3FA99BEF4A31FD31BE182FCC792 ADD SWAP5 POP DUP10 DUP2 DUP3 MULMOD SWAP4 POP DUP10 DUP2 DUP12 DUP7 DUP8 MULMOD MULMOD SWAP1 POP DUP10 DUP10 DUP7 MULMOD DUP11 PUSH1 0x0 DUP1 MLOAD PUSH1 0x20 PUSH2 0x411F DUP4 CODECOPY DUP2 MLOAD SWAP2 MSTORE DUP9 MULMOD DUP12 PUSH1 0x0 DUP1 MLOAD PUSH1 0x20 PUSH2 0x415F DUP4 CODECOPY DUP2 MLOAD SWAP2 MSTORE DUP5 MULMOD ADD ADD PUSH32 0x193EDD8E9FCF3D7625FA7D24B598A1D89F3362EAF4D582EFECAD76F879E36860 ADD SWAP4 POP DUP10 DUP9 DUP7 MULMOD DUP11 PUSH1 0x0 DUP1 MLOAD PUSH1 0x20 PUSH2 0x417F DUP4 CODECOPY DUP2 MLOAD SWAP2 MSTORE DUP9 MULMOD DUP12 PUSH1 0x0 DUP1 MLOAD PUSH1 0x20 PUSH2 0x40DF DUP4 CODECOPY DUP2 MLOAD SWAP2 MSTORE DUP5 MULMOD ADD ADD PUSH32 0x18168AFD34F2D915D0368CE80B7B3347D1C7A561CE611425F2664D7AA51F0B5D ADD SWAP3 POP DUP10 DUP8 DUP7 MULMOD DUP11 PUSH1 0x0 DUP1 MLOAD PUSH1 0x20 PUSH2 0x40FF DUP4 CODECOPY DUP2 MLOAD SWAP2 MSTORE DUP9 MULMOD DUP12 PUSH1 0x0 DUP1 MLOAD PUSH1 0x20 PUSH2 0x413F DUP4 CODECOPY DUP2 MLOAD SWAP2 MSTORE DUP5 MULMOD ADD ADD PUSH32 0x29383C01EBD3B6AB0C017656EBE658B6A328EC77BC33626E29E2E95B33EA6111 ADD SWAP2 POP DUP10 DUP5 DUP6 MULMOD SWAP1 POP DUP10 DUP5 DUP12 DUP4 DUP5 MULMOD MULMOD SWAP4 POP DUP10 DUP10 DUP4 MULMOD DUP11 PUSH1 0x0 DUP1 MLOAD PUSH1 0x20 PUSH2 0x411F DUP4 CODECOPY DUP2 MLOAD SWAP2 MSTORE DUP6 MULMOD DUP12 PUSH1 0x0 DUP1 MLOAD PUSH1 0x20 PUSH2 0x415F DUP4 CODECOPY DUP2 MLOAD SWAP2 MSTORE DUP8 MULMOD ADD ADD PUSH32 0x10646D2F2603DE39A1F4AE5E7771A64A702DB6E86FB76AB600BF573F9010C711 ADD SWAP1 POP DUP10 DUP9 DUP4 MULMOD DUP11 PUSH1 0x0 DUP1 MLOAD PUSH1 0x20 PUSH2 0x417F DUP4 CODECOPY DUP2 MLOAD SWAP2 MSTORE DUP6 MULMOD DUP12 PUSH1 0x0 DUP1 MLOAD PUSH1 0x20 PUSH2 0x40DF DUP4 CODECOPY DUP2 MLOAD SWAP2 MSTORE DUP8 MULMOD ADD ADD PUSH32 0xBEB5E07D1B27145F575F1395A55BF132F90C25B40DA7B3864D0242DCB1117FB ADD SWAP6 POP DUP10 DUP8 DUP4 MULMOD DUP11 PUSH1 0x0 DUP1 MLOAD PUSH1 0x20 PUSH2 0x40FF DUP4 CODECOPY DUP2 MLOAD SWAP2 MSTORE DUP6 MULMOD DUP12 PUSH1 0x0 DUP1 MLOAD PUSH1 0x20 PUSH2 0x413F DUP4 CODECOPY DUP2 MLOAD SWAP2 MSTORE DUP8 MULMOD ADD ADD PUSH32 0x16D685252078C133DC0D3ECAD62B5C8830F95BB2E54B59ABDFFBF018D96FA336 ADD SWAP5 POP DUP10 DUP2 DUP3 MULMOD SWAP4 POP DUP10 DUP2 DUP12 DUP7 DUP8 MULMOD MULMOD SWAP1 POP DUP10 DUP10 DUP7 MULMOD DUP11 PUSH1 0x0 DUP1 MLOAD PUSH1 0x20 PUSH2 0x411F DUP4 CODECOPY DUP2 MLOAD SWAP2 MSTORE DUP9 MULMOD DUP12 PUSH1 0x0 DUP1 MLOAD PUSH1 0x20 PUSH2 0x415F DUP4 CODECOPY DUP2 MLOAD SWAP2 MSTORE DUP5 MULMOD ADD ADD PUSH32 0xA6ABD1D833938F33C74154E0404B4B40A555BBBEC21DDFAFD672DD62047F01A ADD SWAP4 POP DUP10 DUP9 DUP7 MULMOD DUP11 PUSH1 0x0 DUP1 MLOAD PUSH1 0x20 PUSH2 0x417F DUP4 CODECOPY DUP2 MLOAD SWAP2 MSTORE DUP9 MULMOD DUP12 PUSH1 0x0 DUP1 MLOAD PUSH1 0x20 PUSH2 0x40DF DUP4 CODECOPY DUP2 MLOAD SWAP2 MSTORE DUP5 MULMOD ADD ADD PUSH32 0x1A679F5D36EB7B5C8EA12A4C2DEDC8FEB12DFFEEC450317270A6F19B34CF1860 ADD SWAP3 POP DUP10 DUP8 DUP7 MULMOD DUP11 PUSH1 0x0 DUP1 MLOAD PUSH1 0x20 PUSH2 0x40FF DUP4 CODECOPY DUP2 MLOAD SWAP2 MSTORE DUP9 MULMOD DUP12 PUSH1 0x0 DUP1 MLOAD PUSH1 0x20 PUSH2 0x413F DUP4 CODECOPY DUP2 MLOAD SWAP2 MSTORE DUP5 MULMOD ADD ADD PUSH32 0x980FB233BD456C23974D50E0EBFDE4726A423EADA4E8F6FFBC7592E3F1B93D6 ADD SWAP2 POP DUP10 DUP5 DUP6 MULMOD SWAP1 POP DUP10 DUP5 DUP12 DUP4 DUP5 MULMOD MULMOD SWAP4 POP DUP10 DUP10 DUP4 MULMOD DUP11 PUSH1 0x0 DUP1 MLOAD PUSH1 0x20 PUSH2 0x411F DUP4 CODECOPY DUP2 MLOAD SWAP2 MSTORE DUP6 MULMOD DUP12 PUSH1 0x0 DUP1 MLOAD PUSH1 0x20 PUSH2 0x415F DUP4 CODECOPY DUP2 MLOAD SWAP2 MSTORE DUP8 MULMOD ADD ADD PUSH32 0x161B42232E61B84CBF1810AF93A38FC0CECE3D5628C9282003EBACB5C312C72B ADD SWAP1 POP DUP10 DUP9 DUP4 MULMOD DUP11 PUSH1 0x0 DUP1 MLOAD PUSH1 0x20 PUSH2 0x417F DUP4 CODECOPY DUP2 MLOAD SWAP2 MSTORE DUP6 MULMOD DUP12 PUSH1 0x0 DUP1 MLOAD PUSH1 0x20 PUSH2 0x40DF DUP4 CODECOPY DUP2 MLOAD SWAP2 MSTORE DUP8 MULMOD ADD ADD PUSH32 0xADA10A90C7F0520950F7D47A60D5E6A493F09787F1564E5D09203DB47DE1A0B ADD SWAP6 POP DUP10 DUP8 DUP4 MULMOD DUP11 PUSH1 0x0 DUP1 MLOAD PUSH1 0x20 PUSH2 0x40FF DUP4 CODECOPY DUP2 MLOAD SWAP2 MSTORE DUP6 MULMOD DUP12 PUSH1 0x0 DUP1 MLOAD PUSH1 0x20 PUSH2 0x413F DUP4 CODECOPY DUP2 MLOAD SWAP2 MSTORE DUP8 MULMOD ADD ADD PUSH32 0x1A730D372310BA82320345A29AC4238ED3F07A8A2B4E121BB50DDB9AF407F451 ADD SWAP5 POP DUP10 DUP2 DUP3 MULMOD SWAP4 POP DUP10 DUP2 DUP12 DUP7 DUP8 MULMOD MULMOD SWAP1 POP DUP10 DUP10 DUP7 MULMOD DUP11 PUSH1 0x0 DUP1 MLOAD PUSH1 0x20 PUSH2 0x411F DUP4 CODECOPY DUP2 MLOAD SWAP2 MSTORE DUP9 MULMOD DUP12 PUSH1 0x0 DUP1 MLOAD PUSH1 0x20 PUSH2 0x415F DUP4 CODECOPY DUP2 MLOAD SWAP2 MSTORE DUP5 MULMOD ADD ADD PUSH32 0x2C8120F268EF054F817064C369DDA7EA908377FEABA5C4DFFBDA10EF58E8C556 ADD SWAP4 POP DUP10 DUP9 DUP7 MULMOD DUP11 PUSH1 0x0 DUP1 MLOAD PUSH1 0x20 PUSH2 0x417F DUP4 CODECOPY DUP2 MLOAD SWAP2 MSTORE DUP9 MULMOD DUP12 PUSH1 0x0 DUP1 MLOAD PUSH1 0x20 PUSH2 0x40DF DUP4 CODECOPY DUP2 MLOAD SWAP2 MSTORE DUP5 MULMOD ADD ADD PUSH32 0x1C7C8824F758753FA57C00789C684217B930E95313BCB73E6E7B8649A4968F70 ADD SWAP3 POP DUP10 DUP8 DUP7 MULMOD DUP11 PUSH1 0x0 DUP1 MLOAD PUSH1 0x20 PUSH2 0x40FF DUP4 CODECOPY DUP2 MLOAD SWAP2 MSTORE DUP9 MULMOD DUP12 PUSH1 0x0 DUP1 MLOAD PUSH1 0x20 PUSH2 0x413F DUP4 CODECOPY DUP2 MLOAD SWAP2 MSTORE DUP5 MULMOD ADD ADD PUSH32 0x2CD9ED31F5F8691C8E39E4077A74FAA0F400AD8B491EB3F7B47B27FA3FD1CF77 ADD SWAP2 POP DUP10 DUP5 DUP6 MULMOD SWAP1 POP DUP10 DUP5 DUP12 DUP4 DUP5 MULMOD MULMOD SWAP4 POP DUP10 DUP10 DUP4 MULMOD DUP11 PUSH1 0x0 DUP1 MLOAD PUSH1 0x20 PUSH2 0x411F DUP4 CODECOPY DUP2 MLOAD SWAP2 MSTORE DUP6 MULMOD DUP12 PUSH1 0x0 DUP1 MLOAD PUSH1 0x20 PUSH2 0x415F DUP4 CODECOPY DUP2 MLOAD SWAP2 MSTORE DUP8 MULMOD ADD ADD PUSH32 0x23FF4F9D46813457CF60D92F57618399A5E022AC321CA550854AE23918A22EEA ADD SWAP1 POP DUP10 DUP9 DUP4 MULMOD DUP11 PUSH1 0x0 DUP1 MLOAD PUSH1 0x20 PUSH2 0x417F DUP4 CODECOPY DUP2 MLOAD SWAP2 MSTORE DUP6 MULMOD DUP12 PUSH1 0x0 DUP1 MLOAD PUSH1 0x20 PUSH2 0x40DF DUP4 CODECOPY DUP2 MLOAD SWAP2 MSTORE DUP8 MULMOD ADD ADD PUSH32 0x9945A5D147A4F66CEECE6405DDDD9D0AF5A2C5103529407DFF1EA58F180426D ADD SWAP6 POP DUP10 DUP8 DUP4 MULMOD DUP11 PUSH1 0x0 DUP1 MLOAD PUSH1 0x20 PUSH2 0x40FF DUP4 CODECOPY DUP2 MLOAD SWAP2 MSTORE DUP6 MULMOD DUP12 PUSH1 0x0 DUP1 MLOAD PUSH1 0x20 PUSH2 0x413F DUP4 CODECOPY DUP2 MLOAD SWAP2 MSTORE DUP8 MULMOD ADD ADD PUSH32 0x188D9C528025D4C2B67660C6B771B90F7C7DA6EAA29D3F268A6DD223EC6FC630 ADD SWAP5 POP DUP10 DUP2 DUP3 MULMOD SWAP4 POP DUP10 DUP2 DUP12 DUP7 DUP8 MULMOD MULMOD SWAP1 POP DUP10 DUP10 DUP7 MULMOD DUP11 PUSH1 0x0 DUP1 MLOAD PUSH1 0x20 PUSH2 0x411F DUP4 CODECOPY DUP2 MLOAD SWAP2 MSTORE DUP9 MULMOD DUP12 PUSH1 0x0 DUP1 MLOAD PUSH1 0x20 PUSH2 0x415F DUP4 CODECOPY DUP2 MLOAD SWAP2 MSTORE DUP5 MULMOD ADD ADD PUSH32 0x3050E37996596B7F81F68311431D8734DBA7D926D3633595E0C0D8DDF4F0F47F ADD SWAP4 POP DUP10 DUP9 DUP7 MULMOD DUP11 PUSH1 0x0 DUP1 MLOAD PUSH1 0x20 PUSH2 0x417F DUP4 CODECOPY DUP2 MLOAD SWAP2 MSTORE DUP9 MULMOD DUP12 PUSH1 0x0 DUP1 MLOAD PUSH1 0x20 PUSH2 0x40DF DUP4 CODECOPY DUP2 MLOAD SWAP2 MSTORE DUP5 MULMOD ADD ADD PUSH32 0x15AF1169396830A91600CA8102C35C426CEAE5461E3F95D89D829518D30AFD78 ADD SWAP3 POP DUP10 DUP8 DUP7 MULMOD DUP11 PUSH1 0x0 DUP1 MLOAD PUSH1 0x20 PUSH2 0x40FF DUP4 CODECOPY DUP2 MLOAD SWAP2 MSTORE DUP9 MULMOD DUP12 PUSH1 0x0 DUP1 MLOAD PUSH1 0x20 PUSH2 0x413F DUP4 CODECOPY DUP2 MLOAD SWAP2 MSTORE DUP5 MULMOD ADD ADD PUSH32 0x1DA6D09885432EA9A06D9F37F873D985DAE933E351466B2904284DA3320D8ACC ADD SWAP2 POP DUP10 DUP5 DUP6 MULMOD SWAP1 POP DUP10 DUP5 DUP12 DUP4 DUP5 MULMOD MULMOD SWAP4 POP DUP10 DUP10 DUP4 MULMOD DUP11 PUSH1 0x0 DUP1 MLOAD PUSH1 0x20 PUSH2 0x411F DUP4 CODECOPY DUP2 MLOAD SWAP2 MSTORE DUP6 MULMOD DUP12 PUSH1 0x0 DUP1 MLOAD PUSH1 0x20 PUSH2 0x415F DUP4 CODECOPY DUP2 MLOAD SWAP2 MSTORE DUP8 MULMOD ADD ADD PUSH32 0x2796EA90D269AF29F5F8ACF33921124E4E4FAD3DBE658945E546EE411DDAA9CB ADD SWAP1 POP DUP10 DUP9 DUP4 MULMOD DUP11 PUSH1 0x0 DUP1 MLOAD PUSH1 0x20 PUSH2 0x417F DUP4 CODECOPY DUP2 MLOAD SWAP2 MSTORE DUP6 MULMOD DUP12 PUSH1 0x0 DUP1 MLOAD PUSH1 0x20 PUSH2 0x40DF DUP4 CODECOPY DUP2 MLOAD SWAP2 MSTORE DUP8 MULMOD ADD ADD PUSH32 0x202D7DD1DA0F6B4B0325C8B3307742F01E15612EC8E9304A7CB0319E01D32D60 ADD SWAP6 POP DUP10 DUP8 DUP4 MULMOD DUP11 PUSH1 0x0 DUP1 MLOAD PUSH1 0x20 PUSH2 0x40FF DUP4 CODECOPY DUP2 MLOAD SWAP2 MSTORE DUP6 MULMOD DUP12 PUSH1 0x0 DUP1 MLOAD PUSH1 0x20 PUSH2 0x413F DUP4 CODECOPY DUP2 MLOAD SWAP2 MSTORE DUP8 MULMOD ADD ADD PUSH32 0x96D6790D05BB759156A952BA263D672A2D7F9C788F4C831A29DACE4C0F8BE5F ADD SWAP5 POP DUP10 DUP2 DUP3 MULMOD SWAP4 POP DUP10 DUP2 DUP12 DUP7 DUP8 MULMOD MULMOD SWAP1 POP DUP10 DUP10 DUP7 MULMOD DUP11 PUSH1 0x0 DUP1 MLOAD PUSH1 0x20 PUSH2 0x411F DUP4 CODECOPY DUP2 MLOAD SWAP2 MSTORE DUP9 MULMOD DUP12 PUSH1 0x0 DUP1 MLOAD PUSH1 0x20 PUSH2 0x415F DUP4 CODECOPY DUP2 MLOAD SWAP2 MSTORE DUP5 MULMOD ADD ADD PUSH32 0x54EFA1F65B0FCE283808965275D877B438DA23CE5B13E1963798CB1447D25A4 ADD SWAP4 POP DUP10 DUP9 DUP7 MULMOD DUP11 PUSH1 0x0 DUP1 MLOAD PUSH1 0x20 PUSH2 0x417F DUP4 CODECOPY DUP2 MLOAD SWAP2 MSTORE DUP9 MULMOD DUP12 PUSH1 0x0 DUP1 MLOAD PUSH1 0x20 PUSH2 0x40DF DUP4 CODECOPY DUP2 MLOAD SWAP2 MSTORE DUP5 MULMOD ADD ADD PUSH32 0x1B162F83D917E93EDB3308C29802DEB9D8AA690113B2E14864CCF6E18E4165F1 ADD SWAP3 POP DUP10 DUP8 DUP7 MULMOD DUP11 PUSH1 0x0 DUP1 MLOAD PUSH1 0x20 PUSH2 0x40FF DUP4 CODECOPY DUP2 MLOAD SWAP2 MSTORE DUP9 MULMOD DUP12 PUSH1 0x0 DUP1 MLOAD PUSH1 0x20 PUSH2 0x413F DUP4 CODECOPY DUP2 MLOAD SWAP2 MSTORE DUP5 MULMOD ADD ADD PUSH32 0x21E5241E12564DD6FD9F1CDD2A0DE39EEDFEFC1466CC568EC5CEB745A0506EDC ADD SWAP2 POP DUP10 DUP5 DUP6 MULMOD SWAP1 POP DUP10 DUP5 DUP12 DUP4 DUP5 MULMOD MULMOD SWAP4 POP DUP10 DUP4 DUP5 MULMOD SWAP1 POP DUP10 DUP4 DUP12 DUP4 DUP5 MULMOD MULMOD SWAP3 POP DUP10 DUP3 DUP4 MULMOD SWAP1 POP DUP10 DUP3 DUP12 DUP4 DUP5 MULMOD MULMOD SWAP2 POP DUP10 DUP10 DUP4 MULMOD DUP11 PUSH1 0x0 DUP1 MLOAD PUSH1 0x20 PUSH2 0x411F DUP4 CODECOPY DUP2 MLOAD SWAP2 MSTORE DUP6 MULMOD DUP12 PUSH1 0x0 DUP1 MLOAD PUSH1 0x20 PUSH2 0x415F DUP4 CODECOPY DUP2 MLOAD SWAP2 MSTORE DUP8 MULMOD ADD ADD PUSH32 0x1CFB5662E8CF5AC9226A80EE17B36ABECB73AB5F87E161927B4349E10E4BDF08 ADD SWAP1 POP DUP10 DUP9 DUP4 MULMOD DUP11 PUSH1 0x0 DUP1 MLOAD PUSH1 0x20 PUSH2 0x417F DUP4 CODECOPY DUP2 MLOAD SWAP2 MSTORE DUP6 MULMOD DUP12 PUSH1 0x0 DUP1 MLOAD PUSH1 0x20 PUSH2 0x40DF DUP4 CODECOPY DUP2 MLOAD SWAP2 MSTORE DUP8 MULMOD ADD ADD PUSH32 0xF21177E302A771BBAE6D8D1ECB373B62C99AF346220AC0129C53F666EB24100 ADD SWAP6 POP DUP10 DUP8 DUP4 MULMOD DUP11 PUSH1 0x0 DUP1 MLOAD PUSH1 0x20 PUSH2 0x40FF DUP4 CODECOPY DUP2 MLOAD SWAP2 MSTORE DUP6 MULMOD DUP12 PUSH1 0x0 DUP1 MLOAD PUSH1 0x20 PUSH2 0x413F DUP4 CODECOPY DUP2 MLOAD SWAP2 MSTORE DUP8 MULMOD ADD ADD PUSH32 0x1671522374606992AFFB0DD7F71B12BEC4236AEDE6290546BCEF7E1F515C2320 ADD SWAP5 POP DUP10 DUP2 DUP3 MULMOD SWAP4 POP DUP10 DUP2 DUP12 DUP7 DUP8 MULMOD MULMOD SWAP1 POP DUP10 DUP7 DUP8 MULMOD SWAP4 POP DUP10 DUP7 DUP12 DUP7 DUP8 MULMOD MULMOD SWAP6 POP DUP10 DUP6 DUP7 MULMOD SWAP4 POP DUP10 DUP6 DUP12 DUP7 DUP8 MULMOD MULMOD SWAP5 POP DUP10 DUP10 DUP7 MULMOD DUP11 PUSH1 0x0 DUP1 MLOAD PUSH1 0x20 PUSH2 0x411F DUP4 CODECOPY DUP2 MLOAD SWAP2 MSTORE DUP9 MULMOD DUP12 PUSH1 0x0 DUP1 MLOAD PUSH1 0x20 PUSH2 0x415F DUP4 CODECOPY DUP2 MLOAD SWAP2 MSTORE DUP5 MULMOD ADD ADD PUSH32 0xFA3EC5B9488259C2EB4CF24501BFAD9BE2EC9E42C5CC8CCD419D2A692CAD870 ADD SWAP4 POP DUP10 DUP9 DUP7 MULMOD DUP11 PUSH1 0x0 DUP1 MLOAD PUSH1 0x20 PUSH2 0x417F DUP4 CODECOPY DUP2 MLOAD SWAP2 MSTORE DUP9 MULMOD DUP12 PUSH1 0x0 DUP1 MLOAD PUSH1 0x20 PUSH2 0x40DF DUP4 CODECOPY DUP2 MLOAD SWAP2 MSTORE DUP5 MULMOD ADD ADD PUSH32 0x193C0E04E0BD298357CB266C1506080ED36EDCE85C648CC085E8C57B1AB54BBA ADD SWAP3 POP DUP10 DUP8 DUP7 MULMOD DUP11 PUSH1 0x0 DUP1 MLOAD PUSH1 0x20 PUSH2 0x40FF DUP4 CODECOPY DUP2 MLOAD SWAP2 MSTORE DUP9 MULMOD DUP12 PUSH1 0x0 DUP1 MLOAD PUSH1 0x20 PUSH2 0x413F DUP4 CODECOPY DUP2 MLOAD SWAP2 MSTORE DUP5 MULMOD ADD ADD PUSH32 0x102ADF8EF74735A27E9128306DCBC3C99F6F7291CD406578CE14EA2ADABA68F8 ADD SWAP2 POP DUP10 DUP5 DUP6 MULMOD SWAP1 POP DUP10 DUP5 DUP12 DUP4 DUP5 MULMOD MULMOD SWAP4 POP DUP10 DUP4 DUP5 MULMOD SWAP1 POP DUP10 DUP4 DUP12 DUP4 DUP5 MULMOD MULMOD SWAP3 POP DUP10 DUP3 DUP4 MULMOD SWAP1 POP DUP10 DUP3 DUP12 DUP4 DUP5 MULMOD MULMOD SWAP2 POP DUP10 DUP10 DUP4 MULMOD DUP11 PUSH1 0x0 DUP1 MLOAD PUSH1 0x20 PUSH2 0x411F DUP4 CODECOPY DUP2 MLOAD SWAP2 MSTORE DUP6 MULMOD DUP12 PUSH1 0x0 DUP1 MLOAD PUSH1 0x20 PUSH2 0x415F DUP4 CODECOPY DUP2 MLOAD SWAP2 MSTORE DUP8 MULMOD ADD ADD PUSH32 0xFE0AF7858E49859E2A54D6F1AD945B1316AA24BFBDD23AE40A6D0CB70C3EAB1 ADD SWAP1 POP DUP10 DUP9 DUP4 MULMOD DUP11 PUSH1 0x0 DUP1 MLOAD PUSH1 0x20 PUSH2 0x417F DUP4 CODECOPY DUP2 MLOAD SWAP2 MSTORE DUP6 MULMOD DUP12 PUSH1 0x0 DUP1 MLOAD PUSH1 0x20 PUSH2 0x40DF DUP4 CODECOPY DUP2 MLOAD SWAP2 MSTORE DUP8 MULMOD ADD ADD PUSH32 0x216F6717BBC7DEDB08536A2220843F4E2DA5F1DAA9EBDEFDE8A5EA7344798D22 ADD SWAP6 POP DUP10 DUP8 DUP4 MULMOD DUP11 PUSH1 0x0 DUP1 MLOAD PUSH1 0x20 PUSH2 0x40FF DUP4 CODECOPY DUP2 MLOAD SWAP2 MSTORE DUP6 MULMOD DUP12 PUSH1 0x0 DUP1 MLOAD PUSH1 0x20 PUSH2 0x413F DUP4 CODECOPY DUP2 MLOAD SWAP2 MSTORE DUP8 MULMOD ADD ADD PUSH32 0x1DA55CC900F0D21F4A3E694391918A1B3C23B2AC773C6B3EF88E2E4228325161 ADD SWAP5 POP DUP10 DUP2 DUP3 MULMOD SWAP4 POP DUP10 DUP2 DUP12 DUP7 DUP8 MULMOD MULMOD SWAP1 POP DUP10 DUP7 DUP8 MULMOD SWAP4 POP DUP10 DUP7 DUP12 DUP7 DUP8 MULMOD MULMOD SWAP6 POP DUP10 DUP6 DUP7 MULMOD SWAP4 POP DUP10 DUP6 DUP12 DUP7 DUP8 MULMOD MULMOD SWAP5 POP DUP10 DUP11 DUP11 DUP8 MULMOD DUP12 PUSH1 0x0 DUP1 MLOAD PUSH1 0x20 PUSH2 0x411F DUP4 CODECOPY DUP2 MLOAD SWAP2 MSTORE DUP10 MULMOD DUP13 PUSH1 0x0 DUP1 MLOAD PUSH1 0x20 PUSH2 0x415F DUP4 CODECOPY DUP2 MLOAD SWAP2 MSTORE DUP6 MULMOD ADD ADD MOD PUSH1 0x0 MSTORE PUSH1 0x20 PUSH1 0x0 RETURN JUMPDEST PUSH1 0x0 PUSH1 0x40 DUP3 DUP5 SUB SLT ISZERO PUSH2 0x4062 JUMPI PUSH1 0x0 DUP1 REVERT JUMPDEST DUP3 PUSH1 0x1F DUP4 ADD SLT PUSH2 0x4071 JUMPI PUSH1 0x0 DUP1 REVERT JUMPDEST PUSH1 0x40 MLOAD PUSH1 0x40 DUP2 ADD DUP2 DUP2 LT PUSH8 0xFFFFFFFFFFFFFFFF DUP3 GT OR ISZERO PUSH2 0x40A2 JUMPI PUSH4 0x4E487B71 PUSH1 0xE0 SHL PUSH1 0x0 MSTORE PUSH1 0x41 PUSH1 0x4 MSTORE PUSH1 0x24 PUSH1 0x0 REVERT JUMPDEST DUP1 PUSH1 0x40 MSTORE POP DUP1 PUSH1 0x40 DUP5 ADD DUP6 DUP2 GT ISZERO PUSH2 0x40B9 JUMPI PUSH1 0x0 DUP1 REVERT JUMPDEST DUP5 JUMPDEST DUP2 DUP2 LT ISZERO PUSH2 0x40D3 JUMPI DUP1 CALLDATALOAD DUP4 MSTORE PUSH1 0x20 SWAP3 DUP4 ADD SWAP3 ADD PUSH2 0x40BB JUMP JUMPDEST POP SWAP2 SWAP6 SWAP5 POP POP POP POP POP JUMP INVALID 0x29 PUSH10 0xF27EED31A480B9C36C76 NUMBER PUSH26 0xDBCA2CC8FDD1415C3DDED62940BCDE0BD771176CC029695AD025 DUP3 0xA7 0xE SELFDESTRUCT ADDMOD 0xA6 REVERT SWAP10 0xD0 JUMPI 0xE1 0x2E PC 0xE7 0xD7 0xB6 0xB1 PUSH13 0xDFABC8EE291116ED41E13BB9C0 0xC6 PUSH11 0xE119424FDDBCBC9314DC9F 0xDB 0xDE 0xEA SSTORE 0xD6 0xC6 GASLIMIT NUMBER 0xDC 0x49 SUB 0xE0 EQ ADDRESS 0x21 0xEC PUSH9 0x6A3F330D5F9E654638 MOD 0x5C 0xE6 0xCD PUSH26 0xE28C5B3753326244EE65A1B1A7109B7F411BA0E4C9B2B70CAF5C CALLDATASIZE 0xA7 0xB1 SWAP5 0xBE PUSH29 0x11AD24378BFEDB68592BA8118B2E2419F9EC02EC394C9871C832963DC1 0xB8 SWAP14 PUSH21 0x3C8C7B964029B2311687B1FE23A264697066735822 SLT KECCAK256 0x1F STOP LT MUL SWAP15 DUP12 0xB8 CALLVALUE PUSH18 0x53DE1A4156B801C8CD154D020718B622CDF9 DUP16 STATICCALL PUSH9 0xA8C764736F6C634300 ADDMOD OR STOP CALLER "},"methodIdentifiers":{"hash(uint256[2])":"561558fe"}}}}}