{"contracts/Semaphore.sol":{"Semaphore":{"abi":[{"inputs":[{"internalType":"contract ISemaphoreVerifier","name":"_verifier","type":"address"}],"stateMutability":"nonpayable","type":"constructor"},{"inputs":[],"name":"LeafAlreadyExists","type":"error"},{"inputs":[],"name":"LeafCannotBeZero","type":"error"},{"inputs":[],"name":"LeafDoesNotExist","type":"error"},{"inputs":[],"name":"LeafGreaterThanSnarkScalarField","type":"error"},{"inputs":[],"name":"Semaphore__CallerIsNotTheGroupAdmin","type":"error"},{"inputs":[],"name":"Semaphore__CallerIsNotThePendingGroupAdmin","type":"error"},{"inputs":[],"name":"Semaphore__GroupDoesNotExist","type":"error"},{"inputs":[],"name":"Semaphore__GroupHasNoMembers","type":"error"},{"inputs":[],"name":"Semaphore__InvalidProof","type":"error"},{"inputs":[],"name":"Semaphore__MerkleTreeDepthIsNotSupported","type":"error"},{"inputs":[],"name":"Semaphore__MerkleTreeRootIsExpired","type":"error"},{"inputs":[],"name":"Semaphore__MerkleTreeRootIsNotPartOfTheGroup","type":"error"},{"inputs":[],"name":"Semaphore__YouAreUsingTheSameNullifierTwice","type":"error"},{"inputs":[],"name":"WrongSiblingNodes","type":"error"},{"anonymous":false,"inputs":[{"indexed":true,"internalType":"uint256","name":"groupId","type":"uint256"},{"indexed":true,"internalType":"address","name":"oldAdmin","type":"address"},{"indexed":true,"internalType":"address","name":"newAdmin","type":"address"}],"name":"GroupAdminPending","type":"event"},{"anonymous":false,"inputs":[{"indexed":true,"internalType":"uint256","name":"groupId","type":"uint256"},{"indexed":true,"internalType":"address","name":"oldAdmin","type":"address"},{"indexed":true,"internalType":"address","name":"newAdmin","type":"address"}],"name":"GroupAdminUpdated","type":"event"},{"anonymous":false,"inputs":[{"indexed":true,"internalType":"uint256","name":"groupId","type":"uint256"}],"name":"GroupCreated","type":"event"},{"anonymous":false,"inputs":[{"indexed":true,"internalType":"uint256","name":"groupId","type":"uint256"},{"indexed":false,"internalType":"uint256","name":"oldMerkleTreeDuration","type":"uint256"},{"indexed":false,"internalType":"uint256","name":"newMerkleTreeDuration","type":"uint256"}],"name":"GroupMerkleTreeDurationUpdated","type":"event"},{"anonymous":false,"inputs":[{"indexed":true,"internalType":"uint256","name":"groupId","type":"uint256"},{"indexed":false,"internalType":"uint256","name":"index","type":"uint256"},{"indexed":false,"internalType":"uint256","name":"identityCommitment","type":"uint256"},{"indexed":false,"internalType":"uint256","name":"merkleTreeRoot","type":"uint256"}],"name":"MemberAdded","type":"event"},{"anonymous":false,"inputs":[{"indexed":true,"internalType":"uint256","name":"groupId","type":"uint256"},{"indexed":false,"internalType":"uint256","name":"index","type":"uint256"},{"indexed":false,"internalType":"uint256","name":"identityCommitment","type":"uint256"},{"indexed":false,"internalType":"uint256","name":"merkleTreeRoot","type":"uint256"}],"name":"MemberRemoved","type":"event"},{"anonymous":false,"inputs":[{"indexed":true,"internalType":"uint256","name":"groupId","type":"uint256"},{"indexed":false,"internalType":"uint256","name":"index","type":"uint256"},{"indexed":false,"internalType":"uint256","name":"identityCommitment","type":"uint256"},{"indexed":false,"internalType":"uint256","name":"newIdentityCommitment","type":"uint256"},{"indexed":false,"internalType":"uint256","name":"merkleTreeRoot","type":"uint256"}],"name":"MemberUpdated","type":"event"},{"anonymous":false,"inputs":[{"indexed":true,"internalType":"uint256","name":"groupId","type":"uint256"},{"indexed":false,"internalType":"uint256","name":"startIndex","type":"uint256"},{"indexed":false,"internalType":"uint256[]","name":"identityCommitments","type":"uint256[]"},{"indexed":false,"internalType":"uint256","name":"merkleTreeRoot","type":"uint256"}],"name":"MembersAdded","type":"event"},{"anonymous":false,"inputs":[{"indexed":true,"internalType":"uint256","name":"groupId","type":"uint256"},{"indexed":false,"internalType":"uint256","name":"merkleTreeDepth","type":"uint256"},{"indexed":true,"internalType":"uint256","name":"merkleTreeRoot","type":"uint256"},{"indexed":false,"internalType":"uint256","name":"nullifier","type":"uint256"},{"indexed":false,"internalType":"uint256","name":"message","type":"uint256"},{"indexed":true,"internalType":"uint256","name":"scope","type":"uint256"},{"indexed":false,"internalType":"uint256[8]","name":"points","type":"uint256[8]"}],"name":"ProofValidated","type":"event"},{"inputs":[{"internalType":"uint256","name":"groupId","type":"uint256"}],"name":"acceptGroupAdmin","outputs":[],"stateMutability":"nonpayable","type":"function"},{"inputs":[{"internalType":"uint256","name":"groupId","type":"uint256"},{"internalType":"uint256","name":"identityCommitment","type":"uint256"}],"name":"addMember","outputs":[],"stateMutability":"nonpayable","type":"function"},{"inputs":[{"internalType":"uint256","name":"groupId","type":"uint256"},{"internalType":"uint256[]","name":"identityCommitments","type":"uint256[]"}],"name":"addMembers","outputs":[],"stateMutability":"nonpayable","type":"function"},{"inputs":[{"internalType":"address","name":"admin","type":"address"},{"internalType":"uint256","name":"merkleTreeDuration","type":"uint256"}],"name":"createGroup","outputs":[{"internalType":"uint256","name":"groupId","type":"uint256"}],"stateMutability":"nonpayable","type":"function"},{"inputs":[],"name":"createGroup","outputs":[{"internalType":"uint256","name":"groupId","type":"uint256"}],"stateMutability":"nonpayable","type":"function"},{"inputs":[{"internalType":"address","name":"admin","type":"address"}],"name":"createGroup","outputs":[{"internalType":"uint256","name":"groupId","type":"uint256"}],"stateMutability":"nonpayable","type":"function"},{"inputs":[{"internalType":"uint256","name":"groupId","type":"uint256"}],"name":"getGroupAdmin","outputs":[{"internalType":"address","name":"","type":"address"}],"stateMutability":"view","type":"function"},{"inputs":[{"internalType":"uint256","name":"groupId","type":"uint256"}],"name":"getMerkleTreeDepth","outputs":[{"internalType":"uint256","name":"","type":"uint256"}],"stateMutability":"view","type":"function"},{"inputs":[{"internalType":"uint256","name":"groupId","type":"uint256"}],"name":"getMerkleTreeRoot","outputs":[{"internalType":"uint256","name":"","type":"uint256"}],"stateMutability":"view","type":"function"},{"inputs":[{"internalType":"uint256","name":"groupId","type":"uint256"}],"name":"getMerkleTreeSize","outputs":[{"internalType":"uint256","name":"","type":"uint256"}],"stateMutability":"view","type":"function"},{"inputs":[],"name":"groupCounter","outputs":[{"internalType":"uint256","name":"","type":"uint256"}],"stateMutability":"view","type":"function"},{"inputs":[{"internalType":"uint256","name":"","type":"uint256"}],"name":"groups","outputs":[{"internalType":"uint256","name":"merkleTreeDuration","type":"uint256"}],"stateMutability":"view","type":"function"},{"inputs":[{"internalType":"uint256","name":"groupId","type":"uint256"},{"internalType":"uint256","name":"identityCommitment","type":"uint256"}],"name":"hasMember","outputs":[{"internalType":"bool","name":"","type":"bool"}],"stateMutability":"view","type":"function"},{"inputs":[{"internalType":"uint256","name":"groupId","type":"uint256"},{"internalType":"uint256","name":"identityCommitment","type":"uint256"}],"name":"indexOf","outputs":[{"internalType":"uint256","name":"","type":"uint256"}],"stateMutability":"view","type":"function"},{"inputs":[{"internalType":"uint256","name":"groupId","type":"uint256"},{"internalType":"uint256","name":"identityCommitment","type":"uint256"},{"internalType":"uint256[]","name":"merkleProofSiblings","type":"uint256[]"}],"name":"removeMember","outputs":[],"stateMutability":"nonpayable","type":"function"},{"inputs":[{"internalType":"uint256","name":"groupId","type":"uint256"},{"internalType":"address","name":"newAdmin","type":"address"}],"name":"updateGroupAdmin","outputs":[],"stateMutability":"nonpayable","type":"function"},{"inputs":[{"internalType":"uint256","name":"groupId","type":"uint256"},{"internalType":"uint256","name":"newMerkleTreeDuration","type":"uint256"}],"name":"updateGroupMerkleTreeDuration","outputs":[],"stateMutability":"nonpayable","type":"function"},{"inputs":[{"internalType":"uint256","name":"groupId","type":"uint256"},{"internalType":"uint256","name":"identityCommitment","type":"uint256"},{"internalType":"uint256","name":"newIdentityCommitment","type":"uint256"},{"internalType":"uint256[]","name":"merkleProofSiblings","type":"uint256[]"}],"name":"updateMember","outputs":[],"stateMutability":"nonpayable","type":"function"},{"inputs":[{"internalType":"uint256","name":"groupId","type":"uint256"},{"components":[{"internalType":"uint256","name":"merkleTreeDepth","type":"uint256"},{"internalType":"uint256","name":"merkleTreeRoot","type":"uint256"},{"internalType":"uint256","name":"nullifier","type":"uint256"},{"internalType":"uint256","name":"message","type":"uint256"},{"internalType":"uint256","name":"scope","type":"uint256"},{"internalType":"uint256[8]","name":"points","type":"uint256[8]"}],"internalType":"struct ISemaphore.SemaphoreProof","name":"proof","type":"tuple"}],"name":"validateProof","outputs":[],"stateMutability":"nonpayable","type":"function"},{"inputs":[],"name":"verifier","outputs":[{"internalType":"contract ISemaphoreVerifier","name":"","type":"address"}],"stateMutability":"view","type":"function"},{"inputs":[{"internalType":"uint256","name":"groupId","type":"uint256"},{"components":[{"internalType":"uint256","name":"merkleTreeDepth","type":"uint256"},{"internalType":"uint256","name":"merkleTreeRoot","type":"uint256"},{"internalType":"uint256","name":"nullifier","type":"uint256"},{"internalType":"uint256","name":"message","type":"uint256"},{"internalType":"uint256","name":"scope","type":"uint256"},{"internalType":"uint256[8]","name":"points","type":"uint256[8]"}],"internalType":"struct ISemaphore.SemaphoreProof","name":"proof","type":"tuple"}],"name":"verifyProof","outputs":[{"internalType":"bool","name":"","type":"bool"}],"stateMutability":"view","type":"function"}],"evm":{"bytecode":{"linkReferences":{"poseidon-solidity/PoseidonT3.sol":{"PoseidonT3":[{"length":20,"start":4599},{"length":20,"start":5338},{"length":20,"start":5820},{"length":20,"start":5986},{"length":20,"start":6288},{"length":20,"start":6454}]}},"object":"608060405234801561001057600080fd5b5060405161204138038061204183398101604081905261002f91610054565b600380546001600160a01b0319166001600160a01b0392909216919091179055610084565b60006020828403121561006657600080fd5b81516001600160a01b038116811461007d57600080fd5b9392505050565b611fae806100936000396000f3fe608060405234801561001057600080fd5b50600436106101375760003560e01c80636389e107116100b8578063a9961c941161007c578063a9961c94146102b5578063d0d898dd146102de578063d24924fe146102f1578063da3cda52146102fa578063dabc4d511461030d578063fcf0b6ec1461032057600080fd5b80636389e1071461022c5780636cdd32fe1461024f5780637ee35a0c1461026257806390509d441461028257806396324bd41461029557600080fd5b80634178c4d5116100ff5780634178c4d5146101c8578063456f4188146101db578063568ee826146101fe578063575185ed146102115780635c3f3b601461021957600080fd5b8063042453711461013c57806306dd8485146101515780631783efc3146101775780632b7ac3f31461018a5780632c880363146101b5575b600080fd5b61014f61014a366004611a0e565b610333565b005b61016461015f366004611a5a565b610366565b6040519081526020015b60405180910390f35b61014f610185366004611a5a565b610387565b60035461019d906001600160a01b031681565b6040516001600160a01b03909116815260200161016e565b6101646101c3366004611a98565b6103b8565b61014f6101d6366004611ac2565b6103f0565b6101ee6101e9366004611b23565b610427565b604051901515815260200161016e565b61014f61020c366004611b5d565b61068c565b61016461069a565b610164610227366004611b89565b6106d1565b61016461023a366004611ba4565b60009081526020819052604090206001015490565b61014f61025d366004611bbd565b61070a565b610164610270366004611ba4565b60009081526020819052604090205490565b6101ee610290366004611a5a565b61073f565b6101646102a3366004611ba4565b60046020526000908152604090205481565b61019d6102c3366004611ba4565b6000908152600160205260409020546001600160a01b031690565b61014f6102ec366004611b23565b610761565b61016460055481565b61014f610308366004611ba4565b61084b565b61016461031b366004611ba4565b610857565b61014f61032e366004611a5a565b61087b565b600061034084848461090b565b600094855260046020908152604080872092875260019092019052909320429055505050565b600082815260208190526040812061037e90836109a9565b90505b92915050565b600061039383836109f6565b6000938452600460209081526040808620928652600190920190529092204290555050565b60058054600091826103c983611c26565b9190505590506103d98184610a98565b600081815260046020526040902091909155919050565b60006103ff8686868686610b22565b6000968752600460209081526040808920928952600190920190529095204290555050505050565b60008281526001602052604081205483906001600160a01b031661045e5760405163029f057960e01b815260040160405180910390fd5b60018335108061046f575060208335115b1561048d5760405163767b278960e11b815260040160405180910390fd5b600084815260208190526040812054908190036104bd5760405163c8b02e0160e01b815260040160405180910390fd5b60006104c886610857565b90508085602001351461054d576000868152600460208181526040808420898301358552600181018352908420548a855292909152549091829003610520576040516326994ac360e11b815260040160405180910390fd5b61052a8183611c3f565b42111561054a576040516309581a9960e41b815260040160405180910390fd5b50505b60035460408051808201825260a0880135815260c088013560208083019190915282516080808201855260e08b01358286019081526101008c0135606080850191909152908352855180870187526101208d013581526101408d01358186015283850152855180870187526101608d013581526101808d01358186015286519283018752848d013583528c870135948301949094526001600160a01b039096169563a23f019995929392820190610606908d0135610be9565b81526020016106188c60800135610be9565b90526040516001600160e01b031960e087901b16815261064194939291908c3590600401611cb4565b602060405180830381865afa15801561065e573d6000803e3d6000fd5b505050506040513d601f19601f820116820180604052508101906106829190611d47565b9695505050505050565b6106968282610c20565b5050565b60058054600091826106ab83611c26565b9190505590506106bb8133610a98565b6000818152600460205260409020610e10905590565b60058054600091826106e283611c26565b9190505590506106f28183610a98565b6000818152600460205260409020610e109055919050565b600061071885858585610cb4565b60009586526004602090815260408088209288526001909201905290942042905550505050565b600082815260208181526040808320848452600301909152812054151561037e565b600082815260046020908152604080832084820135845260020190915290205460ff16156107a25760405163041162bd60e31b815260040160405180910390fd5b6107ac8282610427565b6107c95760405163012a9af160e61b815260040160405180910390fd5b6000828152600460209081526040808320848201358085526002909101835292819020805460ff1916600117905551608084013592918401359185917f0c32e14cfe81a05d371c248d22de6b7ae849e981b76a1f8842e7b6da73fc405a9161083f918735919060608901359060a08a0190611d70565b60405180910390a45050565b61085481610d72565b50565b60008181526020818152604080832060018101548452600201909152812054610381565b60008281526001602052604090205482906001600160a01b031633146108b4576040516317737e4f60e31b815260040160405180910390fd5b60008381526004602090815260409182902080549085905582518181529182018590529185917f264b2a8f6763c084235fe832ba903482b2ef1a521336881fc75b987c2dfd29c5910160405180910390a250505050565b60008381526001602052604081205484906001600160a01b03163314610944576040516317737e4f60e31b815260040160405180910390fd5b6000858152602081905260409020805490610960908686610e17565b9250857f61e5e8054e3daf084a0c6c646c065e8bf5e7ca4d5567bda942309bd1652f349d828787876040516109989493929190611d98565b60405180910390a250509392505050565b600081815260038301602052604081205481036109d957604051631c811d5b60e21b815260040160405180910390fd5b600082815260038401602052604090205461037e90600190611dde565b60008281526001602052604081205483906001600160a01b03163314610a2f576040516317737e4f60e31b815260040160405180910390fd5b6000848152602081905260409020805490610a4a9085611344565b604080518381526020810187905290810182905290935085907f19239b3f93cd10558aaf11423af70c77763bf54f52bcc75bfa74d4d13548cde99060600160405180910390a2505092915050565b60008281526001602052604080822080546001600160a01b0319166001600160a01b0385161790555183917ff0adfb94eab6daf835deb69c5738fe636150c3dfd08094a76f39b963dc8cb05a91a26040516001600160a01b0382169060009084907f0ba83579a0e79193ef649b9f5a8759d35af086ba62a3e207b52e4a8ae30d49e3908390a45050565b60008581526001602052604081205486906001600160a01b03163314610b5b576040516317737e4f60e31b815260040160405180910390fd5b6000878152602081905260408120610b7390886109a9565b6000898152602081905260409020909150610b91908888888861150d565b60408051838152602081018a90529081018890526060810182905290935088907fea3588e4a2a0c93d6a0e69dfeaf7496f43ccccf02ad9ce0a5b7627cbca4b61b19060800160405180910390a2505095945050505050565b6000600882604051602001610c0091815260200190565b60408051601f198184030181529190528051602090910120901c92915050565b60008281526001602052604090205482906001600160a01b03163314610c59576040516317737e4f60e31b815260040160405180910390fd5b60008381526002602052604080822080546001600160a01b0319166001600160a01b03861690811790915590519091339186917f1018365553cce55d9cb02ef73e18cc9311894f3fe1d1eafd235ac2d26cd8ba5891a4505050565b60008481526001602052604081205485906001600160a01b03163314610ced576040516317737e4f60e31b815260040160405180910390fd5b6000868152602081905260408120610d0590876109a9565b6000888152602081905260409020909150610d22908787876119a9565b604080518381526020810189905290810182905290935087907f3108849c053c77b8073a11256dffb5ffd5b55e93e105a355e1c9061db890d8719060600160405180910390a25050949350505050565b6000818152600260205260409020546001600160a01b03163314610da9576040516334c4245d60e01b815260040160405180910390fd5b60008181526001602090815260408083208054336001600160a01b031980831682179093556002909452828520805490921690915590516001600160a01b0390911692839185917f0ba83579a0e79193ef649b9f5a8759d35af086ba62a3e207b52e4a8ae30d49e391a45050565b8254600090815b83811015610f4857600080516020611f59833981519152858583818110610e4757610e47611c52565b9050602002013510610e6c576040516361c0541760e11b815260040160405180910390fd5b848482818110610e7e57610e7e611c52565b90506020020135600003610ea5576040516314b48df160e11b815260040160405180910390fd5b610eda86868684818110610ebb57610ebb611c52565b9050602002013560009081526003919091016020526040902054151590565b15610ef8576040516312c50cad60e11b815260040160405180910390fd5b80610f04836001611c3f565b610f0e9190611c3f565b866003016000878785818110610f2657610f26611c52565b6020908102929092013583525081019190915260400160002055600101610e1e565b50606084848080602002602001604051908101604052809392919081815260200183836020028082843760009201919091525050506001880154919250505b610f918584611c3f565b610f9c826002611ed5565b1015610fb257610fab81611c26565b9050610f87565b60018701819055826000610fc68783611c3f565b9050600182811c90600090610fdb8185611dde565b610fe7911c6001611c3f565b905060005b858110156112d85760006110008484611dde565b905060008167ffffffffffffffff81111561101d5761101d611ee1565b604051908082528060200260200182016040528015611046578160200160208202803683370190505b50905060005b82811015611203576000886110618884611c3f565b61106c906002611ef7565b101561108f578f60020160008681526020019081526020016000205490506110cb565b8a8961109b8985611c3f565b6110a6906002611ef7565b6110b09190611dde565b815181106110c0576110c0611c52565b602002602001015190505b6000886110d88985611c3f565b6110e3906002611ef7565b6110ee906001611c3f565b101561113b578b8a6111008a86611c3f565b61110b906002611ef7565b611116906001611c3f565b6111209190611dde565b8151811061113057611130611c52565b602002602001015190505b600081156111d357604080518082018252848152602081018490529051632b0aac7f60e11b815273__$75f79a42d9bcbdbb69ad79ebd80f556f39$__9163561558fe9161118b9190600401611f0e565b602060405180830381865af41580156111a8573d6000803e3d6000fd5b505050506040513d601f19601f820116820180604052508101906111cc9190611f3f565b90506111d6565b50815b808585815181106111e9576111e9611c52565b60200260200101818152505083600101935050505061104c565b5085600116600103611254578860018a5161121e9190611dde565b8151811061122e5761122e611c52565b60200260200101518e60020160008581526020019081526020016000208190555061129f565b60018951111561129f578860028a5161126d9190611dde565b8151811061127d5761127d611c52565b60200260200101518e6002016000858152602001908152602001600020819055505b849650600185901c9450809850839550600180856112bd9190611dde565b6112c9911c6001611c3f565b93508260010192505050610fec565b506112e38988611c3f565b8b55855186906000906112f8576112f8611c52565b60200260200101518b6002016000878152602001908152602001600020819055508560008151811061132c5761132c611c52565b60200260200101519750505050505050509392505050565b6000600080516020611f598339815191528210611374576040516361c0541760e11b815260040160405180910390fd5b81600003611395576040516314b48df160e11b815260040160405180910390fd5b6000828152600384016020526040902054156113c4576040516312c50cad60e11b815260040160405180910390fd5b8254600180850154906113d8908390611c3f565b6113e3826002611ed5565b10156113f5576113f281611c26565b90505b600185018190558360005b828110156114d2578084901c6001166001036114b657604080518082018252600083815260028a0160209081529083902054825281018490529051632b0aac7f60e11b815273__$75f79a42d9bcbdbb69ad79ebd80f556f39$__9163561558fe9161146e9190600401611f0e565b602060405180830381865af415801561148b573d6000803e3d6000fd5b505050506040513d601f19601f820116820180604052508101906114af9190611f3f565b91506114ca565b600081815260028801602052604090208290555b600101611400565b506114dc83611c26565b8087556000928352600287016020908152604080852084905596845260039097019096529390209390935550919050565b6000600080516020611f59833981519152841061153d576040516361c0541760e11b815260040160405180910390fd5b600085815260038701602052604090205461156b57604051631c811d5b60e21b815260040160405180910390fd5b60008481526003870160205260409020541561159a576040516312c50cad60e11b815260040160405180910390fd5b60006115a687876109a9565b8754909150859087906000906115be90600190611dde565b60018b0154909150600090815b81811015611920578087901c60011660010361177e57600080516020611f598339815191528a8a8581811061160257611602611c52565b9050602002013510611627576040516361c0541760e11b815260040160405180910390fd5b73__$75f79a42d9bcbdbb69ad79ebd80f556f39$__63561558fe60405180604001604052808d8d8881811061165e5761165e611c52565b905060200201358152602001898152506040518263ffffffff1660e01b815260040161168a9190611f0e565b602060405180830381865af41580156116a7573d6000803e3d6000fd5b505050506040513d601f19601f820116820180604052508101906116cb9190611f3f565b955073__$75f79a42d9bcbdbb69ad79ebd80f556f39$__63561558fe60405180604001604052808d8d8881811061170457611704611c52565b905060200201358152602001888152506040518263ffffffff1660e01b81526004016117309190611f0e565b602060405180830381865af415801561174d573d6000803e3d6000fd5b505050506040513d601f19601f820116820180604052508101906117719190611f3f565b9450826001019250611918565b86811c84821c1461190457600080516020611f598339815191528a8a858181106117aa576117aa611c52565b90506020020135106117cf576040516361c0541760e11b815260040160405180910390fd5b600081815260028e0160205260409020548590036117fb57600081815260028e01602052604090208690555b73__$75f79a42d9bcbdbb69ad79ebd80f556f39$__63561558fe60405180604001604052808981526020018d8d8881811061183857611838611c52565b905060200201358152506040518263ffffffff1660e01b815260040161185e9190611f0e565b602060405180830381865af415801561187b573d6000803e3d6000fd5b505050506040513d601f19601f8201168201806040525081019061189f9190611f3f565b955073__$75f79a42d9bcbdbb69ad79ebd80f556f39$__63561558fe60405180604001604052808881526020018d8d888181106118de576118de611c52565b905060200201358152506040518263ffffffff1660e01b81526004016117309190611f0e565b600081815260028e01602052604090208690555b6001016115cb565b5060018c0154600090815260028d016020526040902054841461195657604051631fd4986360e11b815260040160405180910390fd5b600081815260028d016020526040902085905589156119885760008b815260038d016020526040808220548c83529120555b505050600088815260038a0160205260408120555091505095945050505050565b60006119b985856000868661150d565b95945050505050565b60008083601f8401126119d457600080fd5b50813567ffffffffffffffff8111156119ec57600080fd5b6020830191508360208260051b8501011115611a0757600080fd5b9250929050565b600080600060408486031215611a2357600080fd5b83359250602084013567ffffffffffffffff811115611a4157600080fd5b611a4d868287016119c2565b9497909650939450505050565b60008060408385031215611a6d57600080fd5b50508035926020909101359150565b80356001600160a01b0381168114611a9357600080fd5b919050565b60008060408385031215611aab57600080fd5b611ab483611a7c565b946020939093013593505050565b600080600080600060808688031215611ada57600080fd5b853594506020860135935060408601359250606086013567ffffffffffffffff811115611b0657600080fd5b611b12888289016119c2565b969995985093965092949392505050565b6000808284036101c0811215611b3857600080fd5b833592506101a0601f1982011215611b4f57600080fd5b506020830190509250929050565b60008060408385031215611b7057600080fd5b82359150611b8060208401611a7c565b90509250929050565b600060208284031215611b9b57600080fd5b61037e82611a7c565b600060208284031215611bb657600080fd5b5035919050565b60008060008060608587031215611bd357600080fd5b8435935060208501359250604085013567ffffffffffffffff811115611bf857600080fd5b611c04878288016119c2565b95989497509550505050565b634e487b7160e01b600052601160045260246000fd5b600060018201611c3857611c38611c10565b5060010190565b8082018082111561038157610381611c10565b634e487b7160e01b600052603260045260246000fd5b8060005b6002811015611c8b578151845260209384019390910190600101611c6c565b50505050565b8060005b6004811015611c8b578151845260209384019390910190600101611c95565b6101a08101611cc38288611c68565b6040808301876000805b6002808210611cdc5750611d16565b835185845b83811015611cff578251825260209283019290910190600101611ce1565b505050938501935060209290920191600101611ccd565b5050505050611d2860c0830186611c68565b611d36610100830185611c91565b826101808301529695505050505050565b600060208284031215611d5957600080fd5b81518015158114611d6957600080fd5b9392505050565b8481526020810184905260408101839052610160810161010083606084013795945050505050565b848152606060208201819052810183905260006001600160fb1b03841115611dbf57600080fd5b8360051b80866080850137604083019390935250016080019392505050565b8181038181111561038157610381611c10565b600181815b80851115611e2c578160001904821115611e1257611e12611c10565b80851615611e1f57918102915b93841c9390800290611df6565b509250929050565b600082611e4357506001610381565b81611e5057506000610381565b8160018114611e665760028114611e7057611e8c565b6001915050610381565b60ff841115611e8157611e81611c10565b50506001821b610381565b5060208310610133831016604e8410600b8410161715611eaf575081810a610381565b611eb98383611df1565b8060001904821115611ecd57611ecd611c10565b029392505050565b600061037e8383611e34565b634e487b7160e01b600052604160045260246000fd5b808202811582820484141761038157610381611c10565b60408101818360005b6002811015611f36578151835260209283019290910190600101611f17565b50505092915050565b600060208284031215611f5157600080fd5b505191905056fe30644e72e131a029b85045b68181585d2833e84879b9709143e1f593f0000001a2646970667358221220cba18d740bd5c0420b4490d246908486422f5ad82abf9bbbd122e06b762032c764736f6c63430008170033","opcodes":"PUSH1 0x80 PUSH1 0x40 MSTORE CALLVALUE DUP1 ISZERO PUSH2 0x10 JUMPI PUSH1 0x0 DUP1 REVERT JUMPDEST POP PUSH1 0x40 MLOAD PUSH2 0x2041 CODESIZE SUB DUP1 PUSH2 0x2041 DUP4 CODECOPY DUP2 ADD PUSH1 0x40 DUP2 SWAP1 MSTORE PUSH2 0x2F SWAP2 PUSH2 0x54 JUMP JUMPDEST PUSH1 0x3 DUP1 SLOAD PUSH1 0x1 PUSH1 0x1 PUSH1 0xA0 SHL SUB NOT AND PUSH1 0x1 PUSH1 0x1 PUSH1 0xA0 SHL SUB SWAP3 SWAP1 SWAP3 AND SWAP2 SWAP1 SWAP2 OR SWAP1 SSTORE PUSH2 0x84 JUMP JUMPDEST PUSH1 0x0 PUSH1 0x20 DUP3 DUP5 SUB SLT ISZERO PUSH2 0x66 JUMPI PUSH1 0x0 DUP1 REVERT JUMPDEST DUP2 MLOAD PUSH1 0x1 PUSH1 0x1 PUSH1 0xA0 SHL SUB DUP2 AND DUP2 EQ PUSH2 0x7D JUMPI PUSH1 0x0 DUP1 REVERT JUMPDEST SWAP4 SWAP3 POP POP POP JUMP JUMPDEST PUSH2 0x1FAE DUP1 PUSH2 0x93 PUSH1 0x0 CODECOPY PUSH1 0x0 RETURN INVALID PUSH1 0x80 PUSH1 0x40 MSTORE CALLVALUE DUP1 ISZERO PUSH2 0x10 JUMPI PUSH1 0x0 DUP1 REVERT JUMPDEST POP PUSH1 0x4 CALLDATASIZE LT PUSH2 0x137 JUMPI PUSH1 0x0 CALLDATALOAD PUSH1 0xE0 SHR DUP1 PUSH4 0x6389E107 GT PUSH2 0xB8 JUMPI DUP1 PUSH4 0xA9961C94 GT PUSH2 0x7C JUMPI DUP1 PUSH4 0xA9961C94 EQ PUSH2 0x2B5 JUMPI DUP1 PUSH4 0xD0D898DD EQ PUSH2 0x2DE JUMPI DUP1 PUSH4 0xD24924FE EQ PUSH2 0x2F1 JUMPI DUP1 PUSH4 0xDA3CDA52 EQ PUSH2 0x2FA JUMPI DUP1 PUSH4 0xDABC4D51 EQ PUSH2 0x30D JUMPI DUP1 PUSH4 0xFCF0B6EC EQ PUSH2 0x320 JUMPI PUSH1 0x0 DUP1 REVERT JUMPDEST DUP1 PUSH4 0x6389E107 EQ PUSH2 0x22C JUMPI DUP1 PUSH4 0x6CDD32FE EQ PUSH2 0x24F JUMPI DUP1 PUSH4 0x7EE35A0C EQ PUSH2 0x262 JUMPI DUP1 PUSH4 0x90509D44 EQ PUSH2 0x282 JUMPI DUP1 PUSH4 0x96324BD4 EQ PUSH2 0x295 JUMPI PUSH1 0x0 DUP1 REVERT JUMPDEST DUP1 PUSH4 0x4178C4D5 GT PUSH2 0xFF JUMPI DUP1 PUSH4 0x4178C4D5 EQ PUSH2 0x1C8 JUMPI DUP1 PUSH4 0x456F4188 EQ PUSH2 0x1DB JUMPI DUP1 PUSH4 0x568EE826 EQ PUSH2 0x1FE JUMPI DUP1 PUSH4 0x575185ED EQ PUSH2 0x211 JUMPI DUP1 PUSH4 0x5C3F3B60 EQ PUSH2 0x219 JUMPI PUSH1 0x0 DUP1 REVERT JUMPDEST DUP1 PUSH4 0x4245371 EQ PUSH2 0x13C JUMPI DUP1 PUSH4 0x6DD8485 EQ PUSH2 0x151 JUMPI DUP1 PUSH4 0x1783EFC3 EQ PUSH2 0x177 JUMPI DUP1 PUSH4 0x2B7AC3F3 EQ PUSH2 0x18A JUMPI DUP1 PUSH4 0x2C880363 EQ PUSH2 0x1B5 JUMPI JUMPDEST PUSH1 0x0 DUP1 REVERT JUMPDEST PUSH2 0x14F PUSH2 0x14A CALLDATASIZE PUSH1 0x4 PUSH2 0x1A0E JUMP JUMPDEST PUSH2 0x333 JUMP JUMPDEST STOP JUMPDEST PUSH2 0x164 PUSH2 0x15F CALLDATASIZE PUSH1 0x4 PUSH2 0x1A5A JUMP JUMPDEST PUSH2 0x366 JUMP JUMPDEST PUSH1 0x40 MLOAD SWAP1 DUP2 MSTORE PUSH1 0x20 ADD JUMPDEST PUSH1 0x40 MLOAD DUP1 SWAP2 SUB SWAP1 RETURN JUMPDEST PUSH2 0x14F PUSH2 0x185 CALLDATASIZE PUSH1 0x4 PUSH2 0x1A5A JUMP JUMPDEST PUSH2 0x387 JUMP JUMPDEST PUSH1 0x3 SLOAD PUSH2 0x19D SWAP1 PUSH1 0x1 PUSH1 0x1 PUSH1 0xA0 SHL SUB AND DUP2 JUMP JUMPDEST PUSH1 0x40 MLOAD PUSH1 0x1 PUSH1 0x1 PUSH1 0xA0 SHL SUB SWAP1 SWAP2 AND DUP2 MSTORE PUSH1 0x20 ADD PUSH2 0x16E JUMP JUMPDEST PUSH2 0x164 PUSH2 0x1C3 CALLDATASIZE PUSH1 0x4 PUSH2 0x1A98 JUMP JUMPDEST PUSH2 0x3B8 JUMP JUMPDEST PUSH2 0x14F PUSH2 0x1D6 CALLDATASIZE PUSH1 0x4 PUSH2 0x1AC2 JUMP JUMPDEST PUSH2 0x3F0 JUMP JUMPDEST PUSH2 0x1EE PUSH2 0x1E9 CALLDATASIZE PUSH1 0x4 PUSH2 0x1B23 JUMP JUMPDEST PUSH2 0x427 JUMP JUMPDEST PUSH1 0x40 MLOAD SWAP1 ISZERO ISZERO DUP2 MSTORE PUSH1 0x20 ADD PUSH2 0x16E JUMP JUMPDEST PUSH2 0x14F PUSH2 0x20C CALLDATASIZE PUSH1 0x4 PUSH2 0x1B5D JUMP JUMPDEST PUSH2 0x68C JUMP JUMPDEST PUSH2 0x164 PUSH2 0x69A JUMP JUMPDEST PUSH2 0x164 PUSH2 0x227 CALLDATASIZE PUSH1 0x4 PUSH2 0x1B89 JUMP JUMPDEST PUSH2 0x6D1 JUMP JUMPDEST PUSH2 0x164 PUSH2 0x23A CALLDATASIZE PUSH1 0x4 PUSH2 0x1BA4 JUMP JUMPDEST PUSH1 0x0 SWAP1 DUP2 MSTORE PUSH1 0x20 DUP2 SWAP1 MSTORE PUSH1 0x40 SWAP1 KECCAK256 PUSH1 0x1 ADD SLOAD SWAP1 JUMP JUMPDEST PUSH2 0x14F PUSH2 0x25D CALLDATASIZE PUSH1 0x4 PUSH2 0x1BBD JUMP JUMPDEST PUSH2 0x70A JUMP JUMPDEST PUSH2 0x164 PUSH2 0x270 CALLDATASIZE PUSH1 0x4 PUSH2 0x1BA4 JUMP JUMPDEST PUSH1 0x0 SWAP1 DUP2 MSTORE PUSH1 0x20 DUP2 SWAP1 MSTORE PUSH1 0x40 SWAP1 KECCAK256 SLOAD SWAP1 JUMP JUMPDEST PUSH2 0x1EE PUSH2 0x290 CALLDATASIZE PUSH1 0x4 PUSH2 0x1A5A JUMP JUMPDEST PUSH2 0x73F JUMP JUMPDEST PUSH2 0x164 PUSH2 0x2A3 CALLDATASIZE PUSH1 0x4 PUSH2 0x1BA4 JUMP JUMPDEST PUSH1 0x4 PUSH1 0x20 MSTORE PUSH1 0x0 SWAP1 DUP2 MSTORE PUSH1 0x40 SWAP1 KECCAK256 SLOAD DUP2 JUMP JUMPDEST PUSH2 0x19D PUSH2 0x2C3 CALLDATASIZE PUSH1 0x4 PUSH2 0x1BA4 JUMP JUMPDEST PUSH1 0x0 SWAP1 DUP2 MSTORE PUSH1 0x1 PUSH1 0x20 MSTORE PUSH1 0x40 SWAP1 KECCAK256 SLOAD PUSH1 0x1 PUSH1 0x1 PUSH1 0xA0 SHL SUB AND SWAP1 JUMP JUMPDEST PUSH2 0x14F PUSH2 0x2EC CALLDATASIZE PUSH1 0x4 PUSH2 0x1B23 JUMP JUMPDEST PUSH2 0x761 JUMP JUMPDEST PUSH2 0x164 PUSH1 0x5 SLOAD DUP2 JUMP JUMPDEST PUSH2 0x14F PUSH2 0x308 CALLDATASIZE PUSH1 0x4 PUSH2 0x1BA4 JUMP JUMPDEST PUSH2 0x84B JUMP JUMPDEST PUSH2 0x164 PUSH2 0x31B CALLDATASIZE PUSH1 0x4 PUSH2 0x1BA4 JUMP JUMPDEST PUSH2 0x857 JUMP JUMPDEST PUSH2 0x14F PUSH2 0x32E CALLDATASIZE PUSH1 0x4 PUSH2 0x1A5A JUMP JUMPDEST PUSH2 0x87B JUMP JUMPDEST PUSH1 0x0 PUSH2 0x340 DUP5 DUP5 DUP5 PUSH2 0x90B JUMP JUMPDEST PUSH1 0x0 SWAP5 DUP6 MSTORE PUSH1 0x4 PUSH1 0x20 SWAP1 DUP2 MSTORE PUSH1 0x40 DUP1 DUP8 KECCAK256 SWAP3 DUP8 MSTORE PUSH1 0x1 SWAP1 SWAP3 ADD SWAP1 MSTORE SWAP1 SWAP4 KECCAK256 TIMESTAMP SWAP1 SSTORE POP POP POP JUMP JUMPDEST PUSH1 0x0 DUP3 DUP2 MSTORE PUSH1 0x20 DUP2 SWAP1 MSTORE PUSH1 0x40 DUP2 KECCAK256 PUSH2 0x37E SWAP1 DUP4 PUSH2 0x9A9 JUMP JUMPDEST SWAP1 POP JUMPDEST SWAP3 SWAP2 POP POP JUMP JUMPDEST PUSH1 0x0 PUSH2 0x393 DUP4 DUP4 PUSH2 0x9F6 JUMP JUMPDEST PUSH1 0x0 SWAP4 DUP5 MSTORE PUSH1 0x4 PUSH1 0x20 SWAP1 DUP2 MSTORE PUSH1 0x40 DUP1 DUP7 KECCAK256 SWAP3 DUP7 MSTORE PUSH1 0x1 SWAP1 SWAP3 ADD SWAP1 MSTORE SWAP1 SWAP3 KECCAK256 TIMESTAMP SWAP1 SSTORE POP POP JUMP JUMPDEST PUSH1 0x5 DUP1 SLOAD PUSH1 0x0 SWAP2 DUP3 PUSH2 0x3C9 DUP4 PUSH2 0x1C26 JUMP JUMPDEST SWAP2 SWAP1 POP SSTORE SWAP1 POP PUSH2 0x3D9 DUP2 DUP5 PUSH2 0xA98 JUMP JUMPDEST PUSH1 0x0 DUP2 DUP2 MSTORE PUSH1 0x4 PUSH1 0x20 MSTORE PUSH1 0x40 SWAP1 KECCAK256 SWAP2 SWAP1 SWAP2 SSTORE SWAP2 SWAP1 POP JUMP JUMPDEST PUSH1 0x0 PUSH2 0x3FF DUP7 DUP7 DUP7 DUP7 DUP7 PUSH2 0xB22 JUMP JUMPDEST PUSH1 0x0 SWAP7 DUP8 MSTORE PUSH1 0x4 PUSH1 0x20 SWAP1 DUP2 MSTORE PUSH1 0x40 DUP1 DUP10 KECCAK256 SWAP3 DUP10 MSTORE PUSH1 0x1 SWAP1 SWAP3 ADD SWAP1 MSTORE SWAP1 SWAP6 KECCAK256 TIMESTAMP SWAP1 SSTORE POP POP POP POP POP JUMP JUMPDEST PUSH1 0x0 DUP3 DUP2 MSTORE PUSH1 0x1 PUSH1 0x20 MSTORE PUSH1 0x40 DUP2 KECCAK256 SLOAD DUP4 SWAP1 PUSH1 0x1 PUSH1 0x1 PUSH1 0xA0 SHL SUB AND PUSH2 0x45E JUMPI PUSH1 0x40 MLOAD PUSH4 0x29F0579 PUSH1 0xE0 SHL DUP2 MSTORE PUSH1 0x4 ADD PUSH1 0x40 MLOAD DUP1 SWAP2 SUB SWAP1 REVERT JUMPDEST PUSH1 0x1 DUP4 CALLDATALOAD LT DUP1 PUSH2 0x46F JUMPI POP PUSH1 0x20 DUP4 CALLDATALOAD GT JUMPDEST ISZERO PUSH2 0x48D JUMPI PUSH1 0x40 MLOAD PUSH4 0x767B2789 PUSH1 0xE1 SHL DUP2 MSTORE PUSH1 0x4 ADD PUSH1 0x40 MLOAD DUP1 SWAP2 SUB SWAP1 REVERT JUMPDEST PUSH1 0x0 DUP5 DUP2 MSTORE PUSH1 0x20 DUP2 SWAP1 MSTORE PUSH1 0x40 DUP2 KECCAK256 SLOAD SWAP1 DUP2 SWAP1 SUB PUSH2 0x4BD JUMPI PUSH1 0x40 MLOAD PUSH4 0xC8B02E01 PUSH1 0xE0 SHL DUP2 MSTORE PUSH1 0x4 ADD PUSH1 0x40 MLOAD DUP1 SWAP2 SUB SWAP1 REVERT JUMPDEST PUSH1 0x0 PUSH2 0x4C8 DUP7 PUSH2 0x857 JUMP JUMPDEST SWAP1 POP DUP1 DUP6 PUSH1 0x20 ADD CALLDATALOAD EQ PUSH2 0x54D JUMPI PUSH1 0x0 DUP7 DUP2 MSTORE PUSH1 0x4 PUSH1 0x20 DUP2 DUP2 MSTORE PUSH1 0x40 DUP1 DUP5 KECCAK256 DUP10 DUP4 ADD CALLDATALOAD DUP6 MSTORE PUSH1 0x1 DUP2 ADD DUP4 MSTORE SWAP1 DUP5 KECCAK256 SLOAD DUP11 DUP6 MSTORE SWAP3 SWAP1 SWAP2 MSTORE SLOAD SWAP1 SWAP2 DUP3 SWAP1 SUB PUSH2 0x520 JUMPI PUSH1 0x40 MLOAD PUSH4 0x26994AC3 PUSH1 0xE1 SHL DUP2 MSTORE PUSH1 0x4 ADD PUSH1 0x40 MLOAD DUP1 SWAP2 SUB SWAP1 REVERT JUMPDEST PUSH2 0x52A DUP2 DUP4 PUSH2 0x1C3F JUMP JUMPDEST TIMESTAMP GT ISZERO PUSH2 0x54A JUMPI PUSH1 0x40 MLOAD PUSH4 0x9581A99 PUSH1 0xE4 SHL DUP2 MSTORE PUSH1 0x4 ADD PUSH1 0x40 MLOAD DUP1 SWAP2 SUB SWAP1 REVERT JUMPDEST POP POP JUMPDEST PUSH1 0x3 SLOAD PUSH1 0x40 DUP1 MLOAD DUP1 DUP3 ADD DUP3 MSTORE PUSH1 0xA0 DUP9 ADD CALLDATALOAD DUP2 MSTORE PUSH1 0xC0 DUP9 ADD CALLDATALOAD PUSH1 0x20 DUP1 DUP4 ADD SWAP2 SWAP1 SWAP2 MSTORE DUP3 MLOAD PUSH1 0x80 DUP1 DUP3 ADD DUP6 MSTORE PUSH1 0xE0 DUP12 ADD CALLDATALOAD DUP3 DUP7 ADD SWAP1 DUP2 MSTORE PUSH2 0x100 DUP13 ADD CALLDATALOAD PUSH1 0x60 DUP1 DUP6 ADD SWAP2 SWAP1 SWAP2 MSTORE SWAP1 DUP4 MSTORE DUP6 MLOAD DUP1 DUP8 ADD DUP8 MSTORE PUSH2 0x120 DUP14 ADD CALLDATALOAD DUP2 MSTORE PUSH2 0x140 DUP14 ADD CALLDATALOAD DUP2 DUP7 ADD MSTORE DUP4 DUP6 ADD MSTORE DUP6 MLOAD DUP1 DUP8 ADD DUP8 MSTORE PUSH2 0x160 DUP14 ADD CALLDATALOAD DUP2 MSTORE PUSH2 0x180 DUP14 ADD CALLDATALOAD DUP2 DUP7 ADD MSTORE DUP7 MLOAD SWAP3 DUP4 ADD DUP8 MSTORE DUP5 DUP14 ADD CALLDATALOAD DUP4 MSTORE DUP13 DUP8 ADD CALLDATALOAD SWAP5 DUP4 ADD SWAP5 SWAP1 SWAP5 MSTORE PUSH1 0x1 PUSH1 0x1 PUSH1 0xA0 SHL SUB SWAP1 SWAP7 AND SWAP6 PUSH4 0xA23F0199 SWAP6 SWAP3 SWAP4 SWAP3 DUP3 ADD SWAP1 PUSH2 0x606 SWAP1 DUP14 ADD CALLDATALOAD PUSH2 0xBE9 JUMP JUMPDEST DUP2 MSTORE PUSH1 0x20 ADD PUSH2 0x618 DUP13 PUSH1 0x80 ADD CALLDATALOAD PUSH2 0xBE9 JUMP JUMPDEST SWAP1 MSTORE PUSH1 0x40 MLOAD PUSH1 0x1 PUSH1 0x1 PUSH1 0xE0 SHL SUB NOT PUSH1 0xE0 DUP8 SWAP1 SHL AND DUP2 MSTORE PUSH2 0x641 SWAP5 SWAP4 SWAP3 SWAP2 SWAP1 DUP13 CALLDATALOAD SWAP1 PUSH1 0x4 ADD PUSH2 0x1CB4 JUMP JUMPDEST PUSH1 0x20 PUSH1 0x40 MLOAD DUP1 DUP4 SUB DUP2 DUP7 GAS STATICCALL ISZERO DUP1 ISZERO PUSH2 0x65E JUMPI RETURNDATASIZE PUSH1 0x0 DUP1 RETURNDATACOPY RETURNDATASIZE PUSH1 0x0 REVERT JUMPDEST POP POP POP POP PUSH1 0x40 MLOAD RETURNDATASIZE PUSH1 0x1F NOT PUSH1 0x1F DUP3 ADD AND DUP3 ADD DUP1 PUSH1 0x40 MSTORE POP DUP2 ADD SWAP1 PUSH2 0x682 SWAP2 SWAP1 PUSH2 0x1D47 JUMP JUMPDEST SWAP7 SWAP6 POP POP POP POP POP POP JUMP JUMPDEST PUSH2 0x696 DUP3 DUP3 PUSH2 0xC20 JUMP JUMPDEST POP POP JUMP JUMPDEST PUSH1 0x5 DUP1 SLOAD PUSH1 0x0 SWAP2 DUP3 PUSH2 0x6AB DUP4 PUSH2 0x1C26 JUMP JUMPDEST SWAP2 SWAP1 POP SSTORE SWAP1 POP PUSH2 0x6BB DUP2 CALLER PUSH2 0xA98 JUMP JUMPDEST PUSH1 0x0 DUP2 DUP2 MSTORE PUSH1 0x4 PUSH1 0x20 MSTORE PUSH1 0x40 SWAP1 KECCAK256 PUSH2 0xE10 SWAP1 SSTORE SWAP1 JUMP JUMPDEST PUSH1 0x5 DUP1 SLOAD PUSH1 0x0 SWAP2 DUP3 PUSH2 0x6E2 DUP4 PUSH2 0x1C26 JUMP JUMPDEST SWAP2 SWAP1 POP SSTORE SWAP1 POP PUSH2 0x6F2 DUP2 DUP4 PUSH2 0xA98 JUMP JUMPDEST PUSH1 0x0 DUP2 DUP2 MSTORE PUSH1 0x4 PUSH1 0x20 MSTORE PUSH1 0x40 SWAP1 KECCAK256 PUSH2 0xE10 SWAP1 SSTORE SWAP2 SWAP1 POP JUMP JUMPDEST PUSH1 0x0 PUSH2 0x718 DUP6 DUP6 DUP6 DUP6 PUSH2 0xCB4 JUMP JUMPDEST PUSH1 0x0 SWAP6 DUP7 MSTORE PUSH1 0x4 PUSH1 0x20 SWAP1 DUP2 MSTORE PUSH1 0x40 DUP1 DUP9 KECCAK256 SWAP3 DUP9 MSTORE PUSH1 0x1 SWAP1 SWAP3 ADD SWAP1 MSTORE SWAP1 SWAP5 KECCAK256 TIMESTAMP SWAP1 SSTORE POP POP POP POP JUMP JUMPDEST PUSH1 0x0 DUP3 DUP2 MSTORE PUSH1 0x20 DUP2 DUP2 MSTORE PUSH1 0x40 DUP1 DUP4 KECCAK256 DUP5 DUP5 MSTORE PUSH1 0x3 ADD SWAP1 SWAP2 MSTORE DUP2 KECCAK256 SLOAD ISZERO ISZERO PUSH2 0x37E JUMP JUMPDEST PUSH1 0x0 DUP3 DUP2 MSTORE PUSH1 0x4 PUSH1 0x20 SWAP1 DUP2 MSTORE PUSH1 0x40 DUP1 DUP4 KECCAK256 DUP5 DUP3 ADD CALLDATALOAD DUP5 MSTORE PUSH1 0x2 ADD SWAP1 SWAP2 MSTORE SWAP1 KECCAK256 SLOAD PUSH1 0xFF AND ISZERO PUSH2 0x7A2 JUMPI PUSH1 0x40 MLOAD PUSH4 0x41162BD PUSH1 0xE3 SHL DUP2 MSTORE PUSH1 0x4 ADD PUSH1 0x40 MLOAD DUP1 SWAP2 SUB SWAP1 REVERT JUMPDEST PUSH2 0x7AC DUP3 DUP3 PUSH2 0x427 JUMP JUMPDEST PUSH2 0x7C9 JUMPI PUSH1 0x40 MLOAD PUSH4 0x12A9AF1 PUSH1 0xE6 SHL DUP2 MSTORE PUSH1 0x4 ADD PUSH1 0x40 MLOAD DUP1 SWAP2 SUB SWAP1 REVERT JUMPDEST PUSH1 0x0 DUP3 DUP2 MSTORE PUSH1 0x4 PUSH1 0x20 SWAP1 DUP2 MSTORE PUSH1 0x40 DUP1 DUP4 KECCAK256 DUP5 DUP3 ADD CALLDATALOAD DUP1 DUP6 MSTORE PUSH1 0x2 SWAP1 SWAP2 ADD DUP4 MSTORE SWAP3 DUP2 SWAP1 KECCAK256 DUP1 SLOAD PUSH1 0xFF NOT AND PUSH1 0x1 OR SWAP1 SSTORE MLOAD PUSH1 0x80 DUP5 ADD CALLDATALOAD SWAP3 SWAP2 DUP5 ADD CALLDATALOAD SWAP2 DUP6 SWAP2 PUSH32 0xC32E14CFE81A05D371C248D22DE6B7AE849E981B76A1F8842E7B6DA73FC405A SWAP2 PUSH2 0x83F SWAP2 DUP8 CALLDATALOAD SWAP2 SWAP1 PUSH1 0x60 DUP10 ADD CALLDATALOAD SWAP1 PUSH1 0xA0 DUP11 ADD SWAP1 PUSH2 0x1D70 JUMP JUMPDEST PUSH1 0x40 MLOAD DUP1 SWAP2 SUB SWAP1 LOG4 POP POP JUMP JUMPDEST PUSH2 0x854 DUP2 PUSH2 0xD72 JUMP JUMPDEST POP JUMP JUMPDEST PUSH1 0x0 DUP2 DUP2 MSTORE PUSH1 0x20 DUP2 DUP2 MSTORE PUSH1 0x40 DUP1 DUP4 KECCAK256 PUSH1 0x1 DUP2 ADD SLOAD DUP5 MSTORE PUSH1 0x2 ADD SWAP1 SWAP2 MSTORE DUP2 KECCAK256 SLOAD PUSH2 0x381 JUMP JUMPDEST PUSH1 0x0 DUP3 DUP2 MSTORE PUSH1 0x1 PUSH1 0x20 MSTORE PUSH1 0x40 SWAP1 KECCAK256 SLOAD DUP3 SWAP1 PUSH1 0x1 PUSH1 0x1 PUSH1 0xA0 SHL SUB AND CALLER EQ PUSH2 0x8B4 JUMPI PUSH1 0x40 MLOAD PUSH4 0x17737E4F PUSH1 0xE3 SHL DUP2 MSTORE PUSH1 0x4 ADD PUSH1 0x40 MLOAD DUP1 SWAP2 SUB SWAP1 REVERT JUMPDEST PUSH1 0x0 DUP4 DUP2 MSTORE PUSH1 0x4 PUSH1 0x20 SWAP1 DUP2 MSTORE PUSH1 0x40 SWAP2 DUP3 SWAP1 KECCAK256 DUP1 SLOAD SWAP1 DUP6 SWAP1 SSTORE DUP3 MLOAD DUP2 DUP2 MSTORE SWAP2 DUP3 ADD DUP6 SWAP1 MSTORE SWAP2 DUP6 SWAP2 PUSH32 0x264B2A8F6763C084235FE832BA903482B2EF1A521336881FC75B987C2DFD29C5 SWAP2 ADD PUSH1 0x40 MLOAD DUP1 SWAP2 SUB SWAP1 LOG2 POP POP POP POP JUMP JUMPDEST PUSH1 0x0 DUP4 DUP2 MSTORE PUSH1 0x1 PUSH1 0x20 MSTORE PUSH1 0x40 DUP2 KECCAK256 SLOAD DUP5 SWAP1 PUSH1 0x1 PUSH1 0x1 PUSH1 0xA0 SHL SUB AND CALLER EQ PUSH2 0x944 JUMPI PUSH1 0x40 MLOAD PUSH4 0x17737E4F PUSH1 0xE3 SHL DUP2 MSTORE PUSH1 0x4 ADD PUSH1 0x40 MLOAD DUP1 SWAP2 SUB SWAP1 REVERT JUMPDEST PUSH1 0x0 DUP6 DUP2 MSTORE PUSH1 0x20 DUP2 SWAP1 MSTORE PUSH1 0x40 SWAP1 KECCAK256 DUP1 SLOAD SWAP1 PUSH2 0x960 SWAP1 DUP7 DUP7 PUSH2 0xE17 JUMP JUMPDEST SWAP3 POP DUP6 PUSH32 0x61E5E8054E3DAF084A0C6C646C065E8BF5E7CA4D5567BDA942309BD1652F349D DUP3 DUP8 DUP8 DUP8 PUSH1 0x40 MLOAD PUSH2 0x998 SWAP5 SWAP4 SWAP3 SWAP2 SWAP1 PUSH2 0x1D98 JUMP JUMPDEST PUSH1 0x40 MLOAD DUP1 SWAP2 SUB SWAP1 LOG2 POP POP SWAP4 SWAP3 POP POP POP JUMP JUMPDEST PUSH1 0x0 DUP2 DUP2 MSTORE PUSH1 0x3 DUP4 ADD PUSH1 0x20 MSTORE PUSH1 0x40 DUP2 KECCAK256 SLOAD DUP2 SUB PUSH2 0x9D9 JUMPI PUSH1 0x40 MLOAD PUSH4 0x1C811D5B PUSH1 0xE2 SHL DUP2 MSTORE PUSH1 0x4 ADD PUSH1 0x40 MLOAD DUP1 SWAP2 SUB SWAP1 REVERT JUMPDEST PUSH1 0x0 DUP3 DUP2 MSTORE PUSH1 0x3 DUP5 ADD PUSH1 0x20 MSTORE PUSH1 0x40 SWAP1 KECCAK256 SLOAD PUSH2 0x37E SWAP1 PUSH1 0x1 SWAP1 PUSH2 0x1DDE JUMP JUMPDEST PUSH1 0x0 DUP3 DUP2 MSTORE PUSH1 0x1 PUSH1 0x20 MSTORE PUSH1 0x40 DUP2 KECCAK256 SLOAD DUP4 SWAP1 PUSH1 0x1 PUSH1 0x1 PUSH1 0xA0 SHL SUB AND CALLER EQ PUSH2 0xA2F JUMPI PUSH1 0x40 MLOAD PUSH4 0x17737E4F PUSH1 0xE3 SHL DUP2 MSTORE PUSH1 0x4 ADD PUSH1 0x40 MLOAD DUP1 SWAP2 SUB SWAP1 REVERT JUMPDEST PUSH1 0x0 DUP5 DUP2 MSTORE PUSH1 0x20 DUP2 SWAP1 MSTORE PUSH1 0x40 SWAP1 KECCAK256 DUP1 SLOAD SWAP1 PUSH2 0xA4A SWAP1 DUP6 PUSH2 0x1344 JUMP JUMPDEST PUSH1 0x40 DUP1 MLOAD DUP4 DUP2 MSTORE PUSH1 0x20 DUP2 ADD DUP8 SWAP1 MSTORE SWAP1 DUP2 ADD DUP3 SWAP1 MSTORE SWAP1 SWAP4 POP DUP6 SWAP1 PUSH32 0x19239B3F93CD10558AAF11423AF70C77763BF54F52BCC75BFA74D4D13548CDE9 SWAP1 PUSH1 0x60 ADD PUSH1 0x40 MLOAD DUP1 SWAP2 SUB SWAP1 LOG2 POP POP SWAP3 SWAP2 POP POP JUMP JUMPDEST PUSH1 0x0 DUP3 DUP2 MSTORE PUSH1 0x1 PUSH1 0x20 MSTORE PUSH1 0x40 DUP1 DUP3 KECCAK256 DUP1 SLOAD PUSH1 0x1 PUSH1 0x1 PUSH1 0xA0 SHL SUB NOT AND PUSH1 0x1 PUSH1 0x1 PUSH1 0xA0 SHL SUB DUP6 AND OR SWAP1 SSTORE MLOAD DUP4 SWAP2 PUSH32 0xF0ADFB94EAB6DAF835DEB69C5738FE636150C3DFD08094A76F39B963DC8CB05A SWAP2 LOG2 PUSH1 0x40 MLOAD PUSH1 0x1 PUSH1 0x1 PUSH1 0xA0 SHL SUB DUP3 AND SWAP1 PUSH1 0x0 SWAP1 DUP5 SWAP1 PUSH32 0xBA83579A0E79193EF649B9F5A8759D35AF086BA62A3E207B52E4A8AE30D49E3 SWAP1 DUP4 SWAP1 LOG4 POP POP JUMP JUMPDEST PUSH1 0x0 DUP6 DUP2 MSTORE PUSH1 0x1 PUSH1 0x20 MSTORE PUSH1 0x40 DUP2 KECCAK256 SLOAD DUP7 SWAP1 PUSH1 0x1 PUSH1 0x1 PUSH1 0xA0 SHL SUB AND CALLER EQ PUSH2 0xB5B JUMPI PUSH1 0x40 MLOAD PUSH4 0x17737E4F PUSH1 0xE3 SHL DUP2 MSTORE PUSH1 0x4 ADD PUSH1 0x40 MLOAD DUP1 SWAP2 SUB SWAP1 REVERT JUMPDEST PUSH1 0x0 DUP8 DUP2 MSTORE PUSH1 0x20 DUP2 SWAP1 MSTORE PUSH1 0x40 DUP2 KECCAK256 PUSH2 0xB73 SWAP1 DUP9 PUSH2 0x9A9 JUMP JUMPDEST PUSH1 0x0 DUP10 DUP2 MSTORE PUSH1 0x20 DUP2 SWAP1 MSTORE PUSH1 0x40 SWAP1 KECCAK256 SWAP1 SWAP2 POP PUSH2 0xB91 SWAP1 DUP9 DUP9 DUP9 DUP9 PUSH2 0x150D JUMP JUMPDEST PUSH1 0x40 DUP1 MLOAD DUP4 DUP2 MSTORE PUSH1 0x20 DUP2 ADD DUP11 SWAP1 MSTORE SWAP1 DUP2 ADD DUP9 SWAP1 MSTORE PUSH1 0x60 DUP2 ADD DUP3 SWAP1 MSTORE SWAP1 SWAP4 POP DUP9 SWAP1 PUSH32 0xEA3588E4A2A0C93D6A0E69DFEAF7496F43CCCCF02AD9CE0A5B7627CBCA4B61B1 SWAP1 PUSH1 0x80 ADD PUSH1 0x40 MLOAD DUP1 SWAP2 SUB SWAP1 LOG2 POP POP SWAP6 SWAP5 POP POP POP POP POP JUMP JUMPDEST PUSH1 0x0 PUSH1 0x8 DUP3 PUSH1 0x40 MLOAD PUSH1 0x20 ADD PUSH2 0xC00 SWAP2 DUP2 MSTORE PUSH1 0x20 ADD SWAP1 JUMP JUMPDEST PUSH1 0x40 DUP1 MLOAD PUSH1 0x1F NOT DUP2 DUP5 SUB ADD DUP2 MSTORE SWAP2 SWAP1 MSTORE DUP1 MLOAD PUSH1 0x20 SWAP1 SWAP2 ADD KECCAK256 SWAP1 SHR SWAP3 SWAP2 POP POP JUMP JUMPDEST PUSH1 0x0 DUP3 DUP2 MSTORE PUSH1 0x1 PUSH1 0x20 MSTORE PUSH1 0x40 SWAP1 KECCAK256 SLOAD DUP3 SWAP1 PUSH1 0x1 PUSH1 0x1 PUSH1 0xA0 SHL SUB AND CALLER EQ PUSH2 0xC59 JUMPI PUSH1 0x40 MLOAD PUSH4 0x17737E4F PUSH1 0xE3 SHL DUP2 MSTORE PUSH1 0x4 ADD PUSH1 0x40 MLOAD DUP1 SWAP2 SUB SWAP1 REVERT JUMPDEST PUSH1 0x0 DUP4 DUP2 MSTORE PUSH1 0x2 PUSH1 0x20 MSTORE PUSH1 0x40 DUP1 DUP3 KECCAK256 DUP1 SLOAD PUSH1 0x1 PUSH1 0x1 PUSH1 0xA0 SHL SUB NOT AND PUSH1 0x1 PUSH1 0x1 PUSH1 0xA0 SHL SUB DUP7 AND SWAP1 DUP2 OR SWAP1 SWAP2 SSTORE SWAP1 MLOAD SWAP1 SWAP2 CALLER SWAP2 DUP7 SWAP2 PUSH32 0x1018365553CCE55D9CB02EF73E18CC9311894F3FE1D1EAFD235AC2D26CD8BA58 SWAP2 LOG4 POP POP POP JUMP JUMPDEST PUSH1 0x0 DUP5 DUP2 MSTORE PUSH1 0x1 PUSH1 0x20 MSTORE PUSH1 0x40 DUP2 KECCAK256 SLOAD DUP6 SWAP1 PUSH1 0x1 PUSH1 0x1 PUSH1 0xA0 SHL SUB AND CALLER EQ PUSH2 0xCED JUMPI PUSH1 0x40 MLOAD PUSH4 0x17737E4F PUSH1 0xE3 SHL DUP2 MSTORE PUSH1 0x4 ADD PUSH1 0x40 MLOAD DUP1 SWAP2 SUB SWAP1 REVERT JUMPDEST PUSH1 0x0 DUP7 DUP2 MSTORE PUSH1 0x20 DUP2 SWAP1 MSTORE PUSH1 0x40 DUP2 KECCAK256 PUSH2 0xD05 SWAP1 DUP8 PUSH2 0x9A9 JUMP JUMPDEST PUSH1 0x0 DUP9 DUP2 MSTORE PUSH1 0x20 DUP2 SWAP1 MSTORE PUSH1 0x40 SWAP1 KECCAK256 SWAP1 SWAP2 POP PUSH2 0xD22 SWAP1 DUP8 DUP8 DUP8 PUSH2 0x19A9 JUMP JUMPDEST PUSH1 0x40 DUP1 MLOAD DUP4 DUP2 MSTORE PUSH1 0x20 DUP2 ADD DUP10 SWAP1 MSTORE SWAP1 DUP2 ADD DUP3 SWAP1 MSTORE SWAP1 SWAP4 POP DUP8 SWAP1 PUSH32 0x3108849C053C77B8073A11256DFFB5FFD5B55E93E105A355E1C9061DB890D871 SWAP1 PUSH1 0x60 ADD PUSH1 0x40 MLOAD DUP1 SWAP2 SUB SWAP1 LOG2 POP POP SWAP5 SWAP4 POP POP POP POP JUMP JUMPDEST PUSH1 0x0 DUP2 DUP2 MSTORE PUSH1 0x2 PUSH1 0x20 MSTORE PUSH1 0x40 SWAP1 KECCAK256 SLOAD PUSH1 0x1 PUSH1 0x1 PUSH1 0xA0 SHL SUB AND CALLER EQ PUSH2 0xDA9 JUMPI PUSH1 0x40 MLOAD PUSH4 0x34C4245D PUSH1 0xE0 SHL DUP2 MSTORE PUSH1 0x4 ADD PUSH1 0x40 MLOAD DUP1 SWAP2 SUB SWAP1 REVERT JUMPDEST PUSH1 0x0 DUP2 DUP2 MSTORE PUSH1 0x1 PUSH1 0x20 SWAP1 DUP2 MSTORE PUSH1 0x40 DUP1 DUP4 KECCAK256 DUP1 SLOAD CALLER PUSH1 0x1 PUSH1 0x1 PUSH1 0xA0 SHL SUB NOT DUP1 DUP4 AND DUP3 OR SWAP1 SWAP4 SSTORE PUSH1 0x2 SWAP1 SWAP5 MSTORE DUP3 DUP6 KECCAK256 DUP1 SLOAD SWAP1 SWAP3 AND SWAP1 SWAP2 SSTORE SWAP1 MLOAD PUSH1 0x1 PUSH1 0x1 PUSH1 0xA0 SHL SUB SWAP1 SWAP2 AND SWAP3 DUP4 SWAP2 DUP6 SWAP2 PUSH32 0xBA83579A0E79193EF649B9F5A8759D35AF086BA62A3E207B52E4A8AE30D49E3 SWAP2 LOG4 POP POP JUMP JUMPDEST DUP3 SLOAD PUSH1 0x0 SWAP1 DUP2 JUMPDEST DUP4 DUP2 LT ISZERO PUSH2 0xF48 JUMPI PUSH1 0x0 DUP1 MLOAD PUSH1 0x20 PUSH2 0x1F59 DUP4 CODECOPY DUP2 MLOAD SWAP2 MSTORE DUP6 DUP6 DUP4 DUP2 DUP2 LT PUSH2 0xE47 JUMPI PUSH2 0xE47 PUSH2 0x1C52 JUMP JUMPDEST SWAP1 POP PUSH1 0x20 MUL ADD CALLDATALOAD LT PUSH2 0xE6C JUMPI PUSH1 0x40 MLOAD PUSH4 0x61C05417 PUSH1 0xE1 SHL DUP2 MSTORE PUSH1 0x4 ADD PUSH1 0x40 MLOAD DUP1 SWAP2 SUB SWAP1 REVERT JUMPDEST DUP5 DUP5 DUP3 DUP2 DUP2 LT PUSH2 0xE7E JUMPI PUSH2 0xE7E PUSH2 0x1C52 JUMP JUMPDEST SWAP1 POP PUSH1 0x20 MUL ADD CALLDATALOAD PUSH1 0x0 SUB PUSH2 0xEA5 JUMPI PUSH1 0x40 MLOAD PUSH4 0x14B48DF1 PUSH1 0xE1 SHL DUP2 MSTORE PUSH1 0x4 ADD PUSH1 0x40 MLOAD DUP1 SWAP2 SUB SWAP1 REVERT JUMPDEST PUSH2 0xEDA DUP7 DUP7 DUP7 DUP5 DUP2 DUP2 LT PUSH2 0xEBB JUMPI PUSH2 0xEBB PUSH2 0x1C52 JUMP JUMPDEST SWAP1 POP PUSH1 0x20 MUL ADD CALLDATALOAD PUSH1 0x0 SWAP1 DUP2 MSTORE PUSH1 0x3 SWAP2 SWAP1 SWAP2 ADD PUSH1 0x20 MSTORE PUSH1 0x40 SWAP1 KECCAK256 SLOAD ISZERO ISZERO SWAP1 JUMP JUMPDEST ISZERO PUSH2 0xEF8 JUMPI PUSH1 0x40 MLOAD PUSH4 0x12C50CAD PUSH1 0xE1 SHL DUP2 MSTORE PUSH1 0x4 ADD PUSH1 0x40 MLOAD DUP1 SWAP2 SUB SWAP1 REVERT JUMPDEST DUP1 PUSH2 0xF04 DUP4 PUSH1 0x1 PUSH2 0x1C3F JUMP JUMPDEST PUSH2 0xF0E SWAP2 SWAP1 PUSH2 0x1C3F JUMP JUMPDEST DUP7 PUSH1 0x3 ADD PUSH1 0x0 DUP8 DUP8 DUP6 DUP2 DUP2 LT PUSH2 0xF26 JUMPI PUSH2 0xF26 PUSH2 0x1C52 JUMP JUMPDEST PUSH1 0x20 SWAP1 DUP2 MUL SWAP3 SWAP1 SWAP3 ADD CALLDATALOAD DUP4 MSTORE POP DUP2 ADD SWAP2 SWAP1 SWAP2 MSTORE PUSH1 0x40 ADD PUSH1 0x0 KECCAK256 SSTORE PUSH1 0x1 ADD PUSH2 0xE1E JUMP JUMPDEST POP PUSH1 0x60 DUP5 DUP5 DUP1 DUP1 PUSH1 0x20 MUL PUSH1 0x20 ADD PUSH1 0x40 MLOAD SWAP1 DUP2 ADD PUSH1 0x40 MSTORE DUP1 SWAP4 SWAP3 SWAP2 SWAP1 DUP2 DUP2 MSTORE PUSH1 0x20 ADD DUP4 DUP4 PUSH1 0x20 MUL DUP1 DUP3 DUP5 CALLDATACOPY PUSH1 0x0 SWAP3 ADD SWAP2 SWAP1 SWAP2 MSTORE POP POP POP PUSH1 0x1 DUP9 ADD SLOAD SWAP2 SWAP3 POP POP JUMPDEST PUSH2 0xF91 DUP6 DUP5 PUSH2 0x1C3F JUMP JUMPDEST PUSH2 0xF9C DUP3 PUSH1 0x2 PUSH2 0x1ED5 JUMP JUMPDEST LT ISZERO PUSH2 0xFB2 JUMPI PUSH2 0xFAB DUP2 PUSH2 0x1C26 JUMP JUMPDEST SWAP1 POP PUSH2 0xF87 JUMP JUMPDEST PUSH1 0x1 DUP8 ADD DUP2 SWAP1 SSTORE DUP3 PUSH1 0x0 PUSH2 0xFC6 DUP8 DUP4 PUSH2 0x1C3F JUMP JUMPDEST SWAP1 POP PUSH1 0x1 DUP3 DUP2 SHR SWAP1 PUSH1 0x0 SWAP1 PUSH2 0xFDB DUP2 DUP6 PUSH2 0x1DDE JUMP JUMPDEST PUSH2 0xFE7 SWAP2 SHR PUSH1 0x1 PUSH2 0x1C3F JUMP JUMPDEST SWAP1 POP PUSH1 0x0 JUMPDEST DUP6 DUP2 LT ISZERO PUSH2 0x12D8 JUMPI PUSH1 0x0 PUSH2 0x1000 DUP5 DUP5 PUSH2 0x1DDE JUMP JUMPDEST SWAP1 POP PUSH1 0x0 DUP2 PUSH8 0xFFFFFFFFFFFFFFFF DUP2 GT ISZERO PUSH2 0x101D JUMPI PUSH2 0x101D PUSH2 0x1EE1 JUMP JUMPDEST PUSH1 0x40 MLOAD SWAP1 DUP1 DUP3 MSTORE DUP1 PUSH1 0x20 MUL PUSH1 0x20 ADD DUP3 ADD PUSH1 0x40 MSTORE DUP1 ISZERO PUSH2 0x1046 JUMPI DUP2 PUSH1 0x20 ADD PUSH1 0x20 DUP3 MUL DUP1 CALLDATASIZE DUP4 CALLDATACOPY ADD SWAP1 POP JUMPDEST POP SWAP1 POP PUSH1 0x0 JUMPDEST DUP3 DUP2 LT ISZERO PUSH2 0x1203 JUMPI PUSH1 0x0 DUP9 PUSH2 0x1061 DUP9 DUP5 PUSH2 0x1C3F JUMP JUMPDEST PUSH2 0x106C SWAP1 PUSH1 0x2 PUSH2 0x1EF7 JUMP JUMPDEST LT ISZERO PUSH2 0x108F JUMPI DUP16 PUSH1 0x2 ADD PUSH1 0x0 DUP7 DUP2 MSTORE PUSH1 0x20 ADD SWAP1 DUP2 MSTORE PUSH1 0x20 ADD PUSH1 0x0 KECCAK256 SLOAD SWAP1 POP PUSH2 0x10CB JUMP JUMPDEST DUP11 DUP10 PUSH2 0x109B DUP10 DUP6 PUSH2 0x1C3F JUMP JUMPDEST PUSH2 0x10A6 SWAP1 PUSH1 0x2 PUSH2 0x1EF7 JUMP JUMPDEST PUSH2 0x10B0 SWAP2 SWAP1 PUSH2 0x1DDE JUMP JUMPDEST DUP2 MLOAD DUP2 LT PUSH2 0x10C0 JUMPI PUSH2 0x10C0 PUSH2 0x1C52 JUMP JUMPDEST PUSH1 0x20 MUL PUSH1 0x20 ADD ADD MLOAD SWAP1 POP JUMPDEST PUSH1 0x0 DUP9 PUSH2 0x10D8 DUP10 DUP6 PUSH2 0x1C3F JUMP JUMPDEST PUSH2 0x10E3 SWAP1 PUSH1 0x2 PUSH2 0x1EF7 JUMP JUMPDEST PUSH2 0x10EE SWAP1 PUSH1 0x1 PUSH2 0x1C3F JUMP JUMPDEST LT ISZERO PUSH2 0x113B JUMPI DUP12 DUP11 PUSH2 0x1100 DUP11 DUP7 PUSH2 0x1C3F JUMP JUMPDEST PUSH2 0x110B SWAP1 PUSH1 0x2 PUSH2 0x1EF7 JUMP JUMPDEST PUSH2 0x1116 SWAP1 PUSH1 0x1 PUSH2 0x1C3F JUMP JUMPDEST PUSH2 0x1120 SWAP2 SWAP1 PUSH2 0x1DDE JUMP JUMPDEST DUP2 MLOAD DUP2 LT PUSH2 0x1130 JUMPI PUSH2 0x1130 PUSH2 0x1C52 JUMP JUMPDEST PUSH1 0x20 MUL PUSH1 0x20 ADD ADD MLOAD SWAP1 POP JUMPDEST PUSH1 0x0 DUP2 ISZERO PUSH2 0x11D3 JUMPI PUSH1 0x40 DUP1 MLOAD DUP1 DUP3 ADD DUP3 MSTORE DUP5 DUP2 MSTORE PUSH1 0x20 DUP2 ADD DUP5 SWAP1 MSTORE SWAP1 MLOAD PUSH4 0x2B0AAC7F PUSH1 0xE1 SHL DUP2 MSTORE PUSH20 0x0 SWAP2 PUSH4 0x561558FE SWAP2 PUSH2 0x118B SWAP2 SWAP1 PUSH1 0x4 ADD PUSH2 0x1F0E JUMP JUMPDEST PUSH1 0x20 PUSH1 0x40 MLOAD DUP1 DUP4 SUB DUP2 DUP7 GAS DELEGATECALL ISZERO DUP1 ISZERO PUSH2 0x11A8 JUMPI RETURNDATASIZE PUSH1 0x0 DUP1 RETURNDATACOPY RETURNDATASIZE PUSH1 0x0 REVERT JUMPDEST POP POP POP POP PUSH1 0x40 MLOAD RETURNDATASIZE PUSH1 0x1F NOT PUSH1 0x1F DUP3 ADD AND DUP3 ADD DUP1 PUSH1 0x40 MSTORE POP DUP2 ADD SWAP1 PUSH2 0x11CC SWAP2 SWAP1 PUSH2 0x1F3F JUMP JUMPDEST SWAP1 POP PUSH2 0x11D6 JUMP JUMPDEST POP DUP2 JUMPDEST DUP1 DUP6 DUP6 DUP2 MLOAD DUP2 LT PUSH2 0x11E9 JUMPI PUSH2 0x11E9 PUSH2 0x1C52 JUMP JUMPDEST PUSH1 0x20 MUL PUSH1 0x20 ADD ADD DUP2 DUP2 MSTORE POP POP DUP4 PUSH1 0x1 ADD SWAP4 POP POP POP POP PUSH2 0x104C JUMP JUMPDEST POP DUP6 PUSH1 0x1 AND PUSH1 0x1 SUB PUSH2 0x1254 JUMPI DUP9 PUSH1 0x1 DUP11 MLOAD PUSH2 0x121E SWAP2 SWAP1 PUSH2 0x1DDE JUMP JUMPDEST DUP2 MLOAD DUP2 LT PUSH2 0x122E JUMPI PUSH2 0x122E PUSH2 0x1C52 JUMP JUMPDEST PUSH1 0x20 MUL PUSH1 0x20 ADD ADD MLOAD DUP15 PUSH1 0x2 ADD PUSH1 0x0 DUP6 DUP2 MSTORE PUSH1 0x20 ADD SWAP1 DUP2 MSTORE PUSH1 0x20 ADD PUSH1 0x0 KECCAK256 DUP2 SWAP1 SSTORE POP PUSH2 0x129F JUMP JUMPDEST PUSH1 0x1 DUP10 MLOAD GT ISZERO PUSH2 0x129F JUMPI DUP9 PUSH1 0x2 DUP11 MLOAD PUSH2 0x126D SWAP2 SWAP1 PUSH2 0x1DDE JUMP JUMPDEST DUP2 MLOAD DUP2 LT PUSH2 0x127D JUMPI PUSH2 0x127D PUSH2 0x1C52 JUMP JUMPDEST PUSH1 0x20 MUL PUSH1 0x20 ADD ADD MLOAD DUP15 PUSH1 0x2 ADD PUSH1 0x0 DUP6 DUP2 MSTORE PUSH1 0x20 ADD SWAP1 DUP2 MSTORE PUSH1 0x20 ADD PUSH1 0x0 KECCAK256 DUP2 SWAP1 SSTORE POP JUMPDEST DUP5 SWAP7 POP PUSH1 0x1 DUP6 SWAP1 SHR SWAP5 POP DUP1 SWAP9 POP DUP4 SWAP6 POP PUSH1 0x1 DUP1 DUP6 PUSH2 0x12BD SWAP2 SWAP1 PUSH2 0x1DDE JUMP JUMPDEST PUSH2 0x12C9 SWAP2 SHR PUSH1 0x1 PUSH2 0x1C3F JUMP JUMPDEST SWAP4 POP DUP3 PUSH1 0x1 ADD SWAP3 POP POP POP PUSH2 0xFEC JUMP JUMPDEST POP PUSH2 0x12E3 DUP10 DUP9 PUSH2 0x1C3F JUMP JUMPDEST DUP12 SSTORE DUP6 MLOAD DUP7 SWAP1 PUSH1 0x0 SWAP1 PUSH2 0x12F8 JUMPI PUSH2 0x12F8 PUSH2 0x1C52 JUMP JUMPDEST PUSH1 0x20 MUL PUSH1 0x20 ADD ADD MLOAD DUP12 PUSH1 0x2 ADD PUSH1 0x0 DUP8 DUP2 MSTORE PUSH1 0x20 ADD SWAP1 DUP2 MSTORE PUSH1 0x20 ADD PUSH1 0x0 KECCAK256 DUP2 SWAP1 SSTORE POP DUP6 PUSH1 0x0 DUP2 MLOAD DUP2 LT PUSH2 0x132C JUMPI PUSH2 0x132C PUSH2 0x1C52 JUMP JUMPDEST PUSH1 0x20 MUL PUSH1 0x20 ADD ADD MLOAD SWAP8 POP POP POP POP POP POP POP POP SWAP4 SWAP3 POP POP POP JUMP JUMPDEST PUSH1 0x0 PUSH1 0x0 DUP1 MLOAD PUSH1 0x20 PUSH2 0x1F59 DUP4 CODECOPY DUP2 MLOAD SWAP2 MSTORE DUP3 LT PUSH2 0x1374 JUMPI PUSH1 0x40 MLOAD PUSH4 0x61C05417 PUSH1 0xE1 SHL DUP2 MSTORE PUSH1 0x4 ADD PUSH1 0x40 MLOAD DUP1 SWAP2 SUB SWAP1 REVERT JUMPDEST DUP2 PUSH1 0x0 SUB PUSH2 0x1395 JUMPI PUSH1 0x40 MLOAD PUSH4 0x14B48DF1 PUSH1 0xE1 SHL DUP2 MSTORE PUSH1 0x4 ADD PUSH1 0x40 MLOAD DUP1 SWAP2 SUB SWAP1 REVERT JUMPDEST PUSH1 0x0 DUP3 DUP2 MSTORE PUSH1 0x3 DUP5 ADD PUSH1 0x20 MSTORE PUSH1 0x40 SWAP1 KECCAK256 SLOAD ISZERO PUSH2 0x13C4 JUMPI PUSH1 0x40 MLOAD PUSH4 0x12C50CAD PUSH1 0xE1 SHL DUP2 MSTORE PUSH1 0x4 ADD PUSH1 0x40 MLOAD DUP1 SWAP2 SUB SWAP1 REVERT JUMPDEST DUP3 SLOAD PUSH1 0x1 DUP1 DUP6 ADD SLOAD SWAP1 PUSH2 0x13D8 SWAP1 DUP4 SWAP1 PUSH2 0x1C3F JUMP JUMPDEST PUSH2 0x13E3 DUP3 PUSH1 0x2 PUSH2 0x1ED5 JUMP JUMPDEST LT ISZERO PUSH2 0x13F5 JUMPI PUSH2 0x13F2 DUP2 PUSH2 0x1C26 JUMP JUMPDEST SWAP1 POP JUMPDEST PUSH1 0x1 DUP6 ADD DUP2 SWAP1 SSTORE DUP4 PUSH1 0x0 JUMPDEST DUP3 DUP2 LT ISZERO PUSH2 0x14D2 JUMPI DUP1 DUP5 SWAP1 SHR PUSH1 0x1 AND PUSH1 0x1 SUB PUSH2 0x14B6 JUMPI PUSH1 0x40 DUP1 MLOAD DUP1 DUP3 ADD DUP3 MSTORE PUSH1 0x0 DUP4 DUP2 MSTORE PUSH1 0x2 DUP11 ADD PUSH1 0x20 SWAP1 DUP2 MSTORE SWAP1 DUP4 SWAP1 KECCAK256 SLOAD DUP3 MSTORE DUP2 ADD DUP5 SWAP1 MSTORE SWAP1 MLOAD PUSH4 0x2B0AAC7F PUSH1 0xE1 SHL DUP2 MSTORE PUSH20 0x0 SWAP2 PUSH4 0x561558FE SWAP2 PUSH2 0x146E SWAP2 SWAP1 PUSH1 0x4 ADD PUSH2 0x1F0E JUMP JUMPDEST PUSH1 0x20 PUSH1 0x40 MLOAD DUP1 DUP4 SUB DUP2 DUP7 GAS DELEGATECALL ISZERO DUP1 ISZERO PUSH2 0x148B JUMPI RETURNDATASIZE PUSH1 0x0 DUP1 RETURNDATACOPY RETURNDATASIZE PUSH1 0x0 REVERT JUMPDEST POP POP POP POP PUSH1 0x40 MLOAD RETURNDATASIZE PUSH1 0x1F NOT PUSH1 0x1F DUP3 ADD AND DUP3 ADD DUP1 PUSH1 0x40 MSTORE POP DUP2 ADD SWAP1 PUSH2 0x14AF SWAP2 SWAP1 PUSH2 0x1F3F JUMP JUMPDEST SWAP2 POP PUSH2 0x14CA JUMP JUMPDEST PUSH1 0x0 DUP2 DUP2 MSTORE PUSH1 0x2 DUP9 ADD PUSH1 0x20 MSTORE PUSH1 0x40 SWAP1 KECCAK256 DUP3 SWAP1 SSTORE JUMPDEST PUSH1 0x1 ADD PUSH2 0x1400 JUMP JUMPDEST POP PUSH2 0x14DC DUP4 PUSH2 0x1C26 JUMP JUMPDEST DUP1 DUP8 SSTORE PUSH1 0x0 SWAP3 DUP4 MSTORE PUSH1 0x2 DUP8 ADD PUSH1 0x20 SWAP1 DUP2 MSTORE PUSH1 0x40 DUP1 DUP6 KECCAK256 DUP5 SWAP1 SSTORE SWAP7 DUP5 MSTORE PUSH1 0x3 SWAP1 SWAP8 ADD SWAP1 SWAP7 MSTORE SWAP4 SWAP1 KECCAK256 SWAP4 SWAP1 SWAP4 SSTORE POP SWAP2 SWAP1 POP JUMP JUMPDEST PUSH1 0x0 PUSH1 0x0 DUP1 MLOAD PUSH1 0x20 PUSH2 0x1F59 DUP4 CODECOPY DUP2 MLOAD SWAP2 MSTORE DUP5 LT PUSH2 0x153D JUMPI PUSH1 0x40 MLOAD PUSH4 0x61C05417 PUSH1 0xE1 SHL DUP2 MSTORE PUSH1 0x4 ADD PUSH1 0x40 MLOAD DUP1 SWAP2 SUB SWAP1 REVERT JUMPDEST PUSH1 0x0 DUP6 DUP2 MSTORE PUSH1 0x3 DUP8 ADD PUSH1 0x20 MSTORE PUSH1 0x40 SWAP1 KECCAK256 SLOAD PUSH2 0x156B JUMPI PUSH1 0x40 MLOAD PUSH4 0x1C811D5B PUSH1 0xE2 SHL DUP2 MSTORE PUSH1 0x4 ADD PUSH1 0x40 MLOAD DUP1 SWAP2 SUB SWAP1 REVERT JUMPDEST PUSH1 0x0 DUP5 DUP2 MSTORE PUSH1 0x3 DUP8 ADD PUSH1 0x20 MSTORE PUSH1 0x40 SWAP1 KECCAK256 SLOAD ISZERO PUSH2 0x159A JUMPI PUSH1 0x40 MLOAD PUSH4 0x12C50CAD PUSH1 0xE1 SHL DUP2 MSTORE PUSH1 0x4 ADD PUSH1 0x40 MLOAD DUP1 SWAP2 SUB SWAP1 REVERT JUMPDEST PUSH1 0x0 PUSH2 0x15A6 DUP8 DUP8 PUSH2 0x9A9 JUMP JUMPDEST DUP8 SLOAD SWAP1 SWAP2 POP DUP6 SWAP1 DUP8 SWAP1 PUSH1 0x0 SWAP1 PUSH2 0x15BE SWAP1 PUSH1 0x1 SWAP1 PUSH2 0x1DDE JUMP JUMPDEST PUSH1 0x1 DUP12 ADD SLOAD SWAP1 SWAP2 POP PUSH1 0x0 SWAP1 DUP2 JUMPDEST DUP2 DUP2 LT ISZERO PUSH2 0x1920 JUMPI DUP1 DUP8 SWAP1 SHR PUSH1 0x1 AND PUSH1 0x1 SUB PUSH2 0x177E JUMPI PUSH1 0x0 DUP1 MLOAD PUSH1 0x20 PUSH2 0x1F59 DUP4 CODECOPY DUP2 MLOAD SWAP2 MSTORE DUP11 DUP11 DUP6 DUP2 DUP2 LT PUSH2 0x1602 JUMPI PUSH2 0x1602 PUSH2 0x1C52 JUMP JUMPDEST SWAP1 POP PUSH1 0x20 MUL ADD CALLDATALOAD LT PUSH2 0x1627 JUMPI PUSH1 0x40 MLOAD PUSH4 0x61C05417 PUSH1 0xE1 SHL DUP2 MSTORE PUSH1 0x4 ADD PUSH1 0x40 MLOAD DUP1 SWAP2 SUB SWAP1 REVERT JUMPDEST PUSH20 0x0 PUSH4 0x561558FE PUSH1 0x40 MLOAD DUP1 PUSH1 0x40 ADD PUSH1 0x40 MSTORE DUP1 DUP14 DUP14 DUP9 DUP2 DUP2 LT PUSH2 0x165E JUMPI PUSH2 0x165E PUSH2 0x1C52 JUMP JUMPDEST SWAP1 POP PUSH1 0x20 MUL ADD CALLDATALOAD DUP2 MSTORE PUSH1 0x20 ADD DUP10 DUP2 MSTORE POP PUSH1 0x40 MLOAD DUP3 PUSH4 0xFFFFFFFF AND PUSH1 0xE0 SHL DUP2 MSTORE PUSH1 0x4 ADD PUSH2 0x168A SWAP2 SWAP1 PUSH2 0x1F0E JUMP JUMPDEST PUSH1 0x20 PUSH1 0x40 MLOAD DUP1 DUP4 SUB DUP2 DUP7 GAS DELEGATECALL ISZERO DUP1 ISZERO PUSH2 0x16A7 JUMPI RETURNDATASIZE PUSH1 0x0 DUP1 RETURNDATACOPY RETURNDATASIZE PUSH1 0x0 REVERT JUMPDEST POP POP POP POP PUSH1 0x40 MLOAD RETURNDATASIZE PUSH1 0x1F NOT PUSH1 0x1F DUP3 ADD AND DUP3 ADD DUP1 PUSH1 0x40 MSTORE POP DUP2 ADD SWAP1 PUSH2 0x16CB SWAP2 SWAP1 PUSH2 0x1F3F JUMP JUMPDEST SWAP6 POP PUSH20 0x0 PUSH4 0x561558FE PUSH1 0x40 MLOAD DUP1 PUSH1 0x40 ADD PUSH1 0x40 MSTORE DUP1 DUP14 DUP14 DUP9 DUP2 DUP2 LT PUSH2 0x1704 JUMPI PUSH2 0x1704 PUSH2 0x1C52 JUMP JUMPDEST SWAP1 POP PUSH1 0x20 MUL ADD CALLDATALOAD DUP2 MSTORE PUSH1 0x20 ADD DUP9 DUP2 MSTORE POP PUSH1 0x40 MLOAD DUP3 PUSH4 0xFFFFFFFF AND PUSH1 0xE0 SHL DUP2 MSTORE PUSH1 0x4 ADD PUSH2 0x1730 SWAP2 SWAP1 PUSH2 0x1F0E JUMP JUMPDEST PUSH1 0x20 PUSH1 0x40 MLOAD DUP1 DUP4 SUB DUP2 DUP7 GAS DELEGATECALL ISZERO DUP1 ISZERO PUSH2 0x174D JUMPI RETURNDATASIZE PUSH1 0x0 DUP1 RETURNDATACOPY RETURNDATASIZE PUSH1 0x0 REVERT JUMPDEST POP POP POP POP PUSH1 0x40 MLOAD RETURNDATASIZE PUSH1 0x1F NOT PUSH1 0x1F DUP3 ADD AND DUP3 ADD DUP1 PUSH1 0x40 MSTORE POP DUP2 ADD SWAP1 PUSH2 0x1771 SWAP2 SWAP1 PUSH2 0x1F3F JUMP JUMPDEST SWAP5 POP DUP3 PUSH1 0x1 ADD SWAP3 POP PUSH2 0x1918 JUMP JUMPDEST DUP7 DUP2 SHR DUP5 DUP3 SHR EQ PUSH2 0x1904 JUMPI PUSH1 0x0 DUP1 MLOAD PUSH1 0x20 PUSH2 0x1F59 DUP4 CODECOPY DUP2 MLOAD SWAP2 MSTORE DUP11 DUP11 DUP6 DUP2 DUP2 LT PUSH2 0x17AA JUMPI PUSH2 0x17AA PUSH2 0x1C52 JUMP JUMPDEST SWAP1 POP PUSH1 0x20 MUL ADD CALLDATALOAD LT PUSH2 0x17CF JUMPI PUSH1 0x40 MLOAD PUSH4 0x61C05417 PUSH1 0xE1 SHL DUP2 MSTORE PUSH1 0x4 ADD PUSH1 0x40 MLOAD DUP1 SWAP2 SUB SWAP1 REVERT JUMPDEST PUSH1 0x0 DUP2 DUP2 MSTORE PUSH1 0x2 DUP15 ADD PUSH1 0x20 MSTORE PUSH1 0x40 SWAP1 KECCAK256 SLOAD DUP6 SWAP1 SUB PUSH2 0x17FB JUMPI PUSH1 0x0 DUP2 DUP2 MSTORE PUSH1 0x2 DUP15 ADD PUSH1 0x20 MSTORE PUSH1 0x40 SWAP1 KECCAK256 DUP7 SWAP1 SSTORE JUMPDEST PUSH20 0x0 PUSH4 0x561558FE PUSH1 0x40 MLOAD DUP1 PUSH1 0x40 ADD PUSH1 0x40 MSTORE DUP1 DUP10 DUP2 MSTORE PUSH1 0x20 ADD DUP14 DUP14 DUP9 DUP2 DUP2 LT PUSH2 0x1838 JUMPI PUSH2 0x1838 PUSH2 0x1C52 JUMP JUMPDEST SWAP1 POP PUSH1 0x20 MUL ADD CALLDATALOAD DUP2 MSTORE POP PUSH1 0x40 MLOAD DUP3 PUSH4 0xFFFFFFFF AND PUSH1 0xE0 SHL DUP2 MSTORE PUSH1 0x4 ADD PUSH2 0x185E SWAP2 SWAP1 PUSH2 0x1F0E JUMP JUMPDEST PUSH1 0x20 PUSH1 0x40 MLOAD DUP1 DUP4 SUB DUP2 DUP7 GAS DELEGATECALL ISZERO DUP1 ISZERO PUSH2 0x187B JUMPI RETURNDATASIZE PUSH1 0x0 DUP1 RETURNDATACOPY RETURNDATASIZE PUSH1 0x0 REVERT JUMPDEST POP POP POP POP PUSH1 0x40 MLOAD RETURNDATASIZE PUSH1 0x1F NOT PUSH1 0x1F DUP3 ADD AND DUP3 ADD DUP1 PUSH1 0x40 MSTORE POP DUP2 ADD SWAP1 PUSH2 0x189F SWAP2 SWAP1 PUSH2 0x1F3F JUMP JUMPDEST SWAP6 POP PUSH20 0x0 PUSH4 0x561558FE PUSH1 0x40 MLOAD DUP1 PUSH1 0x40 ADD PUSH1 0x40 MSTORE DUP1 DUP9 DUP2 MSTORE PUSH1 0x20 ADD DUP14 DUP14 DUP9 DUP2 DUP2 LT PUSH2 0x18DE JUMPI PUSH2 0x18DE PUSH2 0x1C52 JUMP JUMPDEST SWAP1 POP PUSH1 0x20 MUL ADD CALLDATALOAD DUP2 MSTORE POP PUSH1 0x40 MLOAD DUP3 PUSH4 0xFFFFFFFF AND PUSH1 0xE0 SHL DUP2 MSTORE PUSH1 0x4 ADD PUSH2 0x1730 SWAP2 SWAP1 PUSH2 0x1F0E JUMP JUMPDEST PUSH1 0x0 DUP2 DUP2 MSTORE PUSH1 0x2 DUP15 ADD PUSH1 0x20 MSTORE PUSH1 0x40 SWAP1 KECCAK256 DUP7 SWAP1 SSTORE JUMPDEST PUSH1 0x1 ADD PUSH2 0x15CB JUMP JUMPDEST POP PUSH1 0x1 DUP13 ADD SLOAD PUSH1 0x0 SWAP1 DUP2 MSTORE PUSH1 0x2 DUP14 ADD PUSH1 0x20 MSTORE PUSH1 0x40 SWAP1 KECCAK256 SLOAD DUP5 EQ PUSH2 0x1956 JUMPI PUSH1 0x40 MLOAD PUSH4 0x1FD49863 PUSH1 0xE1 SHL DUP2 MSTORE PUSH1 0x4 ADD PUSH1 0x40 MLOAD DUP1 SWAP2 SUB SWAP1 REVERT JUMPDEST PUSH1 0x0 DUP2 DUP2 MSTORE PUSH1 0x2 DUP14 ADD PUSH1 0x20 MSTORE PUSH1 0x40 SWAP1 KECCAK256 DUP6 SWAP1 SSTORE DUP10 ISZERO PUSH2 0x1988 JUMPI PUSH1 0x0 DUP12 DUP2 MSTORE PUSH1 0x3 DUP14 ADD PUSH1 0x20 MSTORE PUSH1 0x40 DUP1 DUP3 KECCAK256 SLOAD DUP13 DUP4 MSTORE SWAP2 KECCAK256 SSTORE JUMPDEST POP POP POP PUSH1 0x0 DUP9 DUP2 MSTORE PUSH1 0x3 DUP11 ADD PUSH1 0x20 MSTORE PUSH1 0x40 DUP2 KECCAK256 SSTORE POP SWAP2 POP POP SWAP6 SWAP5 POP POP POP POP POP JUMP JUMPDEST PUSH1 0x0 PUSH2 0x19B9 DUP6 DUP6 PUSH1 0x0 DUP7 DUP7 PUSH2 0x150D JUMP JUMPDEST SWAP6 SWAP5 POP POP POP POP POP JUMP JUMPDEST PUSH1 0x0 DUP1 DUP4 PUSH1 0x1F DUP5 ADD SLT PUSH2 0x19D4 JUMPI PUSH1 0x0 DUP1 REVERT JUMPDEST POP DUP2 CALLDATALOAD PUSH8 0xFFFFFFFFFFFFFFFF DUP2 GT ISZERO PUSH2 0x19EC JUMPI PUSH1 0x0 DUP1 REVERT JUMPDEST PUSH1 0x20 DUP4 ADD SWAP2 POP DUP4 PUSH1 0x20 DUP3 PUSH1 0x5 SHL DUP6 ADD ADD GT ISZERO PUSH2 0x1A07 JUMPI PUSH1 0x0 DUP1 REVERT JUMPDEST SWAP3 POP SWAP3 SWAP1 POP JUMP JUMPDEST PUSH1 0x0 DUP1 PUSH1 0x0 PUSH1 0x40 DUP5 DUP7 SUB SLT ISZERO PUSH2 0x1A23 JUMPI PUSH1 0x0 DUP1 REVERT JUMPDEST DUP4 CALLDATALOAD SWAP3 POP PUSH1 0x20 DUP5 ADD CALLDATALOAD PUSH8 0xFFFFFFFFFFFFFFFF DUP2 GT ISZERO PUSH2 0x1A41 JUMPI PUSH1 0x0 DUP1 REVERT JUMPDEST PUSH2 0x1A4D DUP7 DUP3 DUP8 ADD PUSH2 0x19C2 JUMP JUMPDEST SWAP5 SWAP8 SWAP1 SWAP7 POP SWAP4 SWAP5 POP POP POP POP JUMP JUMPDEST PUSH1 0x0 DUP1 PUSH1 0x40 DUP4 DUP6 SUB SLT ISZERO PUSH2 0x1A6D JUMPI PUSH1 0x0 DUP1 REVERT JUMPDEST POP POP DUP1 CALLDATALOAD SWAP3 PUSH1 0x20 SWAP1 SWAP2 ADD CALLDATALOAD SWAP2 POP JUMP JUMPDEST DUP1 CALLDATALOAD PUSH1 0x1 PUSH1 0x1 PUSH1 0xA0 SHL SUB DUP2 AND DUP2 EQ PUSH2 0x1A93 JUMPI PUSH1 0x0 DUP1 REVERT JUMPDEST SWAP2 SWAP1 POP JUMP JUMPDEST PUSH1 0x0 DUP1 PUSH1 0x40 DUP4 DUP6 SUB SLT ISZERO PUSH2 0x1AAB JUMPI PUSH1 0x0 DUP1 REVERT JUMPDEST PUSH2 0x1AB4 DUP4 PUSH2 0x1A7C JUMP JUMPDEST SWAP5 PUSH1 0x20 SWAP4 SWAP1 SWAP4 ADD CALLDATALOAD SWAP4 POP POP POP JUMP JUMPDEST PUSH1 0x0 DUP1 PUSH1 0x0 DUP1 PUSH1 0x0 PUSH1 0x80 DUP7 DUP9 SUB SLT ISZERO PUSH2 0x1ADA JUMPI PUSH1 0x0 DUP1 REVERT JUMPDEST DUP6 CALLDATALOAD SWAP5 POP PUSH1 0x20 DUP7 ADD CALLDATALOAD SWAP4 POP PUSH1 0x40 DUP7 ADD CALLDATALOAD SWAP3 POP PUSH1 0x60 DUP7 ADD CALLDATALOAD PUSH8 0xFFFFFFFFFFFFFFFF DUP2 GT ISZERO PUSH2 0x1B06 JUMPI PUSH1 0x0 DUP1 REVERT JUMPDEST PUSH2 0x1B12 DUP9 DUP3 DUP10 ADD PUSH2 0x19C2 JUMP JUMPDEST SWAP7 SWAP10 SWAP6 SWAP9 POP SWAP4 SWAP7 POP SWAP3 SWAP5 SWAP4 SWAP3 POP POP POP JUMP JUMPDEST PUSH1 0x0 DUP1 DUP3 DUP5 SUB PUSH2 0x1C0 DUP2 SLT ISZERO PUSH2 0x1B38 JUMPI PUSH1 0x0 DUP1 REVERT JUMPDEST DUP4 CALLDATALOAD SWAP3 POP PUSH2 0x1A0 PUSH1 0x1F NOT DUP3 ADD SLT ISZERO PUSH2 0x1B4F JUMPI PUSH1 0x0 DUP1 REVERT JUMPDEST POP PUSH1 0x20 DUP4 ADD SWAP1 POP SWAP3 POP SWAP3 SWAP1 POP JUMP JUMPDEST PUSH1 0x0 DUP1 PUSH1 0x40 DUP4 DUP6 SUB SLT ISZERO PUSH2 0x1B70 JUMPI PUSH1 0x0 DUP1 REVERT JUMPDEST DUP3 CALLDATALOAD SWAP2 POP PUSH2 0x1B80 PUSH1 0x20 DUP5 ADD PUSH2 0x1A7C JUMP JUMPDEST SWAP1 POP SWAP3 POP SWAP3 SWAP1 POP JUMP JUMPDEST PUSH1 0x0 PUSH1 0x20 DUP3 DUP5 SUB SLT ISZERO PUSH2 0x1B9B JUMPI PUSH1 0x0 DUP1 REVERT JUMPDEST PUSH2 0x37E DUP3 PUSH2 0x1A7C JUMP JUMPDEST PUSH1 0x0 PUSH1 0x20 DUP3 DUP5 SUB SLT ISZERO PUSH2 0x1BB6 JUMPI PUSH1 0x0 DUP1 REVERT JUMPDEST POP CALLDATALOAD SWAP2 SWAP1 POP JUMP JUMPDEST PUSH1 0x0 DUP1 PUSH1 0x0 DUP1 PUSH1 0x60 DUP6 DUP8 SUB SLT ISZERO PUSH2 0x1BD3 JUMPI PUSH1 0x0 DUP1 REVERT JUMPDEST DUP5 CALLDATALOAD SWAP4 POP PUSH1 0x20 DUP6 ADD CALLDATALOAD SWAP3 POP PUSH1 0x40 DUP6 ADD CALLDATALOAD PUSH8 0xFFFFFFFFFFFFFFFF DUP2 GT ISZERO PUSH2 0x1BF8 JUMPI PUSH1 0x0 DUP1 REVERT JUMPDEST PUSH2 0x1C04 DUP8 DUP3 DUP9 ADD PUSH2 0x19C2 JUMP JUMPDEST SWAP6 SWAP9 SWAP5 SWAP8 POP SWAP6 POP POP POP POP JUMP JUMPDEST PUSH4 0x4E487B71 PUSH1 0xE0 SHL PUSH1 0x0 MSTORE PUSH1 0x11 PUSH1 0x4 MSTORE PUSH1 0x24 PUSH1 0x0 REVERT JUMPDEST PUSH1 0x0 PUSH1 0x1 DUP3 ADD PUSH2 0x1C38 JUMPI PUSH2 0x1C38 PUSH2 0x1C10 JUMP JUMPDEST POP PUSH1 0x1 ADD SWAP1 JUMP JUMPDEST DUP1 DUP3 ADD DUP1 DUP3 GT ISZERO PUSH2 0x381 JUMPI PUSH2 0x381 PUSH2 0x1C10 JUMP JUMPDEST PUSH4 0x4E487B71 PUSH1 0xE0 SHL PUSH1 0x0 MSTORE PUSH1 0x32 PUSH1 0x4 MSTORE PUSH1 0x24 PUSH1 0x0 REVERT JUMPDEST DUP1 PUSH1 0x0 JUMPDEST PUSH1 0x2 DUP2 LT ISZERO PUSH2 0x1C8B JUMPI DUP2 MLOAD DUP5 MSTORE PUSH1 0x20 SWAP4 DUP5 ADD SWAP4 SWAP1 SWAP2 ADD SWAP1 PUSH1 0x1 ADD PUSH2 0x1C6C JUMP JUMPDEST POP POP POP POP JUMP JUMPDEST DUP1 PUSH1 0x0 JUMPDEST PUSH1 0x4 DUP2 LT ISZERO PUSH2 0x1C8B JUMPI DUP2 MLOAD DUP5 MSTORE PUSH1 0x20 SWAP4 DUP5 ADD SWAP4 SWAP1 SWAP2 ADD SWAP1 PUSH1 0x1 ADD PUSH2 0x1C95 JUMP JUMPDEST PUSH2 0x1A0 DUP2 ADD PUSH2 0x1CC3 DUP3 DUP9 PUSH2 0x1C68 JUMP JUMPDEST PUSH1 0x40 DUP1 DUP4 ADD DUP8 PUSH1 0x0 DUP1 JUMPDEST PUSH1 0x2 DUP1 DUP3 LT PUSH2 0x1CDC JUMPI POP PUSH2 0x1D16 JUMP JUMPDEST DUP4 MLOAD DUP6 DUP5 JUMPDEST DUP4 DUP2 LT ISZERO PUSH2 0x1CFF JUMPI DUP3 MLOAD DUP3 MSTORE PUSH1 0x20 SWAP3 DUP4 ADD SWAP3 SWAP1 SWAP2 ADD SWAP1 PUSH1 0x1 ADD PUSH2 0x1CE1 JUMP JUMPDEST POP POP POP SWAP4 DUP6 ADD SWAP4 POP PUSH1 0x20 SWAP3 SWAP1 SWAP3 ADD SWAP2 PUSH1 0x1 ADD PUSH2 0x1CCD JUMP JUMPDEST POP POP POP POP POP PUSH2 0x1D28 PUSH1 0xC0 DUP4 ADD DUP7 PUSH2 0x1C68 JUMP JUMPDEST PUSH2 0x1D36 PUSH2 0x100 DUP4 ADD DUP6 PUSH2 0x1C91 JUMP JUMPDEST DUP3 PUSH2 0x180 DUP4 ADD MSTORE SWAP7 SWAP6 POP POP POP POP POP POP JUMP JUMPDEST PUSH1 0x0 PUSH1 0x20 DUP3 DUP5 SUB SLT ISZERO PUSH2 0x1D59 JUMPI PUSH1 0x0 DUP1 REVERT JUMPDEST DUP2 MLOAD DUP1 ISZERO ISZERO DUP2 EQ PUSH2 0x1D69 JUMPI PUSH1 0x0 DUP1 REVERT JUMPDEST SWAP4 SWAP3 POP POP POP JUMP JUMPDEST DUP5 DUP2 MSTORE PUSH1 0x20 DUP2 ADD DUP5 SWAP1 MSTORE PUSH1 0x40 DUP2 ADD DUP4 SWAP1 MSTORE PUSH2 0x160 DUP2 ADD PUSH2 0x100 DUP4 PUSH1 0x60 DUP5 ADD CALLDATACOPY SWAP6 SWAP5 POP POP POP POP POP JUMP JUMPDEST DUP5 DUP2 MSTORE PUSH1 0x60 PUSH1 0x20 DUP3 ADD DUP2 SWAP1 MSTORE DUP2 ADD DUP4 SWAP1 MSTORE PUSH1 0x0 PUSH1 0x1 PUSH1 0x1 PUSH1 0xFB SHL SUB DUP5 GT ISZERO PUSH2 0x1DBF JUMPI PUSH1 0x0 DUP1 REVERT JUMPDEST DUP4 PUSH1 0x5 SHL DUP1 DUP7 PUSH1 0x80 DUP6 ADD CALLDATACOPY PUSH1 0x40 DUP4 ADD SWAP4 SWAP1 SWAP4 MSTORE POP ADD PUSH1 0x80 ADD SWAP4 SWAP3 POP POP POP JUMP JUMPDEST DUP2 DUP2 SUB DUP2 DUP2 GT ISZERO PUSH2 0x381 JUMPI PUSH2 0x381 PUSH2 0x1C10 JUMP JUMPDEST PUSH1 0x1 DUP2 DUP2 JUMPDEST DUP1 DUP6 GT ISZERO PUSH2 0x1E2C JUMPI DUP2 PUSH1 0x0 NOT DIV DUP3 GT ISZERO PUSH2 0x1E12 JUMPI PUSH2 0x1E12 PUSH2 0x1C10 JUMP JUMPDEST DUP1 DUP6 AND ISZERO PUSH2 0x1E1F JUMPI SWAP2 DUP2 MUL SWAP2 JUMPDEST SWAP4 DUP5 SHR SWAP4 SWAP1 DUP1 MUL SWAP1 PUSH2 0x1DF6 JUMP JUMPDEST POP SWAP3 POP SWAP3 SWAP1 POP JUMP JUMPDEST PUSH1 0x0 DUP3 PUSH2 0x1E43 JUMPI POP PUSH1 0x1 PUSH2 0x381 JUMP JUMPDEST DUP2 PUSH2 0x1E50 JUMPI POP PUSH1 0x0 PUSH2 0x381 JUMP JUMPDEST DUP2 PUSH1 0x1 DUP2 EQ PUSH2 0x1E66 JUMPI PUSH1 0x2 DUP2 EQ PUSH2 0x1E70 JUMPI PUSH2 0x1E8C JUMP JUMPDEST PUSH1 0x1 SWAP2 POP POP PUSH2 0x381 JUMP JUMPDEST PUSH1 0xFF DUP5 GT ISZERO PUSH2 0x1E81 JUMPI PUSH2 0x1E81 PUSH2 0x1C10 JUMP JUMPDEST POP POP PUSH1 0x1 DUP3 SHL PUSH2 0x381 JUMP JUMPDEST POP PUSH1 0x20 DUP4 LT PUSH2 0x133 DUP4 LT AND PUSH1 0x4E DUP5 LT PUSH1 0xB DUP5 LT AND OR ISZERO PUSH2 0x1EAF JUMPI POP DUP2 DUP2 EXP PUSH2 0x381 JUMP JUMPDEST PUSH2 0x1EB9 DUP4 DUP4 PUSH2 0x1DF1 JUMP JUMPDEST DUP1 PUSH1 0x0 NOT DIV DUP3 GT ISZERO PUSH2 0x1ECD JUMPI PUSH2 0x1ECD PUSH2 0x1C10 JUMP JUMPDEST MUL SWAP4 SWAP3 POP POP POP JUMP JUMPDEST PUSH1 0x0 PUSH2 0x37E DUP4 DUP4 PUSH2 0x1E34 JUMP JUMPDEST PUSH4 0x4E487B71 PUSH1 0xE0 SHL PUSH1 0x0 MSTORE PUSH1 0x41 PUSH1 0x4 MSTORE PUSH1 0x24 PUSH1 0x0 REVERT JUMPDEST DUP1 DUP3 MUL DUP2 ISZERO DUP3 DUP3 DIV DUP5 EQ OR PUSH2 0x381 JUMPI PUSH2 0x381 PUSH2 0x1C10 JUMP JUMPDEST PUSH1 0x40 DUP2 ADD DUP2 DUP4 PUSH1 0x0 JUMPDEST PUSH1 0x2 DUP2 LT ISZERO PUSH2 0x1F36 JUMPI DUP2 MLOAD DUP4 MSTORE PUSH1 0x20 SWAP3 DUP4 ADD SWAP3 SWAP1 SWAP2 ADD SWAP1 PUSH1 0x1 ADD PUSH2 0x1F17 JUMP JUMPDEST POP POP POP SWAP3 SWAP2 POP POP JUMP JUMPDEST PUSH1 0x0 PUSH1 0x20 DUP3 DUP5 SUB SLT ISZERO PUSH2 0x1F51 JUMPI PUSH1 0x0 DUP1 REVERT JUMPDEST POP MLOAD SWAP2 SWAP1 POP JUMP INVALID ADDRESS PUSH5 0x4E72E131A0 0x29 0xB8 POP GASLIMIT 0xB6 DUP2 DUP2 PC 0x5D 0x28 CALLER 0xE8 BASEFEE PUSH26 0xB9709143E1F593F0000001A2646970667358221220CBA18D740B 0xD5 0xC0 TIMESTAMP SIGNEXTEND PREVRANDAO SWAP1 0xD2 CHAINID SWAP1 DUP5 DUP7 TIMESTAMP 0x2F GAS 0xD8 0x2A 0xBF SWAP12 0xBB 0xD1 0x22 0xE0 PUSH12 0x762032C764736F6C63430008 OR STOP CALLER "},"methodIdentifiers":{"acceptGroupAdmin(uint256)":"da3cda52","addMember(uint256,uint256)":"1783efc3","addMembers(uint256,uint256[])":"04245371","createGroup()":"575185ed","createGroup(address)":"5c3f3b60","createGroup(address,uint256)":"2c880363","getGroupAdmin(uint256)":"a9961c94","getMerkleTreeDepth(uint256)":"6389e107","getMerkleTreeRoot(uint256)":"dabc4d51","getMerkleTreeSize(uint256)":"7ee35a0c","groupCounter()":"d24924fe","groups(uint256)":"96324bd4","hasMember(uint256,uint256)":"90509d44","indexOf(uint256,uint256)":"06dd8485","removeMember(uint256,uint256,uint256[])":"6cdd32fe","updateGroupAdmin(uint256,address)":"568ee826","updateGroupMerkleTreeDuration(uint256,uint256)":"fcf0b6ec","updateMember(uint256,uint256,uint256,uint256[])":"4178c4d5","validateProof(uint256,(uint256,uint256,uint256,uint256,uint256,uint256[8]))":"d0d898dd","verifier()":"2b7ac3f3","verifyProof(uint256,(uint256,uint256,uint256,uint256,uint256,uint256[8]))":"456f4188"}}}}}