{
  "_format": "hh-sol-artifact-1",
  "contractName": "GiftCard",
  "sourceName": "contracts/GiftCard.sol",
  "abi": [
    {
      "inputs": [
        {
          "internalType": "address",
          "name": "_usdcAddress",
          "type": "address"
        },
        {
          "internalType": "address",
          "name": "_eurcAddress",
          "type": "address"
        }
      ],
      "stateMutability": "nonpayable",
      "type": "constructor"
    },
    {
      "inputs": [],
      "name": "ERC721EnumerableForbiddenBatchMint",
      "type": "error"
    },
    {
      "inputs": [
        {
          "internalType": "address",
          "name": "sender",
          "type": "address"
        },
        {
          "internalType": "uint256",
          "name": "tokenId",
          "type": "uint256"
        },
        {
          "internalType": "address",
          "name": "owner",
          "type": "address"
        }
      ],
      "name": "ERC721IncorrectOwner",
      "type": "error"
    },
    {
      "inputs": [
        {
          "internalType": "address",
          "name": "operator",
          "type": "address"
        },
        {
          "internalType": "uint256",
          "name": "tokenId",
          "type": "uint256"
        }
      ],
      "name": "ERC721InsufficientApproval",
      "type": "error"
    },
    {
      "inputs": [
        {
          "internalType": "address",
          "name": "approver",
          "type": "address"
        }
      ],
      "name": "ERC721InvalidApprover",
      "type": "error"
    },
    {
      "inputs": [
        {
          "internalType": "address",
          "name": "operator",
          "type": "address"
        }
      ],
      "name": "ERC721InvalidOperator",
      "type": "error"
    },
    {
      "inputs": [
        {
          "internalType": "address",
          "name": "owner",
          "type": "address"
        }
      ],
      "name": "ERC721InvalidOwner",
      "type": "error"
    },
    {
      "inputs": [
        {
          "internalType": "address",
          "name": "receiver",
          "type": "address"
        }
      ],
      "name": "ERC721InvalidReceiver",
      "type": "error"
    },
    {
      "inputs": [
        {
          "internalType": "address",
          "name": "sender",
          "type": "address"
        }
      ],
      "name": "ERC721InvalidSender",
      "type": "error"
    },
    {
      "inputs": [
        {
          "internalType": "uint256",
          "name": "tokenId",
          "type": "uint256"
        }
      ],
      "name": "ERC721NonexistentToken",
      "type": "error"
    },
    {
      "inputs": [
        {
          "internalType": "address",
          "name": "owner",
          "type": "address"
        },
        {
          "internalType": "uint256",
          "name": "index",
          "type": "uint256"
        }
      ],
      "name": "ERC721OutOfBoundsIndex",
      "type": "error"
    },
    {
      "inputs": [
        {
          "internalType": "address",
          "name": "owner",
          "type": "address"
        }
      ],
      "name": "OwnableInvalidOwner",
      "type": "error"
    },
    {
      "inputs": [
        {
          "internalType": "address",
          "name": "account",
          "type": "address"
        }
      ],
      "name": "OwnableUnauthorizedAccount",
      "type": "error"
    },
    {
      "anonymous": false,
      "inputs": [
        {
          "indexed": true,
          "internalType": "address",
          "name": "owner",
          "type": "address"
        },
        {
          "indexed": true,
          "internalType": "address",
          "name": "approved",
          "type": "address"
        },
        {
          "indexed": true,
          "internalType": "uint256",
          "name": "tokenId",
          "type": "uint256"
        }
      ],
      "name": "Approval",
      "type": "event"
    },
    {
      "anonymous": false,
      "inputs": [
        {
          "indexed": true,
          "internalType": "address",
          "name": "owner",
          "type": "address"
        },
        {
          "indexed": true,
          "internalType": "address",
          "name": "operator",
          "type": "address"
        },
        {
          "indexed": false,
          "internalType": "bool",
          "name": "approved",
          "type": "bool"
        }
      ],
      "name": "ApprovalForAll",
      "type": "event"
    },
    {
      "anonymous": false,
      "inputs": [
        {
          "indexed": false,
          "internalType": "uint256",
          "name": "tokenId",
          "type": "uint256"
        },
        {
          "indexed": false,
          "internalType": "address",
          "name": "recipient",
          "type": "address"
        },
        {
          "indexed": false,
          "internalType": "uint256",
          "name": "amount",
          "type": "uint256"
        },
        {
          "indexed": false,
          "internalType": "address",
          "name": "token",
          "type": "address"
        },
        {
          "indexed": false,
          "internalType": "string",
          "name": "uri",
          "type": "string"
        },
        {
          "indexed": false,
          "internalType": "string",
          "name": "message",
          "type": "string"
        }
      ],
      "name": "GiftCardCreated",
      "type": "event"
    },
    {
      "anonymous": false,
      "inputs": [
        {
          "indexed": false,
          "internalType": "uint256",
          "name": "tokenId",
          "type": "uint256"
        },
        {
          "indexed": false,
          "internalType": "string",
          "name": "username",
          "type": "string"
        },
        {
          "indexed": false,
          "internalType": "address",
          "name": "sender",
          "type": "address"
        },
        {
          "indexed": false,
          "internalType": "uint256",
          "name": "amount",
          "type": "uint256"
        },
        {
          "indexed": false,
          "internalType": "address",
          "name": "token",
          "type": "address"
        },
        {
          "indexed": false,
          "internalType": "string",
          "name": "uri",
          "type": "string"
        },
        {
          "indexed": false,
          "internalType": "string",
          "name": "message",
          "type": "string"
        }
      ],
      "name": "GiftCardCreatedForTwitch",
      "type": "event"
    },
    {
      "anonymous": false,
      "inputs": [
        {
          "indexed": false,
          "internalType": "uint256",
          "name": "tokenId",
          "type": "uint256"
        },
        {
          "indexed": false,
          "internalType": "string",
          "name": "username",
          "type": "string"
        },
        {
          "indexed": false,
          "internalType": "address",
          "name": "sender",
          "type": "address"
        },
        {
          "indexed": false,
          "internalType": "uint256",
          "name": "amount",
          "type": "uint256"
        },
        {
          "indexed": false,
          "internalType": "address",
          "name": "token",
          "type": "address"
        },
        {
          "indexed": false,
          "internalType": "string",
          "name": "uri",
          "type": "string"
        },
        {
          "indexed": false,
          "internalType": "string",
          "name": "message",
          "type": "string"
        }
      ],
      "name": "GiftCardCreatedForTwitter",
      "type": "event"
    },
    {
      "anonymous": false,
      "inputs": [
        {
          "indexed": false,
          "internalType": "uint256",
          "name": "tokenId",
          "type": "uint256"
        },
        {
          "indexed": false,
          "internalType": "address",
          "name": "redeemer",
          "type": "address"
        },
        {
          "indexed": false,
          "internalType": "uint256",
          "name": "amount",
          "type": "uint256"
        },
        {
          "indexed": false,
          "internalType": "address",
          "name": "token",
          "type": "address"
        }
      ],
      "name": "GiftCardRedeemed",
      "type": "event"
    },
    {
      "anonymous": false,
      "inputs": [
        {
          "indexed": true,
          "internalType": "address",
          "name": "previousOwner",
          "type": "address"
        },
        {
          "indexed": true,
          "internalType": "address",
          "name": "newOwner",
          "type": "address"
        }
      ],
      "name": "OwnershipTransferred",
      "type": "event"
    },
    {
      "anonymous": false,
      "inputs": [
        {
          "indexed": true,
          "internalType": "address",
          "name": "from",
          "type": "address"
        },
        {
          "indexed": true,
          "internalType": "address",
          "name": "to",
          "type": "address"
        },
        {
          "indexed": true,
          "internalType": "uint256",
          "name": "tokenId",
          "type": "uint256"
        }
      ],
      "name": "Transfer",
      "type": "event"
    },
    {
      "inputs": [
        {
          "internalType": "address",
          "name": "to",
          "type": "address"
        },
        {
          "internalType": "uint256",
          "name": "tokenId",
          "type": "uint256"
        }
      ],
      "name": "approve",
      "outputs": [],
      "stateMutability": "nonpayable",
      "type": "function"
    },
    {
      "inputs": [
        {
          "internalType": "address",
          "name": "owner",
          "type": "address"
        }
      ],
      "name": "balanceOf",
      "outputs": [
        {
          "internalType": "uint256",
          "name": "",
          "type": "uint256"
        }
      ],
      "stateMutability": "view",
      "type": "function"
    },
    {
      "inputs": [
        {
          "internalType": "address",
          "name": "_recipient",
          "type": "address"
        },
        {
          "internalType": "uint256",
          "name": "_amount",
          "type": "uint256"
        },
        {
          "internalType": "address",
          "name": "_token",
          "type": "address"
        },
        {
          "internalType": "string",
          "name": "_metadataURI",
          "type": "string"
        },
        {
          "internalType": "string",
          "name": "_message",
          "type": "string"
        }
      ],
      "name": "createGiftCard",
      "outputs": [
        {
          "internalType": "uint256",
          "name": "",
          "type": "uint256"
        }
      ],
      "stateMutability": "nonpayable",
      "type": "function"
    },
    {
      "inputs": [
        {
          "internalType": "string",
          "name": "_username",
          "type": "string"
        },
        {
          "internalType": "uint256",
          "name": "_amount",
          "type": "uint256"
        },
        {
          "internalType": "address",
          "name": "_token",
          "type": "address"
        },
        {
          "internalType": "string",
          "name": "_metadataURI",
          "type": "string"
        },
        {
          "internalType": "string",
          "name": "_message",
          "type": "string"
        }
      ],
      "name": "createGiftCardForTwitch",
      "outputs": [
        {
          "internalType": "uint256",
          "name": "",
          "type": "uint256"
        }
      ],
      "stateMutability": "nonpayable",
      "type": "function"
    },
    {
      "inputs": [
        {
          "internalType": "string",
          "name": "_username",
          "type": "string"
        },
        {
          "internalType": "uint256",
          "name": "_amount",
          "type": "uint256"
        },
        {
          "internalType": "address",
          "name": "_token",
          "type": "address"
        },
        {
          "internalType": "string",
          "name": "_metadataURI",
          "type": "string"
        },
        {
          "internalType": "string",
          "name": "_message",
          "type": "string"
        }
      ],
      "name": "createGiftCardForTwitter",
      "outputs": [
        {
          "internalType": "uint256",
          "name": "",
          "type": "uint256"
        }
      ],
      "stateMutability": "nonpayable",
      "type": "function"
    },
    {
      "inputs": [],
      "name": "eurcToken",
      "outputs": [
        {
          "internalType": "contract IERC20",
          "name": "",
          "type": "address"
        }
      ],
      "stateMutability": "view",
      "type": "function"
    },
    {
      "inputs": [
        {
          "internalType": "uint256",
          "name": "tokenId",
          "type": "uint256"
        }
      ],
      "name": "getApproved",
      "outputs": [
        {
          "internalType": "address",
          "name": "",
          "type": "address"
        }
      ],
      "stateMutability": "view",
      "type": "function"
    },
    {
      "inputs": [
        {
          "internalType": "uint256",
          "name": "tokenId",
          "type": "uint256"
        }
      ],
      "name": "getGiftCardInfo",
      "outputs": [
        {
          "components": [
            {
              "internalType": "uint256",
              "name": "amount",
              "type": "uint256"
            },
            {
              "internalType": "address",
              "name": "token",
              "type": "address"
            },
            {
              "internalType": "bool",
              "name": "redeemed",
              "type": "bool"
            },
            {
              "internalType": "string",
              "name": "message",
              "type": "string"
            }
          ],
          "internalType": "struct GiftCard.GiftCardInfo",
          "name": "",
          "type": "tuple"
        }
      ],
      "stateMutability": "view",
      "type": "function"
    },
    {
      "inputs": [
        {
          "internalType": "uint256",
          "name": "",
          "type": "uint256"
        }
      ],
      "name": "giftCards",
      "outputs": [
        {
          "internalType": "uint256",
          "name": "amount",
          "type": "uint256"
        },
        {
          "internalType": "address",
          "name": "token",
          "type": "address"
        },
        {
          "internalType": "bool",
          "name": "redeemed",
          "type": "bool"
        },
        {
          "internalType": "string",
          "name": "message",
          "type": "string"
        }
      ],
      "stateMutability": "view",
      "type": "function"
    },
    {
      "inputs": [
        {
          "internalType": "address",
          "name": "owner",
          "type": "address"
        },
        {
          "internalType": "address",
          "name": "operator",
          "type": "address"
        }
      ],
      "name": "isApprovedForAll",
      "outputs": [
        {
          "internalType": "bool",
          "name": "",
          "type": "bool"
        }
      ],
      "stateMutability": "view",
      "type": "function"
    },
    {
      "inputs": [],
      "name": "name",
      "outputs": [
        {
          "internalType": "string",
          "name": "",
          "type": "string"
        }
      ],
      "stateMutability": "view",
      "type": "function"
    },
    {
      "inputs": [],
      "name": "owner",
      "outputs": [
        {
          "internalType": "address",
          "name": "",
          "type": "address"
        }
      ],
      "stateMutability": "view",
      "type": "function"
    },
    {
      "inputs": [
        {
          "internalType": "uint256",
          "name": "tokenId",
          "type": "uint256"
        }
      ],
      "name": "ownerOf",
      "outputs": [
        {
          "internalType": "address",
          "name": "",
          "type": "address"
        }
      ],
      "stateMutability": "view",
      "type": "function"
    },
    {
      "inputs": [
        {
          "internalType": "uint256",
          "name": "tokenId",
          "type": "uint256"
        }
      ],
      "name": "redeemGiftCard",
      "outputs": [],
      "stateMutability": "nonpayable",
      "type": "function"
    },
    {
      "inputs": [],
      "name": "renounceOwnership",
      "outputs": [],
      "stateMutability": "nonpayable",
      "type": "function"
    },
    {
      "inputs": [
        {
          "internalType": "address",
          "name": "from",
          "type": "address"
        },
        {
          "internalType": "address",
          "name": "to",
          "type": "address"
        },
        {
          "internalType": "uint256",
          "name": "tokenId",
          "type": "uint256"
        }
      ],
      "name": "safeTransferFrom",
      "outputs": [],
      "stateMutability": "nonpayable",
      "type": "function"
    },
    {
      "inputs": [
        {
          "internalType": "address",
          "name": "from",
          "type": "address"
        },
        {
          "internalType": "address",
          "name": "to",
          "type": "address"
        },
        {
          "internalType": "uint256",
          "name": "tokenId",
          "type": "uint256"
        },
        {
          "internalType": "bytes",
          "name": "data",
          "type": "bytes"
        }
      ],
      "name": "safeTransferFrom",
      "outputs": [],
      "stateMutability": "nonpayable",
      "type": "function"
    },
    {
      "inputs": [
        {
          "internalType": "address",
          "name": "operator",
          "type": "address"
        },
        {
          "internalType": "bool",
          "name": "approved",
          "type": "bool"
        }
      ],
      "name": "setApprovalForAll",
      "outputs": [],
      "stateMutability": "nonpayable",
      "type": "function"
    },
    {
      "inputs": [
        {
          "internalType": "address",
          "name": "_vaultAddress",
          "type": "address"
        }
      ],
      "name": "setTwitchVaultContract",
      "outputs": [],
      "stateMutability": "nonpayable",
      "type": "function"
    },
    {
      "inputs": [
        {
          "internalType": "address",
          "name": "_vaultAddress",
          "type": "address"
        }
      ],
      "name": "setVaultContract",
      "outputs": [],
      "stateMutability": "nonpayable",
      "type": "function"
    },
    {
      "inputs": [
        {
          "internalType": "bytes4",
          "name": "interfaceId",
          "type": "bytes4"
        }
      ],
      "name": "supportsInterface",
      "outputs": [
        {
          "internalType": "bool",
          "name": "",
          "type": "bool"
        }
      ],
      "stateMutability": "view",
      "type": "function"
    },
    {
      "inputs": [],
      "name": "symbol",
      "outputs": [
        {
          "internalType": "string",
          "name": "",
          "type": "string"
        }
      ],
      "stateMutability": "view",
      "type": "function"
    },
    {
      "inputs": [
        {
          "internalType": "uint256",
          "name": "index",
          "type": "uint256"
        }
      ],
      "name": "tokenByIndex",
      "outputs": [
        {
          "internalType": "uint256",
          "name": "",
          "type": "uint256"
        }
      ],
      "stateMutability": "view",
      "type": "function"
    },
    {
      "inputs": [
        {
          "internalType": "address",
          "name": "owner",
          "type": "address"
        },
        {
          "internalType": "uint256",
          "name": "index",
          "type": "uint256"
        }
      ],
      "name": "tokenOfOwnerByIndex",
      "outputs": [
        {
          "internalType": "uint256",
          "name": "",
          "type": "uint256"
        }
      ],
      "stateMutability": "view",
      "type": "function"
    },
    {
      "inputs": [
        {
          "internalType": "uint256",
          "name": "tokenId",
          "type": "uint256"
        }
      ],
      "name": "tokenURI",
      "outputs": [
        {
          "internalType": "string",
          "name": "",
          "type": "string"
        }
      ],
      "stateMutability": "view",
      "type": "function"
    },
    {
      "inputs": [],
      "name": "totalSupply",
      "outputs": [
        {
          "internalType": "uint256",
          "name": "",
          "type": "uint256"
        }
      ],
      "stateMutability": "view",
      "type": "function"
    },
    {
      "inputs": [
        {
          "internalType": "address",
          "name": "from",
          "type": "address"
        },
        {
          "internalType": "address",
          "name": "to",
          "type": "address"
        },
        {
          "internalType": "uint256",
          "name": "tokenId",
          "type": "uint256"
        }
      ],
      "name": "transferFrom",
      "outputs": [],
      "stateMutability": "nonpayable",
      "type": "function"
    },
    {
      "inputs": [
        {
          "internalType": "address",
          "name": "newOwner",
          "type": "address"
        }
      ],
      "name": "transferOwnership",
      "outputs": [],
      "stateMutability": "nonpayable",
      "type": "function"
    },
    {
      "inputs": [],
      "name": "twitchVaultContract",
      "outputs": [
        {
          "internalType": "contract TwitchCardVault",
          "name": "",
          "type": "address"
        }
      ],
      "stateMutability": "view",
      "type": "function"
    },
    {
      "inputs": [],
      "name": "usdcToken",
      "outputs": [
        {
          "internalType": "contract IERC20",
          "name": "",
          "type": "address"
        }
      ],
      "stateMutability": "view",
      "type": "function"
    },
    {
      "inputs": [],
      "name": "vaultContract",
      "outputs": [
        {
          "internalType": "contract TwitterCardVault",
          "name": "",
          "type": "address"
        }
      ],
      "stateMutability": "view",
      "type": "function"
    }
  ],
  "bytecode": "0x60806040523480156200001157600080fd5b5060405162002c1338038062002c1383398101604081905262000034916200020f565b336040518060400160405280601081526020016f14d95b991b1e4811da599d0810d85c9960821b8152506040518060400160405280600381526020016253474360e81b81525081600090816200008b9190620002ec565b5060016200009a8282620002ec565b5050506001600160a01b038116620000cd57604051631e4fbdf760e01b8152600060048201526024015b60405180910390fd5b620000d881620001a0565b506001600160a01b038216620001215760405162461bcd60e51b815260206004820152600d60248201526c1554d110c81c995c5d5a5c9959609a1b6044820152606401620000c4565b6001600160a01b038116620001695760405162461bcd60e51b815260206004820152600d60248201526c11555490c81c995c5d5a5c9959609a1b6044820152606401620000c4565b600b80546001600160a01b039384166001600160a01b031991821617909155600c80549290931691161790556001600d55620003b8565b600a80546001600160a01b038381166001600160a01b0319831681179093556040519116919082907f8be0079c531659141344cd1fd0a4f28419497f9722a3daafe3b4186f6b6457e090600090a35050565b80516001600160a01b03811681146200020a57600080fd5b919050565b600080604083850312156200022357600080fd5b6200022e83620001f2565b91506200023e60208401620001f2565b90509250929050565b634e487b7160e01b600052604160045260246000fd5b600181811c908216806200027257607f821691505b6020821081036200029357634e487b7160e01b600052602260045260246000fd5b50919050565b601f821115620002e757600081815260208120601f850160051c81016020861015620002c25750805b601f850160051c820191505b81811015620002e357828155600101620002ce565b5050505b505050565b81516001600160401b0381111562000308576200030862000247565b62000320816200031984546200025d565b8462000299565b602080601f8311600181146200035857600084156200033f5750858301515b600019600386901b1c1916600185901b178555620002e3565b600085815260208120601f198616915b82811015620003895788860151825594840194600190910190840162000368565b5085821015620003a85787850151600019600388901b60f8161c191681555b5050505050600190811b01905550565b61284b80620003c86000396000f3fe608060405234801561001057600080fd5b50600436106101e55760003560e01c806370a082311161010f578063b88d4fde116100a2578063e00d8fa211610071578063e00d8fa214610424578063e985e9c514610437578063f2fde38b1461044a578063f3b0f3b91461045d57600080fd5b8063b88d4fde146103cb578063bf05ed46146103de578063c87b56dd146103f1578063cf1e0ed01461040457600080fd5b806395d89b41116100de57806395d89b411461037a57806396f4ada6146103825780639898135f14610395578063a22cb465146103b857600080fd5b806370a082311461033b578063715018a61461034e5780637400cba2146103565780638da5cb5b1461036957600080fd5b80632274346b116101875780634f6ccce7116101565780634f6ccce7146102ef57806352bc0d2f146103025780636352211e14610315578063709511451461032857600080fd5b80632274346b146102a357806323b872dd146102b65780632f745c59146102c957806342842e0e146102dc57600080fd5b8063095ea7b3116101c3578063095ea7b3146102525780630d15079c1461026757806311eac8551461028857806318160ddd1461029b57600080fd5b806301ffc9a7146101ea57806306fdde0314610212578063081812fc14610227575b600080fd5b6101fd6101f836600461200a565b610470565b60405190151581526020015b60405180910390f35b61021a61049b565b6040516102099190612077565b61023a61023536600461208a565b61052d565b6040516001600160a01b039091168152602001610209565b6102656102603660046120bf565b610556565b005b61027a610275366004612195565b610565565b604051908152602001610209565b600b5461023a906001600160a01b031681565b60085461027a565b600f5461023a906001600160a01b031681565b6102656102c4366004612238565b6108a6565b61027a6102d73660046120bf565b610931565b6102656102ea366004612238565b610996565b61027a6102fd36600461208a565b6109b6565b61027a610310366004612195565b610a0f565b61023a61032336600461208a565b610d32565b610265610336366004612274565b610d3d565b61027a610349366004612274565b610dbd565b610265610e05565b61026561036436600461208a565b610e19565b600a546001600160a01b031661023a565b61021a61102c565b610265610390366004612274565b61103b565b6103a86103a336600461208a565b6110b4565b604051610209949392919061228f565b6102656103c63660046122d9565b611177565b6102656103d9366004612310565b611182565b60105461023a906001600160a01b031681565b61021a6103ff36600461208a565b611199565b61041761041236600461208a565b61120e565b604051610209919061238c565b61027a6104323660046123cf565b611365565b6101fd610445366004612422565b61157f565b610265610458366004612274565b6115ad565b600c5461023a906001600160a01b031681565b60006001600160e01b0319821663780e9d6360e01b14806104955750610495826115eb565b92915050565b6060600080546104aa90612455565b80601f01602080910402602001604051908101604052809291908181526020018280546104d690612455565b80156105235780601f106104f857610100808354040283529160200191610523565b820191906000526020600020905b81548152906001019060200180831161050657829003601f168201915b5050505050905090565b60006105388261163b565b506000828152600460205260409020546001600160a01b0316610495565b610561828233611674565b5050565b6010546000906001600160a01b03166105bc5760405162461bcd60e51b8152602060048201526014602482015273151dda5d18da0815985d5b1d081b9bdd081cd95d60621b60448201526064015b60405180910390fd5b60008651116106015760405162461bcd60e51b8152602060048201526011602482015270155cd95c9b985b59481c995c5d5a5c9959607a1b60448201526064016105b3565b600b546001600160a01b038581169116148061062a5750600c546001600160a01b038581169116145b6106465760405162461bcd60e51b81526004016105b39061248f565b600085116106665760405162461bcd60e51b81526004016105b3906124ba565b6040516323b872dd60e01b8152336004820152306024820152604481018690526001600160a01b038516906323b872dd906064016020604051808303816000875af11580156106b9573d6000803e3d6000fd5b505050506040513d601f19601f820116820180604052508101906106dd91906124dc565b6106f95760405162461bcd60e51b81526004016105b3906124f9565b600d80546000918261070a8361253c565b90915550601054909150610727906001600160a01b031682611681565b604080516080810182528781526001600160a01b0380881660208084019182526000848601818152606086018a8152888352600e90935295902084518155915160018301805496511515600160a01b026001600160a81b0319909716919094161794909417909155915190919060028201906107a390826125a3565b50506010546040516316e1ed5f60e11b81526001600160a01b039091169150632dc3dabe906107da9084908b903390600401612663565b600060405180830381600087803b1580156107f457600080fd5b505af1158015610808573d6000803e3d6000fd5b50506010546040517f8466811513dca4974ffb2f8609c3586e023982ee83ba4b98c5f6b8d10c8da08e9350610851925084916001600160a01b0316908a908a908a908a90612694565b60405180910390a17f61975798f2480aa9431ee7ff771c06d11c1f29fa8206054bc636fc498e9b36fd8188338989898960405161089497969594939291906126ec565b60405180910390a19695505050505050565b6001600160a01b0382166108d057604051633250574960e11b8152600060048201526024016105b3565b60006108dd83833361169b565b9050836001600160a01b0316816001600160a01b03161461092b576040516364283d7b60e01b81526001600160a01b03808616600483015260248201849052821660448201526064016105b3565b50505050565b600061093c83610dbd565b821061096d5760405163295f44f760e21b81526001600160a01b0384166004820152602481018390526044016105b3565b506001600160a01b03919091166000908152600660209081526040808320938352929052205490565b6109b183838360405180602001604052806000815250611182565b505050565b60006109c160085490565b82106109ea5760405163295f44f760e21b815260006004820152602481018390526044016105b3565b600882815481106109fd576109fd612757565b90600052602060002001549050919050565b600f546000906001600160a01b0316610a5a5760405162461bcd60e51b815260206004820152600d60248201526c15985d5b1d081b9bdd081cd95d609a1b60448201526064016105b3565b6000865111610a9f5760405162461bcd60e51b8152602060048201526011602482015270155cd95c9b985b59481c995c5d5a5c9959607a1b60448201526064016105b3565b600b546001600160a01b0385811691161480610ac85750600c546001600160a01b038581169116145b610ae45760405162461bcd60e51b81526004016105b39061248f565b60008511610b045760405162461bcd60e51b81526004016105b3906124ba565b6040516323b872dd60e01b8152336004820152306024820152604481018690526001600160a01b038516906323b872dd906064016020604051808303816000875af1158015610b57573d6000803e3d6000fd5b505050506040513d601f19601f82011682018060405250810190610b7b91906124dc565b610b975760405162461bcd60e51b81526004016105b3906124f9565b600d805460009182610ba88361253c565b90915550600f54909150610bc5906001600160a01b031682611681565b604080516080810182528781526001600160a01b0380881660208084019182526000848601818152606086018a8152888352600e90935295902084518155915160018301805496511515600160a01b026001600160a81b031990971691909416179490941790915591519091906002820190610c4190826125a3565b5050600f546040516316e1ed5f60e11b81526001600160a01b039091169150632dc3dabe90610c789084908b903390600401612663565b600060405180830381600087803b158015610c9257600080fd5b505af1158015610ca6573d6000803e3d6000fd5b5050600f546040517f8466811513dca4974ffb2f8609c3586e023982ee83ba4b98c5f6b8d10c8da08e9350610cef925084916001600160a01b0316908a908a908a908a90612694565b60405180910390a17f9b5c816605f86b4160f6d48308e768208517fb96124a3b2123536135da4d0f608188338989898960405161089497969594939291906126ec565b60006104958261163b565b610d45611770565b6001600160a01b038116610d9b5760405162461bcd60e51b815260206004820152601d60248201527f547769746368205661756c74206164647265737320726571756972656400000060448201526064016105b3565b601080546001600160a01b0319166001600160a01b0392909216919091179055565b60006001600160a01b038216610de9576040516322718ad960e21b8152600060048201526024016105b3565b506001600160a01b031660009081526003602052604090205490565b610e0d611770565b610e17600061179d565b565b6000818152600260205260409020546001600160a01b0316610e675760405162461bcd60e51b81526020600482015260076024820152661b9bc818d85c9960ca1b60448201526064016105b3565b6000818152600e602052604090206001810154600160a01b900460ff1615610ebc5760405162461bcd60e51b81526020600482015260086024820152671c995919595b595960c21b60448201526064016105b3565b33610ec683610d32565b6001600160a01b031614610f085760405162461bcd60e51b81526020600482015260096024820152683737ba1037bbb732b960b91b60448201526064016105b3565b600181018054600160a01b60ff60a01b19821617909155815460405163a9059cbb60e01b815233600482015260248101919091526001600160a01b039091169063a9059cbb906044016020604051808303816000875af1158015610f70573d6000803e3d6000fd5b505050506040513d601f19601f82011682018060405250810190610f9491906124dc565b610fd25760405162461bcd60e51b815260206004820152600f60248201526e1d1c985b9cd9995c8819985a5b1959608a1b60448201526064016105b3565b8054600182015460408051858152336020820152908101929092526001600160a01b031660608201527fac810351e0a5276b563659d9fd53866ce57e5206390b028a4542437ed86c25349060800160405180910390a15050565b6060600180546104aa90612455565b611043611770565b6001600160a01b0381166110925760405162461bcd60e51b815260206004820152601660248201527515985d5b1d081859191c995cdcc81c995c5d5a5c995960521b60448201526064016105b3565b600f80546001600160a01b0319166001600160a01b0392909216919091179055565b600e6020526000908152604090208054600182015460028301805492936001600160a01b03831693600160a01b90930460ff16929091906110f490612455565b80601f016020809104026020016040519081016040528092919081815260200182805461112090612455565b801561116d5780601f106111425761010080835404028352916020019161116d565b820191906000526020600020905b81548152906001019060200180831161115057829003601f168201915b5050505050905084565b6105613383836117ef565b61118d8484846108a6565b61092b8484848461188e565b60606111a48261163b565b5060006111bc60408051602081019091526000815290565b905060008151116111dc5760405180602001604052806000815250611207565b806111e6846119b7565b6040516020016111f792919061276d565b6040516020818303038152906040525b9392505050565b60408051608081018252600080825260208083018290528284018290526060808401528482526002905291909120546001600160a01b031661127c5760405162461bcd60e51b81526020600482015260076024820152661b9bc818d85c9960ca1b60448201526064016105b3565b6000828152600e602090815260409182902082516080810184528154815260018201546001600160a01b03811693820193909352600160a01b90920460ff161515928201929092526002820180549192916060840191906112dc90612455565b80601f016020809104026020016040519081016040528092919081815260200182805461130890612455565b80156113555780601f1061132a57610100808354040283529160200191611355565b820191906000526020600020905b81548152906001019060200180831161133857829003601f168201915b5050505050815250509050919050565b60006001600160a01b0386166113ad5760405162461bcd60e51b815260206004820152600d60248201526c189859081c9958da5c1a595b9d609a1b60448201526064016105b3565b600b546001600160a01b03858116911614806113d65750600c546001600160a01b038581169116145b6113f25760405162461bcd60e51b81526004016105b39061248f565b600085116114125760405162461bcd60e51b81526004016105b3906124ba565b6040516323b872dd60e01b8152336004820152306024820152604481018690526001600160a01b038516906323b872dd906064016020604051808303816000875af1158015611465573d6000803e3d6000fd5b505050506040513d601f19601f8201168201806040525081019061148991906124dc565b6114a55760405162461bcd60e51b81526004016105b3906124f9565b600d8054600091826114b68361253c565b9190505590506114c68782611681565b604080516080810182528781526001600160a01b0380881660208084019182526000848601818152606086018a8152888352600e90935295902084518155915160018301805496511515600160a01b026001600160a81b03199097169190941617949094179091559151909190600282019061154290826125a3565b509050507f8466811513dca4974ffb2f8609c3586e023982ee83ba4b98c5f6b8d10c8da08e81888888888860405161089496959493929190612694565b6001600160a01b03918216600090815260056020908152604080832093909416825291909152205460ff1690565b6115b5611770565b6001600160a01b0381166115df57604051631e4fbdf760e01b8152600060048201526024016105b3565b6115e88161179d565b50565b60006001600160e01b031982166380ac58cd60e01b148061161c57506001600160e01b03198216635b5e139f60e01b145b8061049557506301ffc9a760e01b6001600160e01b0319831614610495565b6000818152600260205260408120546001600160a01b03168061049557604051637e27328960e01b8152600481018490526024016105b3565b6109b18383836001611a4a565b610561828260405180602001604052806000815250611b50565b6000806116a9858585611b67565b90506001600160a01b0381166117065761170184600880546000838152600960205260408120829055600182018355919091527ff3f7a9fe364faab93b216da50a3214154f22a0a2b415b23a84c8169e8b636ee30155565b611729565b846001600160a01b0316816001600160a01b031614611729576117298185611c60565b6001600160a01b0385166117455761174084611cf1565b611768565b846001600160a01b0316816001600160a01b031614611768576117688585611da0565b949350505050565b600a546001600160a01b03163314610e175760405163118cdaa760e01b81523360048201526024016105b3565b600a80546001600160a01b038381166001600160a01b0319831681179093556040519116919082907f8be0079c531659141344cd1fd0a4f28419497f9722a3daafe3b4186f6b6457e090600090a35050565b6001600160a01b03821661182157604051630b61174360e31b81526001600160a01b03831660048201526024016105b3565b6001600160a01b03838116600081815260056020908152604080832094871680845294825291829020805460ff191686151590811790915591519182527f17307eab39ab6107e8899845ad3d59bd9653f200f220920489ca2b5937696c31910160405180910390a3505050565b6001600160a01b0383163b1561092b57604051630a85bd0160e11b81526001600160a01b0384169063150b7a02906118d090339088908790879060040161279c565b6020604051808303816000875af192505050801561190b575060408051601f3d908101601f19168201909252611908918101906127cf565b60015b611974573d808015611939576040519150601f19603f3d011682016040523d82523d6000602084013e61193e565b606091505b50805160000361196c57604051633250574960e11b81526001600160a01b03851660048201526024016105b3565b805181602001fd5b6001600160e01b03198116630a85bd0160e11b146119b057604051633250574960e11b81526001600160a01b03851660048201526024016105b3565b5050505050565b606060006119c483611df0565b600101905060008167ffffffffffffffff8111156119e4576119e46120e9565b6040519080825280601f01601f191660200182016040528015611a0e576020820181803683370190505b5090508181016020015b600019016f181899199a1a9b1b9c1cb0b131b232b360811b600a86061a8153600a8504945084611a1857509392505050565b8080611a5e57506001600160a01b03821615155b15611b20576000611a6e8461163b565b90506001600160a01b03831615801590611a9a5750826001600160a01b0316816001600160a01b031614155b8015611aad5750611aab818461157f565b155b15611ad65760405163a9fbf51f60e01b81526001600160a01b03841660048201526024016105b3565b8115611b1e5783856001600160a01b0316826001600160a01b03167f8c5be1e5ebec7d5bd14f71427d1e84f3dd0314c0f7b2291e5b200ac8c7c3b92560405160405180910390a45b505b5050600090815260046020526040902080546001600160a01b0319166001600160a01b0392909216919091179055565b611b5a8383611ec8565b6109b1600084848461188e565b6000828152600260205260408120546001600160a01b0390811690831615611b9457611b94818486611f2d565b6001600160a01b03811615611bd257611bb1600085600080611a4a565b6001600160a01b038116600090815260036020526040902080546000190190555b6001600160a01b03851615611c01576001600160a01b0385166000908152600360205260409020805460010190555b60008481526002602052604080822080546001600160a01b0319166001600160a01b0389811691821790925591518793918516917fddf252ad1be2c89b69c2b068fc378daa952ba7f163c4a11628f55a4df523b3ef91a4949350505050565b6000611c6b83610dbd565b600083815260076020526040902054909150808214611cbe576001600160a01b03841660009081526006602090815260408083208584528252808320548484528184208190558352600790915290208190555b5060009182526007602090815260408084208490556001600160a01b039094168352600681528383209183525290812055565b600854600090611d03906001906127ec565b60008381526009602052604081205460088054939450909284908110611d2b57611d2b612757565b906000526020600020015490508060088381548110611d4c57611d4c612757565b6000918252602080832090910192909255828152600990915260408082208490558582528120556008805480611d8457611d846127ff565b6001900381819060005260206000200160009055905550505050565b60006001611dad84610dbd565b611db791906127ec565b6001600160a01b039093166000908152600660209081526040808320868452825280832085905593825260079052919091209190915550565b60008072184f03e93ff9f4daa797ed6e38ed64bf6a1f0160401b8310611e2f5772184f03e93ff9f4daa797ed6e38ed64bf6a1f0160401b830492506040015b6d04ee2d6d415b85acef81000000008310611e5b576d04ee2d6d415b85acef8100000000830492506020015b662386f26fc100008310611e7957662386f26fc10000830492506010015b6305f5e1008310611e91576305f5e100830492506008015b6127108310611ea557612710830492506004015b60648310611eb7576064830492506002015b600a83106104955760010192915050565b6001600160a01b038216611ef257604051633250574960e11b8152600060048201526024016105b3565b6000611f008383600061169b565b90506001600160a01b038116156109b1576040516339e3563760e11b8152600060048201526024016105b3565b611f38838383611f91565b6109b1576001600160a01b038316611f6657604051637e27328960e01b8152600481018290526024016105b3565b60405163177e802f60e01b81526001600160a01b0383166004820152602481018290526044016105b3565b60006001600160a01b038316158015906117685750826001600160a01b0316846001600160a01b03161480611fcb5750611fcb848461157f565b806117685750506000908152600460205260409020546001600160a01b03908116911614919050565b6001600160e01b0319811681146115e857600080fd5b60006020828403121561201c57600080fd5b813561120781611ff4565b60005b8381101561204257818101518382015260200161202a565b50506000910152565b60008151808452612063816020860160208601612027565b601f01601f19169290920160200192915050565b602081526000611207602083018461204b565b60006020828403121561209c57600080fd5b5035919050565b80356001600160a01b03811681146120ba57600080fd5b919050565b600080604083850312156120d257600080fd5b6120db836120a3565b946020939093013593505050565b634e487b7160e01b600052604160045260246000fd5b600067ffffffffffffffff8084111561211a5761211a6120e9565b604051601f8501601f19908116603f01168101908282118183101715612142576121426120e9565b8160405280935085815286868601111561215b57600080fd5b858560208301376000602087830101525050509392505050565b600082601f83011261218657600080fd5b611207838335602085016120ff565b600080600080600060a086880312156121ad57600080fd5b853567ffffffffffffffff808211156121c557600080fd5b6121d189838a01612175565b9650602088013595506121e6604089016120a3565b945060608801359150808211156121fc57600080fd5b61220889838a01612175565b9350608088013591508082111561221e57600080fd5b5061222b88828901612175565b9150509295509295909350565b60008060006060848603121561224d57600080fd5b612256846120a3565b9250612264602085016120a3565b9150604084013590509250925092565b60006020828403121561228657600080fd5b611207826120a3565b8481526001600160a01b038416602082015282151560408201526080606082018190526000906122c19083018461204b565b9695505050505050565b80151581146115e857600080fd5b600080604083850312156122ec57600080fd5b6122f5836120a3565b91506020830135612305816122cb565b809150509250929050565b6000806000806080858703121561232657600080fd5b61232f856120a3565b935061233d602086016120a3565b925060408501359150606085013567ffffffffffffffff81111561236057600080fd5b8501601f8101871361237157600080fd5b612380878235602084016120ff565b91505092959194509250565b602081528151602082015260018060a01b0360208301511660408201526040820151151560608201526000606083015160808084015261176860a084018261204b565b600080600080600060a086880312156123e757600080fd5b6123f0866120a3565b945060208601359350612405604087016120a3565b9250606086013567ffffffffffffffff808211156121fc57600080fd5b6000806040838503121561243557600080fd5b61243e836120a3565b915061244c602084016120a3565b90509250929050565b600181811c9082168061246957607f821691505b60208210810361248957634e487b7160e01b600052602260045260246000fd5b50919050565b6020808252601190820152703ab739bab83837b93a32b2103a37b5b2b760791b604082015260600190565b6020808252600890820152670616d6f756e743d360c41b604082015260600190565b6000602082840312156124ee57600080fd5b8151611207816122cb565b6020808252601390820152721d1c985b9cd9995c919c9bdb4819985a5b1959606a1b604082015260600190565b634e487b7160e01b600052601160045260246000fd5b60006001820161254e5761254e612526565b5060010190565b601f8211156109b157600081815260208120601f850160051c8101602086101561257c5750805b601f850160051c820191505b8181101561259b57828155600101612588565b505050505050565b815167ffffffffffffffff8111156125bd576125bd6120e9565b6125d1816125cb8454612455565b84612555565b602080601f83116001811461260657600084156125ee5750858301515b600019600386901b1c1916600185901b17855561259b565b600085815260208120601f198616915b8281101561263557888601518255948401946001909101908401612616565b50858210156126535787850151600019600388901b60f8161c191681555b5050505050600190811b01905550565b83815260606020820152600061267c606083018561204b565b905060018060a01b0383166040830152949350505050565b8681526001600160a01b038681166020830152604082018690528416606082015260c0608082018190526000906126cd9083018561204b565b82810360a08401526126df818561204b565b9998505050505050505050565b87815260e06020820152600061270560e083018961204b565b6001600160a01b038881166040850152606084018890528616608084015282810360a0840152612735818661204b565b905082810360c0840152612749818561204b565b9a9950505050505050505050565b634e487b7160e01b600052603260045260246000fd5b6000835161277f818460208801612027565b835190830190612793818360208801612027565b01949350505050565b6001600160a01b03858116825284166020820152604081018390526080606082018190526000906122c19083018461204b565b6000602082840312156127e157600080fd5b815161120781611ff4565b8181038181111561049557610495612526565b634e487b7160e01b600052603160045260246000fdfea2646970667358221220e76bf51ba32c8febae4f829a650ad1e7edb453821616472210664e22e0d2a1db64736f6c63430008140033",
  "linkReferences": {},
  "deployedLinkReferences": {}
}