{
  "_format": "hh-sol-artifact-1",
  "contractName": "TwitchCardVault",
  "sourceName": "contracts_tempo/TwitchCardVault.sol",
  "abi": [
    {
      "inputs": [
        {
          "internalType": "address",
          "name": "_giftCardAddress",
          "type": "address"
        }
      ],
      "stateMutability": "nonpayable",
      "type": "constructor"
    },
    {
      "inputs": [
        {
          "internalType": "address",
          "name": "owner",
          "type": "address"
        }
      ],
      "name": "OwnableInvalidOwner",
      "type": "error"
    },
    {
      "inputs": [
        {
          "internalType": "address",
          "name": "account",
          "type": "address"
        }
      ],
      "name": "OwnableUnauthorizedAccount",
      "type": "error"
    },
    {
      "anonymous": false,
      "inputs": [
        {
          "indexed": true,
          "internalType": "uint256",
          "name": "tokenId",
          "type": "uint256"
        },
        {
          "indexed": true,
          "internalType": "address",
          "name": "claimer",
          "type": "address"
        },
        {
          "indexed": true,
          "internalType": "string",
          "name": "username",
          "type": "string"
        }
      ],
      "name": "CardClaimed",
      "type": "event"
    },
    {
      "anonymous": false,
      "inputs": [
        {
          "indexed": true,
          "internalType": "uint256",
          "name": "tokenId",
          "type": "uint256"
        },
        {
          "indexed": true,
          "internalType": "string",
          "name": "username",
          "type": "string"
        },
        {
          "indexed": false,
          "internalType": "address",
          "name": "sender",
          "type": "address"
        }
      ],
      "name": "CardDeposited",
      "type": "event"
    },
    {
      "anonymous": false,
      "inputs": [
        {
          "indexed": true,
          "internalType": "address",
          "name": "previousOwner",
          "type": "address"
        },
        {
          "indexed": true,
          "internalType": "address",
          "name": "newOwner",
          "type": "address"
        }
      ],
      "name": "OwnershipTransferred",
      "type": "event"
    },
    {
      "inputs": [
        {
          "internalType": "uint256",
          "name": "tokenId",
          "type": "uint256"
        },
        {
          "internalType": "string",
          "name": "username",
          "type": "string"
        },
        {
          "internalType": "address",
          "name": "claimer",
          "type": "address"
        }
      ],
      "name": "claimCard",
      "outputs": [],
      "stateMutability": "nonpayable",
      "type": "function"
    },
    {
      "inputs": [
        {
          "internalType": "uint256",
          "name": "",
          "type": "uint256"
        }
      ],
      "name": "claimedTokens",
      "outputs": [
        {
          "internalType": "bool",
          "name": "",
          "type": "bool"
        }
      ],
      "stateMutability": "view",
      "type": "function"
    },
    {
      "inputs": [
        {
          "internalType": "uint256",
          "name": "tokenId",
          "type": "uint256"
        },
        {
          "internalType": "string",
          "name": "username",
          "type": "string"
        },
        {
          "internalType": "address",
          "name": "sender",
          "type": "address"
        }
      ],
      "name": "depositCardForUsername",
      "outputs": [],
      "stateMutability": "nonpayable",
      "type": "function"
    },
    {
      "inputs": [
        {
          "internalType": "uint256",
          "name": "tokenId",
          "type": "uint256"
        },
        {
          "internalType": "address",
          "name": "to",
          "type": "address"
        }
      ],
      "name": "emergencyRecover",
      "outputs": [],
      "stateMutability": "nonpayable",
      "type": "function"
    },
    {
      "inputs": [
        {
          "internalType": "string",
          "name": "username",
          "type": "string"
        }
      ],
      "name": "getPendingCardsForUsername",
      "outputs": [
        {
          "internalType": "uint256[]",
          "name": "",
          "type": "uint256[]"
        }
      ],
      "stateMutability": "view",
      "type": "function"
    },
    {
      "inputs": [
        {
          "internalType": "uint256",
          "name": "tokenId",
          "type": "uint256"
        }
      ],
      "name": "getUsernameForToken",
      "outputs": [
        {
          "internalType": "string",
          "name": "",
          "type": "string"
        }
      ],
      "stateMutability": "view",
      "type": "function"
    },
    {
      "inputs": [],
      "name": "giftCardContract",
      "outputs": [
        {
          "internalType": "contract GiftCard",
          "name": "",
          "type": "address"
        }
      ],
      "stateMutability": "view",
      "type": "function"
    },
    {
      "inputs": [
        {
          "internalType": "uint256",
          "name": "tokenId",
          "type": "uint256"
        }
      ],
      "name": "isCardClaimed",
      "outputs": [
        {
          "internalType": "bool",
          "name": "",
          "type": "bool"
        }
      ],
      "stateMutability": "view",
      "type": "function"
    },
    {
      "inputs": [
        {
          "internalType": "address",
          "name": "operator",
          "type": "address"
        },
        {
          "internalType": "address",
          "name": "from",
          "type": "address"
        },
        {
          "internalType": "uint256",
          "name": "tokenId",
          "type": "uint256"
        },
        {
          "internalType": "bytes",
          "name": "data",
          "type": "bytes"
        }
      ],
      "name": "onERC721Received",
      "outputs": [
        {
          "internalType": "bytes4",
          "name": "",
          "type": "bytes4"
        }
      ],
      "stateMutability": "pure",
      "type": "function"
    },
    {
      "inputs": [],
      "name": "owner",
      "outputs": [
        {
          "internalType": "address",
          "name": "",
          "type": "address"
        }
      ],
      "stateMutability": "view",
      "type": "function"
    },
    {
      "inputs": [],
      "name": "renounceOwnership",
      "outputs": [],
      "stateMutability": "nonpayable",
      "type": "function"
    },
    {
      "inputs": [
        {
          "internalType": "address",
          "name": "_giftCardAddress",
          "type": "address"
        }
      ],
      "name": "setGiftCardContract",
      "outputs": [],
      "stateMutability": "nonpayable",
      "type": "function"
    },
    {
      "inputs": [
        {
          "internalType": "uint256",
          "name": "",
          "type": "uint256"
        }
      ],
      "name": "tokenToUsername",
      "outputs": [
        {
          "internalType": "string",
          "name": "",
          "type": "string"
        }
      ],
      "stateMutability": "view",
      "type": "function"
    },
    {
      "inputs": [
        {
          "internalType": "address",
          "name": "newOwner",
          "type": "address"
        }
      ],
      "name": "transferOwnership",
      "outputs": [],
      "stateMutability": "nonpayable",
      "type": "function"
    },
    {
      "inputs": [
        {
          "internalType": "string",
          "name": "",
          "type": "string"
        },
        {
          "internalType": "uint256",
          "name": "",
          "type": "uint256"
        }
      ],
      "name": "usernameToTokens",
      "outputs": [
        {
          "internalType": "uint256",
          "name": "",
          "type": "uint256"
        }
      ],
      "stateMutability": "view",
      "type": "function"
    }
  ],
  "bytecode": "0x60803461011257601f610fd538819003918201601f19168301916001600160401b038311848410176101175780849260209460405283398101031261011257516001600160a01b03808216918290036101125733156100f9576000549060018060a01b0319913383821617600055604051913391167f8be0079c531659141344cd1fd0a4f28419497f9722a3daafe3b4186f6b6457e0600080a382156100b757506001541617600155604051610ea7908161012e8239f35b62461bcd60e51b815260206004820152601960248201527f47696674436172642061646472657373207265717569726564000000000000006044820152606490fd5b604051631e4fbdf760e01b815260006004820152602490fd5b600080fd5b634e487b7160e01b600052604160045260246000fdfe6040608081526004908136101561001557600080fd5b600091823560e01c806307cc0e3d1461059a57806308ac209b14610a6e578063150b7a0214610a085780632dc3dabe146106f55780635d1fe172146106cc578063715018a6146106845780638da5cb5b1461065c57806398a8faca146105d2578063a1daf3b11461059a578063ba5b415a1461013f578063be1dca5f14610521578063c07c0f8b14610241578063c6cbbe241461016a578063e5a342a31461013f5763f2fde38b146100c657600080fd5b3461013b57602036600319011261013b576100df610cd5565b906100e8610dc3565b6001600160a01b039182169283156101255750506000548260018060a01b031982161760005516600080516020610e32833981519152600080a380f35b51631e4fbdf760e01b8152908101849052602490fd5b8280fd5b503461013b57602036600319011261013b57816020938260ff93358252855220541690519015158152f35b50823461023e576020918260031936011261023a5780356001600160401b03811161013b57926101a26101b492829695369101610d31565b81855193828580945193849201610c6b565b81016002815203019020908251808584549182815201908194845286842090845b81811061022657505050816101eb910382610ba2565b83519485948186019282875251809352850193925b82811061020f57505050500390f35b835185528695509381019392810192600101610200565b8254845292880192600192830192016101d5565b5080fd5b80fd5b5082903461023a5761025236610d4f565b919283855260209581875260ff81872054166104e8576001600160a01b03848116949085156104ab5786885260039889815261028f848a20610bc5565b8181519101209986519a8288019b8c200361047457906102d090898b52868152858b209b60019c8d60ff198254161790558651809381928b51928391610c6b565b81016002815203019020908a8a905b610386575b50505087989794959697541692833b156103825761031d938592838a938651978895869485936323b872dd60e01b855230908501610e0f565b03925af19081156103795750610361575b505061033990610def565b917fdb3e8f1b679316330981f622bbcea0baa4068b63de4ed4e5acc3ffdec9398db98480a480f35b61036a90610b79565b61037557838561032e565b8380fd5b513d84823e3d90fd5b8480fd5b82548082101561046e578a61039b8386610d95565b905490851b1c146103cb575060001981146103b8578b018b6102df565b634e487b7160e01b8b526011875260248bfd5b6000199c9391908d810190811161045b57906103fa6103ed6104139385610d95565b905490861b1c9184610d95565b90919082549060031b91821b91600019901b1916179055565b80549b8c1561044857808c9d9c999a9b9c01926104308484610d95565b81939154921b1b191690555598979695948a806102e4565b634e487b7160e01b8c526031885260248cfd5b634e487b7160e01b8d526011895260248dfd5b506102e4565b845162461bcd60e51b815280870183905260116024820152700aae6cae4dcc2daca40dad2e6dac2e8c6d607b1b6044820152606490fd5b825162461bcd60e51b81528085018a90526017602482015276496e76616c696420636c61696d6572206164647265737360481b6044820152606490fd5b5162461bcd60e51b8152908101869052601460248201527310d85c9908185b1c9958591e4818db185a5b595960621b6044820152606490fd5b503461013b578160031936011261013b578035906001600160401b0382116103755761054f91369101610d31565b9161056b60206024359481855193828580945193849201610c6b565b8101600281520301902090815484101561023e575060209261058c91610d95565b91905490519160031b1c8152f35b503461013b57602036600319011261013b57816105ce936105c392358152600360205220610bc5565b905191829182610c8e565b0390f35b503461013b57602036600319011261013b576105ec610cd5565b6105f4610dc3565b6001600160a01b031691821561061d575050600180546001600160a01b03191691909117905580f35b906020606492519162461bcd60e51b8352820152601960248201527811da599d10d85c99081859191c995cdcc81c995c5d5a5c9959603a1b6044820152fd5b50503461023a578160031936011261023a57905490516001600160a01b039091168152602090f35b833461023e578060031936011261023e5761069d610dc3565b600080546001600160a01b0319811682556001600160a01b0316600080516020610e328339815191528280a380f35b50503461023a578160031936011261023a5760015490516001600160a01b039091168152602090f35b503461013b5761070436610d4f565b6001805493946001600160a01b0394851694929391338690036109c95782511561098b57875180966331a9108f60e11b825288848301528160246020998a935afa908115610981578a91610947575b50843091160361090a578751868185516107708183858a01610c6b565b81016002815203019020805490600160401b8210156108f7576103fa828a928561079c95018155610d95565b86895260038652878920835190916001600160401b0382116108f7576107c28354610b3f565b601f81116108b0575b50878b601f8411600114610838579280600080516020610e528339815191529a9998979593819361082398969361082d575b501b916000199060031b1c19161790555b878a528552878920805460ff19169055610def565b955191168152a380f35b8701519250386107fd565b50838c52888c2091929190601f1983168d5b81811061089b5750918391600080516020610e528339815191529b9a9998969461082398969410610882575b5050811b01905561080e565b86015160001960f88460031b161c191690553880610876565b88830151845592850192918b01918b0161084a565b838c52888c20601f840160051c8101918a85106108ed575b601f0160051c019082905b8281106108e15750506107cb565b600081550182906108d3565b90915081906108c8565b634e487b7160e01b8b526041845260248bfd5b875162461bcd60e51b8152808301879052601760248201527615985d5b1d081b5d5cdd081bdddb881d1a194818d85c99604a1b6044820152606490fd5b90508681813d831161097a575b61095e8183610ba2565b81010312610976575184811681036109765738610753565b8980fd5b503d610954565b89513d8c823e3d90fd5b875162461bcd60e51b81526020818401526018602482015277557365726e616d652063616e6e6f7420626520656d70747960401b6044820152606490fd5b875162461bcd60e51b8152602081840152601960248201527813db9b1e4811da599d10d85c990818d85b8819195c1bdcda5d603a1b6044820152606490fd5b50913461023e57608036600319011261023e57610a23610cd5565b50610a2c610cba565b50606435906001600160401b03821161023e573660238301121561023e5750602092816024610a6093369301359101610ceb565b5051630a85bd0160e11b8152f35b50903461013b578060031936011261013b578135610a8a610cba565b610a92610dc3565b8185528360205260ff8386205416610afe576001548592916001600160a01b0390911690813b156103755783610ade968651978895869485936323b872dd60e01b855230908501610e0f565b03925af19081156103795750610af2575080f35b610afb90610b79565b80f35b825162461bcd60e51b8152602081860152601b60248201527a10d85b9b9bdd081c9958dbdd995c8818db185a5b59590818d85c99602a1b6044820152606490fd5b90600182811c92168015610b6f575b6020831014610b5957565b634e487b7160e01b600052602260045260246000fd5b91607f1691610b4e565b6001600160401b038111610b8c57604052565b634e487b7160e01b600052604160045260246000fd5b601f909101601f19168101906001600160401b03821190821017610b8c57604052565b9060405191826000825492610bd984610b3f565b908184526001948581169081600014610c485750600114610c05575b5050610c0392500383610ba2565b565b9093915060005260209081600020936000915b818310610c30575050610c0393508201013880610bf5565b85548884018501529485019487945091830191610c18565b915050610c0394506020925060ff191682840152151560051b8201013880610bf5565b60005b838110610c7e5750506000910152565b8181015183820152602001610c6e565b60409160208252610cae8151809281602086015260208686019101610c6b565b601f01601f1916010190565b602435906001600160a01b0382168203610cd057565b600080fd5b600435906001600160a01b0382168203610cd057565b9192916001600160401b038211610b8c5760405191610d14601f8201601f191660200184610ba2565b829481845281830111610cd0578281602093846000960137010152565b9080601f83011215610cd057816020610d4c93359101610ceb565b90565b906060600319830112610cd05760043591602435906001600160401b038211610cd057610d7e91600401610d31565b906044356001600160a01b0381168103610cd05790565b8054821015610dad5760005260206000200190600090565b634e487b7160e01b600052603260045260246000fd5b6000546001600160a01b03163303610dd757565b60405163118cdaa760e01b8152336004820152602490fd5b610e0790602060405192828480945193849201610c6b565b810103902090565b6001600160a01b0391821681529116602082015260408101919091526060019056fe8be0079c531659141344cd1fd0a4f28419497f9722a3daafe3b4186f6b6457e0998a69985b48e618ab4500bb669b84da565fab8717a362f88d1137d0b6a651a2a2646970667358221220891fe76b829878d8d48af57a98fb0ff278d20bdf938a0af339ed0a9d0e8165f664736f6c63430008140033",
  "linkReferences": {},
  "deployedLinkReferences": {}
}