{
  "_format": "hh-sol-artifact-1",
  "contractName": "GiftCard",
  "sourceName": "contracts_tempo/GiftCard.sol",
  "abi": [
    {
      "inputs": [
        {
          "internalType": "address",
          "name": "_pathUSDAddress",
          "type": "address"
        },
        {
          "internalType": "address",
          "name": "_alphaUSDAddress",
          "type": "address"
        },
        {
          "internalType": "address",
          "name": "_betaUSDAddress",
          "type": "address"
        },
        {
          "internalType": "address",
          "name": "_thetaUSDAddress",
          "type": "address"
        }
      ],
      "stateMutability": "nonpayable",
      "type": "constructor"
    },
    {
      "inputs": [],
      "name": "ERC721EnumerableForbiddenBatchMint",
      "type": "error"
    },
    {
      "inputs": [
        {
          "internalType": "address",
          "name": "sender",
          "type": "address"
        },
        {
          "internalType": "uint256",
          "name": "tokenId",
          "type": "uint256"
        },
        {
          "internalType": "address",
          "name": "owner",
          "type": "address"
        }
      ],
      "name": "ERC721IncorrectOwner",
      "type": "error"
    },
    {
      "inputs": [
        {
          "internalType": "address",
          "name": "operator",
          "type": "address"
        },
        {
          "internalType": "uint256",
          "name": "tokenId",
          "type": "uint256"
        }
      ],
      "name": "ERC721InsufficientApproval",
      "type": "error"
    },
    {
      "inputs": [
        {
          "internalType": "address",
          "name": "approver",
          "type": "address"
        }
      ],
      "name": "ERC721InvalidApprover",
      "type": "error"
    },
    {
      "inputs": [
        {
          "internalType": "address",
          "name": "operator",
          "type": "address"
        }
      ],
      "name": "ERC721InvalidOperator",
      "type": "error"
    },
    {
      "inputs": [
        {
          "internalType": "address",
          "name": "owner",
          "type": "address"
        }
      ],
      "name": "ERC721InvalidOwner",
      "type": "error"
    },
    {
      "inputs": [
        {
          "internalType": "address",
          "name": "receiver",
          "type": "address"
        }
      ],
      "name": "ERC721InvalidReceiver",
      "type": "error"
    },
    {
      "inputs": [
        {
          "internalType": "address",
          "name": "sender",
          "type": "address"
        }
      ],
      "name": "ERC721InvalidSender",
      "type": "error"
    },
    {
      "inputs": [
        {
          "internalType": "uint256",
          "name": "tokenId",
          "type": "uint256"
        }
      ],
      "name": "ERC721NonexistentToken",
      "type": "error"
    },
    {
      "inputs": [
        {
          "internalType": "address",
          "name": "owner",
          "type": "address"
        },
        {
          "internalType": "uint256",
          "name": "index",
          "type": "uint256"
        }
      ],
      "name": "ERC721OutOfBoundsIndex",
      "type": "error"
    },
    {
      "inputs": [
        {
          "internalType": "address",
          "name": "owner",
          "type": "address"
        }
      ],
      "name": "OwnableInvalidOwner",
      "type": "error"
    },
    {
      "inputs": [
        {
          "internalType": "address",
          "name": "account",
          "type": "address"
        }
      ],
      "name": "OwnableUnauthorizedAccount",
      "type": "error"
    },
    {
      "inputs": [
        {
          "internalType": "address",
          "name": "token",
          "type": "address"
        }
      ],
      "name": "SafeERC20FailedOperation",
      "type": "error"
    },
    {
      "anonymous": false,
      "inputs": [
        {
          "indexed": true,
          "internalType": "address",
          "name": "owner",
          "type": "address"
        },
        {
          "indexed": true,
          "internalType": "address",
          "name": "approved",
          "type": "address"
        },
        {
          "indexed": true,
          "internalType": "uint256",
          "name": "tokenId",
          "type": "uint256"
        }
      ],
      "name": "Approval",
      "type": "event"
    },
    {
      "anonymous": false,
      "inputs": [
        {
          "indexed": true,
          "internalType": "address",
          "name": "owner",
          "type": "address"
        },
        {
          "indexed": true,
          "internalType": "address",
          "name": "operator",
          "type": "address"
        },
        {
          "indexed": false,
          "internalType": "bool",
          "name": "approved",
          "type": "bool"
        }
      ],
      "name": "ApprovalForAll",
      "type": "event"
    },
    {
      "anonymous": false,
      "inputs": [
        {
          "indexed": false,
          "internalType": "uint256",
          "name": "tokenId",
          "type": "uint256"
        },
        {
          "indexed": false,
          "internalType": "address",
          "name": "recipient",
          "type": "address"
        },
        {
          "indexed": false,
          "internalType": "address",
          "name": "sender",
          "type": "address"
        },
        {
          "indexed": false,
          "internalType": "uint256",
          "name": "amount",
          "type": "uint256"
        },
        {
          "indexed": false,
          "internalType": "address",
          "name": "token",
          "type": "address"
        },
        {
          "indexed": false,
          "internalType": "string",
          "name": "uri",
          "type": "string"
        },
        {
          "indexed": false,
          "internalType": "string",
          "name": "message",
          "type": "string"
        }
      ],
      "name": "GiftCardCreated",
      "type": "event"
    },
    {
      "anonymous": false,
      "inputs": [
        {
          "indexed": false,
          "internalType": "uint256",
          "name": "tokenId",
          "type": "uint256"
        },
        {
          "indexed": false,
          "internalType": "string",
          "name": "username",
          "type": "string"
        },
        {
          "indexed": false,
          "internalType": "address",
          "name": "sender",
          "type": "address"
        },
        {
          "indexed": false,
          "internalType": "uint256",
          "name": "amount",
          "type": "uint256"
        },
        {
          "indexed": false,
          "internalType": "address",
          "name": "token",
          "type": "address"
        },
        {
          "indexed": false,
          "internalType": "string",
          "name": "uri",
          "type": "string"
        },
        {
          "indexed": false,
          "internalType": "string",
          "name": "message",
          "type": "string"
        }
      ],
      "name": "GiftCardCreatedForInstagram",
      "type": "event"
    },
    {
      "anonymous": false,
      "inputs": [
        {
          "indexed": false,
          "internalType": "uint256",
          "name": "tokenId",
          "type": "uint256"
        },
        {
          "indexed": false,
          "internalType": "string",
          "name": "username",
          "type": "string"
        },
        {
          "indexed": false,
          "internalType": "address",
          "name": "sender",
          "type": "address"
        },
        {
          "indexed": false,
          "internalType": "uint256",
          "name": "amount",
          "type": "uint256"
        },
        {
          "indexed": false,
          "internalType": "address",
          "name": "token",
          "type": "address"
        },
        {
          "indexed": false,
          "internalType": "string",
          "name": "uri",
          "type": "string"
        },
        {
          "indexed": false,
          "internalType": "string",
          "name": "message",
          "type": "string"
        }
      ],
      "name": "GiftCardCreatedForTelegram",
      "type": "event"
    },
    {
      "anonymous": false,
      "inputs": [
        {
          "indexed": false,
          "internalType": "uint256",
          "name": "tokenId",
          "type": "uint256"
        },
        {
          "indexed": false,
          "internalType": "string",
          "name": "username",
          "type": "string"
        },
        {
          "indexed": false,
          "internalType": "address",
          "name": "sender",
          "type": "address"
        },
        {
          "indexed": false,
          "internalType": "uint256",
          "name": "amount",
          "type": "uint256"
        },
        {
          "indexed": false,
          "internalType": "address",
          "name": "token",
          "type": "address"
        },
        {
          "indexed": false,
          "internalType": "string",
          "name": "uri",
          "type": "string"
        },
        {
          "indexed": false,
          "internalType": "string",
          "name": "message",
          "type": "string"
        }
      ],
      "name": "GiftCardCreatedForTikTok",
      "type": "event"
    },
    {
      "anonymous": false,
      "inputs": [
        {
          "indexed": false,
          "internalType": "uint256",
          "name": "tokenId",
          "type": "uint256"
        },
        {
          "indexed": false,
          "internalType": "string",
          "name": "username",
          "type": "string"
        },
        {
          "indexed": false,
          "internalType": "address",
          "name": "sender",
          "type": "address"
        },
        {
          "indexed": false,
          "internalType": "uint256",
          "name": "amount",
          "type": "uint256"
        },
        {
          "indexed": false,
          "internalType": "address",
          "name": "token",
          "type": "address"
        },
        {
          "indexed": false,
          "internalType": "string",
          "name": "uri",
          "type": "string"
        },
        {
          "indexed": false,
          "internalType": "string",
          "name": "message",
          "type": "string"
        }
      ],
      "name": "GiftCardCreatedForTwitch",
      "type": "event"
    },
    {
      "anonymous": false,
      "inputs": [
        {
          "indexed": false,
          "internalType": "uint256",
          "name": "tokenId",
          "type": "uint256"
        },
        {
          "indexed": false,
          "internalType": "string",
          "name": "username",
          "type": "string"
        },
        {
          "indexed": false,
          "internalType": "address",
          "name": "sender",
          "type": "address"
        },
        {
          "indexed": false,
          "internalType": "uint256",
          "name": "amount",
          "type": "uint256"
        },
        {
          "indexed": false,
          "internalType": "address",
          "name": "token",
          "type": "address"
        },
        {
          "indexed": false,
          "internalType": "string",
          "name": "uri",
          "type": "string"
        },
        {
          "indexed": false,
          "internalType": "string",
          "name": "message",
          "type": "string"
        }
      ],
      "name": "GiftCardCreatedForTwitter",
      "type": "event"
    },
    {
      "anonymous": false,
      "inputs": [
        {
          "indexed": false,
          "internalType": "uint256",
          "name": "tokenId",
          "type": "uint256"
        },
        {
          "indexed": false,
          "internalType": "address",
          "name": "redeemer",
          "type": "address"
        },
        {
          "indexed": false,
          "internalType": "uint256",
          "name": "amount",
          "type": "uint256"
        },
        {
          "indexed": false,
          "internalType": "address",
          "name": "token",
          "type": "address"
        }
      ],
      "name": "GiftCardRedeemed",
      "type": "event"
    },
    {
      "anonymous": false,
      "inputs": [
        {
          "indexed": true,
          "internalType": "address",
          "name": "previousOwner",
          "type": "address"
        },
        {
          "indexed": true,
          "internalType": "address",
          "name": "newOwner",
          "type": "address"
        }
      ],
      "name": "OwnershipTransferred",
      "type": "event"
    },
    {
      "anonymous": false,
      "inputs": [
        {
          "indexed": true,
          "internalType": "address",
          "name": "from",
          "type": "address"
        },
        {
          "indexed": true,
          "internalType": "address",
          "name": "to",
          "type": "address"
        },
        {
          "indexed": true,
          "internalType": "uint256",
          "name": "tokenId",
          "type": "uint256"
        }
      ],
      "name": "Transfer",
      "type": "event"
    },
    {
      "inputs": [],
      "name": "alphaUSD",
      "outputs": [
        {
          "internalType": "contract IERC20",
          "name": "",
          "type": "address"
        }
      ],
      "stateMutability": "view",
      "type": "function"
    },
    {
      "inputs": [
        {
          "internalType": "address",
          "name": "to",
          "type": "address"
        },
        {
          "internalType": "uint256",
          "name": "tokenId",
          "type": "uint256"
        }
      ],
      "name": "approve",
      "outputs": [],
      "stateMutability": "nonpayable",
      "type": "function"
    },
    {
      "inputs": [
        {
          "internalType": "address",
          "name": "owner",
          "type": "address"
        }
      ],
      "name": "balanceOf",
      "outputs": [
        {
          "internalType": "uint256",
          "name": "",
          "type": "uint256"
        }
      ],
      "stateMutability": "view",
      "type": "function"
    },
    {
      "inputs": [],
      "name": "betaUSD",
      "outputs": [
        {
          "internalType": "contract IERC20",
          "name": "",
          "type": "address"
        }
      ],
      "stateMutability": "view",
      "type": "function"
    },
    {
      "inputs": [
        {
          "internalType": "address",
          "name": "_recipient",
          "type": "address"
        },
        {
          "internalType": "uint256",
          "name": "_amount",
          "type": "uint256"
        },
        {
          "internalType": "address",
          "name": "_token",
          "type": "address"
        },
        {
          "internalType": "string",
          "name": "_metadataURI",
          "type": "string"
        },
        {
          "internalType": "string",
          "name": "_message",
          "type": "string"
        }
      ],
      "name": "createGiftCard",
      "outputs": [
        {
          "internalType": "uint256",
          "name": "",
          "type": "uint256"
        }
      ],
      "stateMutability": "nonpayable",
      "type": "function"
    },
    {
      "inputs": [
        {
          "internalType": "string",
          "name": "_username",
          "type": "string"
        },
        {
          "internalType": "uint256",
          "name": "_amount",
          "type": "uint256"
        },
        {
          "internalType": "address",
          "name": "_token",
          "type": "address"
        },
        {
          "internalType": "string",
          "name": "_metadataURI",
          "type": "string"
        },
        {
          "internalType": "string",
          "name": "_message",
          "type": "string"
        }
      ],
      "name": "createGiftCardForInstagram",
      "outputs": [
        {
          "internalType": "uint256",
          "name": "",
          "type": "uint256"
        }
      ],
      "stateMutability": "nonpayable",
      "type": "function"
    },
    {
      "inputs": [
        {
          "internalType": "string",
          "name": "_username",
          "type": "string"
        },
        {
          "internalType": "uint256",
          "name": "_amount",
          "type": "uint256"
        },
        {
          "internalType": "address",
          "name": "_token",
          "type": "address"
        },
        {
          "internalType": "string",
          "name": "_metadataURI",
          "type": "string"
        },
        {
          "internalType": "string",
          "name": "_message",
          "type": "string"
        }
      ],
      "name": "createGiftCardForTelegram",
      "outputs": [
        {
          "internalType": "uint256",
          "name": "",
          "type": "uint256"
        }
      ],
      "stateMutability": "nonpayable",
      "type": "function"
    },
    {
      "inputs": [
        {
          "internalType": "string",
          "name": "_username",
          "type": "string"
        },
        {
          "internalType": "uint256",
          "name": "_amount",
          "type": "uint256"
        },
        {
          "internalType": "address",
          "name": "_token",
          "type": "address"
        },
        {
          "internalType": "string",
          "name": "_metadataURI",
          "type": "string"
        },
        {
          "internalType": "string",
          "name": "_message",
          "type": "string"
        }
      ],
      "name": "createGiftCardForTikTok",
      "outputs": [
        {
          "internalType": "uint256",
          "name": "",
          "type": "uint256"
        }
      ],
      "stateMutability": "nonpayable",
      "type": "function"
    },
    {
      "inputs": [
        {
          "internalType": "string",
          "name": "_username",
          "type": "string"
        },
        {
          "internalType": "uint256",
          "name": "_amount",
          "type": "uint256"
        },
        {
          "internalType": "address",
          "name": "_token",
          "type": "address"
        },
        {
          "internalType": "string",
          "name": "_metadataURI",
          "type": "string"
        },
        {
          "internalType": "string",
          "name": "_message",
          "type": "string"
        }
      ],
      "name": "createGiftCardForTwitch",
      "outputs": [
        {
          "internalType": "uint256",
          "name": "",
          "type": "uint256"
        }
      ],
      "stateMutability": "nonpayable",
      "type": "function"
    },
    {
      "inputs": [
        {
          "internalType": "string",
          "name": "_username",
          "type": "string"
        },
        {
          "internalType": "uint256",
          "name": "_amount",
          "type": "uint256"
        },
        {
          "internalType": "address",
          "name": "_token",
          "type": "address"
        },
        {
          "internalType": "string",
          "name": "_metadataURI",
          "type": "string"
        },
        {
          "internalType": "string",
          "name": "_message",
          "type": "string"
        }
      ],
      "name": "createGiftCardForTwitter",
      "outputs": [
        {
          "internalType": "uint256",
          "name": "",
          "type": "uint256"
        }
      ],
      "stateMutability": "nonpayable",
      "type": "function"
    },
    {
      "inputs": [
        {
          "internalType": "uint256",
          "name": "tokenId",
          "type": "uint256"
        }
      ],
      "name": "getApproved",
      "outputs": [
        {
          "internalType": "address",
          "name": "",
          "type": "address"
        }
      ],
      "stateMutability": "view",
      "type": "function"
    },
    {
      "inputs": [
        {
          "internalType": "uint256",
          "name": "tokenId",
          "type": "uint256"
        }
      ],
      "name": "getGiftCardInfo",
      "outputs": [
        {
          "components": [
            {
              "internalType": "uint256",
              "name": "amount",
              "type": "uint256"
            },
            {
              "internalType": "address",
              "name": "token",
              "type": "address"
            },
            {
              "internalType": "bool",
              "name": "redeemed",
              "type": "bool"
            },
            {
              "internalType": "string",
              "name": "message",
              "type": "string"
            }
          ],
          "internalType": "struct GiftCard.GiftCardInfo",
          "name": "",
          "type": "tuple"
        }
      ],
      "stateMutability": "view",
      "type": "function"
    },
    {
      "inputs": [
        {
          "internalType": "uint256",
          "name": "",
          "type": "uint256"
        }
      ],
      "name": "giftCards",
      "outputs": [
        {
          "internalType": "uint256",
          "name": "amount",
          "type": "uint256"
        },
        {
          "internalType": "address",
          "name": "token",
          "type": "address"
        },
        {
          "internalType": "bool",
          "name": "redeemed",
          "type": "bool"
        },
        {
          "internalType": "string",
          "name": "message",
          "type": "string"
        }
      ],
      "stateMutability": "view",
      "type": "function"
    },
    {
      "inputs": [],
      "name": "instagramVaultContract",
      "outputs": [
        {
          "internalType": "contract InstagramCardVault",
          "name": "",
          "type": "address"
        }
      ],
      "stateMutability": "view",
      "type": "function"
    },
    {
      "inputs": [
        {
          "internalType": "address",
          "name": "owner",
          "type": "address"
        },
        {
          "internalType": "address",
          "name": "operator",
          "type": "address"
        }
      ],
      "name": "isApprovedForAll",
      "outputs": [
        {
          "internalType": "bool",
          "name": "",
          "type": "bool"
        }
      ],
      "stateMutability": "view",
      "type": "function"
    },
    {
      "inputs": [],
      "name": "name",
      "outputs": [
        {
          "internalType": "string",
          "name": "",
          "type": "string"
        }
      ],
      "stateMutability": "view",
      "type": "function"
    },
    {
      "inputs": [],
      "name": "owner",
      "outputs": [
        {
          "internalType": "address",
          "name": "",
          "type": "address"
        }
      ],
      "stateMutability": "view",
      "type": "function"
    },
    {
      "inputs": [
        {
          "internalType": "uint256",
          "name": "tokenId",
          "type": "uint256"
        }
      ],
      "name": "ownerOf",
      "outputs": [
        {
          "internalType": "address",
          "name": "",
          "type": "address"
        }
      ],
      "stateMutability": "view",
      "type": "function"
    },
    {
      "inputs": [],
      "name": "pathUSD",
      "outputs": [
        {
          "internalType": "contract IERC20",
          "name": "",
          "type": "address"
        }
      ],
      "stateMutability": "view",
      "type": "function"
    },
    {
      "inputs": [
        {
          "internalType": "uint256",
          "name": "tokenId",
          "type": "uint256"
        }
      ],
      "name": "redeemGiftCard",
      "outputs": [],
      "stateMutability": "nonpayable",
      "type": "function"
    },
    {
      "inputs": [],
      "name": "renounceOwnership",
      "outputs": [],
      "stateMutability": "nonpayable",
      "type": "function"
    },
    {
      "inputs": [
        {
          "internalType": "address",
          "name": "from",
          "type": "address"
        },
        {
          "internalType": "address",
          "name": "to",
          "type": "address"
        },
        {
          "internalType": "uint256",
          "name": "tokenId",
          "type": "uint256"
        }
      ],
      "name": "safeTransferFrom",
      "outputs": [],
      "stateMutability": "nonpayable",
      "type": "function"
    },
    {
      "inputs": [
        {
          "internalType": "address",
          "name": "from",
          "type": "address"
        },
        {
          "internalType": "address",
          "name": "to",
          "type": "address"
        },
        {
          "internalType": "uint256",
          "name": "tokenId",
          "type": "uint256"
        },
        {
          "internalType": "bytes",
          "name": "data",
          "type": "bytes"
        }
      ],
      "name": "safeTransferFrom",
      "outputs": [],
      "stateMutability": "nonpayable",
      "type": "function"
    },
    {
      "inputs": [
        {
          "internalType": "address",
          "name": "operator",
          "type": "address"
        },
        {
          "internalType": "bool",
          "name": "approved",
          "type": "bool"
        }
      ],
      "name": "setApprovalForAll",
      "outputs": [],
      "stateMutability": "nonpayable",
      "type": "function"
    },
    {
      "inputs": [
        {
          "internalType": "address",
          "name": "_vaultAddress",
          "type": "address"
        }
      ],
      "name": "setInstagramVaultContract",
      "outputs": [],
      "stateMutability": "nonpayable",
      "type": "function"
    },
    {
      "inputs": [
        {
          "internalType": "address",
          "name": "_vaultAddress",
          "type": "address"
        }
      ],
      "name": "setTelegramVaultContract",
      "outputs": [],
      "stateMutability": "nonpayable",
      "type": "function"
    },
    {
      "inputs": [
        {
          "internalType": "address",
          "name": "_vaultAddress",
          "type": "address"
        }
      ],
      "name": "setTikTokVaultContract",
      "outputs": [],
      "stateMutability": "nonpayable",
      "type": "function"
    },
    {
      "inputs": [
        {
          "internalType": "address",
          "name": "_vaultAddress",
          "type": "address"
        }
      ],
      "name": "setTwitchVaultContract",
      "outputs": [],
      "stateMutability": "nonpayable",
      "type": "function"
    },
    {
      "inputs": [
        {
          "internalType": "address",
          "name": "_vaultAddress",
          "type": "address"
        }
      ],
      "name": "setVaultContract",
      "outputs": [],
      "stateMutability": "nonpayable",
      "type": "function"
    },
    {
      "inputs": [
        {
          "internalType": "address",
          "name": "",
          "type": "address"
        }
      ],
      "name": "supportedTokens",
      "outputs": [
        {
          "internalType": "bool",
          "name": "",
          "type": "bool"
        }
      ],
      "stateMutability": "view",
      "type": "function"
    },
    {
      "inputs": [
        {
          "internalType": "bytes4",
          "name": "interfaceId",
          "type": "bytes4"
        }
      ],
      "name": "supportsInterface",
      "outputs": [
        {
          "internalType": "bool",
          "name": "",
          "type": "bool"
        }
      ],
      "stateMutability": "view",
      "type": "function"
    },
    {
      "inputs": [],
      "name": "symbol",
      "outputs": [
        {
          "internalType": "string",
          "name": "",
          "type": "string"
        }
      ],
      "stateMutability": "view",
      "type": "function"
    },
    {
      "inputs": [],
      "name": "telegramVaultContract",
      "outputs": [
        {
          "internalType": "contract TelegramCardVault",
          "name": "",
          "type": "address"
        }
      ],
      "stateMutability": "view",
      "type": "function"
    },
    {
      "inputs": [],
      "name": "thetaUSD",
      "outputs": [
        {
          "internalType": "contract IERC20",
          "name": "",
          "type": "address"
        }
      ],
      "stateMutability": "view",
      "type": "function"
    },
    {
      "inputs": [],
      "name": "tiktokVaultContract",
      "outputs": [
        {
          "internalType": "contract TikTokCardVault",
          "name": "",
          "type": "address"
        }
      ],
      "stateMutability": "view",
      "type": "function"
    },
    {
      "inputs": [
        {
          "internalType": "uint256",
          "name": "index",
          "type": "uint256"
        }
      ],
      "name": "tokenByIndex",
      "outputs": [
        {
          "internalType": "uint256",
          "name": "",
          "type": "uint256"
        }
      ],
      "stateMutability": "view",
      "type": "function"
    },
    {
      "inputs": [
        {
          "internalType": "address",
          "name": "owner",
          "type": "address"
        },
        {
          "internalType": "uint256",
          "name": "index",
          "type": "uint256"
        }
      ],
      "name": "tokenOfOwnerByIndex",
      "outputs": [
        {
          "internalType": "uint256",
          "name": "",
          "type": "uint256"
        }
      ],
      "stateMutability": "view",
      "type": "function"
    },
    {
      "inputs": [
        {
          "internalType": "uint256",
          "name": "tokenId",
          "type": "uint256"
        }
      ],
      "name": "tokenURI",
      "outputs": [
        {
          "internalType": "string",
          "name": "",
          "type": "string"
        }
      ],
      "stateMutability": "view",
      "type": "function"
    },
    {
      "inputs": [],
      "name": "totalSupply",
      "outputs": [
        {
          "internalType": "uint256",
          "name": "",
          "type": "uint256"
        }
      ],
      "stateMutability": "view",
      "type": "function"
    },
    {
      "inputs": [
        {
          "internalType": "address",
          "name": "from",
          "type": "address"
        },
        {
          "internalType": "address",
          "name": "to",
          "type": "address"
        },
        {
          "internalType": "uint256",
          "name": "tokenId",
          "type": "uint256"
        }
      ],
      "name": "transferFrom",
      "outputs": [],
      "stateMutability": "nonpayable",
      "type": "function"
    },
    {
      "inputs": [
        {
          "internalType": "address",
          "name": "newOwner",
          "type": "address"
        }
      ],
      "name": "transferOwnership",
      "outputs": [],
      "stateMutability": "nonpayable",
      "type": "function"
    },
    {
      "inputs": [],
      "name": "twitchVaultContract",
      "outputs": [
        {
          "internalType": "contract TwitchCardVault",
          "name": "",
          "type": "address"
        }
      ],
      "stateMutability": "view",
      "type": "function"
    },
    {
      "inputs": [],
      "name": "vaultContract",
      "outputs": [
        {
          "internalType": "contract TwitterCardVault",
          "name": "",
          "type": "address"
        }
      ],
      "stateMutability": "view",
      "type": "function"
    }
  ],
  "bytecode": "0x608034620005a057601f6200378d38819003918201601f191683019291906001600160401b0384118385101762000494578160809284926040968752833981010312620005a0576200005181620005c5565b6200005f60208301620005c5565b906200007b606062000073868601620005c5565b9401620005c5565b9062000086620005a5565b601081526f14d95b991b1e4811da599d0810d85c9960821b6020820152620000ad620005a5565b600381526253474360e81b6020820152815190916001600160401b038211620004945760005490600182811c9216801562000595575b6020831014620004735781601f84931162000532575b50602090601f8311600114620004b657600092620004aa575b50508160011b916000199060031b1c1916176000555b8051906001600160401b038211620004945760015490600182811c9216801562000489575b6020831014620004735781601f8493116200040f575b50602090601f8311600114620003955760009262000389575b50508160011b916000199060031b1c1916176001555b33156200037157600a8054336001600160a01b031980831682179093558751929592936001600160a01b03939284929083167f8be0079c531659141344cd1fd0a4f28419497f9722a3daafe3b4186f6b6457e0600080a3169283156200033c5750811694851562000304578116928315620002cd5716928315620002955780828592600b541617600b558581600c541617600c558381600d541617600d55600e541617600e55600052600f602052836000209260ff19936001858254161790556000528360002060018482541617905560005282600020600183825416179055600052600182600020918254161790556001601055516131729081620005db8239f35b855162461bcd60e51b81526020600482015260116024820152701d1a195d185554d1081c995c5d5a5c9959607a1b6044820152606490fd5b865162461bcd60e51b815260206004820152601060248201526f18995d185554d1081c995c5d5a5c995960821b6044820152606490fd5b865162461bcd60e51b8152602060048201526011602482015270185b1c1a185554d1081c995c5d5a5c9959607a1b6044820152606490fd5b62461bcd60e51b815260206004820152601060248201526f1c185d1a1554d1081c995c5d5a5c995960821b6044820152606490fd5b8451631e4fbdf760e01b815260006004820152602490fd5b0151905038806200017c565b600160009081526000805160206200376d8339815191529350601f198516905b818110620003f65750908460019594939210620003dc575b505050811b0160015562000192565b015160001960f88460031b161c19169055388080620003cd565b92936020600181928786015181550195019301620003b5565b60016000529091506000805160206200376d833981519152601f840160051c8101916020851062000468575b90601f859493920160051c01905b81811062000458575062000163565b6000815584935060010162000449565b90915081906200043b565b634e487b7160e01b600052602260045260246000fd5b91607f16916200014d565b634e487b7160e01b600052604160045260246000fd5b01519050388062000112565b600080805293506000805160206200374d83398151915291905b601f198416851062000516576001945083601f19811610620004fc575b505050811b0160005562000128565b015160001960f88460031b161c19169055388080620004ed565b81810151835560209485019460019093019290910190620004d0565b600080529091506000805160206200374d833981519152601f840160051c810191602085106200058a575b90601f859493920160051c01905b8181106200057a5750620000f9565b600081558493506001016200056b565b90915081906200055d565b91607f1691620000e3565b600080fd5b60408051919082016001600160401b038111838210176200049457604052565b51906001600160a01b0382168203620005a05756fe608080604052600436101561001357600080fd5b60003560e01c90816301ffc9a71461214e5750806306fdde03146120ab578063081812fc1461206d578063095ea7b314611f865780630d15079c14611c8c57806318160ddd14611c6e5780632274346b14611c4557806323b872dd14611c2e5780632f745c5914611bb557806331a6f38314611b8c57806342842e0e14611b5e5780634f6ccce714611b0857806352bc0d2f1461181557806357c66836146115195780635be1449c146114f057806361bb5254146114665780636352211e1461143657806368c4ac26146113f7578063709511451461136c57806370a0823114611341578063715018a6146112f65780637400cba2146111c75780637b008d3b1461119e578063881efaa1146111755780638aaa06e51461114c5780638afb7f56146111235780638da5cb5b146110fa578063916b62da14610e0057806395d89b4114610d3b57806396f4ada614610cb75780639898135f14610c4c578063989e6e8c14610bc15780639de4445114610b36578063a22cb46514610a91578063b88d4fde14610a23578063be72b747146109fa578063bf05ed46146109d1578063c3941614146106b6578063c87b56dd14610663578063cf1e0ed014610587578063e00d8fa2146102c9578063e985e9c5146102735763f2fde38b146101f857600080fd5b3461026e57602036600319011261026e57610211612213565b6102196124be565b6001600160a01b0390811690811561025557600a80546001600160a01b031981168417909155166000805160206130dd833981519152600080a3005b604051631e4fbdf760e01b815260006004820152602490fd5b600080fd5b3461026e57604036600319011261026e5761028c612213565b610294612229565b9060018060a01b03809116600052600560205260406000209116600052602052602060ff604060002054166040519015158152f35b3461026e5760a036600319011261026e576102e2612213565b6001600160a01b039060443590828216906024359082840361026e576001600160401b039360643585811161026e5761031f903690600401612318565b9060843586811161026e57610338903690600401612318565b958784161561055257869086600052602098600f8a5261035f60ff604060002054166129b9565b61036a8715156129f9565b6103748785612db5565b60028a6103ea6010549a6103878c612a30565b6010556103948c8b612ac5565b8b6011604051946103a48661223f565b8d8652808601938452604086019260008452606087019a8b526000525260406000209351845560019586850192511660018060a01b031983541617825551151590612a55565b019251805192831161053c5761040084546123de565b601f81116104f3575b508a90601f841160011461047357928061045d979593819360008051602061311d8339815191529c9d9896600094610468575b50501b916000199060031b1c19161790555b60405195869533908a88612a72565b0390a1604051908152f35b015192508e8061043c565b60008581528c8120939493929190601f198516908e5b8282106104dc5750509160008051602061311d8339815191529b9c979593918561045d9a989694106104c3575b505050811b01905561044e565b015160001960f88460031b161c191690558c80806104b6565b808886978294978701518155019601940190610489565b846000528b600020601f850160051c8101918d8610610532575b601f0160051c019083905b828110610526575050610409565b60008155018390610518565b909150819061050d565b634e487b7160e01b600052604160045260246000fd5b60405162461bcd60e51b815260206004820152600d60248201526c189859081c9958da5c1a595b9d609a1b6044820152606490fd5b3461026e5760208060031936011261026e576004356060806040516105ab8161223f565b60008152600085820152600060408201520152806000526002825260018060a01b03906105e082604060002054161515612f2d565b6000526011825261065f6040600020604051926105fc8461223f565b81548452600182015490610629600287870194838516865260ff604089019560a01c161515855201612418565b926060860193845260405196879681885251908701525116604085015251151560608401525160808084015260a08301906121d3565b0390f35b3461026e57602036600319011261026e5761067f6004356127df565b50600060405161068e8161226d565b5261065f60405161069e8161226d565b600081526040519182916020835260208301906121d3565b3461026e576106c436612336565b919360018060a09593951b036016541615610992576106e58151151561301f565b60018060a01b0385169384600052600f60205261070960ff604060002054166129b9565b6107148315156129f9565b61071e8387612db5565b6010549461072b86612a30565b6010556016546107459087906001600160a01b0316612ac5565b604051906107528261223f565b848252602082019081526107a86040830191600083526060840192888452896000526011602052604060002094518555600185019160018060a01b0390511660018060a01b031983541617825551151590612a55565b518051906001600160401b03821161053c576107c760028401546123de565b601f811161094b575b50602090601f83116001146108dd5760029291600091836108d2575b50508160011b916000199060031b1c1916179101555b6016546001600160a01b031693843b1561026e576040516316e1ed5f60e11b815294600090869081838161083b338a8e6004850161305f565b03925af19182156108c6576020977fe76ff423a3aa7b774558dfd94f8f98b32f043abe99fe785dc4e29053fd9e3f459661045d946108b7575b5060008051602061311d8339815191528860018060a01b03601654166108a58686868c604051968796339188612a72565b0390a160405195869533908a8861308d565b6108c09061225a565b89610874565b6040513d6000823e3d90fd5b015190508a806107ec565b90601f198316916002850160005260206000209260005b8181106109335750916001939185600296941061091a575b505050811b01910155610802565b015160001960f88460031b161c191690558a808061090c565b929360206001819287860151815501950193016108f4565b600284016000526020600020601f840160051c81016020851061098b575b601f830160051c8201811061097f5750506107d0565b60008155600101610969565b5080610969565b60405162461bcd60e51b8152602060048201526017602482015276125b9cdd1859dc985b4815985d5b1d081b9bdd081cd95d604a1b6044820152606490fd5b3461026e57600036600319011261026e576013546040516001600160a01b039091168152602090f35b3461026e57600036600319011261026e576015546040516001600160a01b039091168152602090f35b3461026e57608036600319011261026e57610a3c612213565b610a44612229565b6064359190604435906001600160401b03841161026e573660238501121561026e57610a7d610a8f9436906024816004013591016122e1565b92610a89838383612523565b33612896565b005b3461026e57604036600319011261026e57610aaa612213565b6024359081151580920361026e576001600160a01b0316908115610b1d57336000526005602052604060002082600052602052604060002060ff1981541660ff83161790556040519081527f17307eab39ab6107e8899845ad3d59bd9653f200f220920489ca2b5937696c3160203392a3005b604051630b61174360e31b815260048101839052602490fd5b3461026e57602036600319011261026e57610b4f612213565b610b576124be565b6001600160a01b03168015610b7c57601580546001600160a01b031916919091179055005b60405162461bcd60e51b815260206004820152601d60248201527f54696b546f6b205661756c7420616464726573732072657175697265640000006044820152606490fd5b3461026e57602036600319011261026e57610bda612213565b610be26124be565b6001600160a01b03168015610c0757601480546001600160a01b031916919091179055005b60405162461bcd60e51b815260206004820152601f60248201527f54656c656772616d205661756c742061646472657373207265717569726564006044820152606490fd5b3461026e57602036600319011261026e5760043560005260116020526040600020805461065f610c83600260018501549401612418565b60ff604051948594855260018060a01b038116602086015260a01c16151560408401526080606084015260808301906121d3565b3461026e57602036600319011261026e57610cd0612213565b610cd86124be565b6001600160a01b03168015610cfd57601280546001600160a01b031916919091179055005b60405162461bcd60e51b815260206004820152601660248201527515985d5b1d081859191c995cdcc81c995c5d5a5c995960521b6044820152606490fd5b3461026e57600036600319011261026e5760405160009060018054610d5f816123de565b80845290828116908115610dd85750600114610d9a575b61065f83610d86818703826122a3565b6040519182916020835260208301906121d3565b92508060005260209283600020916000925b828410610dc557505050810190910190610d8681610d76565b8054858501870152928501928101610dac565b61065f9550610d8693506020915091849260ff191682840152151560051b8201019350610d76565b3461026e57610e0e36612336565b919360018060a09593951b0360155416156110be57610e2f8151151561301f565b60018060a01b0385169384600052600f602052610e5360ff604060002054166129b9565b610e5e8315156129f9565b610e688387612db5565b60105494610e7586612a30565b601055601554610e8f9087906001600160a01b0316612ac5565b60405190610e9c8261223f565b84825260208201908152610ef26040830191600083526060840192888452896000526011602052604060002094518555600185019160018060a01b0390511660018060a01b031983541617825551151590612a55565b518051906001600160401b03821161053c57610f1160028401546123de565b601f8111611077575b50602090601f8311600114611009576002929160009183610ffe575b50508160011b916000199060031b1c1916179101555b6015546001600160a01b031693843b1561026e576040516316e1ed5f60e11b8152946000908690818381610f85338a8e6004850161305f565b03925af19182156108c6576020977f556bfd7f220d92f2fae3734649d447e58ebab8dd51dee4035364727699e49fdf9661045d94610fef575b5060008051602061311d8339815191528860018060a01b03601554166108a58686868c604051968796339188612a72565b610ff89061225a565b89610fbe565b015190508a80610f36565b90601f198316916002850160005260206000209260005b81811061105f57509160019391856002969410611046575b505050811b01910155610f4c565b015160001960f88460031b161c191690558a8080611038565b92936020600181928786015181550195019301611020565b600284016000526020600020601f840160051c8101602085106110b7575b601f830160051c820181106110ab575050610f1a565b60008155600101611095565b5080611095565b60405162461bcd60e51b8152602060048201526014602482015273151a5ad51bdac815985d5b1d081b9bdd081cd95d60621b6044820152606490fd5b3461026e57600036600319011261026e57600a546040516001600160a01b039091168152602090f35b3461026e57600036600319011261026e576014546040516001600160a01b039091168152602090f35b3461026e57600036600319011261026e57600d546040516001600160a01b039091168152602090f35b3461026e57600036600319011261026e57600e546040516001600160a01b039091168152602090f35b3461026e57600036600319011261026e57600b546040516001600160a01b039091168152602090f35b3461026e5760208060031936011261026e5760043590816000526002815260018060a01b036111fe81604060002054161515612f2d565b82600052601182526040600020906001820191825460ff8160a01c166112c657611227866127df565b833391160361129557917fac810351e0a5276b563659d9fd53866ce57e5206390b028a4542437ed86c253495939161127860809694600160a01b60ff60a01b19821617855582549084339116612f63565b5491541691604051938452339084015260408301526060820152a1005b60405162461bcd60e51b81526004810186905260096024820152683737ba1037bbb732b960b91b6044820152606490fd5b60405162461bcd60e51b81526004810186905260086024820152671c995919595b595960c21b6044820152606490fd5b3461026e57600036600319011261026e5761130f6124be565b600a80546001600160a01b031981169091556000906001600160a01b03166000805160206130dd8339815191528280a3005b3461026e57602036600319011261026e57602061136461135f612213565b6124ea565b604051908152f35b3461026e57602036600319011261026e57611385612213565b61138d6124be565b6001600160a01b031680156113b257601380546001600160a01b031916919091179055005b60405162461bcd60e51b815260206004820152601d60248201527f547769746368205661756c7420616464726573732072657175697265640000006044820152606490fd5b3461026e57602036600319011261026e576001600160a01b03611418612213565b16600052600f602052602060ff604060002054166040519015158152f35b3461026e57602036600319011261026e5760206114546004356127df565b6040516001600160a01b039091168152f35b3461026e57602036600319011261026e5761147f612213565b6114876124be565b6001600160a01b031680156114ac57601680546001600160a01b031916919091179055005b606460405162461bcd60e51b815260206004820152602060248201527f496e7374616772616d205661756c7420616464726573732072657175697265646044820152fd5b3461026e57600036600319011261026e57600c546040516001600160a01b039091168152602090f35b3461026e5761152736612336565b919360018060a09593951b0360145416156117d7576115488151151561301f565b60018060a01b0385169384600052600f60205261156c60ff604060002054166129b9565b6115778315156129f9565b6115818387612db5565b6010549461158e86612a30565b6010556014546115a89087906001600160a01b0316612ac5565b604051906115b58261223f565b8482526020820190815261160b6040830191600083526060840192888452896000526011602052604060002094518555600185019160018060a01b0390511660018060a01b031983541617825551151590612a55565b518051906001600160401b03821161053c5761162a60028401546123de565b601f8111611790575b50602090601f8311600114611722576002929160009183611717575b50508160011b916000199060031b1c1916179101555b6014546001600160a01b031693843b1561026e576040516316e1ed5f60e11b815294600090869081838161169e338a8e6004850161305f565b03925af19182156108c6576020977f8b4a1e0ad00e26141e0c254c13a3ba386688d071f45651d82461ee183edd401a9661045d94611708575b5060008051602061311d8339815191528860018060a01b03601454166108a58686868c604051968796339188612a72565b6117119061225a565b896116d7565b015190508a8061164f565b90601f198316916002850160005260206000209260005b8181106117785750916001939185600296941061175f575b505050811b01910155611665565b015160001960f88460031b161c191690558a8080611751565b92936020600181928786015181550195019301611739565b600284016000526020600020601f840160051c8101602085106117d0575b601f830160051c820181106117c4575050611633565b600081556001016117ae565b50806117ae565b60405162461bcd60e51b815260206004820152601660248201527515195b1959dc985b4815985d5b1d081b9bdd081cd95d60521b6044820152606490fd5b3461026e5761182336612336565b919360018060a09593951b036012541615611ad3576118448151151561301f565b60018060a01b0385169384600052600f60205261186860ff604060002054166129b9565b6118738315156129f9565b61187d8387612db5565b6010549461188a86612a30565b6010556012546118a49087906001600160a01b0316612ac5565b604051906118b18261223f565b848252602082019081526119076040830191600083526060840192888452896000526011602052604060002094518555600185019160018060a01b0390511660018060a01b031983541617825551151590612a55565b518051906001600160401b03821161053c5761192660028401546123de565b601f8111611a8c575b50602090601f8311600114611a1e576002929160009183611a13575b50508160011b916000199060031b1c1916179101555b6012546001600160a01b031693843b1561026e576040516316e1ed5f60e11b815294600090869081838161199a338a8e6004850161305f565b03925af19182156108c6576020977f9b5c816605f86b4160f6d48308e768208517fb96124a3b2123536135da4d0f609661045d94611a04575b5060008051602061311d8339815191528860018060a01b03601254166108a58686868c604051968796339188612a72565b611a0d9061225a565b896119d3565b015190508a8061194b565b90601f198316916002850160005260206000209260005b818110611a7457509160019391856002969410611a5b575b505050811b01910155611961565b015160001960f88460031b161c191690558a8080611a4d565b92936020600181928786015181550195019301611a35565b600284016000526020600020601f840160051c810160208510611acc575b601f830160051c82018110611ac057505061192f565b60008155600101611aaa565b5080611aaa565b60405162461bcd60e51b815260206004820152600d60248201526c15985d5b1d081b9bdd081cd95d609a1b6044820152606490fd5b3461026e57602036600319011261026e57600435600854811015611b3f57611b31602091612835565b90546040519160031b1c8152f35b6044906040519063295f44f760e21b8252600060048301526024820152fd5b3461026e57610a8f611b6f366123a9565b9060405192611b7d8461226d565b60008452610a89838383612523565b3461026e57600036600319011261026e576016546040516001600160a01b039091168152602090f35b3461026e57604036600319011261026e57611bce612213565b60243590611bdb816124ea565b821015611c0e5760018060a01b031660005260066020526040600020906000526020526020604060002054604051908152f35b611c2a60405192839263295f44f760e21b84526004840161281a565b0390fd5b3461026e57610a8f611c3f366123a9565b91612523565b3461026e57600036600319011261026e576012546040516001600160a01b039091168152602090f35b3461026e57600036600319011261026e576020600854604051908152f35b3461026e57611c9a36612336565b919360018060a09593951b036013541615611f4a57611cbb8151151561301f565b60018060a01b0385169384600052600f602052611cdf60ff604060002054166129b9565b611cea8315156129f9565b611cf48387612db5565b60105494611d0186612a30565b601055601354611d1b9087906001600160a01b0316612ac5565b60405190611d288261223f565b84825260208201908152611d7e6040830191600083526060840192888452896000526011602052604060002094518555600185019160018060a01b0390511660018060a01b031983541617825551151590612a55565b518051906001600160401b03821161053c57611d9d60028401546123de565b601f8111611f03575b50602090601f8311600114611e95576002929160009183611e8a575b50508160011b916000199060031b1c1916179101555b6013546001600160a01b031693843b1561026e576040516316e1ed5f60e11b8152946000908690818381611e11338a8e6004850161305f565b03925af19182156108c6576020977f61975798f2480aa9431ee7ff771c06d11c1f29fa8206054bc636fc498e9b36fd9661045d94611e7b575b5060008051602061311d8339815191528860018060a01b03601354166108a58686868c604051968796339188612a72565b611e849061225a565b89611e4a565b015190508a80611dc2565b90601f198316916002850160005260206000209260005b818110611eeb57509160019391856002969410611ed2575b505050811b01910155611dd8565b015160001960f88460031b161c191690558a8080611ec4565b92936020600181928786015181550195019301611eac565b600284016000526020600020601f840160051c810160208510611f43575b601f830160051c82018110611f37575050611da6565b60008155600101611f21565b5080611f21565b60405162461bcd60e51b8152602060048201526014602482015273151dda5d18da0815985d5b1d081b9bdd081cd95d60621b6044820152606490fd5b3461026e57604036600319011261026e57611f9f612213565b602435611fab816127df565b3315158061205a575b8061202d575b612015576001600160a01b039283169282918491167f8c5be1e5ebec7d5bd14f71427d1e84f3dd0314c0f7b2291e5b200ac8c7c3b925600080a4600090815260046020526040902080546001600160a01b0319169091179055005b60405163a9fbf51f60e01b8152336004820152602490fd5b5060018060a01b038116600052600560205260406000203360005260205260ff6040600020541615611fba565b506001600160a01b038116331415611fb4565b3461026e57602036600319011261026e5760043561208a816127df565b506000526004602052602060018060a01b0360406000205416604051908152f35b3461026e57600036600319011261026e576040516000906000546120ce816123de565b808352600191808316908115610dd857506001146120f65761065f83610d86818703826122a3565b600080805260209450917f290decd9548b62a8d60345a988386fc84ba6bc95484008f6362f93160ef3e5635b82841061213b57505050810190910190610d8681610d76565b8054858501870152928501928101612122565b3461026e57602036600319011261026e576004359063ffffffff60e01b821680920361026e5760209163780e9d6360e01b8114908115612190575b5015158152f35b6380ac58cd60e01b8114915081156121c2575b81156121b1575b5083612189565b6301ffc9a760e01b149050836121aa565b635b5e139f60e01b811491506121a3565b919082519283825260005b8481106121ff575050826000602080949584010152601f8019910116010190565b6020818301810151848301820152016121de565b600435906001600160a01b038216820361026e57565b602435906001600160a01b038216820361026e57565b608081019081106001600160401b0382111761053c57604052565b6001600160401b03811161053c57604052565b602081019081106001600160401b0382111761053c57604052565b60a081019081106001600160401b0382111761053c57604052565b601f909101601f19168101906001600160401b0382119082101761053c57604052565b6001600160401b03811161053c57601f01601f191660200190565b9291926122ed826122c6565b916122fb60405193846122a3565b82948184528183011161026e578281602093846000960137010152565b9080601f8301121561026e57816020612333933591016122e1565b90565b9060a060031983011261026e576001600160401b0360043581811161026e578361236291600401612318565b92602435926044356001600160a01b038116810361026e579260643581811161026e578361239291600401612318565b9260843591821161026e5761233391600401612318565b606090600319011261026e576001600160a01b0390600435828116810361026e5791602435908116810361026e579060443590565b90600182811c9216801561240e575b60208310146123f857565b634e487b7160e01b600052602260045260246000fd5b91607f16916123ed565b906040519182600082549261242c846123de565b90818452600194858116908160001461249b5750600114612458575b5050612456925003836122a3565b565b9093915060005260209081600020936000915b81831061248357505061245693508201013880612448565b8554888401850152948501948794509183019161246b565b91505061245694506020925060ff191682840152151560051b8201013880612448565b600a546001600160a01b031633036124d257565b60405163118cdaa760e01b8152336004820152602490fd5b6001600160a01b0316801561250a57600052600360205260406000205490565b6040516322718ad960e21b815260006004820152602490fd5b6001600160a01b03828116939184156127a85760009483865260209560028752604096848883205416963315158061271c575b50871580156126fc575b84845260038352898420805460010190558784526002835289842080546001600160a01b0319168617905587858a6000805160206130fd8339815191528780a4156126905760085487845260098352898420819055600160401b81101561267c57876125d58260016125ee9401600855612835565b90919082549060031b91821b91600019901b1916179055565b83880361262a575b5050505016928383036126095750505050565b6064945051926364283d7b60e01b8452600484015260248301526044820152fd5b612633906124ea565b6000198101939084116126685782916007918a94526006815283832085845281528784842055878352522055388080806125f6565b634e487b7160e01b83526011600452602483fd5b634e487b7160e01b84526041600452602484fd5b8784146125ee576126a0886124ea565b878452600783528984205490898552600684528a8520918181036126da575b5088855260078452848b8120558452825282898120556125ee565b8186528285528b862054818752808d8820558652600785528b862055386126bf565b612705886127c1565b888452600383528984208054600019019055612560565b80612767575b1561272d5738612556565b88878961274a576024915190637e27328960e01b82526004820152fd5b905163177e802f60e01b8152908190611c2a90336004840161281a565b50338814801561278c575b8061272257508683526004825233868a8520541614612722565b5087835260058252888320338452825260ff8984205416612772565b604051633250574960e11b815260006004820152602490fd5b600090815260046020526040902080546001600160a01b0319169055565b6000818152600260205260409020546001600160a01b0316908115612802575090565b60249060405190637e27328960e01b82526004820152fd5b6001600160a01b039091168152602081019190915260400190565b60085481101561285057600860005260206000200190600090565b634e487b7160e01b600052603260045260246000fd5b3d15612891573d90612877826122c6565b9161288560405193846122a3565b82523d6000602084013e565b606090565b9293823b6128a6575b5050505050565b6128ea9060018060a01b038094169560405194859481630a85bd0160e11b9889885216600487015216602485015260448401526080606484015260848301906121d3565b03906020816000938185885af19082908261296a575b5050612938578261290f612866565b805191908261293157604051633250574960e11b815260048101839052602490fd5b6020915001fd5b6001600160e01b031916036129525750388080808061289f565b60249060405190633250574960e11b82526004820152fd5b909192506020813d82116129b1575b81612986602093836122a3565b810103126129ad5751906001600160e01b0319821682036129aa5750903880612900565b80fd5b5080fd5b3d9150612979565b156129c057565b60405162461bcd60e51b81526020600482015260116024820152703ab739bab83837b93a32b2103a37b5b2b760791b6044820152606490fd5b15612a0057565b60405162461bcd60e51b81526020600482015260086024820152670616d6f756e743d360c41b6044820152606490fd5b6000198114612a3f5760010190565b634e487b7160e01b600052601160045260246000fd5b805460ff60a01b191691151560a01b60ff60a01b16919091179055565b9081526001600160a01b039182166020820152918116604083015260608201929092529116608082015260e060a08201819052612333939192612ab7918401906121d3565b9160c08184039101526121d3565b6040805192612ad38461226d565b60008085526001600160a01b0394848616948515612d9d578383526020966002885285842054168015908782159283612d7d575b81875260038b528887208054600101905587875260028b5288872080546001600160a01b031916831790558782846000805160206130fd8339815191528a80a415612d10575060085486865260098a52878620819055600160401b811015612cfc5790612b7f876125d58460018d9601600855612835565b03612caf575b612c97573b612b97575b505050505050565b85612bd49185969798955180938192630a85bd0160e11b9788845233600485015287602485015260448401526080606484015260848301906121d3565b0381858a5af190829082612c53575b5050612c1b57505050612bf4612866565b8051939084612c15578251633250574960e11b815260048101859052602490fd5b84925001fd5b9194506001600160e01b031990911603612c3c575050388080808080612b8f565b602492505190633250574960e11b82526004820152fd5b909192508781813d8311612c90575b612c6c81836122a3565b810103126129ad5751906001600160e01b0319821682036129aa5750903880612be3565b503d612c62565b84516339e3563760e11b815260048101849052602490fd5b612cb8826124ea565b6000198101908111612ce85787855260068952868520818652895285878620558585526007895286852055612b85565b634e487b7160e01b85526011600452602485fd5b634e487b7160e01b86526041600452602486fd5b90808214612b7f57612d21816124ea565b87875260078b52888720549082885260068c5289882091818103612d5b575b5088885260078c52878a81205587528a528588812055612b7f565b818952828d528a892054818a52808c8b2055895260078d528a89205538612d40565b612d86886127c1565b82875260038b528887208054600019019055612b07565b8451633250574960e11b815260048101849052602490fd5b90612dc281303385612e7f565b612e075761245691604051916323b872dd60e01b6020840152336024840152306044840152606483015260648252612df982612288565b6001600160a01b0316612e0b565b5050565b906000602091828151910182855af1156108c6576000513d612e5e57506001600160a01b0381163b155b612e3c5750565b604051635274afe760e01b81526001600160a01b039091166004820152602490fd5b60011415612e35565b9081602091031261026e5751801515810361026e5790565b60405163929c253960e01b602082019081526001600160a01b0393841660248301529290931660448401526064830193909352600060848084018290528352929160c081016001600160401b03811182821017612f195760405251839283929083905af190612eec612866565b9115612f1457508051908115612f0d57602080612333938301019101612e67565b5050600190565b905090565b634e487b7160e01b85526041600452602485fd5b15612f3457565b60405162461bcd60e51b81526020600482015260076024820152661b9bc818d85c9960ca1b6044820152606490fd5b919091612f71828483612fae565b612fa957612df961245693612f9b60405194859263a9059cbb60e01b60208501526024840161281a565b03601f1981018452836122a3565b505050565b600092918380936040519060208201936395777d5960e01b855260018060a01b03166024830152604482015281606482015260648152612fed81612288565b51925af1612ff9612866565b9015613019578051908115612f0d57602080612333938301019101612e67565b50600090565b1561302657565b60405162461bcd60e51b8152602060048201526011602482015270155cd95c9b985b59481c995c5d5a5c9959607a1b6044820152606490fd5b9161307d9060409295949584526060602085015260608401906121d3565b6001600160a01b03909416910152565b9591946130b16123339896612ab7969593895260e060208a015260e08901906121d3565b6001600160a01b039283166040890152606088019490945216608086015284820360a08601526121d356fe8be0079c531659141344cd1fd0a4f28419497f9722a3daafe3b4186f6b6457e0ddf252ad1be2c89b69c2b068fc378daa952ba7f163c4a11628f55a4df523b3ef1cddd2e719eecdc15efad3300fb7b6288ee937b7107c31cc324309e23f6cbbd0a264697066735822122048151525e20cd772dc147f8ad0520ff8c59699575658005a78003bba9e63971764736f6c63430008140033290decd9548b62a8d60345a988386fc84ba6bc95484008f6362f93160ef3e563b10e2d527612073b26eecdfd717e6a320cf44b4afac2b0732d9fcbe2b7fa0cf6",
  "linkReferences": {},
  "deployedLinkReferences": {}
}