{"contracts_tempo/mocks/MockTip20WithMemo.sol":{"MockTip20WithMemo":{"abi":[{"inputs":[{"internalType":"string","name":"_name","type":"string"},{"internalType":"string","name":"_symbol","type":"string"},{"internalType":"uint8","name":"_decimals","type":"uint8"},{"internalType":"address","name":"initialHolder","type":"address"},{"internalType":"uint256","name":"initialSupply","type":"uint256"}],"stateMutability":"nonpayable","type":"constructor"},{"anonymous":false,"inputs":[{"indexed":true,"internalType":"address","name":"owner","type":"address"},{"indexed":true,"internalType":"address","name":"spender","type":"address"},{"indexed":false,"internalType":"uint256","name":"value","type":"uint256"}],"name":"Approval","type":"event"},{"anonymous":false,"inputs":[{"indexed":true,"internalType":"address","name":"from","type":"address"},{"indexed":true,"internalType":"address","name":"to","type":"address"},{"indexed":false,"internalType":"uint256","name":"value","type":"uint256"}],"name":"Transfer","type":"event"},{"anonymous":false,"inputs":[{"indexed":true,"internalType":"address","name":"from","type":"address"},{"indexed":true,"internalType":"address","name":"to","type":"address"},{"indexed":false,"internalType":"uint256","name":"value","type":"uint256"},{"indexed":false,"internalType":"bytes32","name":"memo","type":"bytes32"}],"name":"TransferWithMemo","type":"event"},{"inputs":[{"internalType":"address","name":"","type":"address"},{"internalType":"address","name":"","type":"address"}],"name":"allowance","outputs":[{"internalType":"uint256","name":"","type":"uint256"}],"stateMutability":"view","type":"function"},{"inputs":[{"internalType":"address","name":"spender","type":"address"},{"internalType":"uint256","name":"value","type":"uint256"}],"name":"approve","outputs":[{"internalType":"bool","name":"","type":"bool"}],"stateMutability":"nonpayable","type":"function"},{"inputs":[{"internalType":"address","name":"","type":"address"}],"name":"balanceOf","outputs":[{"internalType":"uint256","name":"","type":"uint256"}],"stateMutability":"view","type":"function"},{"inputs":[],"name":"decimals","outputs":[{"internalType":"uint8","name":"","type":"uint8"}],"stateMutability":"view","type":"function"},{"inputs":[],"name":"name","outputs":[{"internalType":"string","name":"","type":"string"}],"stateMutability":"view","type":"function"},{"inputs":[],"name":"symbol","outputs":[{"internalType":"string","name":"","type":"string"}],"stateMutability":"view","type":"function"},{"inputs":[],"name":"totalSupply","outputs":[{"internalType":"uint256","name":"","type":"uint256"}],"stateMutability":"view","type":"function"},{"inputs":[{"internalType":"address","name":"from","type":"address"},{"internalType":"address","name":"to","type":"address"},{"internalType":"uint256","name":"value","type":"uint256"},{"internalType":"bytes32","name":"memo","type":"bytes32"}],"name":"transferFromWithMemo","outputs":[],"stateMutability":"nonpayable","type":"function"},{"inputs":[{"internalType":"address","name":"to","type":"address"},{"internalType":"uint256","name":"value","type":"uint256"},{"internalType":"bytes32","name":"memo","type":"bytes32"}],"name":"transferWithMemo","outputs":[],"stateMutability":"nonpayable","type":"function"}],"evm":{"bytecode":{"linkReferences":{},"object":"604060a0815234620003e65762000b63803803806200001e81620003eb565b928339810160a082820312620003e65781516001600160401b039190828111620003e657816200005091850162000411565b916020918285015190828211620003e6576200006e91860162000411565b92858501519060ff82168203620003e65760608601516001600160a01b0381169690879003620003e65760800151928151818111620003d0576000968754916001948584811c94168015620003c5575b89851014620003b1578190601f948581116200035e575b508990858311600114620002fa578b92620002ee575b5050600019600383901b1c191690851b1788555b8051928311620002da5783548481811c91168015620002cf575b88821014620002bb579081838594931162000266575b508791831160011462000202578892620001f6575b5050600019600383901b1c191690821b1790555b6080528315620001cc579081620001937fddf252ad1be2c89b69c2b068fc378daa952ba7f163c4a11628f55a4df523b3ef9360025462000483565b60025584845260038252858420620001ad82825462000483565b90558551908152a3516106bb9081620004a882396080518161034d0152f35b845162461bcd60e51b815260048082018490526024820152630746f3d360e41b6044820152606490fd5b01519050388062000144565b8489528789208594509190601f1984168a5b8a8282106200024f575050841162000235575b505050811b01905562000158565b015160001960f88460031b161c1916905538808062000227565b838501518655889790950194938401930162000214565b909192508489528789208380860160051c8201928a8710620002b1575b91869588929594930160051c01915b828110620002a25750506200012f565b8b815586955087910162000292565b9250819262000283565b634e487b7160e01b89526022600452602489fd5b90607f169062000119565b634e487b7160e01b88526041600452602488fd5b015190503880620000eb565b8b80528a8c208894509190601f1984168d5b8d8282106200034757505084116200032d575b505050811b018855620000ff565b015160001960f88460031b161c191690553880806200031f565b8385015186558b979095019493840193016200030c565b9091508a8052898b208580850160051c8201928c8610620003a7575b918991869594930160051c01915b82811062000398575050620000d5565b8d815585945089910162000388565b925081926200037a565b634e487b7160e01b8a52602260045260248afd5b93607f1693620000be565b634e487b7160e01b600052604160045260246000fd5b600080fd5b6040519190601f01601f191682016001600160401b03811183821017620003d057604052565b919080601f84011215620003e65782516001600160401b038111620003d05760209062000447601f8201601f19168301620003eb565b92818452828287010111620003e65760005b8181106200046f57508260009394955001015290565b858101830151848201840152820162000459565b919082018092116200049157565b634e487b7160e01b600052601160045260246000fdfe6080604081815260048036101561001557600080fd5b600092833560e01c90816306fdde03146103fe57508063095ea7b31461039057806318160ddd14610371578063313ce5671461033357806370a08231146102fb578063929c25391461022e57806395777d59146101d857806395d89b41146100d15763dd62ed3e1461008657600080fd5b346100cd57816003193601126100cd5760209282916100a361051c565b6100ab610537565b6001600160a01b03918216845291865283832091168252845220549051908152f35b8280fd5b509190346101d457816003193601126101d45780519082600180549081811c908083169283156101ca575b60209384841081146101b75783885290811561019b5750600114610163575b505050829003601f01601f19168201926001600160401b03841183851017610150575082918261014c9252826104d3565b0390f35b634e487b7160e01b815260418552602490fd5b809293508652828620918387935b838510610187575050505083010138808061011b565b805488860183015293019284908201610171565b60ff1916878501525050151560051b840101905038808061011b565b634e487b7160e01b895260228a52602489fd5b91607f16916100fc565b5080fd5b5050346101d45760603660031901126101d4576101f361051c565b60008051602061066683398151915260243591610211838233610570565b835192835260443560208401526001600160a01b0316923392a380f35b5090346100cd5760803660031901126100cd5761024961051c565b90610252610537565b926044359360018060a01b039182851694858852602091808352858920338a528352858920548881106102cc578460008051602061066683398151915297969594938b6102ba948b6102a58e809761054d565b92528652888d20338e528652888d2055610570565b8351968752606435908701521693a380f35b865162461bcd60e51b81528083018590526009602482015268616c6c6f77616e636560b81b6044820152606490fd5b5050346101d45760203660031901126101d45760209181906001600160a01b0361032361051c565b1681526003845220549051908152f35b5050346101d457816003193601126101d4576020905160ff7f0000000000000000000000000000000000000000000000000000000000000000168152f35b5050346101d457816003193601126101d4576020906002549051908152f35b50346100cd57816003193601126100cd576020926103ac61051c565b918360243592839233825287528181209460018060a01b0316948582528752205582519081527f8c5be1e5ebec7d5bd14f71427d1e84f3dd0314c0f7b2291e5b200ac8c7c3b925843392a35160018152f35b84915083346100cd57826003193601126100cd57828354600181811c908083169283156104c9575b60209384841081146101b7578388529081156104ad575060011461047557505050829003601f01601f19168201926001600160401b03841183851017610150575082918261014c9252826104d3565b919250858052828620918387935b838510610499575050505083010185808061011b565b805488860183015293019284908201610483565b60ff1916878501525050151560051b840101905085808061011b565b91607f1691610426565b6020808252825181830181905290939260005b82811061050857505060409293506000838284010152601f8019910116010190565b8181018601518482016040015285016104e6565b600435906001600160a01b038216820361053257565b600080fd5b602435906001600160a01b038216820361053257565b9190820391821161055a57565b634e487b7160e01b600052601160045260246000fd5b6001600160a01b03918216929190831561063a57169060008281526003602052604081205482811061060b57826105a69161054d565b83825260036020526040822055838152604081208054918383018093116105f75750556040519081527fddf252ad1be2c89b69c2b068fc378daa952ba7f163c4a11628f55a4df523b3ef90602090a3565b634e487b7160e01b81526011600452602490fd5b60405162461bcd60e51b815260206004820152600760248201526662616c616e636560c81b6044820152606490fd5b606460405162461bcd60e51b81526020600482015260046024820152630746f3d360e41b6044820152fdfe57bc7354aa85aed339e000bccffabbc529466af35f0772c8f8ee1145927de7f0a2646970667358221220b35ecb3ac1e46387fe820e912e597cae0fe8f0588da42338707a6c54ad0bd10364736f6c63430008140033","opcodes":"PUSH1 0x40 PUSH1 0xA0 DUP2 MSTORE CALLVALUE PUSH3 0x3E6 JUMPI PUSH3 0xB63 DUP1 CODESIZE SUB DUP1 PUSH3 0x1E DUP2 PUSH3 0x3EB JUMP JUMPDEST SWAP3 DUP4 CODECOPY DUP2 ADD PUSH1 0xA0 DUP3 DUP3 SUB SLT PUSH3 0x3E6 JUMPI DUP2 MLOAD PUSH1 0x1 PUSH1 0x1 PUSH1 0x40 SHL SUB SWAP2 SWAP1 DUP3 DUP2 GT PUSH3 0x3E6 JUMPI DUP2 PUSH3 0x50 SWAP2 DUP6 ADD PUSH3 0x411 JUMP JUMPDEST SWAP2 PUSH1 0x20 SWAP2 DUP3 DUP6 ADD MLOAD SWAP1 DUP3 DUP3 GT PUSH3 0x3E6 JUMPI PUSH3 0x6E SWAP2 DUP7 ADD PUSH3 0x411 JUMP JUMPDEST SWAP3 DUP6 DUP6 ADD MLOAD SWAP1 PUSH1 0xFF DUP3 AND DUP3 SUB PUSH3 0x3E6 JUMPI PUSH1 0x60 DUP7 ADD MLOAD PUSH1 0x1 PUSH1 0x1 PUSH1 0xA0 SHL SUB DUP2 AND SWAP7 SWAP1 DUP8 SWAP1 SUB PUSH3 0x3E6 JUMPI PUSH1 0x80 ADD MLOAD SWAP3 DUP2 MLOAD DUP2 DUP2 GT PUSH3 0x3D0 JUMPI PUSH1 0x0 SWAP7 DUP8 SLOAD SWAP2 PUSH1 0x1 SWAP5 DUP6 DUP5 DUP2 SHR SWAP5 AND DUP1 ISZERO PUSH3 0x3C5 JUMPI JUMPDEST DUP10 DUP6 LT EQ PUSH3 0x3B1 JUMPI DUP2 SWAP1 PUSH1 0x1F SWAP5 DUP6 DUP2 GT PUSH3 0x35E JUMPI JUMPDEST POP DUP10 SWAP1 DUP6 DUP4 GT PUSH1 0x1 EQ PUSH3 0x2FA JUMPI DUP12 SWAP3 PUSH3 0x2EE JUMPI JUMPDEST POP POP PUSH1 0x0 NOT PUSH1 0x3 DUP4 SWAP1 SHL SHR NOT AND SWAP1 DUP6 SHL OR DUP9 SSTORE JUMPDEST DUP1 MLOAD SWAP3 DUP4 GT PUSH3 0x2DA JUMPI DUP4 SLOAD DUP5 DUP2 DUP2 SHR SWAP2 AND DUP1 ISZERO PUSH3 0x2CF JUMPI JUMPDEST DUP9 DUP3 LT EQ PUSH3 0x2BB JUMPI SWAP1 DUP2 DUP4 DUP6 SWAP5 SWAP4 GT PUSH3 0x266 JUMPI JUMPDEST POP DUP8 SWAP2 DUP4 GT PUSH1 0x1 EQ PUSH3 0x202 JUMPI DUP9 SWAP3 PUSH3 0x1F6 JUMPI JUMPDEST POP POP PUSH1 0x0 NOT PUSH1 0x3 DUP4 SWAP1 SHL SHR NOT AND SWAP1 DUP3 SHL OR SWAP1 SSTORE JUMPDEST PUSH1 0x80 MSTORE DUP4 ISZERO PUSH3 0x1CC JUMPI SWAP1 DUP2 PUSH3 0x193 PUSH32 0xDDF252AD1BE2C89B69C2B068FC378DAA952BA7F163C4A11628F55A4DF523B3EF SWAP4 PUSH1 0x2 SLOAD PUSH3 0x483 JUMP JUMPDEST PUSH1 0x2 SSTORE DUP5 DUP5 MSTORE PUSH1 0x3 DUP3 MSTORE DUP6 DUP5 KECCAK256 PUSH3 0x1AD DUP3 DUP3 SLOAD PUSH3 0x483 JUMP JUMPDEST SWAP1 SSTORE DUP6 MLOAD SWAP1 DUP2 MSTORE LOG3 MLOAD PUSH2 0x6BB SWAP1 DUP2 PUSH3 0x4A8 DUP3 CODECOPY PUSH1 0x80 MLOAD DUP2 PUSH2 0x34D ADD MSTORE RETURN JUMPDEST DUP5 MLOAD PUSH3 0x461BCD PUSH1 0xE5 SHL DUP2 MSTORE PUSH1 0x4 DUP1 DUP3 ADD DUP5 SWAP1 MSTORE PUSH1 0x24 DUP3 ADD MSTORE PUSH4 0x746F3D3 PUSH1 0xE4 SHL PUSH1 0x44 DUP3 ADD MSTORE PUSH1 0x64 SWAP1 REVERT JUMPDEST ADD MLOAD SWAP1 POP CODESIZE DUP1 PUSH3 0x144 JUMP JUMPDEST DUP5 DUP10 MSTORE DUP8 DUP10 KECCAK256 DUP6 SWAP5 POP SWAP2 SWAP1 PUSH1 0x1F NOT DUP5 AND DUP11 JUMPDEST DUP11 DUP3 DUP3 LT PUSH3 0x24F JUMPI POP POP DUP5 GT PUSH3 0x235 JUMPI JUMPDEST POP POP POP DUP2 SHL ADD SWAP1 SSTORE PUSH3 0x158 JUMP JUMPDEST ADD MLOAD PUSH1 0x0 NOT PUSH1 0xF8 DUP5 PUSH1 0x3 SHL AND SHR NOT AND SWAP1 SSTORE CODESIZE DUP1 DUP1 PUSH3 0x227 JUMP JUMPDEST DUP4 DUP6 ADD MLOAD DUP7 SSTORE DUP9 SWAP8 SWAP1 SWAP6 ADD SWAP5 SWAP4 DUP5 ADD SWAP4 ADD PUSH3 0x214 JUMP JUMPDEST SWAP1 SWAP2 SWAP3 POP DUP5 DUP10 MSTORE DUP8 DUP10 KECCAK256 DUP4 DUP1 DUP7 ADD PUSH1 0x5 SHR DUP3 ADD SWAP3 DUP11 DUP8 LT PUSH3 0x2B1 JUMPI JUMPDEST SWAP2 DUP7 SWAP6 DUP9 SWAP3 SWAP6 SWAP5 SWAP4 ADD PUSH1 0x5 SHR ADD SWAP2 JUMPDEST DUP3 DUP2 LT PUSH3 0x2A2 JUMPI POP POP PUSH3 0x12F JUMP JUMPDEST DUP12 DUP2 SSTORE DUP7 SWAP6 POP DUP8 SWAP2 ADD PUSH3 0x292 JUMP JUMPDEST SWAP3 POP DUP2 SWAP3 PUSH3 0x283 JUMP JUMPDEST PUSH4 0x4E487B71 PUSH1 0xE0 SHL DUP10 MSTORE PUSH1 0x22 PUSH1 0x4 MSTORE PUSH1 0x24 DUP10 REVERT JUMPDEST SWAP1 PUSH1 0x7F AND SWAP1 PUSH3 0x119 JUMP JUMPDEST PUSH4 0x4E487B71 PUSH1 0xE0 SHL DUP9 MSTORE PUSH1 0x41 PUSH1 0x4 MSTORE PUSH1 0x24 DUP9 REVERT JUMPDEST ADD MLOAD SWAP1 POP CODESIZE DUP1 PUSH3 0xEB JUMP JUMPDEST DUP12 DUP1 MSTORE DUP11 DUP13 KECCAK256 DUP9 SWAP5 POP SWAP2 SWAP1 PUSH1 0x1F NOT DUP5 AND DUP14 JUMPDEST DUP14 DUP3 DUP3 LT PUSH3 0x347 JUMPI POP POP DUP5 GT PUSH3 0x32D JUMPI JUMPDEST POP POP POP DUP2 SHL ADD DUP9 SSTORE PUSH3 0xFF JUMP JUMPDEST ADD MLOAD PUSH1 0x0 NOT PUSH1 0xF8 DUP5 PUSH1 0x3 SHL AND SHR NOT AND SWAP1 SSTORE CODESIZE DUP1 DUP1 PUSH3 0x31F JUMP JUMPDEST DUP4 DUP6 ADD MLOAD DUP7 SSTORE DUP12 SWAP8 SWAP1 SWAP6 ADD SWAP5 SWAP4 DUP5 ADD SWAP4 ADD PUSH3 0x30C JUMP JUMPDEST SWAP1 SWAP2 POP DUP11 DUP1 MSTORE DUP10 DUP12 KECCAK256 DUP6 DUP1 DUP6 ADD PUSH1 0x5 SHR DUP3 ADD SWAP3 DUP13 DUP7 LT PUSH3 0x3A7 JUMPI JUMPDEST SWAP2 DUP10 SWAP2 DUP7 SWAP6 SWAP5 SWAP4 ADD PUSH1 0x5 SHR ADD SWAP2 JUMPDEST DUP3 DUP2 LT PUSH3 0x398 JUMPI POP POP PUSH3 0xD5 JUMP JUMPDEST DUP14 DUP2 SSTORE DUP6 SWAP5 POP DUP10 SWAP2 ADD PUSH3 0x388 JUMP JUMPDEST SWAP3 POP DUP2 SWAP3 PUSH3 0x37A JUMP JUMPDEST PUSH4 0x4E487B71 PUSH1 0xE0 SHL DUP11 MSTORE PUSH1 0x22 PUSH1 0x4 MSTORE PUSH1 0x24 DUP11 REVERT JUMPDEST SWAP4 PUSH1 0x7F AND SWAP4 PUSH3 0xBE JUMP JUMPDEST PUSH4 0x4E487B71 PUSH1 0xE0 SHL PUSH1 0x0 MSTORE PUSH1 0x41 PUSH1 0x4 MSTORE PUSH1 0x24 PUSH1 0x0 REVERT JUMPDEST PUSH1 0x0 DUP1 REVERT JUMPDEST PUSH1 0x40 MLOAD SWAP2 SWAP1 PUSH1 0x1F ADD PUSH1 0x1F NOT AND DUP3 ADD PUSH1 0x1 PUSH1 0x1 PUSH1 0x40 SHL SUB DUP2 GT DUP4 DUP3 LT OR PUSH3 0x3D0 JUMPI PUSH1 0x40 MSTORE JUMP JUMPDEST SWAP2 SWAP1 DUP1 PUSH1 0x1F DUP5 ADD SLT ISZERO PUSH3 0x3E6 JUMPI DUP3 MLOAD PUSH1 0x1 PUSH1 0x1 PUSH1 0x40 SHL SUB DUP2 GT PUSH3 0x3D0 JUMPI PUSH1 0x20 SWAP1 PUSH3 0x447 PUSH1 0x1F DUP3 ADD PUSH1 0x1F NOT AND DUP4 ADD PUSH3 0x3EB JUMP JUMPDEST SWAP3 DUP2 DUP5 MSTORE DUP3 DUP3 DUP8 ADD ADD GT PUSH3 0x3E6 JUMPI PUSH1 0x0 JUMPDEST DUP2 DUP2 LT PUSH3 0x46F JUMPI POP DUP3 PUSH1 0x0 SWAP4 SWAP5 SWAP6 POP ADD ADD MSTORE SWAP1 JUMP JUMPDEST DUP6 DUP2 ADD DUP4 ADD MLOAD DUP5 DUP3 ADD DUP5 ADD MSTORE DUP3 ADD PUSH3 0x459 JUMP JUMPDEST SWAP2 SWAP1 DUP3 ADD DUP1 SWAP3 GT PUSH3 0x491 JUMPI JUMP JUMPDEST PUSH4 0x4E487B71 PUSH1 0xE0 SHL PUSH1 0x0 MSTORE PUSH1 0x11 PUSH1 0x4 MSTORE PUSH1 0x24 PUSH1 0x0 REVERT INVALID PUSH1 0x80 PUSH1 0x40 DUP2 DUP2 MSTORE PUSH1 0x4 DUP1 CALLDATASIZE LT ISZERO PUSH2 0x15 JUMPI PUSH1 0x0 DUP1 REVERT JUMPDEST PUSH1 0x0 SWAP3 DUP4 CALLDATALOAD PUSH1 0xE0 SHR SWAP1 DUP2 PUSH4 0x6FDDE03 EQ PUSH2 0x3FE JUMPI POP DUP1 PUSH4 0x95EA7B3 EQ PUSH2 0x390 JUMPI DUP1 PUSH4 0x18160DDD EQ PUSH2 0x371 JUMPI DUP1 PUSH4 0x313CE567 EQ PUSH2 0x333 JUMPI DUP1 PUSH4 0x70A08231 EQ PUSH2 0x2FB JUMPI DUP1 PUSH4 0x929C2539 EQ PUSH2 0x22E JUMPI DUP1 PUSH4 0x95777D59 EQ PUSH2 0x1D8 JUMPI DUP1 PUSH4 0x95D89B41 EQ PUSH2 0xD1 JUMPI PUSH4 0xDD62ED3E EQ PUSH2 0x86 JUMPI PUSH1 0x0 DUP1 REVERT JUMPDEST CALLVALUE PUSH2 0xCD JUMPI DUP2 PUSH1 0x3 NOT CALLDATASIZE ADD SLT PUSH2 0xCD JUMPI PUSH1 0x20 SWAP3 DUP3 SWAP2 PUSH2 0xA3 PUSH2 0x51C JUMP JUMPDEST PUSH2 0xAB PUSH2 0x537 JUMP JUMPDEST PUSH1 0x1 PUSH1 0x1 PUSH1 0xA0 SHL SUB SWAP2 DUP3 AND DUP5 MSTORE SWAP2 DUP7 MSTORE DUP4 DUP4 KECCAK256 SWAP2 AND DUP3 MSTORE DUP5 MSTORE KECCAK256 SLOAD SWAP1 MLOAD SWAP1 DUP2 MSTORE RETURN JUMPDEST DUP3 DUP1 REVERT JUMPDEST POP SWAP2 SWAP1 CALLVALUE PUSH2 0x1D4 JUMPI DUP2 PUSH1 0x3 NOT CALLDATASIZE ADD SLT PUSH2 0x1D4 JUMPI DUP1 MLOAD SWAP1 DUP3 PUSH1 0x1 DUP1 SLOAD SWAP1 DUP2 DUP2 SHR SWAP1 DUP1 DUP4 AND SWAP3 DUP4 ISZERO PUSH2 0x1CA JUMPI JUMPDEST PUSH1 0x20 SWAP4 DUP5 DUP5 LT DUP2 EQ PUSH2 0x1B7 JUMPI DUP4 DUP9 MSTORE SWAP1 DUP2 ISZERO PUSH2 0x19B JUMPI POP PUSH1 0x1 EQ PUSH2 0x163 JUMPI JUMPDEST POP POP POP DUP3 SWAP1 SUB PUSH1 0x1F ADD PUSH1 0x1F NOT AND DUP3 ADD SWAP3 PUSH1 0x1 PUSH1 0x1 PUSH1 0x40 SHL SUB DUP5 GT DUP4 DUP6 LT OR PUSH2 0x150 JUMPI POP DUP3 SWAP2 DUP3 PUSH2 0x14C SWAP3 MSTORE DUP3 PUSH2 0x4D3 JUMP JUMPDEST SUB SWAP1 RETURN JUMPDEST PUSH4 0x4E487B71 PUSH1 0xE0 SHL DUP2 MSTORE PUSH1 0x41 DUP6 MSTORE PUSH1 0x24 SWAP1 REVERT JUMPDEST DUP1 SWAP3 SWAP4 POP DUP7 MSTORE DUP3 DUP7 KECCAK256 SWAP2 DUP4 DUP8 SWAP4 JUMPDEST DUP4 DUP6 LT PUSH2 0x187 JUMPI POP POP POP POP DUP4 ADD ADD CODESIZE DUP1 DUP1 PUSH2 0x11B JUMP JUMPDEST DUP1 SLOAD DUP9 DUP7 ADD DUP4 ADD MSTORE SWAP4 ADD SWAP3 DUP5 SWAP1 DUP3 ADD PUSH2 0x171 JUMP JUMPDEST PUSH1 0xFF NOT AND DUP8 DUP6 ADD MSTORE POP POP ISZERO ISZERO PUSH1 0x5 SHL DUP5 ADD ADD SWAP1 POP CODESIZE DUP1 DUP1 PUSH2 0x11B JUMP JUMPDEST PUSH4 0x4E487B71 PUSH1 0xE0 SHL DUP10 MSTORE PUSH1 0x22 DUP11 MSTORE PUSH1 0x24 DUP10 REVERT JUMPDEST SWAP2 PUSH1 0x7F AND SWAP2 PUSH2 0xFC JUMP JUMPDEST POP DUP1 REVERT JUMPDEST POP POP CALLVALUE PUSH2 0x1D4 JUMPI PUSH1 0x60 CALLDATASIZE PUSH1 0x3 NOT ADD SLT PUSH2 0x1D4 JUMPI PUSH2 0x1F3 PUSH2 0x51C JUMP JUMPDEST PUSH1 0x0 DUP1 MLOAD PUSH1 0x20 PUSH2 0x666 DUP4 CODECOPY DUP2 MLOAD SWAP2 MSTORE PUSH1 0x24 CALLDATALOAD SWAP2 PUSH2 0x211 DUP4 DUP3 CALLER PUSH2 0x570 JUMP JUMPDEST DUP4 MLOAD SWAP3 DUP4 MSTORE PUSH1 0x44 CALLDATALOAD PUSH1 0x20 DUP5 ADD MSTORE PUSH1 0x1 PUSH1 0x1 PUSH1 0xA0 SHL SUB AND SWAP3 CALLER SWAP3 LOG3 DUP1 RETURN JUMPDEST POP SWAP1 CALLVALUE PUSH2 0xCD JUMPI PUSH1 0x80 CALLDATASIZE PUSH1 0x3 NOT ADD SLT PUSH2 0xCD JUMPI PUSH2 0x249 PUSH2 0x51C JUMP JUMPDEST SWAP1 PUSH2 0x252 PUSH2 0x537 JUMP JUMPDEST SWAP3 PUSH1 0x44 CALLDATALOAD SWAP4 PUSH1 0x1 DUP1 PUSH1 0xA0 SHL SUB SWAP2 DUP3 DUP6 AND SWAP5 DUP6 DUP9 MSTORE PUSH1 0x20 SWAP2 DUP1 DUP4 MSTORE DUP6 DUP10 KECCAK256 CALLER DUP11 MSTORE DUP4 MSTORE DUP6 DUP10 KECCAK256 SLOAD DUP9 DUP2 LT PUSH2 0x2CC JUMPI DUP5 PUSH1 0x0 DUP1 MLOAD PUSH1 0x20 PUSH2 0x666 DUP4 CODECOPY DUP2 MLOAD SWAP2 MSTORE SWAP8 SWAP7 SWAP6 SWAP5 SWAP4 DUP12 PUSH2 0x2BA SWAP5 DUP12 PUSH2 0x2A5 DUP15 DUP1 SWAP8 PUSH2 0x54D JUMP JUMPDEST SWAP3 MSTORE DUP7 MSTORE DUP9 DUP14 KECCAK256 CALLER DUP15 MSTORE DUP7 MSTORE DUP9 DUP14 KECCAK256 SSTORE PUSH2 0x570 JUMP JUMPDEST DUP4 MLOAD SWAP7 DUP8 MSTORE PUSH1 0x64 CALLDATALOAD SWAP1 DUP8 ADD MSTORE AND SWAP4 LOG3 DUP1 RETURN JUMPDEST DUP7 MLOAD PUSH3 0x461BCD PUSH1 0xE5 SHL DUP2 MSTORE DUP1 DUP4 ADD DUP6 SWAP1 MSTORE PUSH1 0x9 PUSH1 0x24 DUP3 ADD MSTORE PUSH9 0x616C6C6F77616E6365 PUSH1 0xB8 SHL PUSH1 0x44 DUP3 ADD MSTORE PUSH1 0x64 SWAP1 REVERT JUMPDEST POP POP CALLVALUE PUSH2 0x1D4 JUMPI PUSH1 0x20 CALLDATASIZE PUSH1 0x3 NOT ADD SLT PUSH2 0x1D4 JUMPI PUSH1 0x20 SWAP2 DUP2 SWAP1 PUSH1 0x1 PUSH1 0x1 PUSH1 0xA0 SHL SUB PUSH2 0x323 PUSH2 0x51C JUMP JUMPDEST AND DUP2 MSTORE PUSH1 0x3 DUP5 MSTORE KECCAK256 SLOAD SWAP1 MLOAD SWAP1 DUP2 MSTORE RETURN JUMPDEST POP POP CALLVALUE PUSH2 0x1D4 JUMPI DUP2 PUSH1 0x3 NOT CALLDATASIZE ADD SLT PUSH2 0x1D4 JUMPI PUSH1 0x20 SWAP1 MLOAD PUSH1 0xFF PUSH32 0x0 AND DUP2 MSTORE RETURN JUMPDEST POP POP CALLVALUE PUSH2 0x1D4 JUMPI DUP2 PUSH1 0x3 NOT CALLDATASIZE ADD SLT PUSH2 0x1D4 JUMPI PUSH1 0x20 SWAP1 PUSH1 0x2 SLOAD SWAP1 MLOAD SWAP1 DUP2 MSTORE RETURN JUMPDEST POP CALLVALUE PUSH2 0xCD JUMPI DUP2 PUSH1 0x3 NOT CALLDATASIZE ADD SLT PUSH2 0xCD JUMPI PUSH1 0x20 SWAP3 PUSH2 0x3AC PUSH2 0x51C JUMP JUMPDEST SWAP2 DUP4 PUSH1 0x24 CALLDATALOAD SWAP3 DUP4 SWAP3 CALLER DUP3 MSTORE DUP8 MSTORE DUP2 DUP2 KECCAK256 SWAP5 PUSH1 0x1 DUP1 PUSH1 0xA0 SHL SUB AND SWAP5 DUP6 DUP3 MSTORE DUP8 MSTORE KECCAK256 SSTORE DUP3 MLOAD SWAP1 DUP2 MSTORE PUSH32 0x8C5BE1E5EBEC7D5BD14F71427D1E84F3DD0314C0F7B2291E5B200AC8C7C3B925 DUP5 CALLER SWAP3 LOG3 MLOAD PUSH1 0x1 DUP2 MSTORE RETURN JUMPDEST DUP5 SWAP2 POP DUP4 CALLVALUE PUSH2 0xCD JUMPI DUP3 PUSH1 0x3 NOT CALLDATASIZE ADD SLT PUSH2 0xCD JUMPI DUP3 DUP4 SLOAD PUSH1 0x1 DUP2 DUP2 SHR SWAP1 DUP1 DUP4 AND SWAP3 DUP4 ISZERO PUSH2 0x4C9 JUMPI JUMPDEST PUSH1 0x20 SWAP4 DUP5 DUP5 LT DUP2 EQ PUSH2 0x1B7 JUMPI DUP4 DUP9 MSTORE SWAP1 DUP2 ISZERO PUSH2 0x4AD JUMPI POP PUSH1 0x1 EQ PUSH2 0x475 JUMPI POP POP POP DUP3 SWAP1 SUB PUSH1 0x1F ADD PUSH1 0x1F NOT AND DUP3 ADD SWAP3 PUSH1 0x1 PUSH1 0x1 PUSH1 0x40 SHL SUB DUP5 GT DUP4 DUP6 LT OR PUSH2 0x150 JUMPI POP DUP3 SWAP2 DUP3 PUSH2 0x14C SWAP3 MSTORE DUP3 PUSH2 0x4D3 JUMP JUMPDEST SWAP2 SWAP3 POP DUP6 DUP1 MSTORE DUP3 DUP7 KECCAK256 SWAP2 DUP4 DUP8 SWAP4 JUMPDEST DUP4 DUP6 LT PUSH2 0x499 JUMPI POP POP POP POP DUP4 ADD ADD DUP6 DUP1 DUP1 PUSH2 0x11B JUMP JUMPDEST DUP1 SLOAD DUP9 DUP7 ADD DUP4 ADD MSTORE SWAP4 ADD SWAP3 DUP5 SWAP1 DUP3 ADD PUSH2 0x483 JUMP JUMPDEST PUSH1 0xFF NOT AND DUP8 DUP6 ADD MSTORE POP POP ISZERO ISZERO PUSH1 0x5 SHL DUP5 ADD ADD SWAP1 POP DUP6 DUP1 DUP1 PUSH2 0x11B JUMP JUMPDEST SWAP2 PUSH1 0x7F AND SWAP2 PUSH2 0x426 JUMP JUMPDEST PUSH1 0x20 DUP1 DUP3 MSTORE DUP3 MLOAD DUP2 DUP4 ADD DUP2 SWAP1 MSTORE SWAP1 SWAP4 SWAP3 PUSH1 0x0 JUMPDEST DUP3 DUP2 LT PUSH2 0x508 JUMPI POP POP PUSH1 0x40 SWAP3 SWAP4 POP PUSH1 0x0 DUP4 DUP3 DUP5 ADD ADD MSTORE PUSH1 0x1F DUP1 NOT SWAP2 ADD AND ADD ADD SWAP1 JUMP JUMPDEST DUP2 DUP2 ADD DUP7 ADD MLOAD DUP5 DUP3 ADD PUSH1 0x40 ADD MSTORE DUP6 ADD PUSH2 0x4E6 JUMP JUMPDEST PUSH1 0x4 CALLDATALOAD SWAP1 PUSH1 0x1 PUSH1 0x1 PUSH1 0xA0 SHL SUB DUP3 AND DUP3 SUB PUSH2 0x532 JUMPI JUMP JUMPDEST PUSH1 0x0 DUP1 REVERT JUMPDEST PUSH1 0x24 CALLDATALOAD SWAP1 PUSH1 0x1 PUSH1 0x1 PUSH1 0xA0 SHL SUB DUP3 AND DUP3 SUB PUSH2 0x532 JUMPI JUMP JUMPDEST SWAP2 SWAP1 DUP3 SUB SWAP2 DUP3 GT PUSH2 0x55A JUMPI JUMP JUMPDEST PUSH4 0x4E487B71 PUSH1 0xE0 SHL PUSH1 0x0 MSTORE PUSH1 0x11 PUSH1 0x4 MSTORE PUSH1 0x24 PUSH1 0x0 REVERT JUMPDEST PUSH1 0x1 PUSH1 0x1 PUSH1 0xA0 SHL SUB SWAP2 DUP3 AND SWAP3 SWAP2 SWAP1 DUP4 ISZERO PUSH2 0x63A JUMPI AND SWAP1 PUSH1 0x0 DUP3 DUP2 MSTORE PUSH1 0x3 PUSH1 0x20 MSTORE PUSH1 0x40 DUP2 KECCAK256 SLOAD DUP3 DUP2 LT PUSH2 0x60B JUMPI DUP3 PUSH2 0x5A6 SWAP2 PUSH2 0x54D JUMP JUMPDEST DUP4 DUP3 MSTORE PUSH1 0x3 PUSH1 0x20 MSTORE PUSH1 0x40 DUP3 KECCAK256 SSTORE DUP4 DUP2 MSTORE PUSH1 0x40 DUP2 KECCAK256 DUP1 SLOAD SWAP2 DUP4 DUP4 ADD DUP1 SWAP4 GT PUSH2 0x5F7 JUMPI POP SSTORE PUSH1 0x40 MLOAD SWAP1 DUP2 MSTORE PUSH32 0xDDF252AD1BE2C89B69C2B068FC378DAA952BA7F163C4A11628F55A4DF523B3EF SWAP1 PUSH1 0x20 SWAP1 LOG3 JUMP JUMPDEST PUSH4 0x4E487B71 PUSH1 0xE0 SHL DUP2 MSTORE PUSH1 0x11 PUSH1 0x4 MSTORE PUSH1 0x24 SWAP1 REVERT JUMPDEST PUSH1 0x40 MLOAD PUSH3 0x461BCD PUSH1 0xE5 SHL DUP2 MSTORE PUSH1 0x20 PUSH1 0x4 DUP3 ADD MSTORE PUSH1 0x7 PUSH1 0x24 DUP3 ADD MSTORE PUSH7 0x62616C616E6365 PUSH1 0xC8 SHL PUSH1 0x44 DUP3 ADD MSTORE PUSH1 0x64 SWAP1 REVERT JUMPDEST PUSH1 0x64 PUSH1 0x40 MLOAD PUSH3 0x461BCD PUSH1 0xE5 SHL DUP2 MSTORE PUSH1 0x20 PUSH1 0x4 DUP3 ADD MSTORE PUSH1 0x4 PUSH1 0x24 DUP3 ADD MSTORE PUSH4 0x746F3D3 PUSH1 0xE4 SHL PUSH1 0x44 DUP3 ADD MSTORE REVERT INVALID JUMPI 0xBC PUSH20 0x54AA85AED339E000BCCFFABBC529466AF35F0772 0xC8 0xF8 0xEE GT GASLIMIT SWAP3 PUSH30 0xE7F0A2646970667358221220B35ECB3AC1E46387FE820E912E597CAE0FE8 CREATE PC DUP14 LOG4 0x23 CODESIZE PUSH17 0x7A6C54AD0BD10364736F6C634300081400 CALLER "},"methodIdentifiers":{"allowance(address,address)":"dd62ed3e","approve(address,uint256)":"095ea7b3","balanceOf(address)":"70a08231","decimals()":"313ce567","name()":"06fdde03","symbol()":"95d89b41","totalSupply()":"18160ddd","transferFromWithMemo(address,address,uint256,bytes32)":"929c2539","transferWithMemo(address,uint256,bytes32)":"95777d59"}}}}}