{"contracts_tempo/GiftCard.sol":{"GiftCard":{"abi":[{"inputs":[{"internalType":"address","name":"_pathUSDAddress","type":"address"},{"internalType":"address","name":"_alphaUSDAddress","type":"address"},{"internalType":"address","name":"_betaUSDAddress","type":"address"},{"internalType":"address","name":"_thetaUSDAddress","type":"address"}],"stateMutability":"nonpayable","type":"constructor"},{"inputs":[],"name":"ERC721EnumerableForbiddenBatchMint","type":"error"},{"inputs":[{"internalType":"address","name":"sender","type":"address"},{"internalType":"uint256","name":"tokenId","type":"uint256"},{"internalType":"address","name":"owner","type":"address"}],"name":"ERC721IncorrectOwner","type":"error"},{"inputs":[{"internalType":"address","name":"operator","type":"address"},{"internalType":"uint256","name":"tokenId","type":"uint256"}],"name":"ERC721InsufficientApproval","type":"error"},{"inputs":[{"internalType":"address","name":"approver","type":"address"}],"name":"ERC721InvalidApprover","type":"error"},{"inputs":[{"internalType":"address","name":"operator","type":"address"}],"name":"ERC721InvalidOperator","type":"error"},{"inputs":[{"internalType":"address","name":"owner","type":"address"}],"name":"ERC721InvalidOwner","type":"error"},{"inputs":[{"internalType":"address","name":"receiver","type":"address"}],"name":"ERC721InvalidReceiver","type":"error"},{"inputs":[{"internalType":"address","name":"sender","type":"address"}],"name":"ERC721InvalidSender","type":"error"},{"inputs":[{"internalType":"uint256","name":"tokenId","type":"uint256"}],"name":"ERC721NonexistentToken","type":"error"},{"inputs":[{"internalType":"address","name":"owner","type":"address"},{"internalType":"uint256","name":"index","type":"uint256"}],"name":"ERC721OutOfBoundsIndex","type":"error"},{"inputs":[{"internalType":"address","name":"owner","type":"address"}],"name":"OwnableInvalidOwner","type":"error"},{"inputs":[{"internalType":"address","name":"account","type":"address"}],"name":"OwnableUnauthorizedAccount","type":"error"},{"inputs":[{"internalType":"address","name":"token","type":"address"}],"name":"SafeERC20FailedOperation","type":"error"},{"anonymous":false,"inputs":[{"indexed":true,"internalType":"address","name":"owner","type":"address"},{"indexed":true,"internalType":"address","name":"approved","type":"address"},{"indexed":true,"internalType":"uint256","name":"tokenId","type":"uint256"}],"name":"Approval","type":"event"},{"anonymous":false,"inputs":[{"indexed":true,"internalType":"address","name":"owner","type":"address"},{"indexed":true,"internalType":"address","name":"operator","type":"address"},{"indexed":false,"internalType":"bool","name":"approved","type":"bool"}],"name":"ApprovalForAll","type":"event"},{"anonymous":false,"inputs":[{"indexed":false,"internalType":"uint256","name":"tokenId","type":"uint256"},{"indexed":false,"internalType":"address","name":"recipient","type":"address"},{"indexed":false,"internalType":"address","name":"sender","type":"address"},{"indexed":false,"internalType":"uint256","name":"amount","type":"uint256"},{"indexed":false,"internalType":"address","name":"token","type":"address"},{"indexed":false,"internalType":"string","name":"uri","type":"string"},{"indexed":false,"internalType":"string","name":"message","type":"string"}],"name":"GiftCardCreated","type":"event"},{"anonymous":false,"inputs":[{"indexed":false,"internalType":"uint256","name":"tokenId","type":"uint256"},{"indexed":false,"internalType":"string","name":"username","type":"string"},{"indexed":false,"internalType":"address","name":"sender","type":"address"},{"indexed":false,"internalType":"uint256","name":"amount","type":"uint256"},{"indexed":false,"internalType":"address","name":"token","type":"address"},{"indexed":false,"internalType":"string","name":"uri","type":"string"},{"indexed":false,"internalType":"string","name":"message","type":"string"}],"name":"GiftCardCreatedForInstagram","type":"event"},{"anonymous":false,"inputs":[{"indexed":false,"internalType":"uint256","name":"tokenId","type":"uint256"},{"indexed":false,"internalType":"string","name":"username","type":"string"},{"indexed":false,"internalType":"address","name":"sender","type":"address"},{"indexed":false,"internalType":"uint256","name":"amount","type":"uint256"},{"indexed":false,"internalType":"address","name":"token","type":"address"},{"indexed":false,"internalType":"string","name":"uri","type":"string"},{"indexed":false,"internalType":"string","name":"message","type":"string"}],"name":"GiftCardCreatedForTelegram","type":"event"},{"anonymous":false,"inputs":[{"indexed":false,"internalType":"uint256","name":"tokenId","type":"uint256"},{"indexed":false,"internalType":"string","name":"username","type":"string"},{"indexed":false,"internalType":"address","name":"sender","type":"address"},{"indexed":false,"internalType":"uint256","name":"amount","type":"uint256"},{"indexed":false,"internalType":"address","name":"token","type":"address"},{"indexed":false,"internalType":"string","name":"uri","type":"string"},{"indexed":false,"internalType":"string","name":"message","type":"string"}],"name":"GiftCardCreatedForTikTok","type":"event"},{"anonymous":false,"inputs":[{"indexed":false,"internalType":"uint256","name":"tokenId","type":"uint256"},{"indexed":false,"internalType":"string","name":"username","type":"string"},{"indexed":false,"internalType":"address","name":"sender","type":"address"},{"indexed":false,"internalType":"uint256","name":"amount","type":"uint256"},{"indexed":false,"internalType":"address","name":"token","type":"address"},{"indexed":false,"internalType":"string","name":"uri","type":"string"},{"indexed":false,"internalType":"string","name":"message","type":"string"}],"name":"GiftCardCreatedForTwitch","type":"event"},{"anonymous":false,"inputs":[{"indexed":false,"internalType":"uint256","name":"tokenId","type":"uint256"},{"indexed":false,"internalType":"string","name":"username","type":"string"},{"indexed":false,"internalType":"address","name":"sender","type":"address"},{"indexed":false,"internalType":"uint256","name":"amount","type":"uint256"},{"indexed":false,"internalType":"address","name":"token","type":"address"},{"indexed":false,"internalType":"string","name":"uri","type":"string"},{"indexed":false,"internalType":"string","name":"message","type":"string"}],"name":"GiftCardCreatedForTwitter","type":"event"},{"anonymous":false,"inputs":[{"indexed":false,"internalType":"uint256","name":"tokenId","type":"uint256"},{"indexed":false,"internalType":"address","name":"redeemer","type":"address"},{"indexed":false,"internalType":"uint256","name":"amount","type":"uint256"},{"indexed":false,"internalType":"address","name":"token","type":"address"}],"name":"GiftCardRedeemed","type":"event"},{"anonymous":false,"inputs":[{"indexed":true,"internalType":"address","name":"previousOwner","type":"address"},{"indexed":true,"internalType":"address","name":"newOwner","type":"address"}],"name":"OwnershipTransferred","type":"event"},{"anonymous":false,"inputs":[{"indexed":true,"internalType":"address","name":"from","type":"address"},{"indexed":true,"internalType":"address","name":"to","type":"address"},{"indexed":true,"internalType":"uint256","name":"tokenId","type":"uint256"}],"name":"Transfer","type":"event"},{"inputs":[],"name":"alphaUSD","outputs":[{"internalType":"contract IERC20","name":"","type":"address"}],"stateMutability":"view","type":"function"},{"inputs":[{"internalType":"address","name":"to","type":"address"},{"internalType":"uint256","name":"tokenId","type":"uint256"}],"name":"approve","outputs":[],"stateMutability":"nonpayable","type":"function"},{"inputs":[{"internalType":"address","name":"owner","type":"address"}],"name":"balanceOf","outputs":[{"internalType":"uint256","name":"","type":"uint256"}],"stateMutability":"view","type":"function"},{"inputs":[],"name":"betaUSD","outputs":[{"internalType":"contract IERC20","name":"","type":"address"}],"stateMutability":"view","type":"function"},{"inputs":[{"internalType":"address","name":"_recipient","type":"address"},{"internalType":"uint256","name":"_amount","type":"uint256"},{"internalType":"address","name":"_token","type":"address"},{"internalType":"string","name":"_metadataURI","type":"string"},{"internalType":"string","name":"_message","type":"string"}],"name":"createGiftCard","outputs":[{"internalType":"uint256","name":"","type":"uint256"}],"stateMutability":"nonpayable","type":"function"},{"inputs":[{"internalType":"string","name":"_username","type":"string"},{"internalType":"uint256","name":"_amount","type":"uint256"},{"internalType":"address","name":"_token","type":"address"},{"internalType":"string","name":"_metadataURI","type":"string"},{"internalType":"string","name":"_message","type":"string"}],"name":"createGiftCardForInstagram","outputs":[{"internalType":"uint256","name":"","type":"uint256"}],"stateMutability":"nonpayable","type":"function"},{"inputs":[{"internalType":"string","name":"_username","type":"string"},{"internalType":"uint256","name":"_amount","type":"uint256"},{"internalType":"address","name":"_token","type":"address"},{"internalType":"string","name":"_metadataURI","type":"string"},{"internalType":"string","name":"_message","type":"string"}],"name":"createGiftCardForTelegram","outputs":[{"internalType":"uint256","name":"","type":"uint256"}],"stateMutability":"nonpayable","type":"function"},{"inputs":[{"internalType":"string","name":"_username","type":"string"},{"internalType":"uint256","name":"_amount","type":"uint256"},{"internalType":"address","name":"_token","type":"address"},{"internalType":"string","name":"_metadataURI","type":"string"},{"internalType":"string","name":"_message","type":"string"}],"name":"createGiftCardForTikTok","outputs":[{"internalType":"uint256","name":"","type":"uint256"}],"stateMutability":"nonpayable","type":"function"},{"inputs":[{"internalType":"string","name":"_username","type":"string"},{"internalType":"uint256","name":"_amount","type":"uint256"},{"internalType":"address","name":"_token","type":"address"},{"internalType":"string","name":"_metadataURI","type":"string"},{"internalType":"string","name":"_message","type":"string"}],"name":"createGiftCardForTwitch","outputs":[{"internalType":"uint256","name":"","type":"uint256"}],"stateMutability":"nonpayable","type":"function"},{"inputs":[{"internalType":"string","name":"_username","type":"string"},{"internalType":"uint256","name":"_amount","type":"uint256"},{"internalType":"address","name":"_token","type":"address"},{"internalType":"string","name":"_metadataURI","type":"string"},{"internalType":"string","name":"_message","type":"string"}],"name":"createGiftCardForTwitter","outputs":[{"internalType":"uint256","name":"","type":"uint256"}],"stateMutability":"nonpayable","type":"function"},{"inputs":[{"internalType":"uint256","name":"tokenId","type":"uint256"}],"name":"getApproved","outputs":[{"internalType":"address","name":"","type":"address"}],"stateMutability":"view","type":"function"},{"inputs":[{"internalType":"uint256","name":"tokenId","type":"uint256"}],"name":"getGiftCardInfo","outputs":[{"components":[{"internalType":"uint256","name":"amount","type":"uint256"},{"internalType":"address","name":"token","type":"address"},{"internalType":"bool","name":"redeemed","type":"bool"},{"internalType":"string","name":"message","type":"string"}],"internalType":"struct GiftCard.GiftCardInfo","name":"","type":"tuple"}],"stateMutability":"view","type":"function"},{"inputs":[{"internalType":"uint256","name":"","type":"uint256"}],"name":"giftCards","outputs":[{"internalType":"uint256","name":"amount","type":"uint256"},{"internalType":"address","name":"token","type":"address"},{"internalType":"bool","name":"redeemed","type":"bool"},{"internalType":"string","name":"message","type":"string"}],"stateMutability":"view","type":"function"},{"inputs":[],"name":"instagramVaultContract","outputs":[{"internalType":"contract InstagramCardVault","name":"","type":"address"}],"stateMutability":"view","type":"function"},{"inputs":[{"internalType":"address","name":"owner","type":"address"},{"internalType":"address","name":"operator","type":"address"}],"name":"isApprovedForAll","outputs":[{"internalType":"bool","name":"","type":"bool"}],"stateMutability":"view","type":"function"},{"inputs":[],"name":"name","outputs":[{"internalType":"string","name":"","type":"string"}],"stateMutability":"view","type":"function"},{"inputs":[],"name":"owner","outputs":[{"internalType":"address","name":"","type":"address"}],"stateMutability":"view","type":"function"},{"inputs":[{"internalType":"uint256","name":"tokenId","type":"uint256"}],"name":"ownerOf","outputs":[{"internalType":"address","name":"","type":"address"}],"stateMutability":"view","type":"function"},{"inputs":[],"name":"pathUSD","outputs":[{"internalType":"contract IERC20","name":"","type":"address"}],"stateMutability":"view","type":"function"},{"inputs":[{"internalType":"uint256","name":"tokenId","type":"uint256"}],"name":"redeemGiftCard","outputs":[],"stateMutability":"nonpayable","type":"function"},{"inputs":[],"name":"renounceOwnership","outputs":[],"stateMutability":"nonpayable","type":"function"},{"inputs":[{"internalType":"address","name":"from","type":"address"},{"internalType":"address","name":"to","type":"address"},{"internalType":"uint256","name":"tokenId","type":"uint256"}],"name":"safeTransferFrom","outputs":[],"stateMutability":"nonpayable","type":"function"},{"inputs":[{"internalType":"address","name":"from","type":"address"},{"internalType":"address","name":"to","type":"address"},{"internalType":"uint256","name":"tokenId","type":"uint256"},{"internalType":"bytes","name":"data","type":"bytes"}],"name":"safeTransferFrom","outputs":[],"stateMutability":"nonpayable","type":"function"},{"inputs":[{"internalType":"address","name":"operator","type":"address"},{"internalType":"bool","name":"approved","type":"bool"}],"name":"setApprovalForAll","outputs":[],"stateMutability":"nonpayable","type":"function"},{"inputs":[{"internalType":"address","name":"_vaultAddress","type":"address"}],"name":"setInstagramVaultContract","outputs":[],"stateMutability":"nonpayable","type":"function"},{"inputs":[{"internalType":"address","name":"_vaultAddress","type":"address"}],"name":"setTelegramVaultContract","outputs":[],"stateMutability":"nonpayable","type":"function"},{"inputs":[{"internalType":"address","name":"_vaultAddress","type":"address"}],"name":"setTikTokVaultContract","outputs":[],"stateMutability":"nonpayable","type":"function"},{"inputs":[{"internalType":"address","name":"_vaultAddress","type":"address"}],"name":"setTwitchVaultContract","outputs":[],"stateMutability":"nonpayable","type":"function"},{"inputs":[{"internalType":"address","name":"_vaultAddress","type":"address"}],"name":"setVaultContract","outputs":[],"stateMutability":"nonpayable","type":"function"},{"inputs":[{"internalType":"address","name":"","type":"address"}],"name":"supportedTokens","outputs":[{"internalType":"bool","name":"","type":"bool"}],"stateMutability":"view","type":"function"},{"inputs":[{"internalType":"bytes4","name":"interfaceId","type":"bytes4"}],"name":"supportsInterface","outputs":[{"internalType":"bool","name":"","type":"bool"}],"stateMutability":"view","type":"function"},{"inputs":[],"name":"symbol","outputs":[{"internalType":"string","name":"","type":"string"}],"stateMutability":"view","type":"function"},{"inputs":[],"name":"telegramVaultContract","outputs":[{"internalType":"contract TelegramCardVault","name":"","type":"address"}],"stateMutability":"view","type":"function"},{"inputs":[],"name":"thetaUSD","outputs":[{"internalType":"contract IERC20","name":"","type":"address"}],"stateMutability":"view","type":"function"},{"inputs":[],"name":"tiktokVaultContract","outputs":[{"internalType":"contract TikTokCardVault","name":"","type":"address"}],"stateMutability":"view","type":"function"},{"inputs":[{"internalType":"uint256","name":"index","type":"uint256"}],"name":"tokenByIndex","outputs":[{"internalType":"uint256","name":"","type":"uint256"}],"stateMutability":"view","type":"function"},{"inputs":[{"internalType":"address","name":"owner","type":"address"},{"internalType":"uint256","name":"index","type":"uint256"}],"name":"tokenOfOwnerByIndex","outputs":[{"internalType":"uint256","name":"","type":"uint256"}],"stateMutability":"view","type":"function"},{"inputs":[{"internalType":"uint256","name":"tokenId","type":"uint256"}],"name":"tokenURI","outputs":[{"internalType":"string","name":"","type":"string"}],"stateMutability":"view","type":"function"},{"inputs":[],"name":"totalSupply","outputs":[{"internalType":"uint256","name":"","type":"uint256"}],"stateMutability":"view","type":"function"},{"inputs":[{"internalType":"address","name":"from","type":"address"},{"internalType":"address","name":"to","type":"address"},{"internalType":"uint256","name":"tokenId","type":"uint256"}],"name":"transferFrom","outputs":[],"stateMutability":"nonpayable","type":"function"},{"inputs":[{"internalType":"address","name":"newOwner","type":"address"}],"name":"transferOwnership","outputs":[],"stateMutability":"nonpayable","type":"function"},{"inputs":[],"name":"twitchVaultContract","outputs":[{"internalType":"contract TwitchCardVault","name":"","type":"address"}],"stateMutability":"view","type":"function"},{"inputs":[],"name":"vaultContract","outputs":[{"internalType":"contract TwitterCardVault","name":"","type":"address"}],"stateMutability":"view","type":"function"}],"evm":{"bytecode":{"linkReferences":{},"object":"608034620005a057601f6200378d38819003918201601f191683019291906001600160401b0384118385101762000494578160809284926040968752833981010312620005a0576200005181620005c5565b6200005f60208301620005c5565b906200007b606062000073868601620005c5565b9401620005c5565b9062000086620005a5565b601081526f14d95b991b1e4811da599d0810d85c9960821b6020820152620000ad620005a5565b600381526253474360e81b6020820152815190916001600160401b038211620004945760005490600182811c9216801562000595575b6020831014620004735781601f84931162000532575b50602090601f8311600114620004b657600092620004aa575b50508160011b916000199060031b1c1916176000555b8051906001600160401b038211620004945760015490600182811c9216801562000489575b6020831014620004735781601f8493116200040f575b50602090601f8311600114620003955760009262000389575b50508160011b916000199060031b1c1916176001555b33156200037157600a8054336001600160a01b031980831682179093558751929592936001600160a01b03939284929083167f8be0079c531659141344cd1fd0a4f28419497f9722a3daafe3b4186f6b6457e0600080a3169283156200033c5750811694851562000304578116928315620002cd5716928315620002955780828592600b541617600b558581600c541617600c558381600d541617600d55600e541617600e55600052600f602052836000209260ff19936001858254161790556000528360002060018482541617905560005282600020600183825416179055600052600182600020918254161790556001601055516131729081620005db8239f35b855162461bcd60e51b81526020600482015260116024820152701d1a195d185554d1081c995c5d5a5c9959607a1b6044820152606490fd5b865162461bcd60e51b815260206004820152601060248201526f18995d185554d1081c995c5d5a5c995960821b6044820152606490fd5b865162461bcd60e51b8152602060048201526011602482015270185b1c1a185554d1081c995c5d5a5c9959607a1b6044820152606490fd5b62461bcd60e51b815260206004820152601060248201526f1c185d1a1554d1081c995c5d5a5c995960821b6044820152606490fd5b8451631e4fbdf760e01b815260006004820152602490fd5b0151905038806200017c565b600160009081526000805160206200376d8339815191529350601f198516905b818110620003f65750908460019594939210620003dc575b505050811b0160015562000192565b015160001960f88460031b161c19169055388080620003cd565b92936020600181928786015181550195019301620003b5565b60016000529091506000805160206200376d833981519152601f840160051c8101916020851062000468575b90601f859493920160051c01905b81811062000458575062000163565b6000815584935060010162000449565b90915081906200043b565b634e487b7160e01b600052602260045260246000fd5b91607f16916200014d565b634e487b7160e01b600052604160045260246000fd5b01519050388062000112565b600080805293506000805160206200374d83398151915291905b601f198416851062000516576001945083601f19811610620004fc575b505050811b0160005562000128565b015160001960f88460031b161c19169055388080620004ed565b81810151835560209485019460019093019290910190620004d0565b600080529091506000805160206200374d833981519152601f840160051c810191602085106200058a575b90601f859493920160051c01905b8181106200057a5750620000f9565b600081558493506001016200056b565b90915081906200055d565b91607f1691620000e3565b600080fd5b60408051919082016001600160401b038111838210176200049457604052565b51906001600160a01b0382168203620005a05756fe608080604052600436101561001357600080fd5b60003560e01c90816301ffc9a71461214e5750806306fdde03146120ab578063081812fc1461206d578063095ea7b314611f865780630d15079c14611c8c57806318160ddd14611c6e5780632274346b14611c4557806323b872dd14611c2e5780632f745c5914611bb557806331a6f38314611b8c57806342842e0e14611b5e5780634f6ccce714611b0857806352bc0d2f1461181557806357c66836146115195780635be1449c146114f057806361bb5254146114665780636352211e1461143657806368c4ac26146113f7578063709511451461136c57806370a0823114611341578063715018a6146112f65780637400cba2146111c75780637b008d3b1461119e578063881efaa1146111755780638aaa06e51461114c5780638afb7f56146111235780638da5cb5b146110fa578063916b62da14610e0057806395d89b4114610d3b57806396f4ada614610cb75780639898135f14610c4c578063989e6e8c14610bc15780639de4445114610b36578063a22cb46514610a91578063b88d4fde14610a23578063be72b747146109fa578063bf05ed46146109d1578063c3941614146106b6578063c87b56dd14610663578063cf1e0ed014610587578063e00d8fa2146102c9578063e985e9c5146102735763f2fde38b146101f857600080fd5b3461026e57602036600319011261026e57610211612213565b6102196124be565b6001600160a01b0390811690811561025557600a80546001600160a01b031981168417909155166000805160206130dd833981519152600080a3005b604051631e4fbdf760e01b815260006004820152602490fd5b600080fd5b3461026e57604036600319011261026e5761028c612213565b610294612229565b9060018060a01b03809116600052600560205260406000209116600052602052602060ff604060002054166040519015158152f35b3461026e5760a036600319011261026e576102e2612213565b6001600160a01b039060443590828216906024359082840361026e576001600160401b039360643585811161026e5761031f903690600401612318565b9060843586811161026e57610338903690600401612318565b958784161561055257869086600052602098600f8a5261035f60ff604060002054166129b9565b61036a8715156129f9565b6103748785612db5565b60028a6103ea6010549a6103878c612a30565b6010556103948c8b612ac5565b8b6011604051946103a48661223f565b8d8652808601938452604086019260008452606087019a8b526000525260406000209351845560019586850192511660018060a01b031983541617825551151590612a55565b019251805192831161053c5761040084546123de565b601f81116104f3575b508a90601f841160011461047357928061045d979593819360008051602061311d8339815191529c9d9896600094610468575b50501b916000199060031b1c19161790555b60405195869533908a88612a72565b0390a1604051908152f35b015192508e8061043c565b60008581528c8120939493929190601f198516908e5b8282106104dc5750509160008051602061311d8339815191529b9c979593918561045d9a989694106104c3575b505050811b01905561044e565b015160001960f88460031b161c191690558c80806104b6565b808886978294978701518155019601940190610489565b846000528b600020601f850160051c8101918d8610610532575b601f0160051c019083905b828110610526575050610409565b60008155018390610518565b909150819061050d565b634e487b7160e01b600052604160045260246000fd5b60405162461bcd60e51b815260206004820152600d60248201526c189859081c9958da5c1a595b9d609a1b6044820152606490fd5b3461026e5760208060031936011261026e576004356060806040516105ab8161223f565b60008152600085820152600060408201520152806000526002825260018060a01b03906105e082604060002054161515612f2d565b6000526011825261065f6040600020604051926105fc8461223f565b81548452600182015490610629600287870194838516865260ff604089019560a01c161515855201612418565b926060860193845260405196879681885251908701525116604085015251151560608401525160808084015260a08301906121d3565b0390f35b3461026e57602036600319011261026e5761067f6004356127df565b50600060405161068e8161226d565b5261065f60405161069e8161226d565b600081526040519182916020835260208301906121d3565b3461026e576106c436612336565b919360018060a09593951b036016541615610992576106e58151151561301f565b60018060a01b0385169384600052600f60205261070960ff604060002054166129b9565b6107148315156129f9565b61071e8387612db5565b6010549461072b86612a30565b6010556016546107459087906001600160a01b0316612ac5565b604051906107528261223f565b848252602082019081526107a86040830191600083526060840192888452896000526011602052604060002094518555600185019160018060a01b0390511660018060a01b031983541617825551151590612a55565b518051906001600160401b03821161053c576107c760028401546123de565b601f811161094b575b50602090601f83116001146108dd5760029291600091836108d2575b50508160011b916000199060031b1c1916179101555b6016546001600160a01b031693843b1561026e576040516316e1ed5f60e11b815294600090869081838161083b338a8e6004850161305f565b03925af19182156108c6576020977fe76ff423a3aa7b774558dfd94f8f98b32f043abe99fe785dc4e29053fd9e3f459661045d946108b7575b5060008051602061311d8339815191528860018060a01b03601654166108a58686868c604051968796339188612a72565b0390a160405195869533908a8861308d565b6108c09061225a565b89610874565b6040513d6000823e3d90fd5b015190508a806107ec565b90601f198316916002850160005260206000209260005b8181106109335750916001939185600296941061091a575b505050811b01910155610802565b015160001960f88460031b161c191690558a808061090c565b929360206001819287860151815501950193016108f4565b600284016000526020600020601f840160051c81016020851061098b575b601f830160051c8201811061097f5750506107d0565b60008155600101610969565b5080610969565b60405162461bcd60e51b8152602060048201526017602482015276125b9cdd1859dc985b4815985d5b1d081b9bdd081cd95d604a1b6044820152606490fd5b3461026e57600036600319011261026e576013546040516001600160a01b039091168152602090f35b3461026e57600036600319011261026e576015546040516001600160a01b039091168152602090f35b3461026e57608036600319011261026e57610a3c612213565b610a44612229565b6064359190604435906001600160401b03841161026e573660238501121561026e57610a7d610a8f9436906024816004013591016122e1565b92610a89838383612523565b33612896565b005b3461026e57604036600319011261026e57610aaa612213565b6024359081151580920361026e576001600160a01b0316908115610b1d57336000526005602052604060002082600052602052604060002060ff1981541660ff83161790556040519081527f17307eab39ab6107e8899845ad3d59bd9653f200f220920489ca2b5937696c3160203392a3005b604051630b61174360e31b815260048101839052602490fd5b3461026e57602036600319011261026e57610b4f612213565b610b576124be565b6001600160a01b03168015610b7c57601580546001600160a01b031916919091179055005b60405162461bcd60e51b815260206004820152601d60248201527f54696b546f6b205661756c7420616464726573732072657175697265640000006044820152606490fd5b3461026e57602036600319011261026e57610bda612213565b610be26124be565b6001600160a01b03168015610c0757601480546001600160a01b031916919091179055005b60405162461bcd60e51b815260206004820152601f60248201527f54656c656772616d205661756c742061646472657373207265717569726564006044820152606490fd5b3461026e57602036600319011261026e5760043560005260116020526040600020805461065f610c83600260018501549401612418565b60ff604051948594855260018060a01b038116602086015260a01c16151560408401526080606084015260808301906121d3565b3461026e57602036600319011261026e57610cd0612213565b610cd86124be565b6001600160a01b03168015610cfd57601280546001600160a01b031916919091179055005b60405162461bcd60e51b815260206004820152601660248201527515985d5b1d081859191c995cdcc81c995c5d5a5c995960521b6044820152606490fd5b3461026e57600036600319011261026e5760405160009060018054610d5f816123de565b80845290828116908115610dd85750600114610d9a575b61065f83610d86818703826122a3565b6040519182916020835260208301906121d3565b92508060005260209283600020916000925b828410610dc557505050810190910190610d8681610d76565b8054858501870152928501928101610dac565b61065f9550610d8693506020915091849260ff191682840152151560051b8201019350610d76565b3461026e57610e0e36612336565b919360018060a09593951b0360155416156110be57610e2f8151151561301f565b60018060a01b0385169384600052600f602052610e5360ff604060002054166129b9565b610e5e8315156129f9565b610e688387612db5565b60105494610e7586612a30565b601055601554610e8f9087906001600160a01b0316612ac5565b60405190610e9c8261223f565b84825260208201908152610ef26040830191600083526060840192888452896000526011602052604060002094518555600185019160018060a01b0390511660018060a01b031983541617825551151590612a55565b518051906001600160401b03821161053c57610f1160028401546123de565b601f8111611077575b50602090601f8311600114611009576002929160009183610ffe575b50508160011b916000199060031b1c1916179101555b6015546001600160a01b031693843b1561026e576040516316e1ed5f60e11b8152946000908690818381610f85338a8e6004850161305f565b03925af19182156108c6576020977f556bfd7f220d92f2fae3734649d447e58ebab8dd51dee4035364727699e49fdf9661045d94610fef575b5060008051602061311d8339815191528860018060a01b03601554166108a58686868c604051968796339188612a72565b610ff89061225a565b89610fbe565b015190508a80610f36565b90601f198316916002850160005260206000209260005b81811061105f57509160019391856002969410611046575b505050811b01910155610f4c565b015160001960f88460031b161c191690558a8080611038565b92936020600181928786015181550195019301611020565b600284016000526020600020601f840160051c8101602085106110b7575b601f830160051c820181106110ab575050610f1a565b60008155600101611095565b5080611095565b60405162461bcd60e51b8152602060048201526014602482015273151a5ad51bdac815985d5b1d081b9bdd081cd95d60621b6044820152606490fd5b3461026e57600036600319011261026e57600a546040516001600160a01b039091168152602090f35b3461026e57600036600319011261026e576014546040516001600160a01b039091168152602090f35b3461026e57600036600319011261026e57600d546040516001600160a01b039091168152602090f35b3461026e57600036600319011261026e57600e546040516001600160a01b039091168152602090f35b3461026e57600036600319011261026e57600b546040516001600160a01b039091168152602090f35b3461026e5760208060031936011261026e5760043590816000526002815260018060a01b036111fe81604060002054161515612f2d565b82600052601182526040600020906001820191825460ff8160a01c166112c657611227866127df565b833391160361129557917fac810351e0a5276b563659d9fd53866ce57e5206390b028a4542437ed86c253495939161127860809694600160a01b60ff60a01b19821617855582549084339116612f63565b5491541691604051938452339084015260408301526060820152a1005b60405162461bcd60e51b81526004810186905260096024820152683737ba1037bbb732b960b91b6044820152606490fd5b60405162461bcd60e51b81526004810186905260086024820152671c995919595b595960c21b6044820152606490fd5b3461026e57600036600319011261026e5761130f6124be565b600a80546001600160a01b031981169091556000906001600160a01b03166000805160206130dd8339815191528280a3005b3461026e57602036600319011261026e57602061136461135f612213565b6124ea565b604051908152f35b3461026e57602036600319011261026e57611385612213565b61138d6124be565b6001600160a01b031680156113b257601380546001600160a01b031916919091179055005b60405162461bcd60e51b815260206004820152601d60248201527f547769746368205661756c7420616464726573732072657175697265640000006044820152606490fd5b3461026e57602036600319011261026e576001600160a01b03611418612213565b16600052600f602052602060ff604060002054166040519015158152f35b3461026e57602036600319011261026e5760206114546004356127df565b6040516001600160a01b039091168152f35b3461026e57602036600319011261026e5761147f612213565b6114876124be565b6001600160a01b031680156114ac57601680546001600160a01b031916919091179055005b606460405162461bcd60e51b815260206004820152602060248201527f496e7374616772616d205661756c7420616464726573732072657175697265646044820152fd5b3461026e57600036600319011261026e57600c546040516001600160a01b039091168152602090f35b3461026e5761152736612336565b919360018060a09593951b0360145416156117d7576115488151151561301f565b60018060a01b0385169384600052600f60205261156c60ff604060002054166129b9565b6115778315156129f9565b6115818387612db5565b6010549461158e86612a30565b6010556014546115a89087906001600160a01b0316612ac5565b604051906115b58261223f565b8482526020820190815261160b6040830191600083526060840192888452896000526011602052604060002094518555600185019160018060a01b0390511660018060a01b031983541617825551151590612a55565b518051906001600160401b03821161053c5761162a60028401546123de565b601f8111611790575b50602090601f8311600114611722576002929160009183611717575b50508160011b916000199060031b1c1916179101555b6014546001600160a01b031693843b1561026e576040516316e1ed5f60e11b815294600090869081838161169e338a8e6004850161305f565b03925af19182156108c6576020977f8b4a1e0ad00e26141e0c254c13a3ba386688d071f45651d82461ee183edd401a9661045d94611708575b5060008051602061311d8339815191528860018060a01b03601454166108a58686868c604051968796339188612a72565b6117119061225a565b896116d7565b015190508a8061164f565b90601f198316916002850160005260206000209260005b8181106117785750916001939185600296941061175f575b505050811b01910155611665565b015160001960f88460031b161c191690558a8080611751565b92936020600181928786015181550195019301611739565b600284016000526020600020601f840160051c8101602085106117d0575b601f830160051c820181106117c4575050611633565b600081556001016117ae565b50806117ae565b60405162461bcd60e51b815260206004820152601660248201527515195b1959dc985b4815985d5b1d081b9bdd081cd95d60521b6044820152606490fd5b3461026e5761182336612336565b919360018060a09593951b036012541615611ad3576118448151151561301f565b60018060a01b0385169384600052600f60205261186860ff604060002054166129b9565b6118738315156129f9565b61187d8387612db5565b6010549461188a86612a30565b6010556012546118a49087906001600160a01b0316612ac5565b604051906118b18261223f565b848252602082019081526119076040830191600083526060840192888452896000526011602052604060002094518555600185019160018060a01b0390511660018060a01b031983541617825551151590612a55565b518051906001600160401b03821161053c5761192660028401546123de565b601f8111611a8c575b50602090601f8311600114611a1e576002929160009183611a13575b50508160011b916000199060031b1c1916179101555b6012546001600160a01b031693843b1561026e576040516316e1ed5f60e11b815294600090869081838161199a338a8e6004850161305f565b03925af19182156108c6576020977f9b5c816605f86b4160f6d48308e768208517fb96124a3b2123536135da4d0f609661045d94611a04575b5060008051602061311d8339815191528860018060a01b03601254166108a58686868c604051968796339188612a72565b611a0d9061225a565b896119d3565b015190508a8061194b565b90601f198316916002850160005260206000209260005b818110611a7457509160019391856002969410611a5b575b505050811b01910155611961565b015160001960f88460031b161c191690558a8080611a4d565b92936020600181928786015181550195019301611a35565b600284016000526020600020601f840160051c810160208510611acc575b601f830160051c82018110611ac057505061192f565b60008155600101611aaa565b5080611aaa565b60405162461bcd60e51b815260206004820152600d60248201526c15985d5b1d081b9bdd081cd95d609a1b6044820152606490fd5b3461026e57602036600319011261026e57600435600854811015611b3f57611b31602091612835565b90546040519160031b1c8152f35b6044906040519063295f44f760e21b8252600060048301526024820152fd5b3461026e57610a8f611b6f366123a9565b9060405192611b7d8461226d565b60008452610a89838383612523565b3461026e57600036600319011261026e576016546040516001600160a01b039091168152602090f35b3461026e57604036600319011261026e57611bce612213565b60243590611bdb816124ea565b821015611c0e5760018060a01b031660005260066020526040600020906000526020526020604060002054604051908152f35b611c2a60405192839263295f44f760e21b84526004840161281a565b0390fd5b3461026e57610a8f611c3f366123a9565b91612523565b3461026e57600036600319011261026e576012546040516001600160a01b039091168152602090f35b3461026e57600036600319011261026e576020600854604051908152f35b3461026e57611c9a36612336565b919360018060a09593951b036013541615611f4a57611cbb8151151561301f565b60018060a01b0385169384600052600f602052611cdf60ff604060002054166129b9565b611cea8315156129f9565b611cf48387612db5565b60105494611d0186612a30565b601055601354611d1b9087906001600160a01b0316612ac5565b60405190611d288261223f565b84825260208201908152611d7e6040830191600083526060840192888452896000526011602052604060002094518555600185019160018060a01b0390511660018060a01b031983541617825551151590612a55565b518051906001600160401b03821161053c57611d9d60028401546123de565b601f8111611f03575b50602090601f8311600114611e95576002929160009183611e8a575b50508160011b916000199060031b1c1916179101555b6013546001600160a01b031693843b1561026e576040516316e1ed5f60e11b8152946000908690818381611e11338a8e6004850161305f565b03925af19182156108c6576020977f61975798f2480aa9431ee7ff771c06d11c1f29fa8206054bc636fc498e9b36fd9661045d94611e7b575b5060008051602061311d8339815191528860018060a01b03601354166108a58686868c604051968796339188612a72565b611e849061225a565b89611e4a565b015190508a80611dc2565b90601f198316916002850160005260206000209260005b818110611eeb57509160019391856002969410611ed2575b505050811b01910155611dd8565b015160001960f88460031b161c191690558a8080611ec4565b92936020600181928786015181550195019301611eac565b600284016000526020600020601f840160051c810160208510611f43575b601f830160051c82018110611f37575050611da6565b60008155600101611f21565b5080611f21565b60405162461bcd60e51b8152602060048201526014602482015273151dda5d18da0815985d5b1d081b9bdd081cd95d60621b6044820152606490fd5b3461026e57604036600319011261026e57611f9f612213565b602435611fab816127df565b3315158061205a575b8061202d575b612015576001600160a01b039283169282918491167f8c5be1e5ebec7d5bd14f71427d1e84f3dd0314c0f7b2291e5b200ac8c7c3b925600080a4600090815260046020526040902080546001600160a01b0319169091179055005b60405163a9fbf51f60e01b8152336004820152602490fd5b5060018060a01b038116600052600560205260406000203360005260205260ff6040600020541615611fba565b506001600160a01b038116331415611fb4565b3461026e57602036600319011261026e5760043561208a816127df565b506000526004602052602060018060a01b0360406000205416604051908152f35b3461026e57600036600319011261026e576040516000906000546120ce816123de565b808352600191808316908115610dd857506001146120f65761065f83610d86818703826122a3565b600080805260209450917f290decd9548b62a8d60345a988386fc84ba6bc95484008f6362f93160ef3e5635b82841061213b57505050810190910190610d8681610d76565b8054858501870152928501928101612122565b3461026e57602036600319011261026e576004359063ffffffff60e01b821680920361026e5760209163780e9d6360e01b8114908115612190575b5015158152f35b6380ac58cd60e01b8114915081156121c2575b81156121b1575b5083612189565b6301ffc9a760e01b149050836121aa565b635b5e139f60e01b811491506121a3565b919082519283825260005b8481106121ff575050826000602080949584010152601f8019910116010190565b6020818301810151848301820152016121de565b600435906001600160a01b038216820361026e57565b602435906001600160a01b038216820361026e57565b608081019081106001600160401b0382111761053c57604052565b6001600160401b03811161053c57604052565b602081019081106001600160401b0382111761053c57604052565b60a081019081106001600160401b0382111761053c57604052565b601f909101601f19168101906001600160401b0382119082101761053c57604052565b6001600160401b03811161053c57601f01601f191660200190565b9291926122ed826122c6565b916122fb60405193846122a3565b82948184528183011161026e578281602093846000960137010152565b9080601f8301121561026e57816020612333933591016122e1565b90565b9060a060031983011261026e576001600160401b0360043581811161026e578361236291600401612318565b92602435926044356001600160a01b038116810361026e579260643581811161026e578361239291600401612318565b9260843591821161026e5761233391600401612318565b606090600319011261026e576001600160a01b0390600435828116810361026e5791602435908116810361026e579060443590565b90600182811c9216801561240e575b60208310146123f857565b634e487b7160e01b600052602260045260246000fd5b91607f16916123ed565b906040519182600082549261242c846123de565b90818452600194858116908160001461249b5750600114612458575b5050612456925003836122a3565b565b9093915060005260209081600020936000915b81831061248357505061245693508201013880612448565b8554888401850152948501948794509183019161246b565b91505061245694506020925060ff191682840152151560051b8201013880612448565b600a546001600160a01b031633036124d257565b60405163118cdaa760e01b8152336004820152602490fd5b6001600160a01b0316801561250a57600052600360205260406000205490565b6040516322718ad960e21b815260006004820152602490fd5b6001600160a01b03828116939184156127a85760009483865260209560028752604096848883205416963315158061271c575b50871580156126fc575b84845260038352898420805460010190558784526002835289842080546001600160a01b0319168617905587858a6000805160206130fd8339815191528780a4156126905760085487845260098352898420819055600160401b81101561267c57876125d58260016125ee9401600855612835565b90919082549060031b91821b91600019901b1916179055565b83880361262a575b5050505016928383036126095750505050565b6064945051926364283d7b60e01b8452600484015260248301526044820152fd5b612633906124ea565b6000198101939084116126685782916007918a94526006815283832085845281528784842055878352522055388080806125f6565b634e487b7160e01b83526011600452602483fd5b634e487b7160e01b84526041600452602484fd5b8784146125ee576126a0886124ea565b878452600783528984205490898552600684528a8520918181036126da575b5088855260078452848b8120558452825282898120556125ee565b8186528285528b862054818752808d8820558652600785528b862055386126bf565b612705886127c1565b888452600383528984208054600019019055612560565b80612767575b1561272d5738612556565b88878961274a576024915190637e27328960e01b82526004820152fd5b905163177e802f60e01b8152908190611c2a90336004840161281a565b50338814801561278c575b8061272257508683526004825233868a8520541614612722565b5087835260058252888320338452825260ff8984205416612772565b604051633250574960e11b815260006004820152602490fd5b600090815260046020526040902080546001600160a01b0319169055565b6000818152600260205260409020546001600160a01b0316908115612802575090565b60249060405190637e27328960e01b82526004820152fd5b6001600160a01b039091168152602081019190915260400190565b60085481101561285057600860005260206000200190600090565b634e487b7160e01b600052603260045260246000fd5b3d15612891573d90612877826122c6565b9161288560405193846122a3565b82523d6000602084013e565b606090565b9293823b6128a6575b5050505050565b6128ea9060018060a01b038094169560405194859481630a85bd0160e11b9889885216600487015216602485015260448401526080606484015260848301906121d3565b03906020816000938185885af19082908261296a575b5050612938578261290f612866565b805191908261293157604051633250574960e11b815260048101839052602490fd5b6020915001fd5b6001600160e01b031916036129525750388080808061289f565b60249060405190633250574960e11b82526004820152fd5b909192506020813d82116129b1575b81612986602093836122a3565b810103126129ad5751906001600160e01b0319821682036129aa5750903880612900565b80fd5b5080fd5b3d9150612979565b156129c057565b60405162461bcd60e51b81526020600482015260116024820152703ab739bab83837b93a32b2103a37b5b2b760791b6044820152606490fd5b15612a0057565b60405162461bcd60e51b81526020600482015260086024820152670616d6f756e743d360c41b6044820152606490fd5b6000198114612a3f5760010190565b634e487b7160e01b600052601160045260246000fd5b805460ff60a01b191691151560a01b60ff60a01b16919091179055565b9081526001600160a01b039182166020820152918116604083015260608201929092529116608082015260e060a08201819052612333939192612ab7918401906121d3565b9160c08184039101526121d3565b6040805192612ad38461226d565b60008085526001600160a01b0394848616948515612d9d578383526020966002885285842054168015908782159283612d7d575b81875260038b528887208054600101905587875260028b5288872080546001600160a01b031916831790558782846000805160206130fd8339815191528a80a415612d10575060085486865260098a52878620819055600160401b811015612cfc5790612b7f876125d58460018d9601600855612835565b03612caf575b612c97573b612b97575b505050505050565b85612bd49185969798955180938192630a85bd0160e11b9788845233600485015287602485015260448401526080606484015260848301906121d3565b0381858a5af190829082612c53575b5050612c1b57505050612bf4612866565b8051939084612c15578251633250574960e11b815260048101859052602490fd5b84925001fd5b9194506001600160e01b031990911603612c3c575050388080808080612b8f565b602492505190633250574960e11b82526004820152fd5b909192508781813d8311612c90575b612c6c81836122a3565b810103126129ad5751906001600160e01b0319821682036129aa5750903880612be3565b503d612c62565b84516339e3563760e11b815260048101849052602490fd5b612cb8826124ea565b6000198101908111612ce85787855260068952868520818652895285878620558585526007895286852055612b85565b634e487b7160e01b85526011600452602485fd5b634e487b7160e01b86526041600452602486fd5b90808214612b7f57612d21816124ea565b87875260078b52888720549082885260068c5289882091818103612d5b575b5088885260078c52878a81205587528a528588812055612b7f565b818952828d528a892054818a52808c8b2055895260078d528a89205538612d40565b612d86886127c1565b82875260038b528887208054600019019055612b07565b8451633250574960e11b815260048101849052602490fd5b90612dc281303385612e7f565b612e075761245691604051916323b872dd60e01b6020840152336024840152306044840152606483015260648252612df982612288565b6001600160a01b0316612e0b565b5050565b906000602091828151910182855af1156108c6576000513d612e5e57506001600160a01b0381163b155b612e3c5750565b604051635274afe760e01b81526001600160a01b039091166004820152602490fd5b60011415612e35565b9081602091031261026e5751801515810361026e5790565b60405163929c253960e01b602082019081526001600160a01b0393841660248301529290931660448401526064830193909352600060848084018290528352929160c081016001600160401b03811182821017612f195760405251839283929083905af190612eec612866565b9115612f1457508051908115612f0d57602080612333938301019101612e67565b5050600190565b905090565b634e487b7160e01b85526041600452602485fd5b15612f3457565b60405162461bcd60e51b81526020600482015260076024820152661b9bc818d85c9960ca1b6044820152606490fd5b919091612f71828483612fae565b612fa957612df961245693612f9b60405194859263a9059cbb60e01b60208501526024840161281a565b03601f1981018452836122a3565b505050565b600092918380936040519060208201936395777d5960e01b855260018060a01b03166024830152604482015281606482015260648152612fed81612288565b51925af1612ff9612866565b9015613019578051908115612f0d57602080612333938301019101612e67565b50600090565b1561302657565b60405162461bcd60e51b8152602060048201526011602482015270155cd95c9b985b59481c995c5d5a5c9959607a1b6044820152606490fd5b9161307d9060409295949584526060602085015260608401906121d3565b6001600160a01b03909416910152565b9591946130b16123339896612ab7969593895260e060208a015260e08901906121d3565b6001600160a01b039283166040890152606088019490945216608086015284820360a08601526121d356fe8be0079c531659141344cd1fd0a4f28419497f9722a3daafe3b4186f6b6457e0ddf252ad1be2c89b69c2b068fc378daa952ba7f163c4a11628f55a4df523b3ef1cddd2e719eecdc15efad3300fb7b6288ee937b7107c31cc324309e23f6cbbd0a264697066735822122048151525e20cd772dc147f8ad0520ff8c59699575658005a78003bba9e63971764736f6c63430008140033290decd9548b62a8d60345a988386fc84ba6bc95484008f6362f93160ef3e563b10e2d527612073b26eecdfd717e6a320cf44b4afac2b0732d9fcbe2b7fa0cf6","opcodes":"PUSH1 0x80 CALLVALUE PUSH3 0x5A0 JUMPI PUSH1 0x1F PUSH3 0x378D CODESIZE DUP2 SWAP1 SUB SWAP2 DUP3 ADD PUSH1 0x1F NOT AND DUP4 ADD SWAP3 SWAP2 SWAP1 PUSH1 0x1 PUSH1 0x1 PUSH1 0x40 SHL SUB DUP5 GT DUP4 DUP6 LT OR PUSH3 0x494 JUMPI DUP2 PUSH1 0x80 SWAP3 DUP5 SWAP3 PUSH1 0x40 SWAP7 DUP8 MSTORE DUP4 CODECOPY DUP2 ADD SUB SLT PUSH3 0x5A0 JUMPI PUSH3 0x51 DUP2 PUSH3 0x5C5 JUMP JUMPDEST PUSH3 0x5F PUSH1 0x20 DUP4 ADD PUSH3 0x5C5 JUMP JUMPDEST SWAP1 PUSH3 0x7B PUSH1 0x60 PUSH3 0x73 DUP7 DUP7 ADD PUSH3 0x5C5 JUMP JUMPDEST SWAP5 ADD PUSH3 0x5C5 JUMP JUMPDEST SWAP1 PUSH3 0x86 PUSH3 0x5A5 JUMP JUMPDEST PUSH1 0x10 DUP2 MSTORE PUSH16 0x14D95B991B1E4811DA599D0810D85C99 PUSH1 0x82 SHL PUSH1 0x20 DUP3 ADD MSTORE PUSH3 0xAD PUSH3 0x5A5 JUMP JUMPDEST PUSH1 0x3 DUP2 MSTORE PUSH3 0x534743 PUSH1 0xE8 SHL PUSH1 0x20 DUP3 ADD MSTORE DUP2 MLOAD SWAP1 SWAP2 PUSH1 0x1 PUSH1 0x1 PUSH1 0x40 SHL SUB DUP3 GT PUSH3 0x494 JUMPI PUSH1 0x0 SLOAD SWAP1 PUSH1 0x1 DUP3 DUP2 SHR SWAP3 AND DUP1 ISZERO PUSH3 0x595 JUMPI JUMPDEST PUSH1 0x20 DUP4 LT EQ PUSH3 0x473 JUMPI DUP2 PUSH1 0x1F DUP5 SWAP4 GT PUSH3 0x532 JUMPI JUMPDEST POP PUSH1 0x20 SWAP1 PUSH1 0x1F DUP4 GT PUSH1 0x1 EQ PUSH3 0x4B6 JUMPI PUSH1 0x0 SWAP3 PUSH3 0x4AA JUMPI JUMPDEST POP POP DUP2 PUSH1 0x1 SHL SWAP2 PUSH1 0x0 NOT SWAP1 PUSH1 0x3 SHL SHR NOT AND OR PUSH1 0x0 SSTORE JUMPDEST DUP1 MLOAD SWAP1 PUSH1 0x1 PUSH1 0x1 PUSH1 0x40 SHL SUB DUP3 GT PUSH3 0x494 JUMPI PUSH1 0x1 SLOAD SWAP1 PUSH1 0x1 DUP3 DUP2 SHR SWAP3 AND DUP1 ISZERO PUSH3 0x489 JUMPI JUMPDEST PUSH1 0x20 DUP4 LT EQ PUSH3 0x473 JUMPI DUP2 PUSH1 0x1F DUP5 SWAP4 GT PUSH3 0x40F JUMPI JUMPDEST POP PUSH1 0x20 SWAP1 PUSH1 0x1F DUP4 GT PUSH1 0x1 EQ PUSH3 0x395 JUMPI PUSH1 0x0 SWAP3 PUSH3 0x389 JUMPI JUMPDEST POP POP DUP2 PUSH1 0x1 SHL SWAP2 PUSH1 0x0 NOT SWAP1 PUSH1 0x3 SHL SHR NOT AND OR PUSH1 0x1 SSTORE JUMPDEST CALLER ISZERO PUSH3 0x371 JUMPI PUSH1 0xA DUP1 SLOAD CALLER PUSH1 0x1 PUSH1 0x1 PUSH1 0xA0 SHL SUB NOT DUP1 DUP4 AND DUP3 OR SWAP1 SWAP4 SSTORE DUP8 MLOAD SWAP3 SWAP6 SWAP3 SWAP4 PUSH1 0x1 PUSH1 0x1 PUSH1 0xA0 SHL SUB SWAP4 SWAP3 DUP5 SWAP3 SWAP1 DUP4 AND PUSH32 0x8BE0079C531659141344CD1FD0A4F28419497F9722A3DAAFE3B4186F6B6457E0 PUSH1 0x0 DUP1 LOG3 AND SWAP3 DUP4 ISZERO PUSH3 0x33C JUMPI POP DUP2 AND SWAP5 DUP6 ISZERO PUSH3 0x304 JUMPI DUP2 AND SWAP3 DUP4 ISZERO PUSH3 0x2CD JUMPI AND SWAP3 DUP4 ISZERO PUSH3 0x295 JUMPI DUP1 DUP3 DUP6 SWAP3 PUSH1 0xB SLOAD AND OR PUSH1 0xB SSTORE DUP6 DUP2 PUSH1 0xC SLOAD AND OR PUSH1 0xC SSTORE DUP4 DUP2 PUSH1 0xD SLOAD AND OR PUSH1 0xD SSTORE PUSH1 0xE SLOAD AND OR PUSH1 0xE SSTORE PUSH1 0x0 MSTORE PUSH1 0xF PUSH1 0x20 MSTORE DUP4 PUSH1 0x0 KECCAK256 SWAP3 PUSH1 0xFF NOT SWAP4 PUSH1 0x1 DUP6 DUP3 SLOAD AND OR SWAP1 SSTORE PUSH1 0x0 MSTORE DUP4 PUSH1 0x0 KECCAK256 PUSH1 0x1 DUP5 DUP3 SLOAD AND OR SWAP1 SSTORE PUSH1 0x0 MSTORE DUP3 PUSH1 0x0 KECCAK256 PUSH1 0x1 DUP4 DUP3 SLOAD AND OR SWAP1 SSTORE PUSH1 0x0 MSTORE PUSH1 0x1 DUP3 PUSH1 0x0 KECCAK256 SWAP2 DUP3 SLOAD AND OR SWAP1 SSTORE PUSH1 0x1 PUSH1 0x10 SSTORE MLOAD PUSH2 0x3172 SWAP1 DUP2 PUSH3 0x5DB DUP3 CODECOPY RETURN JUMPDEST DUP6 MLOAD PUSH3 0x461BCD PUSH1 0xE5 SHL DUP2 MSTORE PUSH1 0x20 PUSH1 0x4 DUP3 ADD MSTORE PUSH1 0x11 PUSH1 0x24 DUP3 ADD MSTORE PUSH17 0x1D1A195D185554D1081C995C5D5A5C9959 PUSH1 0x7A SHL PUSH1 0x44 DUP3 ADD MSTORE PUSH1 0x64 SWAP1 REVERT JUMPDEST DUP7 MLOAD PUSH3 0x461BCD PUSH1 0xE5 SHL DUP2 MSTORE PUSH1 0x20 PUSH1 0x4 DUP3 ADD MSTORE PUSH1 0x10 PUSH1 0x24 DUP3 ADD MSTORE PUSH16 0x18995D185554D1081C995C5D5A5C9959 PUSH1 0x82 SHL PUSH1 0x44 DUP3 ADD MSTORE PUSH1 0x64 SWAP1 REVERT JUMPDEST DUP7 MLOAD PUSH3 0x461BCD PUSH1 0xE5 SHL DUP2 MSTORE PUSH1 0x20 PUSH1 0x4 DUP3 ADD MSTORE PUSH1 0x11 PUSH1 0x24 DUP3 ADD MSTORE PUSH17 0x185B1C1A185554D1081C995C5D5A5C9959 PUSH1 0x7A SHL PUSH1 0x44 DUP3 ADD MSTORE PUSH1 0x64 SWAP1 REVERT JUMPDEST PUSH3 0x461BCD PUSH1 0xE5 SHL DUP2 MSTORE PUSH1 0x20 PUSH1 0x4 DUP3 ADD MSTORE PUSH1 0x10 PUSH1 0x24 DUP3 ADD MSTORE PUSH16 0x1C185D1A1554D1081C995C5D5A5C9959 PUSH1 0x82 SHL PUSH1 0x44 DUP3 ADD MSTORE PUSH1 0x64 SWAP1 REVERT JUMPDEST DUP5 MLOAD PUSH4 0x1E4FBDF7 PUSH1 0xE0 SHL DUP2 MSTORE PUSH1 0x0 PUSH1 0x4 DUP3 ADD MSTORE PUSH1 0x24 SWAP1 REVERT JUMPDEST ADD MLOAD SWAP1 POP CODESIZE DUP1 PUSH3 0x17C JUMP JUMPDEST PUSH1 0x1 PUSH1 0x0 SWAP1 DUP2 MSTORE PUSH1 0x0 DUP1 MLOAD PUSH1 0x20 PUSH3 0x376D DUP4 CODECOPY DUP2 MLOAD SWAP2 MSTORE SWAP4 POP PUSH1 0x1F NOT DUP6 AND SWAP1 JUMPDEST DUP2 DUP2 LT PUSH3 0x3F6 JUMPI POP SWAP1 DUP5 PUSH1 0x1 SWAP6 SWAP5 SWAP4 SWAP3 LT PUSH3 0x3DC JUMPI JUMPDEST POP POP POP DUP2 SHL ADD PUSH1 0x1 SSTORE PUSH3 0x192 JUMP JUMPDEST ADD MLOAD PUSH1 0x0 NOT PUSH1 0xF8 DUP5 PUSH1 0x3 SHL AND SHR NOT AND SWAP1 SSTORE CODESIZE DUP1 DUP1 PUSH3 0x3CD JUMP JUMPDEST SWAP3 SWAP4 PUSH1 0x20 PUSH1 0x1 DUP2 SWAP3 DUP8 DUP7 ADD MLOAD DUP2 SSTORE ADD SWAP6 ADD SWAP4 ADD PUSH3 0x3B5 JUMP JUMPDEST PUSH1 0x1 PUSH1 0x0 MSTORE SWAP1 SWAP2 POP PUSH1 0x0 DUP1 MLOAD PUSH1 0x20 PUSH3 0x376D DUP4 CODECOPY DUP2 MLOAD SWAP2 MSTORE PUSH1 0x1F DUP5 ADD PUSH1 0x5 SHR DUP2 ADD SWAP2 PUSH1 0x20 DUP6 LT PUSH3 0x468 JUMPI JUMPDEST SWAP1 PUSH1 0x1F DUP6 SWAP5 SWAP4 SWAP3 ADD PUSH1 0x5 SHR ADD SWAP1 JUMPDEST DUP2 DUP2 LT PUSH3 0x458 JUMPI POP PUSH3 0x163 JUMP JUMPDEST PUSH1 0x0 DUP2 SSTORE DUP5 SWAP4 POP PUSH1 0x1 ADD PUSH3 0x449 JUMP JUMPDEST SWAP1 SWAP2 POP DUP2 SWAP1 PUSH3 0x43B JUMP JUMPDEST PUSH4 0x4E487B71 PUSH1 0xE0 SHL PUSH1 0x0 MSTORE PUSH1 0x22 PUSH1 0x4 MSTORE PUSH1 0x24 PUSH1 0x0 REVERT JUMPDEST SWAP2 PUSH1 0x7F AND SWAP2 PUSH3 0x14D JUMP JUMPDEST PUSH4 0x4E487B71 PUSH1 0xE0 SHL PUSH1 0x0 MSTORE PUSH1 0x41 PUSH1 0x4 MSTORE PUSH1 0x24 PUSH1 0x0 REVERT JUMPDEST ADD MLOAD SWAP1 POP CODESIZE DUP1 PUSH3 0x112 JUMP JUMPDEST PUSH1 0x0 DUP1 DUP1 MSTORE SWAP4 POP PUSH1 0x0 DUP1 MLOAD PUSH1 0x20 PUSH3 0x374D DUP4 CODECOPY DUP2 MLOAD SWAP2 MSTORE SWAP2 SWAP1 JUMPDEST PUSH1 0x1F NOT DUP5 AND DUP6 LT PUSH3 0x516 JUMPI PUSH1 0x1 SWAP5 POP DUP4 PUSH1 0x1F NOT DUP2 AND LT PUSH3 0x4FC JUMPI JUMPDEST POP POP POP DUP2 SHL ADD PUSH1 0x0 SSTORE PUSH3 0x128 JUMP JUMPDEST ADD MLOAD PUSH1 0x0 NOT PUSH1 0xF8 DUP5 PUSH1 0x3 SHL AND SHR NOT AND SWAP1 SSTORE CODESIZE DUP1 DUP1 PUSH3 0x4ED JUMP JUMPDEST DUP2 DUP2 ADD MLOAD DUP4 SSTORE PUSH1 0x20 SWAP5 DUP6 ADD SWAP5 PUSH1 0x1 SWAP1 SWAP4 ADD SWAP3 SWAP1 SWAP2 ADD SWAP1 PUSH3 0x4D0 JUMP JUMPDEST PUSH1 0x0 DUP1 MSTORE SWAP1 SWAP2 POP PUSH1 0x0 DUP1 MLOAD PUSH1 0x20 PUSH3 0x374D DUP4 CODECOPY DUP2 MLOAD SWAP2 MSTORE PUSH1 0x1F DUP5 ADD PUSH1 0x5 SHR DUP2 ADD SWAP2 PUSH1 0x20 DUP6 LT PUSH3 0x58A JUMPI JUMPDEST SWAP1 PUSH1 0x1F DUP6 SWAP5 SWAP4 SWAP3 ADD PUSH1 0x5 SHR ADD SWAP1 JUMPDEST DUP2 DUP2 LT PUSH3 0x57A JUMPI POP PUSH3 0xF9 JUMP JUMPDEST PUSH1 0x0 DUP2 SSTORE DUP5 SWAP4 POP PUSH1 0x1 ADD PUSH3 0x56B JUMP JUMPDEST SWAP1 SWAP2 POP DUP2 SWAP1 PUSH3 0x55D JUMP JUMPDEST SWAP2 PUSH1 0x7F AND SWAP2 PUSH3 0xE3 JUMP JUMPDEST PUSH1 0x0 DUP1 REVERT JUMPDEST PUSH1 0x40 DUP1 MLOAD SWAP2 SWAP1 DUP3 ADD PUSH1 0x1 PUSH1 0x1 PUSH1 0x40 SHL SUB DUP2 GT DUP4 DUP3 LT OR PUSH3 0x494 JUMPI PUSH1 0x40 MSTORE JUMP JUMPDEST MLOAD SWAP1 PUSH1 0x1 PUSH1 0x1 PUSH1 0xA0 SHL SUB DUP3 AND DUP3 SUB PUSH3 0x5A0 JUMPI JUMP INVALID PUSH1 0x80 DUP1 PUSH1 0x40 MSTORE PUSH1 0x4 CALLDATASIZE LT ISZERO PUSH2 0x13 JUMPI PUSH1 0x0 DUP1 REVERT JUMPDEST PUSH1 0x0 CALLDATALOAD PUSH1 0xE0 SHR SWAP1 DUP2 PUSH4 0x1FFC9A7 EQ PUSH2 0x214E JUMPI POP DUP1 PUSH4 0x6FDDE03 EQ PUSH2 0x20AB JUMPI DUP1 PUSH4 0x81812FC EQ PUSH2 0x206D JUMPI DUP1 PUSH4 0x95EA7B3 EQ PUSH2 0x1F86 JUMPI DUP1 PUSH4 0xD15079C EQ PUSH2 0x1C8C JUMPI DUP1 PUSH4 0x18160DDD EQ PUSH2 0x1C6E JUMPI DUP1 PUSH4 0x2274346B EQ PUSH2 0x1C45 JUMPI DUP1 PUSH4 0x23B872DD EQ PUSH2 0x1C2E JUMPI DUP1 PUSH4 0x2F745C59 EQ PUSH2 0x1BB5 JUMPI DUP1 PUSH4 0x31A6F383 EQ PUSH2 0x1B8C JUMPI DUP1 PUSH4 0x42842E0E EQ PUSH2 0x1B5E JUMPI DUP1 PUSH4 0x4F6CCCE7 EQ PUSH2 0x1B08 JUMPI DUP1 PUSH4 0x52BC0D2F EQ PUSH2 0x1815 JUMPI DUP1 PUSH4 0x57C66836 EQ PUSH2 0x1519 JUMPI DUP1 PUSH4 0x5BE1449C EQ PUSH2 0x14F0 JUMPI DUP1 PUSH4 0x61BB5254 EQ PUSH2 0x1466 JUMPI DUP1 PUSH4 0x6352211E EQ PUSH2 0x1436 JUMPI DUP1 PUSH4 0x68C4AC26 EQ PUSH2 0x13F7 JUMPI DUP1 PUSH4 0x70951145 EQ PUSH2 0x136C JUMPI DUP1 PUSH4 0x70A08231 EQ PUSH2 0x1341 JUMPI DUP1 PUSH4 0x715018A6 EQ PUSH2 0x12F6 JUMPI DUP1 PUSH4 0x7400CBA2 EQ PUSH2 0x11C7 JUMPI DUP1 PUSH4 0x7B008D3B EQ PUSH2 0x119E JUMPI DUP1 PUSH4 0x881EFAA1 EQ PUSH2 0x1175 JUMPI DUP1 PUSH4 0x8AAA06E5 EQ PUSH2 0x114C JUMPI DUP1 PUSH4 0x8AFB7F56 EQ PUSH2 0x1123 JUMPI DUP1 PUSH4 0x8DA5CB5B EQ PUSH2 0x10FA JUMPI DUP1 PUSH4 0x916B62DA EQ PUSH2 0xE00 JUMPI DUP1 PUSH4 0x95D89B41 EQ PUSH2 0xD3B JUMPI DUP1 PUSH4 0x96F4ADA6 EQ PUSH2 0xCB7 JUMPI DUP1 PUSH4 0x9898135F EQ PUSH2 0xC4C JUMPI DUP1 PUSH4 0x989E6E8C EQ PUSH2 0xBC1 JUMPI DUP1 PUSH4 0x9DE44451 EQ PUSH2 0xB36 JUMPI DUP1 PUSH4 0xA22CB465 EQ PUSH2 0xA91 JUMPI DUP1 PUSH4 0xB88D4FDE EQ PUSH2 0xA23 JUMPI DUP1 PUSH4 0xBE72B747 EQ PUSH2 0x9FA JUMPI DUP1 PUSH4 0xBF05ED46 EQ PUSH2 0x9D1 JUMPI DUP1 PUSH4 0xC3941614 EQ PUSH2 0x6B6 JUMPI DUP1 PUSH4 0xC87B56DD EQ PUSH2 0x663 JUMPI DUP1 PUSH4 0xCF1E0ED0 EQ PUSH2 0x587 JUMPI DUP1 PUSH4 0xE00D8FA2 EQ PUSH2 0x2C9 JUMPI DUP1 PUSH4 0xE985E9C5 EQ PUSH2 0x273 JUMPI PUSH4 0xF2FDE38B EQ PUSH2 0x1F8 JUMPI PUSH1 0x0 DUP1 REVERT JUMPDEST CALLVALUE PUSH2 0x26E JUMPI PUSH1 0x20 CALLDATASIZE PUSH1 0x3 NOT ADD SLT PUSH2 0x26E JUMPI PUSH2 0x211 PUSH2 0x2213 JUMP JUMPDEST PUSH2 0x219 PUSH2 0x24BE JUMP JUMPDEST PUSH1 0x1 PUSH1 0x1 PUSH1 0xA0 SHL SUB SWAP1 DUP2 AND SWAP1 DUP2 ISZERO PUSH2 0x255 JUMPI PUSH1 0xA DUP1 SLOAD PUSH1 0x1 PUSH1 0x1 PUSH1 0xA0 SHL SUB NOT DUP2 AND DUP5 OR SWAP1 SWAP2 SSTORE AND PUSH1 0x0 DUP1 MLOAD PUSH1 0x20 PUSH2 0x30DD DUP4 CODECOPY DUP2 MLOAD SWAP2 MSTORE PUSH1 0x0 DUP1 LOG3 STOP JUMPDEST PUSH1 0x40 MLOAD PUSH4 0x1E4FBDF7 PUSH1 0xE0 SHL DUP2 MSTORE PUSH1 0x0 PUSH1 0x4 DUP3 ADD MSTORE PUSH1 0x24 SWAP1 REVERT JUMPDEST PUSH1 0x0 DUP1 REVERT JUMPDEST CALLVALUE PUSH2 0x26E JUMPI PUSH1 0x40 CALLDATASIZE PUSH1 0x3 NOT ADD SLT PUSH2 0x26E JUMPI PUSH2 0x28C PUSH2 0x2213 JUMP JUMPDEST PUSH2 0x294 PUSH2 0x2229 JUMP JUMPDEST SWAP1 PUSH1 0x1 DUP1 PUSH1 0xA0 SHL SUB DUP1 SWAP2 AND PUSH1 0x0 MSTORE PUSH1 0x5 PUSH1 0x20 MSTORE PUSH1 0x40 PUSH1 0x0 KECCAK256 SWAP2 AND PUSH1 0x0 MSTORE PUSH1 0x20 MSTORE PUSH1 0x20 PUSH1 0xFF PUSH1 0x40 PUSH1 0x0 KECCAK256 SLOAD AND PUSH1 0x40 MLOAD SWAP1 ISZERO ISZERO DUP2 MSTORE RETURN JUMPDEST CALLVALUE PUSH2 0x26E JUMPI PUSH1 0xA0 CALLDATASIZE PUSH1 0x3 NOT ADD SLT PUSH2 0x26E JUMPI PUSH2 0x2E2 PUSH2 0x2213 JUMP JUMPDEST PUSH1 0x1 PUSH1 0x1 PUSH1 0xA0 SHL SUB SWAP1 PUSH1 0x44 CALLDATALOAD SWAP1 DUP3 DUP3 AND SWAP1 PUSH1 0x24 CALLDATALOAD SWAP1 DUP3 DUP5 SUB PUSH2 0x26E JUMPI PUSH1 0x1 PUSH1 0x1 PUSH1 0x40 SHL SUB SWAP4 PUSH1 0x64 CALLDATALOAD DUP6 DUP2 GT PUSH2 0x26E JUMPI PUSH2 0x31F SWAP1 CALLDATASIZE SWAP1 PUSH1 0x4 ADD PUSH2 0x2318 JUMP JUMPDEST SWAP1 PUSH1 0x84 CALLDATALOAD DUP7 DUP2 GT PUSH2 0x26E JUMPI PUSH2 0x338 SWAP1 CALLDATASIZE SWAP1 PUSH1 0x4 ADD PUSH2 0x2318 JUMP JUMPDEST SWAP6 DUP8 DUP5 AND ISZERO PUSH2 0x552 JUMPI DUP7 SWAP1 DUP7 PUSH1 0x0 MSTORE PUSH1 0x20 SWAP9 PUSH1 0xF DUP11 MSTORE PUSH2 0x35F PUSH1 0xFF PUSH1 0x40 PUSH1 0x0 KECCAK256 SLOAD AND PUSH2 0x29B9 JUMP JUMPDEST PUSH2 0x36A DUP8 ISZERO ISZERO PUSH2 0x29F9 JUMP JUMPDEST PUSH2 0x374 DUP8 DUP6 PUSH2 0x2DB5 JUMP JUMPDEST PUSH1 0x2 DUP11 PUSH2 0x3EA PUSH1 0x10 SLOAD SWAP11 PUSH2 0x387 DUP13 PUSH2 0x2A30 JUMP JUMPDEST PUSH1 0x10 SSTORE PUSH2 0x394 DUP13 DUP12 PUSH2 0x2AC5 JUMP JUMPDEST DUP12 PUSH1 0x11 PUSH1 0x40 MLOAD SWAP5 PUSH2 0x3A4 DUP7 PUSH2 0x223F JUMP JUMPDEST DUP14 DUP7 MSTORE DUP1 DUP7 ADD SWAP4 DUP5 MSTORE PUSH1 0x40 DUP7 ADD SWAP3 PUSH1 0x0 DUP5 MSTORE PUSH1 0x60 DUP8 ADD SWAP11 DUP12 MSTORE PUSH1 0x0 MSTORE MSTORE PUSH1 0x40 PUSH1 0x0 KECCAK256 SWAP4 MLOAD DUP5 SSTORE PUSH1 0x1 SWAP6 DUP7 DUP6 ADD SWAP3 MLOAD AND PUSH1 0x1 DUP1 PUSH1 0xA0 SHL SUB NOT DUP4 SLOAD AND OR DUP3 SSTORE MLOAD ISZERO ISZERO SWAP1 PUSH2 0x2A55 JUMP JUMPDEST ADD SWAP3 MLOAD DUP1 MLOAD SWAP3 DUP4 GT PUSH2 0x53C JUMPI PUSH2 0x400 DUP5 SLOAD PUSH2 0x23DE JUMP JUMPDEST PUSH1 0x1F DUP2 GT PUSH2 0x4F3 JUMPI JUMPDEST POP DUP11 SWAP1 PUSH1 0x1F DUP5 GT PUSH1 0x1 EQ PUSH2 0x473 JUMPI SWAP3 DUP1 PUSH2 0x45D SWAP8 SWAP6 SWAP4 DUP2 SWAP4 PUSH1 0x0 DUP1 MLOAD PUSH1 0x20 PUSH2 0x311D DUP4 CODECOPY DUP2 MLOAD SWAP2 MSTORE SWAP13 SWAP14 SWAP9 SWAP7 PUSH1 0x0 SWAP5 PUSH2 0x468 JUMPI JUMPDEST POP POP SHL SWAP2 PUSH1 0x0 NOT SWAP1 PUSH1 0x3 SHL SHR NOT AND OR SWAP1 SSTORE JUMPDEST PUSH1 0x40 MLOAD SWAP6 DUP7 SWAP6 CALLER SWAP1 DUP11 DUP9 PUSH2 0x2A72 JUMP JUMPDEST SUB SWAP1 LOG1 PUSH1 0x40 MLOAD SWAP1 DUP2 MSTORE RETURN JUMPDEST ADD MLOAD SWAP3 POP DUP15 DUP1 PUSH2 0x43C JUMP JUMPDEST PUSH1 0x0 DUP6 DUP2 MSTORE DUP13 DUP2 KECCAK256 SWAP4 SWAP5 SWAP4 SWAP3 SWAP2 SWAP1 PUSH1 0x1F NOT DUP6 AND SWAP1 DUP15 JUMPDEST DUP3 DUP3 LT PUSH2 0x4DC JUMPI POP POP SWAP2 PUSH1 0x0 DUP1 MLOAD PUSH1 0x20 PUSH2 0x311D DUP4 CODECOPY DUP2 MLOAD SWAP2 MSTORE SWAP12 SWAP13 SWAP8 SWAP6 SWAP4 SWAP2 DUP6 PUSH2 0x45D SWAP11 SWAP9 SWAP7 SWAP5 LT PUSH2 0x4C3 JUMPI JUMPDEST POP POP POP DUP2 SHL ADD SWAP1 SSTORE PUSH2 0x44E JUMP JUMPDEST ADD MLOAD PUSH1 0x0 NOT PUSH1 0xF8 DUP5 PUSH1 0x3 SHL AND SHR NOT AND SWAP1 SSTORE DUP13 DUP1 DUP1 PUSH2 0x4B6 JUMP JUMPDEST DUP1 DUP9 DUP7 SWAP8 DUP3 SWAP5 SWAP8 DUP8 ADD MLOAD DUP2 SSTORE ADD SWAP7 ADD SWAP5 ADD SWAP1 PUSH2 0x489 JUMP JUMPDEST DUP5 PUSH1 0x0 MSTORE DUP12 PUSH1 0x0 KECCAK256 PUSH1 0x1F DUP6 ADD PUSH1 0x5 SHR DUP2 ADD SWAP2 DUP14 DUP7 LT PUSH2 0x532 JUMPI JUMPDEST PUSH1 0x1F ADD PUSH1 0x5 SHR ADD SWAP1 DUP4 SWAP1 JUMPDEST DUP3 DUP2 LT PUSH2 0x526 JUMPI POP POP PUSH2 0x409 JUMP JUMPDEST PUSH1 0x0 DUP2 SSTORE ADD DUP4 SWAP1 PUSH2 0x518 JUMP JUMPDEST SWAP1 SWAP2 POP DUP2 SWAP1 PUSH2 0x50D JUMP JUMPDEST PUSH4 0x4E487B71 PUSH1 0xE0 SHL PUSH1 0x0 MSTORE PUSH1 0x41 PUSH1 0x4 MSTORE PUSH1 0x24 PUSH1 0x0 REVERT JUMPDEST PUSH1 0x40 MLOAD PUSH3 0x461BCD PUSH1 0xE5 SHL DUP2 MSTORE PUSH1 0x20 PUSH1 0x4 DUP3 ADD MSTORE PUSH1 0xD PUSH1 0x24 DUP3 ADD MSTORE PUSH13 0x189859081C9958DA5C1A595B9D PUSH1 0x9A SHL PUSH1 0x44 DUP3 ADD MSTORE PUSH1 0x64 SWAP1 REVERT JUMPDEST CALLVALUE PUSH2 0x26E JUMPI PUSH1 0x20 DUP1 PUSH1 0x3 NOT CALLDATASIZE ADD SLT PUSH2 0x26E JUMPI PUSH1 0x4 CALLDATALOAD PUSH1 0x60 DUP1 PUSH1 0x40 MLOAD PUSH2 0x5AB DUP2 PUSH2 0x223F JUMP JUMPDEST PUSH1 0x0 DUP2 MSTORE PUSH1 0x0 DUP6 DUP3 ADD MSTORE PUSH1 0x0 PUSH1 0x40 DUP3 ADD MSTORE ADD MSTORE DUP1 PUSH1 0x0 MSTORE PUSH1 0x2 DUP3 MSTORE PUSH1 0x1 DUP1 PUSH1 0xA0 SHL SUB SWAP1 PUSH2 0x5E0 DUP3 PUSH1 0x40 PUSH1 0x0 KECCAK256 SLOAD AND ISZERO ISZERO PUSH2 0x2F2D JUMP JUMPDEST PUSH1 0x0 MSTORE PUSH1 0x11 DUP3 MSTORE PUSH2 0x65F PUSH1 0x40 PUSH1 0x0 KECCAK256 PUSH1 0x40 MLOAD SWAP3 PUSH2 0x5FC DUP5 PUSH2 0x223F JUMP JUMPDEST DUP2 SLOAD DUP5 MSTORE PUSH1 0x1 DUP3 ADD SLOAD SWAP1 PUSH2 0x629 PUSH1 0x2 DUP8 DUP8 ADD SWAP5 DUP4 DUP6 AND DUP7 MSTORE PUSH1 0xFF PUSH1 0x40 DUP10 ADD SWAP6 PUSH1 0xA0 SHR AND ISZERO ISZERO DUP6 MSTORE ADD PUSH2 0x2418 JUMP JUMPDEST SWAP3 PUSH1 0x60 DUP7 ADD SWAP4 DUP5 MSTORE PUSH1 0x40 MLOAD SWAP7 DUP8 SWAP7 DUP2 DUP9 MSTORE MLOAD SWAP1 DUP8 ADD MSTORE MLOAD AND PUSH1 0x40 DUP6 ADD MSTORE MLOAD ISZERO ISZERO PUSH1 0x60 DUP5 ADD MSTORE MLOAD PUSH1 0x80 DUP1 DUP5 ADD MSTORE PUSH1 0xA0 DUP4 ADD SWAP1 PUSH2 0x21D3 JUMP JUMPDEST SUB SWAP1 RETURN JUMPDEST CALLVALUE PUSH2 0x26E JUMPI PUSH1 0x20 CALLDATASIZE PUSH1 0x3 NOT ADD SLT PUSH2 0x26E JUMPI PUSH2 0x67F PUSH1 0x4 CALLDATALOAD PUSH2 0x27DF JUMP JUMPDEST POP PUSH1 0x0 PUSH1 0x40 MLOAD PUSH2 0x68E DUP2 PUSH2 0x226D JUMP JUMPDEST MSTORE PUSH2 0x65F PUSH1 0x40 MLOAD PUSH2 0x69E DUP2 PUSH2 0x226D JUMP JUMPDEST PUSH1 0x0 DUP2 MSTORE PUSH1 0x40 MLOAD SWAP2 DUP3 SWAP2 PUSH1 0x20 DUP4 MSTORE PUSH1 0x20 DUP4 ADD SWAP1 PUSH2 0x21D3 JUMP JUMPDEST CALLVALUE PUSH2 0x26E JUMPI PUSH2 0x6C4 CALLDATASIZE PUSH2 0x2336 JUMP JUMPDEST SWAP2 SWAP4 PUSH1 0x1 DUP1 PUSH1 0xA0 SWAP6 SWAP4 SWAP6 SHL SUB PUSH1 0x16 SLOAD AND ISZERO PUSH2 0x992 JUMPI PUSH2 0x6E5 DUP2 MLOAD ISZERO ISZERO PUSH2 0x301F JUMP JUMPDEST PUSH1 0x1 DUP1 PUSH1 0xA0 SHL SUB DUP6 AND SWAP4 DUP5 PUSH1 0x0 MSTORE PUSH1 0xF PUSH1 0x20 MSTORE PUSH2 0x709 PUSH1 0xFF PUSH1 0x40 PUSH1 0x0 KECCAK256 SLOAD AND PUSH2 0x29B9 JUMP JUMPDEST PUSH2 0x714 DUP4 ISZERO ISZERO PUSH2 0x29F9 JUMP JUMPDEST PUSH2 0x71E DUP4 DUP8 PUSH2 0x2DB5 JUMP JUMPDEST PUSH1 0x10 SLOAD SWAP5 PUSH2 0x72B DUP7 PUSH2 0x2A30 JUMP JUMPDEST PUSH1 0x10 SSTORE PUSH1 0x16 SLOAD PUSH2 0x745 SWAP1 DUP8 SWAP1 PUSH1 0x1 PUSH1 0x1 PUSH1 0xA0 SHL SUB AND PUSH2 0x2AC5 JUMP JUMPDEST PUSH1 0x40 MLOAD SWAP1 PUSH2 0x752 DUP3 PUSH2 0x223F JUMP JUMPDEST DUP5 DUP3 MSTORE PUSH1 0x20 DUP3 ADD SWAP1 DUP2 MSTORE PUSH2 0x7A8 PUSH1 0x40 DUP4 ADD SWAP2 PUSH1 0x0 DUP4 MSTORE PUSH1 0x60 DUP5 ADD SWAP3 DUP9 DUP5 MSTORE DUP10 PUSH1 0x0 MSTORE PUSH1 0x11 PUSH1 0x20 MSTORE PUSH1 0x40 PUSH1 0x0 KECCAK256 SWAP5 MLOAD DUP6 SSTORE PUSH1 0x1 DUP6 ADD SWAP2 PUSH1 0x1 DUP1 PUSH1 0xA0 SHL SUB SWAP1 MLOAD AND PUSH1 0x1 DUP1 PUSH1 0xA0 SHL SUB NOT DUP4 SLOAD AND OR DUP3 SSTORE MLOAD ISZERO ISZERO SWAP1 PUSH2 0x2A55 JUMP JUMPDEST MLOAD DUP1 MLOAD SWAP1 PUSH1 0x1 PUSH1 0x1 PUSH1 0x40 SHL SUB DUP3 GT PUSH2 0x53C JUMPI PUSH2 0x7C7 PUSH1 0x2 DUP5 ADD SLOAD PUSH2 0x23DE JUMP JUMPDEST PUSH1 0x1F DUP2 GT PUSH2 0x94B JUMPI JUMPDEST POP PUSH1 0x20 SWAP1 PUSH1 0x1F DUP4 GT PUSH1 0x1 EQ PUSH2 0x8DD JUMPI PUSH1 0x2 SWAP3 SWAP2 PUSH1 0x0 SWAP2 DUP4 PUSH2 0x8D2 JUMPI JUMPDEST POP POP DUP2 PUSH1 0x1 SHL SWAP2 PUSH1 0x0 NOT SWAP1 PUSH1 0x3 SHL SHR NOT AND OR SWAP2 ADD SSTORE JUMPDEST PUSH1 0x16 SLOAD PUSH1 0x1 PUSH1 0x1 PUSH1 0xA0 SHL SUB AND SWAP4 DUP5 EXTCODESIZE ISZERO PUSH2 0x26E JUMPI PUSH1 0x40 MLOAD PUSH4 0x16E1ED5F PUSH1 0xE1 SHL DUP2 MSTORE SWAP5 PUSH1 0x0 SWAP1 DUP7 SWAP1 DUP2 DUP4 DUP2 PUSH2 0x83B CALLER DUP11 DUP15 PUSH1 0x4 DUP6 ADD PUSH2 0x305F JUMP JUMPDEST SUB SWAP3 GAS CALL SWAP2 DUP3 ISZERO PUSH2 0x8C6 JUMPI PUSH1 0x20 SWAP8 PUSH32 0xE76FF423A3AA7B774558DFD94F8F98B32F043ABE99FE785DC4E29053FD9E3F45 SWAP7 PUSH2 0x45D SWAP5 PUSH2 0x8B7 JUMPI JUMPDEST POP PUSH1 0x0 DUP1 MLOAD PUSH1 0x20 PUSH2 0x311D DUP4 CODECOPY DUP2 MLOAD SWAP2 MSTORE DUP9 PUSH1 0x1 DUP1 PUSH1 0xA0 SHL SUB PUSH1 0x16 SLOAD AND PUSH2 0x8A5 DUP7 DUP7 DUP7 DUP13 PUSH1 0x40 MLOAD SWAP7 DUP8 SWAP7 CALLER SWAP2 DUP9 PUSH2 0x2A72 JUMP JUMPDEST SUB SWAP1 LOG1 PUSH1 0x40 MLOAD SWAP6 DUP7 SWAP6 CALLER SWAP1 DUP11 DUP9 PUSH2 0x308D JUMP JUMPDEST PUSH2 0x8C0 SWAP1 PUSH2 0x225A JUMP JUMPDEST DUP10 PUSH2 0x874 JUMP JUMPDEST PUSH1 0x40 MLOAD RETURNDATASIZE PUSH1 0x0 DUP3 RETURNDATACOPY RETURNDATASIZE SWAP1 REVERT JUMPDEST ADD MLOAD SWAP1 POP DUP11 DUP1 PUSH2 0x7EC JUMP JUMPDEST SWAP1 PUSH1 0x1F NOT DUP4 AND SWAP2 PUSH1 0x2 DUP6 ADD PUSH1 0x0 MSTORE PUSH1 0x20 PUSH1 0x0 KECCAK256 SWAP3 PUSH1 0x0 JUMPDEST DUP2 DUP2 LT PUSH2 0x933 JUMPI POP SWAP2 PUSH1 0x1 SWAP4 SWAP2 DUP6 PUSH1 0x2 SWAP7 SWAP5 LT PUSH2 0x91A JUMPI JUMPDEST POP POP POP DUP2 SHL ADD SWAP2 ADD SSTORE PUSH2 0x802 JUMP JUMPDEST ADD MLOAD PUSH1 0x0 NOT PUSH1 0xF8 DUP5 PUSH1 0x3 SHL AND SHR NOT AND SWAP1 SSTORE DUP11 DUP1 DUP1 PUSH2 0x90C JUMP JUMPDEST SWAP3 SWAP4 PUSH1 0x20 PUSH1 0x1 DUP2 SWAP3 DUP8 DUP7 ADD MLOAD DUP2 SSTORE ADD SWAP6 ADD SWAP4 ADD PUSH2 0x8F4 JUMP JUMPDEST PUSH1 0x2 DUP5 ADD PUSH1 0x0 MSTORE PUSH1 0x20 PUSH1 0x0 KECCAK256 PUSH1 0x1F DUP5 ADD PUSH1 0x5 SHR DUP2 ADD PUSH1 0x20 DUP6 LT PUSH2 0x98B JUMPI JUMPDEST PUSH1 0x1F DUP4 ADD PUSH1 0x5 SHR DUP3 ADD DUP2 LT PUSH2 0x97F JUMPI POP POP PUSH2 0x7D0 JUMP JUMPDEST PUSH1 0x0 DUP2 SSTORE PUSH1 0x1 ADD PUSH2 0x969 JUMP JUMPDEST POP DUP1 PUSH2 0x969 JUMP JUMPDEST PUSH1 0x40 MLOAD PUSH3 0x461BCD PUSH1 0xE5 SHL DUP2 MSTORE PUSH1 0x20 PUSH1 0x4 DUP3 ADD MSTORE PUSH1 0x17 PUSH1 0x24 DUP3 ADD MSTORE PUSH23 0x125B9CDD1859DC985B4815985D5B1D081B9BDD081CD95D PUSH1 0x4A SHL PUSH1 0x44 DUP3 ADD MSTORE PUSH1 0x64 SWAP1 REVERT JUMPDEST CALLVALUE PUSH2 0x26E JUMPI PUSH1 0x0 CALLDATASIZE PUSH1 0x3 NOT ADD SLT PUSH2 0x26E JUMPI PUSH1 0x13 SLOAD PUSH1 0x40 MLOAD PUSH1 0x1 PUSH1 0x1 PUSH1 0xA0 SHL SUB SWAP1 SWAP2 AND DUP2 MSTORE PUSH1 0x20 SWAP1 RETURN JUMPDEST CALLVALUE PUSH2 0x26E JUMPI PUSH1 0x0 CALLDATASIZE PUSH1 0x3 NOT ADD SLT PUSH2 0x26E JUMPI PUSH1 0x15 SLOAD PUSH1 0x40 MLOAD PUSH1 0x1 PUSH1 0x1 PUSH1 0xA0 SHL SUB SWAP1 SWAP2 AND DUP2 MSTORE PUSH1 0x20 SWAP1 RETURN JUMPDEST CALLVALUE PUSH2 0x26E JUMPI PUSH1 0x80 CALLDATASIZE PUSH1 0x3 NOT ADD SLT PUSH2 0x26E JUMPI PUSH2 0xA3C PUSH2 0x2213 JUMP JUMPDEST PUSH2 0xA44 PUSH2 0x2229 JUMP JUMPDEST PUSH1 0x64 CALLDATALOAD SWAP2 SWAP1 PUSH1 0x44 CALLDATALOAD SWAP1 PUSH1 0x1 PUSH1 0x1 PUSH1 0x40 SHL SUB DUP5 GT PUSH2 0x26E JUMPI CALLDATASIZE PUSH1 0x23 DUP6 ADD SLT ISZERO PUSH2 0x26E JUMPI PUSH2 0xA7D PUSH2 0xA8F SWAP5 CALLDATASIZE SWAP1 PUSH1 0x24 DUP2 PUSH1 0x4 ADD CALLDATALOAD SWAP2 ADD PUSH2 0x22E1 JUMP JUMPDEST SWAP3 PUSH2 0xA89 DUP4 DUP4 DUP4 PUSH2 0x2523 JUMP JUMPDEST CALLER PUSH2 0x2896 JUMP JUMPDEST STOP JUMPDEST CALLVALUE PUSH2 0x26E JUMPI PUSH1 0x40 CALLDATASIZE PUSH1 0x3 NOT ADD SLT PUSH2 0x26E JUMPI PUSH2 0xAAA PUSH2 0x2213 JUMP JUMPDEST PUSH1 0x24 CALLDATALOAD SWAP1 DUP2 ISZERO ISZERO DUP1 SWAP3 SUB PUSH2 0x26E JUMPI PUSH1 0x1 PUSH1 0x1 PUSH1 0xA0 SHL SUB AND SWAP1 DUP2 ISZERO PUSH2 0xB1D JUMPI CALLER PUSH1 0x0 MSTORE PUSH1 0x5 PUSH1 0x20 MSTORE PUSH1 0x40 PUSH1 0x0 KECCAK256 DUP3 PUSH1 0x0 MSTORE PUSH1 0x20 MSTORE PUSH1 0x40 PUSH1 0x0 KECCAK256 PUSH1 0xFF NOT DUP2 SLOAD AND PUSH1 0xFF DUP4 AND OR SWAP1 SSTORE PUSH1 0x40 MLOAD SWAP1 DUP2 MSTORE PUSH32 0x17307EAB39AB6107E8899845AD3D59BD9653F200F220920489CA2B5937696C31 PUSH1 0x20 CALLER SWAP3 LOG3 STOP JUMPDEST PUSH1 0x40 MLOAD PUSH4 0xB611743 PUSH1 0xE3 SHL DUP2 MSTORE PUSH1 0x4 DUP2 ADD DUP4 SWAP1 MSTORE PUSH1 0x24 SWAP1 REVERT JUMPDEST CALLVALUE PUSH2 0x26E JUMPI PUSH1 0x20 CALLDATASIZE PUSH1 0x3 NOT ADD SLT PUSH2 0x26E JUMPI PUSH2 0xB4F PUSH2 0x2213 JUMP JUMPDEST PUSH2 0xB57 PUSH2 0x24BE JUMP JUMPDEST PUSH1 0x1 PUSH1 0x1 PUSH1 0xA0 SHL SUB AND DUP1 ISZERO PUSH2 0xB7C JUMPI PUSH1 0x15 DUP1 SLOAD PUSH1 0x1 PUSH1 0x1 PUSH1 0xA0 SHL SUB NOT AND SWAP2 SWAP1 SWAP2 OR SWAP1 SSTORE STOP JUMPDEST PUSH1 0x40 MLOAD PUSH3 0x461BCD PUSH1 0xE5 SHL DUP2 MSTORE PUSH1 0x20 PUSH1 0x4 DUP3 ADD MSTORE PUSH1 0x1D PUSH1 0x24 DUP3 ADD MSTORE PUSH32 0x54696B546F6B205661756C742061646472657373207265717569726564000000 PUSH1 0x44 DUP3 ADD MSTORE PUSH1 0x64 SWAP1 REVERT JUMPDEST CALLVALUE PUSH2 0x26E JUMPI PUSH1 0x20 CALLDATASIZE PUSH1 0x3 NOT ADD SLT PUSH2 0x26E JUMPI PUSH2 0xBDA PUSH2 0x2213 JUMP JUMPDEST PUSH2 0xBE2 PUSH2 0x24BE JUMP JUMPDEST PUSH1 0x1 PUSH1 0x1 PUSH1 0xA0 SHL SUB AND DUP1 ISZERO PUSH2 0xC07 JUMPI PUSH1 0x14 DUP1 SLOAD PUSH1 0x1 PUSH1 0x1 PUSH1 0xA0 SHL SUB NOT AND SWAP2 SWAP1 SWAP2 OR SWAP1 SSTORE STOP JUMPDEST PUSH1 0x40 MLOAD PUSH3 0x461BCD PUSH1 0xE5 SHL DUP2 MSTORE PUSH1 0x20 PUSH1 0x4 DUP3 ADD MSTORE PUSH1 0x1F PUSH1 0x24 DUP3 ADD MSTORE PUSH32 0x54656C656772616D205661756C74206164647265737320726571756972656400 PUSH1 0x44 DUP3 ADD MSTORE PUSH1 0x64 SWAP1 REVERT JUMPDEST CALLVALUE PUSH2 0x26E JUMPI PUSH1 0x20 CALLDATASIZE PUSH1 0x3 NOT ADD SLT PUSH2 0x26E JUMPI PUSH1 0x4 CALLDATALOAD PUSH1 0x0 MSTORE PUSH1 0x11 PUSH1 0x20 MSTORE PUSH1 0x40 PUSH1 0x0 KECCAK256 DUP1 SLOAD PUSH2 0x65F PUSH2 0xC83 PUSH1 0x2 PUSH1 0x1 DUP6 ADD SLOAD SWAP5 ADD PUSH2 0x2418 JUMP JUMPDEST PUSH1 0xFF PUSH1 0x40 MLOAD SWAP5 DUP6 SWAP5 DUP6 MSTORE PUSH1 0x1 DUP1 PUSH1 0xA0 SHL SUB DUP2 AND PUSH1 0x20 DUP7 ADD MSTORE PUSH1 0xA0 SHR AND ISZERO ISZERO PUSH1 0x40 DUP5 ADD MSTORE PUSH1 0x80 PUSH1 0x60 DUP5 ADD MSTORE PUSH1 0x80 DUP4 ADD SWAP1 PUSH2 0x21D3 JUMP JUMPDEST CALLVALUE PUSH2 0x26E JUMPI PUSH1 0x20 CALLDATASIZE PUSH1 0x3 NOT ADD SLT PUSH2 0x26E JUMPI PUSH2 0xCD0 PUSH2 0x2213 JUMP JUMPDEST PUSH2 0xCD8 PUSH2 0x24BE JUMP JUMPDEST PUSH1 0x1 PUSH1 0x1 PUSH1 0xA0 SHL SUB AND DUP1 ISZERO PUSH2 0xCFD JUMPI PUSH1 0x12 DUP1 SLOAD PUSH1 0x1 PUSH1 0x1 PUSH1 0xA0 SHL SUB NOT AND SWAP2 SWAP1 SWAP2 OR SWAP1 SSTORE STOP JUMPDEST PUSH1 0x40 MLOAD PUSH3 0x461BCD PUSH1 0xE5 SHL DUP2 MSTORE PUSH1 0x20 PUSH1 0x4 DUP3 ADD MSTORE PUSH1 0x16 PUSH1 0x24 DUP3 ADD MSTORE PUSH22 0x15985D5B1D081859191C995CDCC81C995C5D5A5C9959 PUSH1 0x52 SHL PUSH1 0x44 DUP3 ADD MSTORE PUSH1 0x64 SWAP1 REVERT JUMPDEST CALLVALUE PUSH2 0x26E JUMPI PUSH1 0x0 CALLDATASIZE PUSH1 0x3 NOT ADD SLT PUSH2 0x26E JUMPI PUSH1 0x40 MLOAD PUSH1 0x0 SWAP1 PUSH1 0x1 DUP1 SLOAD PUSH2 0xD5F DUP2 PUSH2 0x23DE JUMP JUMPDEST DUP1 DUP5 MSTORE SWAP1 DUP3 DUP2 AND SWAP1 DUP2 ISZERO PUSH2 0xDD8 JUMPI POP PUSH1 0x1 EQ PUSH2 0xD9A JUMPI JUMPDEST PUSH2 0x65F DUP4 PUSH2 0xD86 DUP2 DUP8 SUB DUP3 PUSH2 0x22A3 JUMP JUMPDEST PUSH1 0x40 MLOAD SWAP2 DUP3 SWAP2 PUSH1 0x20 DUP4 MSTORE PUSH1 0x20 DUP4 ADD SWAP1 PUSH2 0x21D3 JUMP JUMPDEST SWAP3 POP DUP1 PUSH1 0x0 MSTORE PUSH1 0x20 SWAP3 DUP4 PUSH1 0x0 KECCAK256 SWAP2 PUSH1 0x0 SWAP3 JUMPDEST DUP3 DUP5 LT PUSH2 0xDC5 JUMPI POP POP POP DUP2 ADD SWAP1 SWAP2 ADD SWAP1 PUSH2 0xD86 DUP2 PUSH2 0xD76 JUMP JUMPDEST DUP1 SLOAD DUP6 DUP6 ADD DUP8 ADD MSTORE SWAP3 DUP6 ADD SWAP3 DUP2 ADD PUSH2 0xDAC JUMP JUMPDEST PUSH2 0x65F SWAP6 POP PUSH2 0xD86 SWAP4 POP PUSH1 0x20 SWAP2 POP SWAP2 DUP5 SWAP3 PUSH1 0xFF NOT AND DUP3 DUP5 ADD MSTORE ISZERO ISZERO PUSH1 0x5 SHL DUP3 ADD ADD SWAP4 POP PUSH2 0xD76 JUMP JUMPDEST CALLVALUE PUSH2 0x26E JUMPI PUSH2 0xE0E CALLDATASIZE PUSH2 0x2336 JUMP JUMPDEST SWAP2 SWAP4 PUSH1 0x1 DUP1 PUSH1 0xA0 SWAP6 SWAP4 SWAP6 SHL SUB PUSH1 0x15 SLOAD AND ISZERO PUSH2 0x10BE JUMPI PUSH2 0xE2F DUP2 MLOAD ISZERO ISZERO PUSH2 0x301F JUMP JUMPDEST PUSH1 0x1 DUP1 PUSH1 0xA0 SHL SUB DUP6 AND SWAP4 DUP5 PUSH1 0x0 MSTORE PUSH1 0xF PUSH1 0x20 MSTORE PUSH2 0xE53 PUSH1 0xFF PUSH1 0x40 PUSH1 0x0 KECCAK256 SLOAD AND PUSH2 0x29B9 JUMP JUMPDEST PUSH2 0xE5E DUP4 ISZERO ISZERO PUSH2 0x29F9 JUMP JUMPDEST PUSH2 0xE68 DUP4 DUP8 PUSH2 0x2DB5 JUMP JUMPDEST PUSH1 0x10 SLOAD SWAP5 PUSH2 0xE75 DUP7 PUSH2 0x2A30 JUMP JUMPDEST PUSH1 0x10 SSTORE PUSH1 0x15 SLOAD PUSH2 0xE8F SWAP1 DUP8 SWAP1 PUSH1 0x1 PUSH1 0x1 PUSH1 0xA0 SHL SUB AND PUSH2 0x2AC5 JUMP JUMPDEST PUSH1 0x40 MLOAD SWAP1 PUSH2 0xE9C DUP3 PUSH2 0x223F JUMP JUMPDEST DUP5 DUP3 MSTORE PUSH1 0x20 DUP3 ADD SWAP1 DUP2 MSTORE PUSH2 0xEF2 PUSH1 0x40 DUP4 ADD SWAP2 PUSH1 0x0 DUP4 MSTORE PUSH1 0x60 DUP5 ADD SWAP3 DUP9 DUP5 MSTORE DUP10 PUSH1 0x0 MSTORE PUSH1 0x11 PUSH1 0x20 MSTORE PUSH1 0x40 PUSH1 0x0 KECCAK256 SWAP5 MLOAD DUP6 SSTORE PUSH1 0x1 DUP6 ADD SWAP2 PUSH1 0x1 DUP1 PUSH1 0xA0 SHL SUB SWAP1 MLOAD AND PUSH1 0x1 DUP1 PUSH1 0xA0 SHL SUB NOT DUP4 SLOAD AND OR DUP3 SSTORE MLOAD ISZERO ISZERO SWAP1 PUSH2 0x2A55 JUMP JUMPDEST MLOAD DUP1 MLOAD SWAP1 PUSH1 0x1 PUSH1 0x1 PUSH1 0x40 SHL SUB DUP3 GT PUSH2 0x53C JUMPI PUSH2 0xF11 PUSH1 0x2 DUP5 ADD SLOAD PUSH2 0x23DE JUMP JUMPDEST PUSH1 0x1F DUP2 GT PUSH2 0x1077 JUMPI JUMPDEST POP PUSH1 0x20 SWAP1 PUSH1 0x1F DUP4 GT PUSH1 0x1 EQ PUSH2 0x1009 JUMPI PUSH1 0x2 SWAP3 SWAP2 PUSH1 0x0 SWAP2 DUP4 PUSH2 0xFFE JUMPI JUMPDEST POP POP DUP2 PUSH1 0x1 SHL SWAP2 PUSH1 0x0 NOT SWAP1 PUSH1 0x3 SHL SHR NOT AND OR SWAP2 ADD SSTORE JUMPDEST PUSH1 0x15 SLOAD PUSH1 0x1 PUSH1 0x1 PUSH1 0xA0 SHL SUB AND SWAP4 DUP5 EXTCODESIZE ISZERO PUSH2 0x26E JUMPI PUSH1 0x40 MLOAD PUSH4 0x16E1ED5F PUSH1 0xE1 SHL DUP2 MSTORE SWAP5 PUSH1 0x0 SWAP1 DUP7 SWAP1 DUP2 DUP4 DUP2 PUSH2 0xF85 CALLER DUP11 DUP15 PUSH1 0x4 DUP6 ADD PUSH2 0x305F JUMP JUMPDEST SUB SWAP3 GAS CALL SWAP2 DUP3 ISZERO PUSH2 0x8C6 JUMPI PUSH1 0x20 SWAP8 PUSH32 0x556BFD7F220D92F2FAE3734649D447E58EBAB8DD51DEE4035364727699E49FDF SWAP7 PUSH2 0x45D SWAP5 PUSH2 0xFEF JUMPI JUMPDEST POP PUSH1 0x0 DUP1 MLOAD PUSH1 0x20 PUSH2 0x311D DUP4 CODECOPY DUP2 MLOAD SWAP2 MSTORE DUP9 PUSH1 0x1 DUP1 PUSH1 0xA0 SHL SUB PUSH1 0x15 SLOAD AND PUSH2 0x8A5 DUP7 DUP7 DUP7 DUP13 PUSH1 0x40 MLOAD SWAP7 DUP8 SWAP7 CALLER SWAP2 DUP9 PUSH2 0x2A72 JUMP JUMPDEST PUSH2 0xFF8 SWAP1 PUSH2 0x225A JUMP JUMPDEST DUP10 PUSH2 0xFBE JUMP JUMPDEST ADD MLOAD SWAP1 POP DUP11 DUP1 PUSH2 0xF36 JUMP JUMPDEST SWAP1 PUSH1 0x1F NOT DUP4 AND SWAP2 PUSH1 0x2 DUP6 ADD PUSH1 0x0 MSTORE PUSH1 0x20 PUSH1 0x0 KECCAK256 SWAP3 PUSH1 0x0 JUMPDEST DUP2 DUP2 LT PUSH2 0x105F JUMPI POP SWAP2 PUSH1 0x1 SWAP4 SWAP2 DUP6 PUSH1 0x2 SWAP7 SWAP5 LT PUSH2 0x1046 JUMPI JUMPDEST POP POP POP DUP2 SHL ADD SWAP2 ADD SSTORE PUSH2 0xF4C JUMP JUMPDEST ADD MLOAD PUSH1 0x0 NOT PUSH1 0xF8 DUP5 PUSH1 0x3 SHL AND SHR NOT AND SWAP1 SSTORE DUP11 DUP1 DUP1 PUSH2 0x1038 JUMP JUMPDEST SWAP3 SWAP4 PUSH1 0x20 PUSH1 0x1 DUP2 SWAP3 DUP8 DUP7 ADD MLOAD DUP2 SSTORE ADD SWAP6 ADD SWAP4 ADD PUSH2 0x1020 JUMP JUMPDEST PUSH1 0x2 DUP5 ADD PUSH1 0x0 MSTORE PUSH1 0x20 PUSH1 0x0 KECCAK256 PUSH1 0x1F DUP5 ADD PUSH1 0x5 SHR DUP2 ADD PUSH1 0x20 DUP6 LT PUSH2 0x10B7 JUMPI JUMPDEST PUSH1 0x1F DUP4 ADD PUSH1 0x5 SHR DUP3 ADD DUP2 LT PUSH2 0x10AB JUMPI POP POP PUSH2 0xF1A JUMP JUMPDEST PUSH1 0x0 DUP2 SSTORE PUSH1 0x1 ADD PUSH2 0x1095 JUMP JUMPDEST POP DUP1 PUSH2 0x1095 JUMP JUMPDEST PUSH1 0x40 MLOAD PUSH3 0x461BCD PUSH1 0xE5 SHL DUP2 MSTORE PUSH1 0x20 PUSH1 0x4 DUP3 ADD MSTORE PUSH1 0x14 PUSH1 0x24 DUP3 ADD MSTORE PUSH20 0x151A5AD51BDAC815985D5B1D081B9BDD081CD95D PUSH1 0x62 SHL PUSH1 0x44 DUP3 ADD MSTORE PUSH1 0x64 SWAP1 REVERT JUMPDEST CALLVALUE PUSH2 0x26E JUMPI PUSH1 0x0 CALLDATASIZE PUSH1 0x3 NOT ADD SLT PUSH2 0x26E JUMPI PUSH1 0xA SLOAD PUSH1 0x40 MLOAD PUSH1 0x1 PUSH1 0x1 PUSH1 0xA0 SHL SUB SWAP1 SWAP2 AND DUP2 MSTORE PUSH1 0x20 SWAP1 RETURN JUMPDEST CALLVALUE PUSH2 0x26E JUMPI PUSH1 0x0 CALLDATASIZE PUSH1 0x3 NOT ADD SLT PUSH2 0x26E JUMPI PUSH1 0x14 SLOAD PUSH1 0x40 MLOAD PUSH1 0x1 PUSH1 0x1 PUSH1 0xA0 SHL SUB SWAP1 SWAP2 AND DUP2 MSTORE PUSH1 0x20 SWAP1 RETURN JUMPDEST CALLVALUE PUSH2 0x26E JUMPI PUSH1 0x0 CALLDATASIZE PUSH1 0x3 NOT ADD SLT PUSH2 0x26E JUMPI PUSH1 0xD SLOAD PUSH1 0x40 MLOAD PUSH1 0x1 PUSH1 0x1 PUSH1 0xA0 SHL SUB SWAP1 SWAP2 AND DUP2 MSTORE PUSH1 0x20 SWAP1 RETURN JUMPDEST CALLVALUE PUSH2 0x26E JUMPI PUSH1 0x0 CALLDATASIZE PUSH1 0x3 NOT ADD SLT PUSH2 0x26E JUMPI PUSH1 0xE SLOAD PUSH1 0x40 MLOAD PUSH1 0x1 PUSH1 0x1 PUSH1 0xA0 SHL SUB SWAP1 SWAP2 AND DUP2 MSTORE PUSH1 0x20 SWAP1 RETURN JUMPDEST CALLVALUE PUSH2 0x26E JUMPI PUSH1 0x0 CALLDATASIZE PUSH1 0x3 NOT ADD SLT PUSH2 0x26E JUMPI PUSH1 0xB SLOAD PUSH1 0x40 MLOAD PUSH1 0x1 PUSH1 0x1 PUSH1 0xA0 SHL SUB SWAP1 SWAP2 AND DUP2 MSTORE PUSH1 0x20 SWAP1 RETURN JUMPDEST CALLVALUE PUSH2 0x26E JUMPI PUSH1 0x20 DUP1 PUSH1 0x3 NOT CALLDATASIZE ADD SLT PUSH2 0x26E JUMPI PUSH1 0x4 CALLDATALOAD SWAP1 DUP2 PUSH1 0x0 MSTORE PUSH1 0x2 DUP2 MSTORE PUSH1 0x1 DUP1 PUSH1 0xA0 SHL SUB PUSH2 0x11FE DUP2 PUSH1 0x40 PUSH1 0x0 KECCAK256 SLOAD AND ISZERO ISZERO PUSH2 0x2F2D JUMP JUMPDEST DUP3 PUSH1 0x0 MSTORE PUSH1 0x11 DUP3 MSTORE PUSH1 0x40 PUSH1 0x0 KECCAK256 SWAP1 PUSH1 0x1 DUP3 ADD SWAP2 DUP3 SLOAD PUSH1 0xFF DUP2 PUSH1 0xA0 SHR AND PUSH2 0x12C6 JUMPI PUSH2 0x1227 DUP7 PUSH2 0x27DF JUMP JUMPDEST DUP4 CALLER SWAP2 AND SUB PUSH2 0x1295 JUMPI SWAP2 PUSH32 0xAC810351E0A5276B563659D9FD53866CE57E5206390B028A4542437ED86C2534 SWAP6 SWAP4 SWAP2 PUSH2 0x1278 PUSH1 0x80 SWAP7 SWAP5 PUSH1 0x1 PUSH1 0xA0 SHL PUSH1 0xFF PUSH1 0xA0 SHL NOT DUP3 AND OR DUP6 SSTORE DUP3 SLOAD SWAP1 DUP5 CALLER SWAP2 AND PUSH2 0x2F63 JUMP JUMPDEST SLOAD SWAP2 SLOAD AND SWAP2 PUSH1 0x40 MLOAD SWAP4 DUP5 MSTORE CALLER SWAP1 DUP5 ADD MSTORE PUSH1 0x40 DUP4 ADD MSTORE PUSH1 0x60 DUP3 ADD MSTORE LOG1 STOP JUMPDEST PUSH1 0x40 MLOAD PUSH3 0x461BCD PUSH1 0xE5 SHL DUP2 MSTORE PUSH1 0x4 DUP2 ADD DUP7 SWAP1 MSTORE PUSH1 0x9 PUSH1 0x24 DUP3 ADD MSTORE PUSH9 0x3737BA1037BBB732B9 PUSH1 0xB9 SHL PUSH1 0x44 DUP3 ADD MSTORE PUSH1 0x64 SWAP1 REVERT JUMPDEST PUSH1 0x40 MLOAD PUSH3 0x461BCD PUSH1 0xE5 SHL DUP2 MSTORE PUSH1 0x4 DUP2 ADD DUP7 SWAP1 MSTORE PUSH1 0x8 PUSH1 0x24 DUP3 ADD MSTORE PUSH8 0x1C995919595B5959 PUSH1 0xC2 SHL PUSH1 0x44 DUP3 ADD MSTORE PUSH1 0x64 SWAP1 REVERT JUMPDEST CALLVALUE PUSH2 0x26E JUMPI PUSH1 0x0 CALLDATASIZE PUSH1 0x3 NOT ADD SLT PUSH2 0x26E JUMPI PUSH2 0x130F PUSH2 0x24BE JUMP JUMPDEST PUSH1 0xA DUP1 SLOAD PUSH1 0x1 PUSH1 0x1 PUSH1 0xA0 SHL SUB NOT DUP2 AND SWAP1 SWAP2 SSTORE PUSH1 0x0 SWAP1 PUSH1 0x1 PUSH1 0x1 PUSH1 0xA0 SHL SUB AND PUSH1 0x0 DUP1 MLOAD PUSH1 0x20 PUSH2 0x30DD DUP4 CODECOPY DUP2 MLOAD SWAP2 MSTORE DUP3 DUP1 LOG3 STOP JUMPDEST CALLVALUE PUSH2 0x26E JUMPI PUSH1 0x20 CALLDATASIZE PUSH1 0x3 NOT ADD SLT PUSH2 0x26E JUMPI PUSH1 0x20 PUSH2 0x1364 PUSH2 0x135F PUSH2 0x2213 JUMP JUMPDEST PUSH2 0x24EA JUMP JUMPDEST PUSH1 0x40 MLOAD SWAP1 DUP2 MSTORE RETURN JUMPDEST CALLVALUE PUSH2 0x26E JUMPI PUSH1 0x20 CALLDATASIZE PUSH1 0x3 NOT ADD SLT PUSH2 0x26E JUMPI PUSH2 0x1385 PUSH2 0x2213 JUMP JUMPDEST PUSH2 0x138D PUSH2 0x24BE JUMP JUMPDEST PUSH1 0x1 PUSH1 0x1 PUSH1 0xA0 SHL SUB AND DUP1 ISZERO PUSH2 0x13B2 JUMPI PUSH1 0x13 DUP1 SLOAD PUSH1 0x1 PUSH1 0x1 PUSH1 0xA0 SHL SUB NOT AND SWAP2 SWAP1 SWAP2 OR SWAP1 SSTORE STOP JUMPDEST PUSH1 0x40 MLOAD PUSH3 0x461BCD PUSH1 0xE5 SHL DUP2 MSTORE PUSH1 0x20 PUSH1 0x4 DUP3 ADD MSTORE PUSH1 0x1D PUSH1 0x24 DUP3 ADD MSTORE PUSH32 0x547769746368205661756C742061646472657373207265717569726564000000 PUSH1 0x44 DUP3 ADD MSTORE PUSH1 0x64 SWAP1 REVERT JUMPDEST CALLVALUE PUSH2 0x26E JUMPI PUSH1 0x20 CALLDATASIZE PUSH1 0x3 NOT ADD SLT PUSH2 0x26E JUMPI PUSH1 0x1 PUSH1 0x1 PUSH1 0xA0 SHL SUB PUSH2 0x1418 PUSH2 0x2213 JUMP JUMPDEST AND PUSH1 0x0 MSTORE PUSH1 0xF PUSH1 0x20 MSTORE PUSH1 0x20 PUSH1 0xFF PUSH1 0x40 PUSH1 0x0 KECCAK256 SLOAD AND PUSH1 0x40 MLOAD SWAP1 ISZERO ISZERO DUP2 MSTORE RETURN JUMPDEST CALLVALUE PUSH2 0x26E JUMPI PUSH1 0x20 CALLDATASIZE PUSH1 0x3 NOT ADD SLT PUSH2 0x26E JUMPI PUSH1 0x20 PUSH2 0x1454 PUSH1 0x4 CALLDATALOAD PUSH2 0x27DF JUMP JUMPDEST PUSH1 0x40 MLOAD PUSH1 0x1 PUSH1 0x1 PUSH1 0xA0 SHL SUB SWAP1 SWAP2 AND DUP2 MSTORE RETURN JUMPDEST CALLVALUE PUSH2 0x26E JUMPI PUSH1 0x20 CALLDATASIZE PUSH1 0x3 NOT ADD SLT PUSH2 0x26E JUMPI PUSH2 0x147F PUSH2 0x2213 JUMP JUMPDEST PUSH2 0x1487 PUSH2 0x24BE JUMP JUMPDEST PUSH1 0x1 PUSH1 0x1 PUSH1 0xA0 SHL SUB AND DUP1 ISZERO PUSH2 0x14AC JUMPI PUSH1 0x16 DUP1 SLOAD PUSH1 0x1 PUSH1 0x1 PUSH1 0xA0 SHL SUB NOT AND SWAP2 SWAP1 SWAP2 OR SWAP1 SSTORE STOP JUMPDEST PUSH1 0x64 PUSH1 0x40 MLOAD PUSH3 0x461BCD PUSH1 0xE5 SHL DUP2 MSTORE PUSH1 0x20 PUSH1 0x4 DUP3 ADD MSTORE PUSH1 0x20 PUSH1 0x24 DUP3 ADD MSTORE PUSH32 0x496E7374616772616D205661756C742061646472657373207265717569726564 PUSH1 0x44 DUP3 ADD MSTORE REVERT JUMPDEST CALLVALUE PUSH2 0x26E JUMPI PUSH1 0x0 CALLDATASIZE PUSH1 0x3 NOT ADD SLT PUSH2 0x26E JUMPI PUSH1 0xC SLOAD PUSH1 0x40 MLOAD PUSH1 0x1 PUSH1 0x1 PUSH1 0xA0 SHL SUB SWAP1 SWAP2 AND DUP2 MSTORE PUSH1 0x20 SWAP1 RETURN JUMPDEST CALLVALUE PUSH2 0x26E JUMPI PUSH2 0x1527 CALLDATASIZE PUSH2 0x2336 JUMP JUMPDEST SWAP2 SWAP4 PUSH1 0x1 DUP1 PUSH1 0xA0 SWAP6 SWAP4 SWAP6 SHL SUB PUSH1 0x14 SLOAD AND ISZERO PUSH2 0x17D7 JUMPI PUSH2 0x1548 DUP2 MLOAD ISZERO ISZERO PUSH2 0x301F JUMP JUMPDEST PUSH1 0x1 DUP1 PUSH1 0xA0 SHL SUB DUP6 AND SWAP4 DUP5 PUSH1 0x0 MSTORE PUSH1 0xF PUSH1 0x20 MSTORE PUSH2 0x156C PUSH1 0xFF PUSH1 0x40 PUSH1 0x0 KECCAK256 SLOAD AND PUSH2 0x29B9 JUMP JUMPDEST PUSH2 0x1577 DUP4 ISZERO ISZERO PUSH2 0x29F9 JUMP JUMPDEST PUSH2 0x1581 DUP4 DUP8 PUSH2 0x2DB5 JUMP JUMPDEST PUSH1 0x10 SLOAD SWAP5 PUSH2 0x158E DUP7 PUSH2 0x2A30 JUMP JUMPDEST PUSH1 0x10 SSTORE PUSH1 0x14 SLOAD PUSH2 0x15A8 SWAP1 DUP8 SWAP1 PUSH1 0x1 PUSH1 0x1 PUSH1 0xA0 SHL SUB AND PUSH2 0x2AC5 JUMP JUMPDEST PUSH1 0x40 MLOAD SWAP1 PUSH2 0x15B5 DUP3 PUSH2 0x223F JUMP JUMPDEST DUP5 DUP3 MSTORE PUSH1 0x20 DUP3 ADD SWAP1 DUP2 MSTORE PUSH2 0x160B PUSH1 0x40 DUP4 ADD SWAP2 PUSH1 0x0 DUP4 MSTORE PUSH1 0x60 DUP5 ADD SWAP3 DUP9 DUP5 MSTORE DUP10 PUSH1 0x0 MSTORE PUSH1 0x11 PUSH1 0x20 MSTORE PUSH1 0x40 PUSH1 0x0 KECCAK256 SWAP5 MLOAD DUP6 SSTORE PUSH1 0x1 DUP6 ADD SWAP2 PUSH1 0x1 DUP1 PUSH1 0xA0 SHL SUB SWAP1 MLOAD AND PUSH1 0x1 DUP1 PUSH1 0xA0 SHL SUB NOT DUP4 SLOAD AND OR DUP3 SSTORE MLOAD ISZERO ISZERO SWAP1 PUSH2 0x2A55 JUMP JUMPDEST MLOAD DUP1 MLOAD SWAP1 PUSH1 0x1 PUSH1 0x1 PUSH1 0x40 SHL SUB DUP3 GT PUSH2 0x53C JUMPI PUSH2 0x162A PUSH1 0x2 DUP5 ADD SLOAD PUSH2 0x23DE JUMP JUMPDEST PUSH1 0x1F DUP2 GT PUSH2 0x1790 JUMPI JUMPDEST POP PUSH1 0x20 SWAP1 PUSH1 0x1F DUP4 GT PUSH1 0x1 EQ PUSH2 0x1722 JUMPI PUSH1 0x2 SWAP3 SWAP2 PUSH1 0x0 SWAP2 DUP4 PUSH2 0x1717 JUMPI JUMPDEST POP POP DUP2 PUSH1 0x1 SHL SWAP2 PUSH1 0x0 NOT SWAP1 PUSH1 0x3 SHL SHR NOT AND OR SWAP2 ADD SSTORE JUMPDEST PUSH1 0x14 SLOAD PUSH1 0x1 PUSH1 0x1 PUSH1 0xA0 SHL SUB AND SWAP4 DUP5 EXTCODESIZE ISZERO PUSH2 0x26E JUMPI PUSH1 0x40 MLOAD PUSH4 0x16E1ED5F PUSH1 0xE1 SHL DUP2 MSTORE SWAP5 PUSH1 0x0 SWAP1 DUP7 SWAP1 DUP2 DUP4 DUP2 PUSH2 0x169E CALLER DUP11 DUP15 PUSH1 0x4 DUP6 ADD PUSH2 0x305F JUMP JUMPDEST SUB SWAP3 GAS CALL SWAP2 DUP3 ISZERO PUSH2 0x8C6 JUMPI PUSH1 0x20 SWAP8 PUSH32 0x8B4A1E0AD00E26141E0C254C13A3BA386688D071F45651D82461EE183EDD401A SWAP7 PUSH2 0x45D SWAP5 PUSH2 0x1708 JUMPI JUMPDEST POP PUSH1 0x0 DUP1 MLOAD PUSH1 0x20 PUSH2 0x311D DUP4 CODECOPY DUP2 MLOAD SWAP2 MSTORE DUP9 PUSH1 0x1 DUP1 PUSH1 0xA0 SHL SUB PUSH1 0x14 SLOAD AND PUSH2 0x8A5 DUP7 DUP7 DUP7 DUP13 PUSH1 0x40 MLOAD SWAP7 DUP8 SWAP7 CALLER SWAP2 DUP9 PUSH2 0x2A72 JUMP JUMPDEST PUSH2 0x1711 SWAP1 PUSH2 0x225A JUMP JUMPDEST DUP10 PUSH2 0x16D7 JUMP JUMPDEST ADD MLOAD SWAP1 POP DUP11 DUP1 PUSH2 0x164F JUMP JUMPDEST SWAP1 PUSH1 0x1F NOT DUP4 AND SWAP2 PUSH1 0x2 DUP6 ADD PUSH1 0x0 MSTORE PUSH1 0x20 PUSH1 0x0 KECCAK256 SWAP3 PUSH1 0x0 JUMPDEST DUP2 DUP2 LT PUSH2 0x1778 JUMPI POP SWAP2 PUSH1 0x1 SWAP4 SWAP2 DUP6 PUSH1 0x2 SWAP7 SWAP5 LT PUSH2 0x175F JUMPI JUMPDEST POP POP POP DUP2 SHL ADD SWAP2 ADD SSTORE PUSH2 0x1665 JUMP JUMPDEST ADD MLOAD PUSH1 0x0 NOT PUSH1 0xF8 DUP5 PUSH1 0x3 SHL AND SHR NOT AND SWAP1 SSTORE DUP11 DUP1 DUP1 PUSH2 0x1751 JUMP JUMPDEST SWAP3 SWAP4 PUSH1 0x20 PUSH1 0x1 DUP2 SWAP3 DUP8 DUP7 ADD MLOAD DUP2 SSTORE ADD SWAP6 ADD SWAP4 ADD PUSH2 0x1739 JUMP JUMPDEST PUSH1 0x2 DUP5 ADD PUSH1 0x0 MSTORE PUSH1 0x20 PUSH1 0x0 KECCAK256 PUSH1 0x1F DUP5 ADD PUSH1 0x5 SHR DUP2 ADD PUSH1 0x20 DUP6 LT PUSH2 0x17D0 JUMPI JUMPDEST PUSH1 0x1F DUP4 ADD PUSH1 0x5 SHR DUP3 ADD DUP2 LT PUSH2 0x17C4 JUMPI POP POP PUSH2 0x1633 JUMP JUMPDEST PUSH1 0x0 DUP2 SSTORE PUSH1 0x1 ADD PUSH2 0x17AE JUMP JUMPDEST POP DUP1 PUSH2 0x17AE JUMP JUMPDEST PUSH1 0x40 MLOAD PUSH3 0x461BCD PUSH1 0xE5 SHL DUP2 MSTORE PUSH1 0x20 PUSH1 0x4 DUP3 ADD MSTORE PUSH1 0x16 PUSH1 0x24 DUP3 ADD MSTORE PUSH22 0x15195B1959DC985B4815985D5B1D081B9BDD081CD95D PUSH1 0x52 SHL PUSH1 0x44 DUP3 ADD MSTORE PUSH1 0x64 SWAP1 REVERT JUMPDEST CALLVALUE PUSH2 0x26E JUMPI PUSH2 0x1823 CALLDATASIZE PUSH2 0x2336 JUMP JUMPDEST SWAP2 SWAP4 PUSH1 0x1 DUP1 PUSH1 0xA0 SWAP6 SWAP4 SWAP6 SHL SUB PUSH1 0x12 SLOAD AND ISZERO PUSH2 0x1AD3 JUMPI PUSH2 0x1844 DUP2 MLOAD ISZERO ISZERO PUSH2 0x301F JUMP JUMPDEST PUSH1 0x1 DUP1 PUSH1 0xA0 SHL SUB DUP6 AND SWAP4 DUP5 PUSH1 0x0 MSTORE PUSH1 0xF PUSH1 0x20 MSTORE PUSH2 0x1868 PUSH1 0xFF PUSH1 0x40 PUSH1 0x0 KECCAK256 SLOAD AND PUSH2 0x29B9 JUMP JUMPDEST PUSH2 0x1873 DUP4 ISZERO ISZERO PUSH2 0x29F9 JUMP JUMPDEST PUSH2 0x187D DUP4 DUP8 PUSH2 0x2DB5 JUMP JUMPDEST PUSH1 0x10 SLOAD SWAP5 PUSH2 0x188A DUP7 PUSH2 0x2A30 JUMP JUMPDEST PUSH1 0x10 SSTORE PUSH1 0x12 SLOAD PUSH2 0x18A4 SWAP1 DUP8 SWAP1 PUSH1 0x1 PUSH1 0x1 PUSH1 0xA0 SHL SUB AND PUSH2 0x2AC5 JUMP JUMPDEST PUSH1 0x40 MLOAD SWAP1 PUSH2 0x18B1 DUP3 PUSH2 0x223F JUMP JUMPDEST DUP5 DUP3 MSTORE PUSH1 0x20 DUP3 ADD SWAP1 DUP2 MSTORE PUSH2 0x1907 PUSH1 0x40 DUP4 ADD SWAP2 PUSH1 0x0 DUP4 MSTORE PUSH1 0x60 DUP5 ADD SWAP3 DUP9 DUP5 MSTORE DUP10 PUSH1 0x0 MSTORE PUSH1 0x11 PUSH1 0x20 MSTORE PUSH1 0x40 PUSH1 0x0 KECCAK256 SWAP5 MLOAD DUP6 SSTORE PUSH1 0x1 DUP6 ADD SWAP2 PUSH1 0x1 DUP1 PUSH1 0xA0 SHL SUB SWAP1 MLOAD AND PUSH1 0x1 DUP1 PUSH1 0xA0 SHL SUB NOT DUP4 SLOAD AND OR DUP3 SSTORE MLOAD ISZERO ISZERO SWAP1 PUSH2 0x2A55 JUMP JUMPDEST MLOAD DUP1 MLOAD SWAP1 PUSH1 0x1 PUSH1 0x1 PUSH1 0x40 SHL SUB DUP3 GT PUSH2 0x53C JUMPI PUSH2 0x1926 PUSH1 0x2 DUP5 ADD SLOAD PUSH2 0x23DE JUMP JUMPDEST PUSH1 0x1F DUP2 GT PUSH2 0x1A8C JUMPI JUMPDEST POP PUSH1 0x20 SWAP1 PUSH1 0x1F DUP4 GT PUSH1 0x1 EQ PUSH2 0x1A1E JUMPI PUSH1 0x2 SWAP3 SWAP2 PUSH1 0x0 SWAP2 DUP4 PUSH2 0x1A13 JUMPI JUMPDEST POP POP DUP2 PUSH1 0x1 SHL SWAP2 PUSH1 0x0 NOT SWAP1 PUSH1 0x3 SHL SHR NOT AND OR SWAP2 ADD SSTORE JUMPDEST PUSH1 0x12 SLOAD PUSH1 0x1 PUSH1 0x1 PUSH1 0xA0 SHL SUB AND SWAP4 DUP5 EXTCODESIZE ISZERO PUSH2 0x26E JUMPI PUSH1 0x40 MLOAD PUSH4 0x16E1ED5F PUSH1 0xE1 SHL DUP2 MSTORE SWAP5 PUSH1 0x0 SWAP1 DUP7 SWAP1 DUP2 DUP4 DUP2 PUSH2 0x199A CALLER DUP11 DUP15 PUSH1 0x4 DUP6 ADD PUSH2 0x305F JUMP JUMPDEST SUB SWAP3 GAS CALL SWAP2 DUP3 ISZERO PUSH2 0x8C6 JUMPI PUSH1 0x20 SWAP8 PUSH32 0x9B5C816605F86B4160F6D48308E768208517FB96124A3B2123536135DA4D0F60 SWAP7 PUSH2 0x45D SWAP5 PUSH2 0x1A04 JUMPI JUMPDEST POP PUSH1 0x0 DUP1 MLOAD PUSH1 0x20 PUSH2 0x311D DUP4 CODECOPY DUP2 MLOAD SWAP2 MSTORE DUP9 PUSH1 0x1 DUP1 PUSH1 0xA0 SHL SUB PUSH1 0x12 SLOAD AND PUSH2 0x8A5 DUP7 DUP7 DUP7 DUP13 PUSH1 0x40 MLOAD SWAP7 DUP8 SWAP7 CALLER SWAP2 DUP9 PUSH2 0x2A72 JUMP JUMPDEST PUSH2 0x1A0D SWAP1 PUSH2 0x225A JUMP JUMPDEST DUP10 PUSH2 0x19D3 JUMP JUMPDEST ADD MLOAD SWAP1 POP DUP11 DUP1 PUSH2 0x194B JUMP JUMPDEST SWAP1 PUSH1 0x1F NOT DUP4 AND SWAP2 PUSH1 0x2 DUP6 ADD PUSH1 0x0 MSTORE PUSH1 0x20 PUSH1 0x0 KECCAK256 SWAP3 PUSH1 0x0 JUMPDEST DUP2 DUP2 LT PUSH2 0x1A74 JUMPI POP SWAP2 PUSH1 0x1 SWAP4 SWAP2 DUP6 PUSH1 0x2 SWAP7 SWAP5 LT PUSH2 0x1A5B JUMPI JUMPDEST POP POP POP DUP2 SHL ADD SWAP2 ADD SSTORE PUSH2 0x1961 JUMP JUMPDEST ADD MLOAD PUSH1 0x0 NOT PUSH1 0xF8 DUP5 PUSH1 0x3 SHL AND SHR NOT AND SWAP1 SSTORE DUP11 DUP1 DUP1 PUSH2 0x1A4D JUMP JUMPDEST SWAP3 SWAP4 PUSH1 0x20 PUSH1 0x1 DUP2 SWAP3 DUP8 DUP7 ADD MLOAD DUP2 SSTORE ADD SWAP6 ADD SWAP4 ADD PUSH2 0x1A35 JUMP JUMPDEST PUSH1 0x2 DUP5 ADD PUSH1 0x0 MSTORE PUSH1 0x20 PUSH1 0x0 KECCAK256 PUSH1 0x1F DUP5 ADD PUSH1 0x5 SHR DUP2 ADD PUSH1 0x20 DUP6 LT PUSH2 0x1ACC JUMPI JUMPDEST PUSH1 0x1F DUP4 ADD PUSH1 0x5 SHR DUP3 ADD DUP2 LT PUSH2 0x1AC0 JUMPI POP POP PUSH2 0x192F JUMP JUMPDEST PUSH1 0x0 DUP2 SSTORE PUSH1 0x1 ADD PUSH2 0x1AAA JUMP JUMPDEST POP DUP1 PUSH2 0x1AAA JUMP JUMPDEST PUSH1 0x40 MLOAD PUSH3 0x461BCD PUSH1 0xE5 SHL DUP2 MSTORE PUSH1 0x20 PUSH1 0x4 DUP3 ADD MSTORE PUSH1 0xD PUSH1 0x24 DUP3 ADD MSTORE PUSH13 0x15985D5B1D081B9BDD081CD95D PUSH1 0x9A SHL PUSH1 0x44 DUP3 ADD MSTORE PUSH1 0x64 SWAP1 REVERT JUMPDEST CALLVALUE PUSH2 0x26E JUMPI PUSH1 0x20 CALLDATASIZE PUSH1 0x3 NOT ADD SLT PUSH2 0x26E JUMPI PUSH1 0x4 CALLDATALOAD PUSH1 0x8 SLOAD DUP2 LT ISZERO PUSH2 0x1B3F JUMPI PUSH2 0x1B31 PUSH1 0x20 SWAP2 PUSH2 0x2835 JUMP JUMPDEST SWAP1 SLOAD PUSH1 0x40 MLOAD SWAP2 PUSH1 0x3 SHL SHR DUP2 MSTORE RETURN JUMPDEST PUSH1 0x44 SWAP1 PUSH1 0x40 MLOAD SWAP1 PUSH4 0x295F44F7 PUSH1 0xE2 SHL DUP3 MSTORE PUSH1 0x0 PUSH1 0x4 DUP4 ADD MSTORE PUSH1 0x24 DUP3 ADD MSTORE REVERT JUMPDEST CALLVALUE PUSH2 0x26E JUMPI PUSH2 0xA8F PUSH2 0x1B6F CALLDATASIZE PUSH2 0x23A9 JUMP JUMPDEST SWAP1 PUSH1 0x40 MLOAD SWAP3 PUSH2 0x1B7D DUP5 PUSH2 0x226D JUMP JUMPDEST PUSH1 0x0 DUP5 MSTORE PUSH2 0xA89 DUP4 DUP4 DUP4 PUSH2 0x2523 JUMP JUMPDEST CALLVALUE PUSH2 0x26E JUMPI PUSH1 0x0 CALLDATASIZE PUSH1 0x3 NOT ADD SLT PUSH2 0x26E JUMPI PUSH1 0x16 SLOAD PUSH1 0x40 MLOAD PUSH1 0x1 PUSH1 0x1 PUSH1 0xA0 SHL SUB SWAP1 SWAP2 AND DUP2 MSTORE PUSH1 0x20 SWAP1 RETURN JUMPDEST CALLVALUE PUSH2 0x26E JUMPI PUSH1 0x40 CALLDATASIZE PUSH1 0x3 NOT ADD SLT PUSH2 0x26E JUMPI PUSH2 0x1BCE PUSH2 0x2213 JUMP JUMPDEST PUSH1 0x24 CALLDATALOAD SWAP1 PUSH2 0x1BDB DUP2 PUSH2 0x24EA JUMP JUMPDEST DUP3 LT ISZERO PUSH2 0x1C0E JUMPI PUSH1 0x1 DUP1 PUSH1 0xA0 SHL SUB AND PUSH1 0x0 MSTORE PUSH1 0x6 PUSH1 0x20 MSTORE PUSH1 0x40 PUSH1 0x0 KECCAK256 SWAP1 PUSH1 0x0 MSTORE PUSH1 0x20 MSTORE PUSH1 0x20 PUSH1 0x40 PUSH1 0x0 KECCAK256 SLOAD PUSH1 0x40 MLOAD SWAP1 DUP2 MSTORE RETURN JUMPDEST PUSH2 0x1C2A PUSH1 0x40 MLOAD SWAP3 DUP4 SWAP3 PUSH4 0x295F44F7 PUSH1 0xE2 SHL DUP5 MSTORE PUSH1 0x4 DUP5 ADD PUSH2 0x281A JUMP JUMPDEST SUB SWAP1 REVERT JUMPDEST CALLVALUE PUSH2 0x26E JUMPI PUSH2 0xA8F PUSH2 0x1C3F CALLDATASIZE PUSH2 0x23A9 JUMP JUMPDEST SWAP2 PUSH2 0x2523 JUMP JUMPDEST CALLVALUE PUSH2 0x26E JUMPI PUSH1 0x0 CALLDATASIZE PUSH1 0x3 NOT ADD SLT PUSH2 0x26E JUMPI PUSH1 0x12 SLOAD PUSH1 0x40 MLOAD PUSH1 0x1 PUSH1 0x1 PUSH1 0xA0 SHL SUB SWAP1 SWAP2 AND DUP2 MSTORE PUSH1 0x20 SWAP1 RETURN JUMPDEST CALLVALUE PUSH2 0x26E JUMPI PUSH1 0x0 CALLDATASIZE PUSH1 0x3 NOT ADD SLT PUSH2 0x26E JUMPI PUSH1 0x20 PUSH1 0x8 SLOAD PUSH1 0x40 MLOAD SWAP1 DUP2 MSTORE RETURN JUMPDEST CALLVALUE PUSH2 0x26E JUMPI PUSH2 0x1C9A CALLDATASIZE PUSH2 0x2336 JUMP JUMPDEST SWAP2 SWAP4 PUSH1 0x1 DUP1 PUSH1 0xA0 SWAP6 SWAP4 SWAP6 SHL SUB PUSH1 0x13 SLOAD AND ISZERO PUSH2 0x1F4A JUMPI PUSH2 0x1CBB DUP2 MLOAD ISZERO ISZERO PUSH2 0x301F JUMP JUMPDEST PUSH1 0x1 DUP1 PUSH1 0xA0 SHL SUB DUP6 AND SWAP4 DUP5 PUSH1 0x0 MSTORE PUSH1 0xF PUSH1 0x20 MSTORE PUSH2 0x1CDF PUSH1 0xFF PUSH1 0x40 PUSH1 0x0 KECCAK256 SLOAD AND PUSH2 0x29B9 JUMP JUMPDEST PUSH2 0x1CEA DUP4 ISZERO ISZERO PUSH2 0x29F9 JUMP JUMPDEST PUSH2 0x1CF4 DUP4 DUP8 PUSH2 0x2DB5 JUMP JUMPDEST PUSH1 0x10 SLOAD SWAP5 PUSH2 0x1D01 DUP7 PUSH2 0x2A30 JUMP JUMPDEST PUSH1 0x10 SSTORE PUSH1 0x13 SLOAD PUSH2 0x1D1B SWAP1 DUP8 SWAP1 PUSH1 0x1 PUSH1 0x1 PUSH1 0xA0 SHL SUB AND PUSH2 0x2AC5 JUMP JUMPDEST PUSH1 0x40 MLOAD SWAP1 PUSH2 0x1D28 DUP3 PUSH2 0x223F JUMP JUMPDEST DUP5 DUP3 MSTORE PUSH1 0x20 DUP3 ADD SWAP1 DUP2 MSTORE PUSH2 0x1D7E PUSH1 0x40 DUP4 ADD SWAP2 PUSH1 0x0 DUP4 MSTORE PUSH1 0x60 DUP5 ADD SWAP3 DUP9 DUP5 MSTORE DUP10 PUSH1 0x0 MSTORE PUSH1 0x11 PUSH1 0x20 MSTORE PUSH1 0x40 PUSH1 0x0 KECCAK256 SWAP5 MLOAD DUP6 SSTORE PUSH1 0x1 DUP6 ADD SWAP2 PUSH1 0x1 DUP1 PUSH1 0xA0 SHL SUB SWAP1 MLOAD AND PUSH1 0x1 DUP1 PUSH1 0xA0 SHL SUB NOT DUP4 SLOAD AND OR DUP3 SSTORE MLOAD ISZERO ISZERO SWAP1 PUSH2 0x2A55 JUMP JUMPDEST MLOAD DUP1 MLOAD SWAP1 PUSH1 0x1 PUSH1 0x1 PUSH1 0x40 SHL SUB DUP3 GT PUSH2 0x53C JUMPI PUSH2 0x1D9D PUSH1 0x2 DUP5 ADD SLOAD PUSH2 0x23DE JUMP JUMPDEST PUSH1 0x1F DUP2 GT PUSH2 0x1F03 JUMPI JUMPDEST POP PUSH1 0x20 SWAP1 PUSH1 0x1F DUP4 GT PUSH1 0x1 EQ PUSH2 0x1E95 JUMPI PUSH1 0x2 SWAP3 SWAP2 PUSH1 0x0 SWAP2 DUP4 PUSH2 0x1E8A JUMPI JUMPDEST POP POP DUP2 PUSH1 0x1 SHL SWAP2 PUSH1 0x0 NOT SWAP1 PUSH1 0x3 SHL SHR NOT AND OR SWAP2 ADD SSTORE JUMPDEST PUSH1 0x13 SLOAD PUSH1 0x1 PUSH1 0x1 PUSH1 0xA0 SHL SUB AND SWAP4 DUP5 EXTCODESIZE ISZERO PUSH2 0x26E JUMPI PUSH1 0x40 MLOAD PUSH4 0x16E1ED5F PUSH1 0xE1 SHL DUP2 MSTORE SWAP5 PUSH1 0x0 SWAP1 DUP7 SWAP1 DUP2 DUP4 DUP2 PUSH2 0x1E11 CALLER DUP11 DUP15 PUSH1 0x4 DUP6 ADD PUSH2 0x305F JUMP JUMPDEST SUB SWAP3 GAS CALL SWAP2 DUP3 ISZERO PUSH2 0x8C6 JUMPI PUSH1 0x20 SWAP8 PUSH32 0x61975798F2480AA9431EE7FF771C06D11C1F29FA8206054BC636FC498E9B36FD SWAP7 PUSH2 0x45D SWAP5 PUSH2 0x1E7B JUMPI JUMPDEST POP PUSH1 0x0 DUP1 MLOAD PUSH1 0x20 PUSH2 0x311D DUP4 CODECOPY DUP2 MLOAD SWAP2 MSTORE DUP9 PUSH1 0x1 DUP1 PUSH1 0xA0 SHL SUB PUSH1 0x13 SLOAD AND PUSH2 0x8A5 DUP7 DUP7 DUP7 DUP13 PUSH1 0x40 MLOAD SWAP7 DUP8 SWAP7 CALLER SWAP2 DUP9 PUSH2 0x2A72 JUMP JUMPDEST PUSH2 0x1E84 SWAP1 PUSH2 0x225A JUMP JUMPDEST DUP10 PUSH2 0x1E4A JUMP JUMPDEST ADD MLOAD SWAP1 POP DUP11 DUP1 PUSH2 0x1DC2 JUMP JUMPDEST SWAP1 PUSH1 0x1F NOT DUP4 AND SWAP2 PUSH1 0x2 DUP6 ADD PUSH1 0x0 MSTORE PUSH1 0x20 PUSH1 0x0 KECCAK256 SWAP3 PUSH1 0x0 JUMPDEST DUP2 DUP2 LT PUSH2 0x1EEB JUMPI POP SWAP2 PUSH1 0x1 SWAP4 SWAP2 DUP6 PUSH1 0x2 SWAP7 SWAP5 LT PUSH2 0x1ED2 JUMPI JUMPDEST POP POP POP DUP2 SHL ADD SWAP2 ADD SSTORE PUSH2 0x1DD8 JUMP JUMPDEST ADD MLOAD PUSH1 0x0 NOT PUSH1 0xF8 DUP5 PUSH1 0x3 SHL AND SHR NOT AND SWAP1 SSTORE DUP11 DUP1 DUP1 PUSH2 0x1EC4 JUMP JUMPDEST SWAP3 SWAP4 PUSH1 0x20 PUSH1 0x1 DUP2 SWAP3 DUP8 DUP7 ADD MLOAD DUP2 SSTORE ADD SWAP6 ADD SWAP4 ADD PUSH2 0x1EAC JUMP JUMPDEST PUSH1 0x2 DUP5 ADD PUSH1 0x0 MSTORE PUSH1 0x20 PUSH1 0x0 KECCAK256 PUSH1 0x1F DUP5 ADD PUSH1 0x5 SHR DUP2 ADD PUSH1 0x20 DUP6 LT PUSH2 0x1F43 JUMPI JUMPDEST PUSH1 0x1F DUP4 ADD PUSH1 0x5 SHR DUP3 ADD DUP2 LT PUSH2 0x1F37 JUMPI POP POP PUSH2 0x1DA6 JUMP JUMPDEST PUSH1 0x0 DUP2 SSTORE PUSH1 0x1 ADD PUSH2 0x1F21 JUMP JUMPDEST POP DUP1 PUSH2 0x1F21 JUMP JUMPDEST PUSH1 0x40 MLOAD PUSH3 0x461BCD PUSH1 0xE5 SHL DUP2 MSTORE PUSH1 0x20 PUSH1 0x4 DUP3 ADD MSTORE PUSH1 0x14 PUSH1 0x24 DUP3 ADD MSTORE PUSH20 0x151DDA5D18DA0815985D5B1D081B9BDD081CD95D PUSH1 0x62 SHL PUSH1 0x44 DUP3 ADD MSTORE PUSH1 0x64 SWAP1 REVERT JUMPDEST CALLVALUE PUSH2 0x26E JUMPI PUSH1 0x40 CALLDATASIZE PUSH1 0x3 NOT ADD SLT PUSH2 0x26E JUMPI PUSH2 0x1F9F PUSH2 0x2213 JUMP JUMPDEST PUSH1 0x24 CALLDATALOAD PUSH2 0x1FAB DUP2 PUSH2 0x27DF JUMP JUMPDEST CALLER ISZERO ISZERO DUP1 PUSH2 0x205A JUMPI JUMPDEST DUP1 PUSH2 0x202D JUMPI JUMPDEST PUSH2 0x2015 JUMPI PUSH1 0x1 PUSH1 0x1 PUSH1 0xA0 SHL SUB SWAP3 DUP4 AND SWAP3 DUP3 SWAP2 DUP5 SWAP2 AND PUSH32 0x8C5BE1E5EBEC7D5BD14F71427D1E84F3DD0314C0F7B2291E5B200AC8C7C3B925 PUSH1 0x0 DUP1 LOG4 PUSH1 0x0 SWAP1 DUP2 MSTORE PUSH1 0x4 PUSH1 0x20 MSTORE PUSH1 0x40 SWAP1 KECCAK256 DUP1 SLOAD PUSH1 0x1 PUSH1 0x1 PUSH1 0xA0 SHL SUB NOT AND SWAP1 SWAP2 OR SWAP1 SSTORE STOP JUMPDEST PUSH1 0x40 MLOAD PUSH4 0xA9FBF51F PUSH1 0xE0 SHL DUP2 MSTORE CALLER PUSH1 0x4 DUP3 ADD MSTORE PUSH1 0x24 SWAP1 REVERT JUMPDEST POP PUSH1 0x1 DUP1 PUSH1 0xA0 SHL SUB DUP2 AND PUSH1 0x0 MSTORE PUSH1 0x5 PUSH1 0x20 MSTORE PUSH1 0x40 PUSH1 0x0 KECCAK256 CALLER PUSH1 0x0 MSTORE PUSH1 0x20 MSTORE PUSH1 0xFF PUSH1 0x40 PUSH1 0x0 KECCAK256 SLOAD AND ISZERO PUSH2 0x1FBA JUMP JUMPDEST POP PUSH1 0x1 PUSH1 0x1 PUSH1 0xA0 SHL SUB DUP2 AND CALLER EQ ISZERO PUSH2 0x1FB4 JUMP JUMPDEST CALLVALUE PUSH2 0x26E JUMPI PUSH1 0x20 CALLDATASIZE PUSH1 0x3 NOT ADD SLT PUSH2 0x26E JUMPI PUSH1 0x4 CALLDATALOAD PUSH2 0x208A DUP2 PUSH2 0x27DF JUMP JUMPDEST POP PUSH1 0x0 MSTORE PUSH1 0x4 PUSH1 0x20 MSTORE PUSH1 0x20 PUSH1 0x1 DUP1 PUSH1 0xA0 SHL SUB PUSH1 0x40 PUSH1 0x0 KECCAK256 SLOAD AND PUSH1 0x40 MLOAD SWAP1 DUP2 MSTORE RETURN JUMPDEST CALLVALUE PUSH2 0x26E JUMPI PUSH1 0x0 CALLDATASIZE PUSH1 0x3 NOT ADD SLT PUSH2 0x26E JUMPI PUSH1 0x40 MLOAD PUSH1 0x0 SWAP1 PUSH1 0x0 SLOAD PUSH2 0x20CE DUP2 PUSH2 0x23DE JUMP JUMPDEST DUP1 DUP4 MSTORE PUSH1 0x1 SWAP2 DUP1 DUP4 AND SWAP1 DUP2 ISZERO PUSH2 0xDD8 JUMPI POP PUSH1 0x1 EQ PUSH2 0x20F6 JUMPI PUSH2 0x65F DUP4 PUSH2 0xD86 DUP2 DUP8 SUB DUP3 PUSH2 0x22A3 JUMP JUMPDEST PUSH1 0x0 DUP1 DUP1 MSTORE PUSH1 0x20 SWAP5 POP SWAP2 PUSH32 0x290DECD9548B62A8D60345A988386FC84BA6BC95484008F6362F93160EF3E563 JUMPDEST DUP3 DUP5 LT PUSH2 0x213B JUMPI POP POP POP DUP2 ADD SWAP1 SWAP2 ADD SWAP1 PUSH2 0xD86 DUP2 PUSH2 0xD76 JUMP JUMPDEST DUP1 SLOAD DUP6 DUP6 ADD DUP8 ADD MSTORE SWAP3 DUP6 ADD SWAP3 DUP2 ADD PUSH2 0x2122 JUMP JUMPDEST CALLVALUE PUSH2 0x26E JUMPI PUSH1 0x20 CALLDATASIZE PUSH1 0x3 NOT ADD SLT PUSH2 0x26E JUMPI PUSH1 0x4 CALLDATALOAD SWAP1 PUSH4 0xFFFFFFFF PUSH1 0xE0 SHL DUP3 AND DUP1 SWAP3 SUB PUSH2 0x26E JUMPI PUSH1 0x20 SWAP2 PUSH4 0x780E9D63 PUSH1 0xE0 SHL DUP2 EQ SWAP1 DUP2 ISZERO PUSH2 0x2190 JUMPI JUMPDEST POP ISZERO ISZERO DUP2 MSTORE RETURN JUMPDEST PUSH4 0x80AC58CD PUSH1 0xE0 SHL DUP2 EQ SWAP2 POP DUP2 ISZERO PUSH2 0x21C2 JUMPI JUMPDEST DUP2 ISZERO PUSH2 0x21B1 JUMPI JUMPDEST POP DUP4 PUSH2 0x2189 JUMP JUMPDEST PUSH4 0x1FFC9A7 PUSH1 0xE0 SHL EQ SWAP1 POP DUP4 PUSH2 0x21AA JUMP JUMPDEST PUSH4 0x5B5E139F PUSH1 0xE0 SHL DUP2 EQ SWAP2 POP PUSH2 0x21A3 JUMP JUMPDEST SWAP2 SWAP1 DUP3 MLOAD SWAP3 DUP4 DUP3 MSTORE PUSH1 0x0 JUMPDEST DUP5 DUP2 LT PUSH2 0x21FF JUMPI POP POP DUP3 PUSH1 0x0 PUSH1 0x20 DUP1 SWAP5 SWAP6 DUP5 ADD ADD MSTORE PUSH1 0x1F DUP1 NOT SWAP2 ADD AND ADD ADD SWAP1 JUMP JUMPDEST PUSH1 0x20 DUP2 DUP4 ADD DUP2 ADD MLOAD DUP5 DUP4 ADD DUP3 ADD MSTORE ADD PUSH2 0x21DE JUMP JUMPDEST PUSH1 0x4 CALLDATALOAD SWAP1 PUSH1 0x1 PUSH1 0x1 PUSH1 0xA0 SHL SUB DUP3 AND DUP3 SUB PUSH2 0x26E JUMPI JUMP JUMPDEST PUSH1 0x24 CALLDATALOAD SWAP1 PUSH1 0x1 PUSH1 0x1 PUSH1 0xA0 SHL SUB DUP3 AND DUP3 SUB PUSH2 0x26E JUMPI JUMP JUMPDEST PUSH1 0x80 DUP2 ADD SWAP1 DUP2 LT PUSH1 0x1 PUSH1 0x1 PUSH1 0x40 SHL SUB DUP3 GT OR PUSH2 0x53C JUMPI PUSH1 0x40 MSTORE JUMP JUMPDEST PUSH1 0x1 PUSH1 0x1 PUSH1 0x40 SHL SUB DUP2 GT PUSH2 0x53C JUMPI PUSH1 0x40 MSTORE JUMP JUMPDEST PUSH1 0x20 DUP2 ADD SWAP1 DUP2 LT PUSH1 0x1 PUSH1 0x1 PUSH1 0x40 SHL SUB DUP3 GT OR PUSH2 0x53C JUMPI PUSH1 0x40 MSTORE JUMP JUMPDEST PUSH1 0xA0 DUP2 ADD SWAP1 DUP2 LT PUSH1 0x1 PUSH1 0x1 PUSH1 0x40 SHL SUB DUP3 GT OR PUSH2 0x53C JUMPI PUSH1 0x40 MSTORE JUMP JUMPDEST PUSH1 0x1F SWAP1 SWAP2 ADD PUSH1 0x1F NOT AND DUP2 ADD SWAP1 PUSH1 0x1 PUSH1 0x1 PUSH1 0x40 SHL SUB DUP3 GT SWAP1 DUP3 LT OR PUSH2 0x53C JUMPI PUSH1 0x40 MSTORE JUMP JUMPDEST PUSH1 0x1 PUSH1 0x1 PUSH1 0x40 SHL SUB DUP2 GT PUSH2 0x53C JUMPI PUSH1 0x1F ADD PUSH1 0x1F NOT AND PUSH1 0x20 ADD SWAP1 JUMP JUMPDEST SWAP3 SWAP2 SWAP3 PUSH2 0x22ED DUP3 PUSH2 0x22C6 JUMP JUMPDEST SWAP2 PUSH2 0x22FB PUSH1 0x40 MLOAD SWAP4 DUP5 PUSH2 0x22A3 JUMP JUMPDEST DUP3 SWAP5 DUP2 DUP5 MSTORE DUP2 DUP4 ADD GT PUSH2 0x26E JUMPI DUP3 DUP2 PUSH1 0x20 SWAP4 DUP5 PUSH1 0x0 SWAP7 ADD CALLDATACOPY ADD ADD MSTORE JUMP JUMPDEST SWAP1 DUP1 PUSH1 0x1F DUP4 ADD SLT ISZERO PUSH2 0x26E JUMPI DUP2 PUSH1 0x20 PUSH2 0x2333 SWAP4 CALLDATALOAD SWAP2 ADD PUSH2 0x22E1 JUMP JUMPDEST SWAP1 JUMP JUMPDEST SWAP1 PUSH1 0xA0 PUSH1 0x3 NOT DUP4 ADD SLT PUSH2 0x26E JUMPI PUSH1 0x1 PUSH1 0x1 PUSH1 0x40 SHL SUB PUSH1 0x4 CALLDATALOAD DUP2 DUP2 GT PUSH2 0x26E JUMPI DUP4 PUSH2 0x2362 SWAP2 PUSH1 0x4 ADD PUSH2 0x2318 JUMP JUMPDEST SWAP3 PUSH1 0x24 CALLDATALOAD SWAP3 PUSH1 0x44 CALLDATALOAD PUSH1 0x1 PUSH1 0x1 PUSH1 0xA0 SHL SUB DUP2 AND DUP2 SUB PUSH2 0x26E JUMPI SWAP3 PUSH1 0x64 CALLDATALOAD DUP2 DUP2 GT PUSH2 0x26E JUMPI DUP4 PUSH2 0x2392 SWAP2 PUSH1 0x4 ADD PUSH2 0x2318 JUMP JUMPDEST SWAP3 PUSH1 0x84 CALLDATALOAD SWAP2 DUP3 GT PUSH2 0x26E JUMPI PUSH2 0x2333 SWAP2 PUSH1 0x4 ADD PUSH2 0x2318 JUMP JUMPDEST PUSH1 0x60 SWAP1 PUSH1 0x3 NOT ADD SLT PUSH2 0x26E JUMPI PUSH1 0x1 PUSH1 0x1 PUSH1 0xA0 SHL SUB SWAP1 PUSH1 0x4 CALLDATALOAD DUP3 DUP2 AND DUP2 SUB PUSH2 0x26E JUMPI SWAP2 PUSH1 0x24 CALLDATALOAD SWAP1 DUP2 AND DUP2 SUB PUSH2 0x26E JUMPI SWAP1 PUSH1 0x44 CALLDATALOAD SWAP1 JUMP JUMPDEST SWAP1 PUSH1 0x1 DUP3 DUP2 SHR SWAP3 AND DUP1 ISZERO PUSH2 0x240E JUMPI JUMPDEST PUSH1 0x20 DUP4 LT EQ PUSH2 0x23F8 JUMPI JUMP JUMPDEST PUSH4 0x4E487B71 PUSH1 0xE0 SHL PUSH1 0x0 MSTORE PUSH1 0x22 PUSH1 0x4 MSTORE PUSH1 0x24 PUSH1 0x0 REVERT JUMPDEST SWAP2 PUSH1 0x7F AND SWAP2 PUSH2 0x23ED JUMP JUMPDEST SWAP1 PUSH1 0x40 MLOAD SWAP2 DUP3 PUSH1 0x0 DUP3 SLOAD SWAP3 PUSH2 0x242C DUP5 PUSH2 0x23DE JUMP JUMPDEST SWAP1 DUP2 DUP5 MSTORE PUSH1 0x1 SWAP5 DUP6 DUP2 AND SWAP1 DUP2 PUSH1 0x0 EQ PUSH2 0x249B JUMPI POP PUSH1 0x1 EQ PUSH2 0x2458 JUMPI JUMPDEST POP POP PUSH2 0x2456 SWAP3 POP SUB DUP4 PUSH2 0x22A3 JUMP JUMPDEST JUMP JUMPDEST SWAP1 SWAP4 SWAP2 POP PUSH1 0x0 MSTORE PUSH1 0x20 SWAP1 DUP2 PUSH1 0x0 KECCAK256 SWAP4 PUSH1 0x0 SWAP2 JUMPDEST DUP2 DUP4 LT PUSH2 0x2483 JUMPI POP POP PUSH2 0x2456 SWAP4 POP DUP3 ADD ADD CODESIZE DUP1 PUSH2 0x2448 JUMP JUMPDEST DUP6 SLOAD DUP9 DUP5 ADD DUP6 ADD MSTORE SWAP5 DUP6 ADD SWAP5 DUP8 SWAP5 POP SWAP2 DUP4 ADD SWAP2 PUSH2 0x246B JUMP JUMPDEST SWAP2 POP POP PUSH2 0x2456 SWAP5 POP PUSH1 0x20 SWAP3 POP PUSH1 0xFF NOT AND DUP3 DUP5 ADD MSTORE ISZERO ISZERO PUSH1 0x5 SHL DUP3 ADD ADD CODESIZE DUP1 PUSH2 0x2448 JUMP JUMPDEST PUSH1 0xA SLOAD PUSH1 0x1 PUSH1 0x1 PUSH1 0xA0 SHL SUB AND CALLER SUB PUSH2 0x24D2 JUMPI JUMP JUMPDEST PUSH1 0x40 MLOAD PUSH4 0x118CDAA7 PUSH1 0xE0 SHL DUP2 MSTORE CALLER PUSH1 0x4 DUP3 ADD MSTORE PUSH1 0x24 SWAP1 REVERT JUMPDEST PUSH1 0x1 PUSH1 0x1 PUSH1 0xA0 SHL SUB AND DUP1 ISZERO PUSH2 0x250A JUMPI PUSH1 0x0 MSTORE PUSH1 0x3 PUSH1 0x20 MSTORE PUSH1 0x40 PUSH1 0x0 KECCAK256 SLOAD SWAP1 JUMP JUMPDEST PUSH1 0x40 MLOAD PUSH4 0x22718AD9 PUSH1 0xE2 SHL DUP2 MSTORE PUSH1 0x0 PUSH1 0x4 DUP3 ADD MSTORE PUSH1 0x24 SWAP1 REVERT JUMPDEST PUSH1 0x1 PUSH1 0x1 PUSH1 0xA0 SHL SUB DUP3 DUP2 AND SWAP4 SWAP2 DUP5 ISZERO PUSH2 0x27A8 JUMPI PUSH1 0x0 SWAP5 DUP4 DUP7 MSTORE PUSH1 0x20 SWAP6 PUSH1 0x2 DUP8 MSTORE PUSH1 0x40 SWAP7 DUP5 DUP9 DUP4 KECCAK256 SLOAD AND SWAP7 CALLER ISZERO ISZERO DUP1 PUSH2 0x271C JUMPI JUMPDEST POP DUP8 ISZERO DUP1 ISZERO PUSH2 0x26FC JUMPI JUMPDEST DUP5 DUP5 MSTORE PUSH1 0x3 DUP4 MSTORE DUP10 DUP5 KECCAK256 DUP1 SLOAD PUSH1 0x1 ADD SWAP1 SSTORE DUP8 DUP5 MSTORE PUSH1 0x2 DUP4 MSTORE DUP10 DUP5 KECCAK256 DUP1 SLOAD PUSH1 0x1 PUSH1 0x1 PUSH1 0xA0 SHL SUB NOT AND DUP7 OR SWAP1 SSTORE DUP8 DUP6 DUP11 PUSH1 0x0 DUP1 MLOAD PUSH1 0x20 PUSH2 0x30FD DUP4 CODECOPY DUP2 MLOAD SWAP2 MSTORE DUP8 DUP1 LOG4 ISZERO PUSH2 0x2690 JUMPI PUSH1 0x8 SLOAD DUP8 DUP5 MSTORE PUSH1 0x9 DUP4 MSTORE DUP10 DUP5 KECCAK256 DUP2 SWAP1 SSTORE PUSH1 0x1 PUSH1 0x40 SHL DUP2 LT ISZERO PUSH2 0x267C JUMPI DUP8 PUSH2 0x25D5 DUP3 PUSH1 0x1 PUSH2 0x25EE SWAP5 ADD PUSH1 0x8 SSTORE PUSH2 0x2835 JUMP JUMPDEST SWAP1 SWAP2 SWAP1 DUP3 SLOAD SWAP1 PUSH1 0x3 SHL SWAP2 DUP3 SHL SWAP2 PUSH1 0x0 NOT SWAP1 SHL NOT AND OR SWAP1 SSTORE JUMP JUMPDEST DUP4 DUP9 SUB PUSH2 0x262A JUMPI JUMPDEST POP POP POP POP AND SWAP3 DUP4 DUP4 SUB PUSH2 0x2609 JUMPI POP POP POP POP JUMP JUMPDEST PUSH1 0x64 SWAP5 POP MLOAD SWAP3 PUSH4 0x64283D7B PUSH1 0xE0 SHL DUP5 MSTORE PUSH1 0x4 DUP5 ADD MSTORE PUSH1 0x24 DUP4 ADD MSTORE PUSH1 0x44 DUP3 ADD MSTORE REVERT JUMPDEST PUSH2 0x2633 SWAP1 PUSH2 0x24EA JUMP JUMPDEST PUSH1 0x0 NOT DUP2 ADD SWAP4 SWAP1 DUP5 GT PUSH2 0x2668 JUMPI DUP3 SWAP2 PUSH1 0x7 SWAP2 DUP11 SWAP5 MSTORE PUSH1 0x6 DUP2 MSTORE DUP4 DUP4 KECCAK256 DUP6 DUP5 MSTORE DUP2 MSTORE DUP8 DUP5 DUP5 KECCAK256 SSTORE DUP8 DUP4 MSTORE MSTORE KECCAK256 SSTORE CODESIZE DUP1 DUP1 DUP1 PUSH2 0x25F6 JUMP JUMPDEST PUSH4 0x4E487B71 PUSH1 0xE0 SHL DUP4 MSTORE PUSH1 0x11 PUSH1 0x4 MSTORE PUSH1 0x24 DUP4 REVERT JUMPDEST PUSH4 0x4E487B71 PUSH1 0xE0 SHL DUP5 MSTORE PUSH1 0x41 PUSH1 0x4 MSTORE PUSH1 0x24 DUP5 REVERT JUMPDEST DUP8 DUP5 EQ PUSH2 0x25EE JUMPI PUSH2 0x26A0 DUP9 PUSH2 0x24EA JUMP JUMPDEST DUP8 DUP5 MSTORE PUSH1 0x7 DUP4 MSTORE DUP10 DUP5 KECCAK256 SLOAD SWAP1 DUP10 DUP6 MSTORE PUSH1 0x6 DUP5 MSTORE DUP11 DUP6 KECCAK256 SWAP2 DUP2 DUP2 SUB PUSH2 0x26DA JUMPI JUMPDEST POP DUP9 DUP6 MSTORE PUSH1 0x7 DUP5 MSTORE DUP5 DUP12 DUP2 KECCAK256 SSTORE DUP5 MSTORE DUP3 MSTORE DUP3 DUP10 DUP2 KECCAK256 SSTORE PUSH2 0x25EE JUMP JUMPDEST DUP2 DUP7 MSTORE DUP3 DUP6 MSTORE DUP12 DUP7 KECCAK256 SLOAD DUP2 DUP8 MSTORE DUP1 DUP14 DUP9 KECCAK256 SSTORE DUP7 MSTORE PUSH1 0x7 DUP6 MSTORE DUP12 DUP7 KECCAK256 SSTORE CODESIZE PUSH2 0x26BF JUMP JUMPDEST PUSH2 0x2705 DUP9 PUSH2 0x27C1 JUMP JUMPDEST DUP9 DUP5 MSTORE PUSH1 0x3 DUP4 MSTORE DUP10 DUP5 KECCAK256 DUP1 SLOAD PUSH1 0x0 NOT ADD SWAP1 SSTORE PUSH2 0x2560 JUMP JUMPDEST DUP1 PUSH2 0x2767 JUMPI JUMPDEST ISZERO PUSH2 0x272D JUMPI CODESIZE PUSH2 0x2556 JUMP JUMPDEST DUP9 DUP8 DUP10 PUSH2 0x274A JUMPI PUSH1 0x24 SWAP2 MLOAD SWAP1 PUSH4 0x7E273289 PUSH1 0xE0 SHL DUP3 MSTORE PUSH1 0x4 DUP3 ADD MSTORE REVERT JUMPDEST SWAP1 MLOAD PUSH4 0x177E802F PUSH1 0xE0 SHL DUP2 MSTORE SWAP1 DUP2 SWAP1 PUSH2 0x1C2A SWAP1 CALLER PUSH1 0x4 DUP5 ADD PUSH2 0x281A JUMP JUMPDEST POP CALLER DUP9 EQ DUP1 ISZERO PUSH2 0x278C JUMPI JUMPDEST DUP1 PUSH2 0x2722 JUMPI POP DUP7 DUP4 MSTORE PUSH1 0x4 DUP3 MSTORE CALLER DUP7 DUP11 DUP6 KECCAK256 SLOAD AND EQ PUSH2 0x2722 JUMP JUMPDEST POP DUP8 DUP4 MSTORE PUSH1 0x5 DUP3 MSTORE DUP9 DUP4 KECCAK256 CALLER DUP5 MSTORE DUP3 MSTORE PUSH1 0xFF DUP10 DUP5 KECCAK256 SLOAD AND PUSH2 0x2772 JUMP JUMPDEST PUSH1 0x40 MLOAD PUSH4 0x32505749 PUSH1 0xE1 SHL DUP2 MSTORE PUSH1 0x0 PUSH1 0x4 DUP3 ADD MSTORE PUSH1 0x24 SWAP1 REVERT JUMPDEST PUSH1 0x0 SWAP1 DUP2 MSTORE PUSH1 0x4 PUSH1 0x20 MSTORE PUSH1 0x40 SWAP1 KECCAK256 DUP1 SLOAD PUSH1 0x1 PUSH1 0x1 PUSH1 0xA0 SHL SUB NOT AND SWAP1 SSTORE JUMP JUMPDEST PUSH1 0x0 DUP2 DUP2 MSTORE PUSH1 0x2 PUSH1 0x20 MSTORE PUSH1 0x40 SWAP1 KECCAK256 SLOAD PUSH1 0x1 PUSH1 0x1 PUSH1 0xA0 SHL SUB AND SWAP1 DUP2 ISZERO PUSH2 0x2802 JUMPI POP SWAP1 JUMP JUMPDEST PUSH1 0x24 SWAP1 PUSH1 0x40 MLOAD SWAP1 PUSH4 0x7E273289 PUSH1 0xE0 SHL DUP3 MSTORE PUSH1 0x4 DUP3 ADD MSTORE REVERT JUMPDEST PUSH1 0x1 PUSH1 0x1 PUSH1 0xA0 SHL SUB SWAP1 SWAP2 AND DUP2 MSTORE PUSH1 0x20 DUP2 ADD SWAP2 SWAP1 SWAP2 MSTORE PUSH1 0x40 ADD SWAP1 JUMP JUMPDEST PUSH1 0x8 SLOAD DUP2 LT ISZERO PUSH2 0x2850 JUMPI PUSH1 0x8 PUSH1 0x0 MSTORE PUSH1 0x20 PUSH1 0x0 KECCAK256 ADD SWAP1 PUSH1 0x0 SWAP1 JUMP JUMPDEST PUSH4 0x4E487B71 PUSH1 0xE0 SHL PUSH1 0x0 MSTORE PUSH1 0x32 PUSH1 0x4 MSTORE PUSH1 0x24 PUSH1 0x0 REVERT JUMPDEST RETURNDATASIZE ISZERO PUSH2 0x2891 JUMPI RETURNDATASIZE SWAP1 PUSH2 0x2877 DUP3 PUSH2 0x22C6 JUMP JUMPDEST SWAP2 PUSH2 0x2885 PUSH1 0x40 MLOAD SWAP4 DUP5 PUSH2 0x22A3 JUMP JUMPDEST DUP3 MSTORE RETURNDATASIZE PUSH1 0x0 PUSH1 0x20 DUP5 ADD RETURNDATACOPY JUMP JUMPDEST PUSH1 0x60 SWAP1 JUMP JUMPDEST SWAP3 SWAP4 DUP3 EXTCODESIZE PUSH2 0x28A6 JUMPI JUMPDEST POP POP POP POP POP JUMP JUMPDEST PUSH2 0x28EA SWAP1 PUSH1 0x1 DUP1 PUSH1 0xA0 SHL SUB DUP1 SWAP5 AND SWAP6 PUSH1 0x40 MLOAD SWAP5 DUP6 SWAP5 DUP2 PUSH4 0xA85BD01 PUSH1 0xE1 SHL SWAP9 DUP10 DUP9 MSTORE AND PUSH1 0x4 DUP8 ADD MSTORE AND PUSH1 0x24 DUP6 ADD MSTORE PUSH1 0x44 DUP5 ADD MSTORE PUSH1 0x80 PUSH1 0x64 DUP5 ADD MSTORE PUSH1 0x84 DUP4 ADD SWAP1 PUSH2 0x21D3 JUMP JUMPDEST SUB SWAP1 PUSH1 0x20 DUP2 PUSH1 0x0 SWAP4 DUP2 DUP6 DUP9 GAS CALL SWAP1 DUP3 SWAP1 DUP3 PUSH2 0x296A JUMPI JUMPDEST POP POP PUSH2 0x2938 JUMPI DUP3 PUSH2 0x290F PUSH2 0x2866 JUMP JUMPDEST DUP1 MLOAD SWAP2 SWAP1 DUP3 PUSH2 0x2931 JUMPI PUSH1 0x40 MLOAD PUSH4 0x32505749 PUSH1 0xE1 SHL DUP2 MSTORE PUSH1 0x4 DUP2 ADD DUP4 SWAP1 MSTORE PUSH1 0x24 SWAP1 REVERT JUMPDEST PUSH1 0x20 SWAP2 POP ADD REVERT JUMPDEST PUSH1 0x1 PUSH1 0x1 PUSH1 0xE0 SHL SUB NOT AND SUB PUSH2 0x2952 JUMPI POP CODESIZE DUP1 DUP1 DUP1 DUP1 PUSH2 0x289F JUMP JUMPDEST PUSH1 0x24 SWAP1 PUSH1 0x40 MLOAD SWAP1 PUSH4 0x32505749 PUSH1 0xE1 SHL DUP3 MSTORE PUSH1 0x4 DUP3 ADD MSTORE REVERT JUMPDEST SWAP1 SWAP2 SWAP3 POP PUSH1 0x20 DUP2 RETURNDATASIZE DUP3 GT PUSH2 0x29B1 JUMPI JUMPDEST DUP2 PUSH2 0x2986 PUSH1 0x20 SWAP4 DUP4 PUSH2 0x22A3 JUMP JUMPDEST DUP2 ADD SUB SLT PUSH2 0x29AD JUMPI MLOAD SWAP1 PUSH1 0x1 PUSH1 0x1 PUSH1 0xE0 SHL SUB NOT DUP3 AND DUP3 SUB PUSH2 0x29AA JUMPI POP SWAP1 CODESIZE DUP1 PUSH2 0x2900 JUMP JUMPDEST DUP1 REVERT JUMPDEST POP DUP1 REVERT JUMPDEST RETURNDATASIZE SWAP2 POP PUSH2 0x2979 JUMP JUMPDEST ISZERO PUSH2 0x29C0 JUMPI JUMP JUMPDEST PUSH1 0x40 MLOAD PUSH3 0x461BCD PUSH1 0xE5 SHL DUP2 MSTORE PUSH1 0x20 PUSH1 0x4 DUP3 ADD MSTORE PUSH1 0x11 PUSH1 0x24 DUP3 ADD MSTORE PUSH17 0x3AB739BAB83837B93A32B2103A37B5B2B7 PUSH1 0x79 SHL PUSH1 0x44 DUP3 ADD MSTORE PUSH1 0x64 SWAP1 REVERT JUMPDEST ISZERO PUSH2 0x2A00 JUMPI JUMP JUMPDEST PUSH1 0x40 MLOAD PUSH3 0x461BCD PUSH1 0xE5 SHL DUP2 MSTORE PUSH1 0x20 PUSH1 0x4 DUP3 ADD MSTORE PUSH1 0x8 PUSH1 0x24 DUP3 ADD MSTORE PUSH8 0x616D6F756E743D3 PUSH1 0xC4 SHL PUSH1 0x44 DUP3 ADD MSTORE PUSH1 0x64 SWAP1 REVERT JUMPDEST PUSH1 0x0 NOT DUP2 EQ PUSH2 0x2A3F JUMPI PUSH1 0x1 ADD SWAP1 JUMP JUMPDEST PUSH4 0x4E487B71 PUSH1 0xE0 SHL PUSH1 0x0 MSTORE PUSH1 0x11 PUSH1 0x4 MSTORE PUSH1 0x24 PUSH1 0x0 REVERT JUMPDEST DUP1 SLOAD PUSH1 0xFF PUSH1 0xA0 SHL NOT AND SWAP2 ISZERO ISZERO PUSH1 0xA0 SHL PUSH1 0xFF PUSH1 0xA0 SHL AND SWAP2 SWAP1 SWAP2 OR SWAP1 SSTORE JUMP JUMPDEST SWAP1 DUP2 MSTORE PUSH1 0x1 PUSH1 0x1 PUSH1 0xA0 SHL SUB SWAP2 DUP3 AND PUSH1 0x20 DUP3 ADD MSTORE SWAP2 DUP2 AND PUSH1 0x40 DUP4 ADD MSTORE PUSH1 0x60 DUP3 ADD SWAP3 SWAP1 SWAP3 MSTORE SWAP2 AND PUSH1 0x80 DUP3 ADD MSTORE PUSH1 0xE0 PUSH1 0xA0 DUP3 ADD DUP2 SWAP1 MSTORE PUSH2 0x2333 SWAP4 SWAP2 SWAP3 PUSH2 0x2AB7 SWAP2 DUP5 ADD SWAP1 PUSH2 0x21D3 JUMP JUMPDEST SWAP2 PUSH1 0xC0 DUP2 DUP5 SUB SWAP2 ADD MSTORE PUSH2 0x21D3 JUMP JUMPDEST PUSH1 0x40 DUP1 MLOAD SWAP3 PUSH2 0x2AD3 DUP5 PUSH2 0x226D JUMP JUMPDEST PUSH1 0x0 DUP1 DUP6 MSTORE PUSH1 0x1 PUSH1 0x1 PUSH1 0xA0 SHL SUB SWAP5 DUP5 DUP7 AND SWAP5 DUP6 ISZERO PUSH2 0x2D9D JUMPI DUP4 DUP4 MSTORE PUSH1 0x20 SWAP7 PUSH1 0x2 DUP9 MSTORE DUP6 DUP5 KECCAK256 SLOAD AND DUP1 ISZERO SWAP1 DUP8 DUP3 ISZERO SWAP3 DUP4 PUSH2 0x2D7D JUMPI JUMPDEST DUP2 DUP8 MSTORE PUSH1 0x3 DUP12 MSTORE DUP9 DUP8 KECCAK256 DUP1 SLOAD PUSH1 0x1 ADD SWAP1 SSTORE DUP8 DUP8 MSTORE PUSH1 0x2 DUP12 MSTORE DUP9 DUP8 KECCAK256 DUP1 SLOAD PUSH1 0x1 PUSH1 0x1 PUSH1 0xA0 SHL SUB NOT AND DUP4 OR SWAP1 SSTORE DUP8 DUP3 DUP5 PUSH1 0x0 DUP1 MLOAD PUSH1 0x20 PUSH2 0x30FD DUP4 CODECOPY DUP2 MLOAD SWAP2 MSTORE DUP11 DUP1 LOG4 ISZERO PUSH2 0x2D10 JUMPI POP PUSH1 0x8 SLOAD DUP7 DUP7 MSTORE PUSH1 0x9 DUP11 MSTORE DUP8 DUP7 KECCAK256 DUP2 SWAP1 SSTORE PUSH1 0x1 PUSH1 0x40 SHL DUP2 LT ISZERO PUSH2 0x2CFC JUMPI SWAP1 PUSH2 0x2B7F DUP8 PUSH2 0x25D5 DUP5 PUSH1 0x1 DUP14 SWAP7 ADD PUSH1 0x8 SSTORE PUSH2 0x2835 JUMP JUMPDEST SUB PUSH2 0x2CAF JUMPI JUMPDEST PUSH2 0x2C97 JUMPI EXTCODESIZE PUSH2 0x2B97 JUMPI JUMPDEST POP POP POP POP POP POP JUMP JUMPDEST DUP6 PUSH2 0x2BD4 SWAP2 DUP6 SWAP7 SWAP8 SWAP9 SWAP6 MLOAD DUP1 SWAP4 DUP2 SWAP3 PUSH4 0xA85BD01 PUSH1 0xE1 SHL SWAP8 DUP9 DUP5 MSTORE CALLER PUSH1 0x4 DUP6 ADD MSTORE DUP8 PUSH1 0x24 DUP6 ADD MSTORE PUSH1 0x44 DUP5 ADD MSTORE PUSH1 0x80 PUSH1 0x64 DUP5 ADD MSTORE PUSH1 0x84 DUP4 ADD SWAP1 PUSH2 0x21D3 JUMP JUMPDEST SUB DUP2 DUP6 DUP11 GAS CALL SWAP1 DUP3 SWAP1 DUP3 PUSH2 0x2C53 JUMPI JUMPDEST POP POP PUSH2 0x2C1B JUMPI POP POP POP PUSH2 0x2BF4 PUSH2 0x2866 JUMP JUMPDEST DUP1 MLOAD SWAP4 SWAP1 DUP5 PUSH2 0x2C15 JUMPI DUP3 MLOAD PUSH4 0x32505749 PUSH1 0xE1 SHL DUP2 MSTORE PUSH1 0x4 DUP2 ADD DUP6 SWAP1 MSTORE PUSH1 0x24 SWAP1 REVERT JUMPDEST DUP5 SWAP3 POP ADD REVERT JUMPDEST SWAP2 SWAP5 POP PUSH1 0x1 PUSH1 0x1 PUSH1 0xE0 SHL SUB NOT SWAP1 SWAP2 AND SUB PUSH2 0x2C3C JUMPI POP POP CODESIZE DUP1 DUP1 DUP1 DUP1 DUP1 PUSH2 0x2B8F JUMP JUMPDEST PUSH1 0x24 SWAP3 POP MLOAD SWAP1 PUSH4 0x32505749 PUSH1 0xE1 SHL DUP3 MSTORE PUSH1 0x4 DUP3 ADD MSTORE REVERT JUMPDEST SWAP1 SWAP2 SWAP3 POP DUP8 DUP2 DUP2 RETURNDATASIZE DUP4 GT PUSH2 0x2C90 JUMPI JUMPDEST PUSH2 0x2C6C DUP2 DUP4 PUSH2 0x22A3 JUMP JUMPDEST DUP2 ADD SUB SLT PUSH2 0x29AD JUMPI MLOAD SWAP1 PUSH1 0x1 PUSH1 0x1 PUSH1 0xE0 SHL SUB NOT DUP3 AND DUP3 SUB PUSH2 0x29AA JUMPI POP SWAP1 CODESIZE DUP1 PUSH2 0x2BE3 JUMP JUMPDEST POP RETURNDATASIZE PUSH2 0x2C62 JUMP JUMPDEST DUP5 MLOAD PUSH4 0x39E35637 PUSH1 0xE1 SHL DUP2 MSTORE PUSH1 0x4 DUP2 ADD DUP5 SWAP1 MSTORE PUSH1 0x24 SWAP1 REVERT JUMPDEST PUSH2 0x2CB8 DUP3 PUSH2 0x24EA JUMP JUMPDEST PUSH1 0x0 NOT DUP2 ADD SWAP1 DUP2 GT PUSH2 0x2CE8 JUMPI DUP8 DUP6 MSTORE PUSH1 0x6 DUP10 MSTORE DUP7 DUP6 KECCAK256 DUP2 DUP7 MSTORE DUP10 MSTORE DUP6 DUP8 DUP7 KECCAK256 SSTORE DUP6 DUP6 MSTORE PUSH1 0x7 DUP10 MSTORE DUP7 DUP6 KECCAK256 SSTORE PUSH2 0x2B85 JUMP JUMPDEST PUSH4 0x4E487B71 PUSH1 0xE0 SHL DUP6 MSTORE PUSH1 0x11 PUSH1 0x4 MSTORE PUSH1 0x24 DUP6 REVERT JUMPDEST PUSH4 0x4E487B71 PUSH1 0xE0 SHL DUP7 MSTORE PUSH1 0x41 PUSH1 0x4 MSTORE PUSH1 0x24 DUP7 REVERT JUMPDEST SWAP1 DUP1 DUP3 EQ PUSH2 0x2B7F JUMPI PUSH2 0x2D21 DUP2 PUSH2 0x24EA JUMP JUMPDEST DUP8 DUP8 MSTORE PUSH1 0x7 DUP12 MSTORE DUP9 DUP8 KECCAK256 SLOAD SWAP1 DUP3 DUP9 MSTORE PUSH1 0x6 DUP13 MSTORE DUP10 DUP9 KECCAK256 SWAP2 DUP2 DUP2 SUB PUSH2 0x2D5B JUMPI JUMPDEST POP DUP9 DUP9 MSTORE PUSH1 0x7 DUP13 MSTORE DUP8 DUP11 DUP2 KECCAK256 SSTORE DUP8 MSTORE DUP11 MSTORE DUP6 DUP9 DUP2 KECCAK256 SSTORE PUSH2 0x2B7F JUMP JUMPDEST DUP2 DUP10 MSTORE DUP3 DUP14 MSTORE DUP11 DUP10 KECCAK256 SLOAD DUP2 DUP11 MSTORE DUP1 DUP13 DUP12 KECCAK256 SSTORE DUP10 MSTORE PUSH1 0x7 DUP14 MSTORE DUP11 DUP10 KECCAK256 SSTORE CODESIZE PUSH2 0x2D40 JUMP JUMPDEST PUSH2 0x2D86 DUP9 PUSH2 0x27C1 JUMP JUMPDEST DUP3 DUP8 MSTORE PUSH1 0x3 DUP12 MSTORE DUP9 DUP8 KECCAK256 DUP1 SLOAD PUSH1 0x0 NOT ADD SWAP1 SSTORE PUSH2 0x2B07 JUMP JUMPDEST DUP5 MLOAD PUSH4 0x32505749 PUSH1 0xE1 SHL DUP2 MSTORE PUSH1 0x4 DUP2 ADD DUP5 SWAP1 MSTORE PUSH1 0x24 SWAP1 REVERT JUMPDEST SWAP1 PUSH2 0x2DC2 DUP2 ADDRESS CALLER DUP6 PUSH2 0x2E7F JUMP JUMPDEST PUSH2 0x2E07 JUMPI PUSH2 0x2456 SWAP2 PUSH1 0x40 MLOAD SWAP2 PUSH4 0x23B872DD PUSH1 0xE0 SHL PUSH1 0x20 DUP5 ADD MSTORE CALLER PUSH1 0x24 DUP5 ADD MSTORE ADDRESS PUSH1 0x44 DUP5 ADD MSTORE PUSH1 0x64 DUP4 ADD MSTORE PUSH1 0x64 DUP3 MSTORE PUSH2 0x2DF9 DUP3 PUSH2 0x2288 JUMP JUMPDEST PUSH1 0x1 PUSH1 0x1 PUSH1 0xA0 SHL SUB AND PUSH2 0x2E0B JUMP JUMPDEST POP POP JUMP JUMPDEST SWAP1 PUSH1 0x0 PUSH1 0x20 SWAP2 DUP3 DUP2 MLOAD SWAP2 ADD DUP3 DUP6 GAS CALL ISZERO PUSH2 0x8C6 JUMPI PUSH1 0x0 MLOAD RETURNDATASIZE PUSH2 0x2E5E JUMPI POP PUSH1 0x1 PUSH1 0x1 PUSH1 0xA0 SHL SUB DUP2 AND EXTCODESIZE ISZERO JUMPDEST PUSH2 0x2E3C JUMPI POP JUMP JUMPDEST PUSH1 0x40 MLOAD PUSH4 0x5274AFE7 PUSH1 0xE0 SHL DUP2 MSTORE PUSH1 0x1 PUSH1 0x1 PUSH1 0xA0 SHL SUB SWAP1 SWAP2 AND PUSH1 0x4 DUP3 ADD MSTORE PUSH1 0x24 SWAP1 REVERT JUMPDEST PUSH1 0x1 EQ ISZERO PUSH2 0x2E35 JUMP JUMPDEST SWAP1 DUP2 PUSH1 0x20 SWAP2 SUB SLT PUSH2 0x26E JUMPI MLOAD DUP1 ISZERO ISZERO DUP2 SUB PUSH2 0x26E JUMPI SWAP1 JUMP JUMPDEST PUSH1 0x40 MLOAD PUSH4 0x929C2539 PUSH1 0xE0 SHL PUSH1 0x20 DUP3 ADD SWAP1 DUP2 MSTORE PUSH1 0x1 PUSH1 0x1 PUSH1 0xA0 SHL SUB SWAP4 DUP5 AND PUSH1 0x24 DUP4 ADD MSTORE SWAP3 SWAP1 SWAP4 AND PUSH1 0x44 DUP5 ADD MSTORE PUSH1 0x64 DUP4 ADD SWAP4 SWAP1 SWAP4 MSTORE PUSH1 0x0 PUSH1 0x84 DUP1 DUP5 ADD DUP3 SWAP1 MSTORE DUP4 MSTORE SWAP3 SWAP2 PUSH1 0xC0 DUP2 ADD PUSH1 0x1 PUSH1 0x1 PUSH1 0x40 SHL SUB DUP2 GT DUP3 DUP3 LT OR PUSH2 0x2F19 JUMPI PUSH1 0x40 MSTORE MLOAD DUP4 SWAP3 DUP4 SWAP3 SWAP1 DUP4 SWAP1 GAS CALL SWAP1 PUSH2 0x2EEC PUSH2 0x2866 JUMP JUMPDEST SWAP2 ISZERO PUSH2 0x2F14 JUMPI POP DUP1 MLOAD SWAP1 DUP2 ISZERO PUSH2 0x2F0D JUMPI PUSH1 0x20 DUP1 PUSH2 0x2333 SWAP4 DUP4 ADD ADD SWAP2 ADD PUSH2 0x2E67 JUMP JUMPDEST POP POP PUSH1 0x1 SWAP1 JUMP JUMPDEST SWAP1 POP SWAP1 JUMP JUMPDEST PUSH4 0x4E487B71 PUSH1 0xE0 SHL DUP6 MSTORE PUSH1 0x41 PUSH1 0x4 MSTORE PUSH1 0x24 DUP6 REVERT JUMPDEST ISZERO PUSH2 0x2F34 JUMPI JUMP JUMPDEST PUSH1 0x40 MLOAD PUSH3 0x461BCD PUSH1 0xE5 SHL DUP2 MSTORE PUSH1 0x20 PUSH1 0x4 DUP3 ADD MSTORE PUSH1 0x7 PUSH1 0x24 DUP3 ADD MSTORE PUSH7 0x1B9BC818D85C99 PUSH1 0xCA SHL PUSH1 0x44 DUP3 ADD MSTORE PUSH1 0x64 SWAP1 REVERT JUMPDEST SWAP2 SWAP1 SWAP2 PUSH2 0x2F71 DUP3 DUP5 DUP4 PUSH2 0x2FAE JUMP JUMPDEST PUSH2 0x2FA9 JUMPI PUSH2 0x2DF9 PUSH2 0x2456 SWAP4 PUSH2 0x2F9B PUSH1 0x40 MLOAD SWAP5 DUP6 SWAP3 PUSH4 0xA9059CBB PUSH1 0xE0 SHL PUSH1 0x20 DUP6 ADD MSTORE PUSH1 0x24 DUP5 ADD PUSH2 0x281A JUMP JUMPDEST SUB PUSH1 0x1F NOT DUP2 ADD DUP5 MSTORE DUP4 PUSH2 0x22A3 JUMP JUMPDEST POP POP POP JUMP JUMPDEST PUSH1 0x0 SWAP3 SWAP2 DUP4 DUP1 SWAP4 PUSH1 0x40 MLOAD SWAP1 PUSH1 0x20 DUP3 ADD SWAP4 PUSH4 0x95777D59 PUSH1 0xE0 SHL DUP6 MSTORE PUSH1 0x1 DUP1 PUSH1 0xA0 SHL SUB AND PUSH1 0x24 DUP4 ADD MSTORE PUSH1 0x44 DUP3 ADD MSTORE DUP2 PUSH1 0x64 DUP3 ADD MSTORE PUSH1 0x64 DUP2 MSTORE PUSH2 0x2FED DUP2 PUSH2 0x2288 JUMP JUMPDEST MLOAD SWAP3 GAS CALL PUSH2 0x2FF9 PUSH2 0x2866 JUMP JUMPDEST SWAP1 ISZERO PUSH2 0x3019 JUMPI DUP1 MLOAD SWAP1 DUP2 ISZERO PUSH2 0x2F0D JUMPI PUSH1 0x20 DUP1 PUSH2 0x2333 SWAP4 DUP4 ADD ADD SWAP2 ADD PUSH2 0x2E67 JUMP JUMPDEST POP PUSH1 0x0 SWAP1 JUMP JUMPDEST ISZERO PUSH2 0x3026 JUMPI JUMP JUMPDEST PUSH1 0x40 MLOAD PUSH3 0x461BCD PUSH1 0xE5 SHL DUP2 MSTORE PUSH1 0x20 PUSH1 0x4 DUP3 ADD MSTORE PUSH1 0x11 PUSH1 0x24 DUP3 ADD MSTORE PUSH17 0x155CD95C9B985B59481C995C5D5A5C9959 PUSH1 0x7A SHL PUSH1 0x44 DUP3 ADD MSTORE PUSH1 0x64 SWAP1 REVERT JUMPDEST SWAP2 PUSH2 0x307D SWAP1 PUSH1 0x40 SWAP3 SWAP6 SWAP5 SWAP6 DUP5 MSTORE PUSH1 0x60 PUSH1 0x20 DUP6 ADD MSTORE PUSH1 0x60 DUP5 ADD SWAP1 PUSH2 0x21D3 JUMP JUMPDEST PUSH1 0x1 PUSH1 0x1 PUSH1 0xA0 SHL SUB SWAP1 SWAP5 AND SWAP2 ADD MSTORE JUMP JUMPDEST SWAP6 SWAP2 SWAP5 PUSH2 0x30B1 PUSH2 0x2333 SWAP9 SWAP7 PUSH2 0x2AB7 SWAP7 SWAP6 SWAP4 DUP10 MSTORE PUSH1 0xE0 PUSH1 0x20 DUP11 ADD MSTORE PUSH1 0xE0 DUP10 ADD SWAP1 PUSH2 0x21D3 JUMP JUMPDEST PUSH1 0x1 PUSH1 0x1 PUSH1 0xA0 SHL SUB SWAP3 DUP4 AND PUSH1 0x40 DUP10 ADD MSTORE PUSH1 0x60 DUP9 ADD SWAP5 SWAP1 SWAP5 MSTORE AND PUSH1 0x80 DUP7 ADD MSTORE DUP5 DUP3 SUB PUSH1 0xA0 DUP7 ADD MSTORE PUSH2 0x21D3 JUMP INVALID DUP12 0xE0 SMOD SWAP13 MSTORE8 AND MSIZE EQ SGT PREVRANDAO 0xCD 0x1F 0xD0 LOG4 CALLCODE DUP5 NOT 0x49 PUSH32 0x9722A3DAAFE3B4186F6B6457E0DDF252AD1BE2C89B69C2B068FC378DAA952BA7 CALL PUSH4 0xC4A11628 CREATE2 GAS 0x4D CREATE2 0x23 0xB3 0xEF SHR 0xDD 0xD2 0xE7 NOT 0xEE 0xCD 0xC1 0x5E STATICCALL 0xD3 ADDRESS 0xF 0xB7 0xB6 0x28 DUP15 0xE9 CALLDATACOPY 0xB7 LT PUSH29 0x31CC324309E23F6CBBD0A264697066735822122048151525E20CD772DC EQ PUSH32 0x8AD0520FF8C59699575658005A78003BBA9E63971764736F6C63430008140033 0x29 0xD 0xEC 0xD9 SLOAD DUP12 PUSH3 0xA8D603 GASLIMIT 0xA9 DUP9 CODESIZE PUSH16 0xC84BA6BC95484008F6362F93160EF3E5 PUSH4 0xB10E2D52 PUSH23 0x12073B26EECDFD717E6A320CF44B4AFAC2B0732D9FCBE2 0xB7 STATICCALL 0xC 0xF6 "},"methodIdentifiers":{"alphaUSD()":"5be1449c","approve(address,uint256)":"095ea7b3","balanceOf(address)":"70a08231","betaUSD()":"8aaa06e5","createGiftCard(address,uint256,address,string,string)":"e00d8fa2","createGiftCardForInstagram(string,uint256,address,string,string)":"c3941614","createGiftCardForTelegram(string,uint256,address,string,string)":"57c66836","createGiftCardForTikTok(string,uint256,address,string,string)":"916b62da","createGiftCardForTwitch(string,uint256,address,string,string)":"0d15079c","createGiftCardForTwitter(string,uint256,address,string,string)":"52bc0d2f","getApproved(uint256)":"081812fc","getGiftCardInfo(uint256)":"cf1e0ed0","giftCards(uint256)":"9898135f","instagramVaultContract()":"31a6f383","isApprovedForAll(address,address)":"e985e9c5","name()":"06fdde03","owner()":"8da5cb5b","ownerOf(uint256)":"6352211e","pathUSD()":"7b008d3b","redeemGiftCard(uint256)":"7400cba2","renounceOwnership()":"715018a6","safeTransferFrom(address,address,uint256)":"42842e0e","safeTransferFrom(address,address,uint256,bytes)":"b88d4fde","setApprovalForAll(address,bool)":"a22cb465","setInstagramVaultContract(address)":"61bb5254","setTelegramVaultContract(address)":"989e6e8c","setTikTokVaultContract(address)":"9de44451","setTwitchVaultContract(address)":"70951145","setVaultContract(address)":"96f4ada6","supportedTokens(address)":"68c4ac26","supportsInterface(bytes4)":"01ffc9a7","symbol()":"95d89b41","telegramVaultContract()":"8afb7f56","thetaUSD()":"881efaa1","tiktokVaultContract()":"be72b747","tokenByIndex(uint256)":"4f6ccce7","tokenOfOwnerByIndex(address,uint256)":"2f745c59","tokenURI(uint256)":"c87b56dd","totalSupply()":"18160ddd","transferFrom(address,address,uint256)":"23b872dd","transferOwnership(address)":"f2fde38b","twitchVaultContract()":"bf05ed46","vaultContract()":"2274346b"}}}}}