{"contracts_tempo/TwitchCardVault.sol":{"TwitchCardVault":{"abi":[{"inputs":[{"internalType":"address","name":"_giftCardAddress","type":"address"}],"stateMutability":"nonpayable","type":"constructor"},{"inputs":[{"internalType":"address","name":"owner","type":"address"}],"name":"OwnableInvalidOwner","type":"error"},{"inputs":[{"internalType":"address","name":"account","type":"address"}],"name":"OwnableUnauthorizedAccount","type":"error"},{"anonymous":false,"inputs":[{"indexed":true,"internalType":"uint256","name":"tokenId","type":"uint256"},{"indexed":true,"internalType":"address","name":"claimer","type":"address"},{"indexed":true,"internalType":"string","name":"username","type":"string"}],"name":"CardClaimed","type":"event"},{"anonymous":false,"inputs":[{"indexed":true,"internalType":"uint256","name":"tokenId","type":"uint256"},{"indexed":true,"internalType":"string","name":"username","type":"string"},{"indexed":false,"internalType":"address","name":"sender","type":"address"}],"name":"CardDeposited","type":"event"},{"anonymous":false,"inputs":[{"indexed":true,"internalType":"address","name":"previousOwner","type":"address"},{"indexed":true,"internalType":"address","name":"newOwner","type":"address"}],"name":"OwnershipTransferred","type":"event"},{"inputs":[{"internalType":"uint256","name":"tokenId","type":"uint256"},{"internalType":"string","name":"username","type":"string"},{"internalType":"address","name":"claimer","type":"address"}],"name":"claimCard","outputs":[],"stateMutability":"nonpayable","type":"function"},{"inputs":[{"internalType":"uint256","name":"","type":"uint256"}],"name":"claimedTokens","outputs":[{"internalType":"bool","name":"","type":"bool"}],"stateMutability":"view","type":"function"},{"inputs":[{"internalType":"uint256","name":"tokenId","type":"uint256"},{"internalType":"string","name":"username","type":"string"},{"internalType":"address","name":"sender","type":"address"}],"name":"depositCardForUsername","outputs":[],"stateMutability":"nonpayable","type":"function"},{"inputs":[{"internalType":"uint256","name":"tokenId","type":"uint256"},{"internalType":"address","name":"to","type":"address"}],"name":"emergencyRecover","outputs":[],"stateMutability":"nonpayable","type":"function"},{"inputs":[{"internalType":"string","name":"username","type":"string"}],"name":"getPendingCardsForUsername","outputs":[{"internalType":"uint256[]","name":"","type":"uint256[]"}],"stateMutability":"view","type":"function"},{"inputs":[{"internalType":"uint256","name":"tokenId","type":"uint256"}],"name":"getUsernameForToken","outputs":[{"internalType":"string","name":"","type":"string"}],"stateMutability":"view","type":"function"},{"inputs":[],"name":"giftCardContract","outputs":[{"internalType":"contract GiftCard","name":"","type":"address"}],"stateMutability":"view","type":"function"},{"inputs":[{"internalType":"uint256","name":"tokenId","type":"uint256"}],"name":"isCardClaimed","outputs":[{"internalType":"bool","name":"","type":"bool"}],"stateMutability":"view","type":"function"},{"inputs":[{"internalType":"address","name":"operator","type":"address"},{"internalType":"address","name":"from","type":"address"},{"internalType":"uint256","name":"tokenId","type":"uint256"},{"internalType":"bytes","name":"data","type":"bytes"}],"name":"onERC721Received","outputs":[{"internalType":"bytes4","name":"","type":"bytes4"}],"stateMutability":"pure","type":"function"},{"inputs":[],"name":"owner","outputs":[{"internalType":"address","name":"","type":"address"}],"stateMutability":"view","type":"function"},{"inputs":[],"name":"renounceOwnership","outputs":[],"stateMutability":"nonpayable","type":"function"},{"inputs":[{"internalType":"address","name":"_giftCardAddress","type":"address"}],"name":"setGiftCardContract","outputs":[],"stateMutability":"nonpayable","type":"function"},{"inputs":[{"internalType":"uint256","name":"","type":"uint256"}],"name":"tokenToUsername","outputs":[{"internalType":"string","name":"","type":"string"}],"stateMutability":"view","type":"function"},{"inputs":[{"internalType":"address","name":"newOwner","type":"address"}],"name":"transferOwnership","outputs":[],"stateMutability":"nonpayable","type":"function"},{"inputs":[{"internalType":"string","name":"","type":"string"},{"internalType":"uint256","name":"","type":"uint256"}],"name":"usernameToTokens","outputs":[{"internalType":"uint256","name":"","type":"uint256"}],"stateMutability":"view","type":"function"}],"evm":{"bytecode":{"linkReferences":{},"object":"60803461011257601f610fd538819003918201601f19168301916001600160401b038311848410176101175780849260209460405283398101031261011257516001600160a01b03808216918290036101125733156100f9576000549060018060a01b0319913383821617600055604051913391167f8be0079c531659141344cd1fd0a4f28419497f9722a3daafe3b4186f6b6457e0600080a382156100b757506001541617600155604051610ea7908161012e8239f35b62461bcd60e51b815260206004820152601960248201527f47696674436172642061646472657373207265717569726564000000000000006044820152606490fd5b604051631e4fbdf760e01b815260006004820152602490fd5b600080fd5b634e487b7160e01b600052604160045260246000fdfe6040608081526004908136101561001557600080fd5b600091823560e01c806307cc0e3d1461059a57806308ac209b14610a6e578063150b7a0214610a085780632dc3dabe146106f55780635d1fe172146106cc578063715018a6146106845780638da5cb5b1461065c57806398a8faca146105d2578063a1daf3b11461059a578063ba5b415a1461013f578063be1dca5f14610521578063c07c0f8b14610241578063c6cbbe241461016a578063e5a342a31461013f5763f2fde38b146100c657600080fd5b3461013b57602036600319011261013b576100df610cd5565b906100e8610dc3565b6001600160a01b039182169283156101255750506000548260018060a01b031982161760005516600080516020610e32833981519152600080a380f35b51631e4fbdf760e01b8152908101849052602490fd5b8280fd5b503461013b57602036600319011261013b57816020938260ff93358252855220541690519015158152f35b50823461023e576020918260031936011261023a5780356001600160401b03811161013b57926101a26101b492829695369101610d31565b81855193828580945193849201610c6b565b81016002815203019020908251808584549182815201908194845286842090845b81811061022657505050816101eb910382610ba2565b83519485948186019282875251809352850193925b82811061020f57505050500390f35b835185528695509381019392810192600101610200565b8254845292880192600192830192016101d5565b5080fd5b80fd5b5082903461023a5761025236610d4f565b919283855260209581875260ff81872054166104e8576001600160a01b03848116949085156104ab5786885260039889815261028f848a20610bc5565b8181519101209986519a8288019b8c200361047457906102d090898b52868152858b209b60019c8d60ff198254161790558651809381928b51928391610c6b565b81016002815203019020908a8a905b610386575b50505087989794959697541692833b156103825761031d938592838a938651978895869485936323b872dd60e01b855230908501610e0f565b03925af19081156103795750610361575b505061033990610def565b917fdb3e8f1b679316330981f622bbcea0baa4068b63de4ed4e5acc3ffdec9398db98480a480f35b61036a90610b79565b61037557838561032e565b8380fd5b513d84823e3d90fd5b8480fd5b82548082101561046e578a61039b8386610d95565b905490851b1c146103cb575060001981146103b8578b018b6102df565b634e487b7160e01b8b526011875260248bfd5b6000199c9391908d810190811161045b57906103fa6103ed6104139385610d95565b905490861b1c9184610d95565b90919082549060031b91821b91600019901b1916179055565b80549b8c1561044857808c9d9c999a9b9c01926104308484610d95565b81939154921b1b191690555598979695948a806102e4565b634e487b7160e01b8c526031885260248cfd5b634e487b7160e01b8d526011895260248dfd5b506102e4565b845162461bcd60e51b815280870183905260116024820152700aae6cae4dcc2daca40dad2e6dac2e8c6d607b1b6044820152606490fd5b825162461bcd60e51b81528085018a90526017602482015276496e76616c696420636c61696d6572206164647265737360481b6044820152606490fd5b5162461bcd60e51b8152908101869052601460248201527310d85c9908185b1c9958591e4818db185a5b595960621b6044820152606490fd5b503461013b578160031936011261013b578035906001600160401b0382116103755761054f91369101610d31565b9161056b60206024359481855193828580945193849201610c6b565b8101600281520301902090815484101561023e575060209261058c91610d95565b91905490519160031b1c8152f35b503461013b57602036600319011261013b57816105ce936105c392358152600360205220610bc5565b905191829182610c8e565b0390f35b503461013b57602036600319011261013b576105ec610cd5565b6105f4610dc3565b6001600160a01b031691821561061d575050600180546001600160a01b03191691909117905580f35b906020606492519162461bcd60e51b8352820152601960248201527811da599d10d85c99081859191c995cdcc81c995c5d5a5c9959603a1b6044820152fd5b50503461023a578160031936011261023a57905490516001600160a01b039091168152602090f35b833461023e578060031936011261023e5761069d610dc3565b600080546001600160a01b0319811682556001600160a01b0316600080516020610e328339815191528280a380f35b50503461023a578160031936011261023a5760015490516001600160a01b039091168152602090f35b503461013b5761070436610d4f565b6001805493946001600160a01b0394851694929391338690036109c95782511561098b57875180966331a9108f60e11b825288848301528160246020998a935afa908115610981578a91610947575b50843091160361090a578751868185516107708183858a01610c6b565b81016002815203019020805490600160401b8210156108f7576103fa828a928561079c95018155610d95565b86895260038652878920835190916001600160401b0382116108f7576107c28354610b3f565b601f81116108b0575b50878b601f8411600114610838579280600080516020610e528339815191529a9998979593819361082398969361082d575b501b916000199060031b1c19161790555b878a528552878920805460ff19169055610def565b955191168152a380f35b8701519250386107fd565b50838c52888c2091929190601f1983168d5b81811061089b5750918391600080516020610e528339815191529b9a9998969461082398969410610882575b5050811b01905561080e565b86015160001960f88460031b161c191690553880610876565b88830151845592850192918b01918b0161084a565b838c52888c20601f840160051c8101918a85106108ed575b601f0160051c019082905b8281106108e15750506107cb565b600081550182906108d3565b90915081906108c8565b634e487b7160e01b8b526041845260248bfd5b875162461bcd60e51b8152808301879052601760248201527615985d5b1d081b5d5cdd081bdddb881d1a194818d85c99604a1b6044820152606490fd5b90508681813d831161097a575b61095e8183610ba2565b81010312610976575184811681036109765738610753565b8980fd5b503d610954565b89513d8c823e3d90fd5b875162461bcd60e51b81526020818401526018602482015277557365726e616d652063616e6e6f7420626520656d70747960401b6044820152606490fd5b875162461bcd60e51b8152602081840152601960248201527813db9b1e4811da599d10d85c990818d85b8819195c1bdcda5d603a1b6044820152606490fd5b50913461023e57608036600319011261023e57610a23610cd5565b50610a2c610cba565b50606435906001600160401b03821161023e573660238301121561023e5750602092816024610a6093369301359101610ceb565b5051630a85bd0160e11b8152f35b50903461013b578060031936011261013b578135610a8a610cba565b610a92610dc3565b8185528360205260ff8386205416610afe576001548592916001600160a01b0390911690813b156103755783610ade968651978895869485936323b872dd60e01b855230908501610e0f565b03925af19081156103795750610af2575080f35b610afb90610b79565b80f35b825162461bcd60e51b8152602081860152601b60248201527a10d85b9b9bdd081c9958dbdd995c8818db185a5b59590818d85c99602a1b6044820152606490fd5b90600182811c92168015610b6f575b6020831014610b5957565b634e487b7160e01b600052602260045260246000fd5b91607f1691610b4e565b6001600160401b038111610b8c57604052565b634e487b7160e01b600052604160045260246000fd5b601f909101601f19168101906001600160401b03821190821017610b8c57604052565b9060405191826000825492610bd984610b3f565b908184526001948581169081600014610c485750600114610c05575b5050610c0392500383610ba2565b565b9093915060005260209081600020936000915b818310610c30575050610c0393508201013880610bf5565b85548884018501529485019487945091830191610c18565b915050610c0394506020925060ff191682840152151560051b8201013880610bf5565b60005b838110610c7e5750506000910152565b8181015183820152602001610c6e565b60409160208252610cae8151809281602086015260208686019101610c6b565b601f01601f1916010190565b602435906001600160a01b0382168203610cd057565b600080fd5b600435906001600160a01b0382168203610cd057565b9192916001600160401b038211610b8c5760405191610d14601f8201601f191660200184610ba2565b829481845281830111610cd0578281602093846000960137010152565b9080601f83011215610cd057816020610d4c93359101610ceb565b90565b906060600319830112610cd05760043591602435906001600160401b038211610cd057610d7e91600401610d31565b906044356001600160a01b0381168103610cd05790565b8054821015610dad5760005260206000200190600090565b634e487b7160e01b600052603260045260246000fd5b6000546001600160a01b03163303610dd757565b60405163118cdaa760e01b8152336004820152602490fd5b610e0790602060405192828480945193849201610c6b565b810103902090565b6001600160a01b0391821681529116602082015260408101919091526060019056fe8be0079c531659141344cd1fd0a4f28419497f9722a3daafe3b4186f6b6457e0998a69985b48e618ab4500bb669b84da565fab8717a362f88d1137d0b6a651a2a2646970667358221220891fe76b829878d8d48af57a98fb0ff278d20bdf938a0af339ed0a9d0e8165f664736f6c63430008140033","opcodes":"PUSH1 0x80 CALLVALUE PUSH2 0x112 JUMPI PUSH1 0x1F PUSH2 0xFD5 CODESIZE DUP2 SWAP1 SUB SWAP2 DUP3 ADD PUSH1 0x1F NOT AND DUP4 ADD SWAP2 PUSH1 0x1 PUSH1 0x1 PUSH1 0x40 SHL SUB DUP4 GT DUP5 DUP5 LT OR PUSH2 0x117 JUMPI DUP1 DUP5 SWAP3 PUSH1 0x20 SWAP5 PUSH1 0x40 MSTORE DUP4 CODECOPY DUP2 ADD SUB SLT PUSH2 0x112 JUMPI MLOAD PUSH1 0x1 PUSH1 0x1 PUSH1 0xA0 SHL SUB DUP1 DUP3 AND SWAP2 DUP3 SWAP1 SUB PUSH2 0x112 JUMPI CALLER ISZERO PUSH2 0xF9 JUMPI PUSH1 0x0 SLOAD SWAP1 PUSH1 0x1 DUP1 PUSH1 0xA0 SHL SUB NOT SWAP2 CALLER DUP4 DUP3 AND OR PUSH1 0x0 SSTORE PUSH1 0x40 MLOAD SWAP2 CALLER SWAP2 AND PUSH32 0x8BE0079C531659141344CD1FD0A4F28419497F9722A3DAAFE3B4186F6B6457E0 PUSH1 0x0 DUP1 LOG3 DUP3 ISZERO PUSH2 0xB7 JUMPI POP PUSH1 0x1 SLOAD AND OR PUSH1 0x1 SSTORE PUSH1 0x40 MLOAD PUSH2 0xEA7 SWAP1 DUP2 PUSH2 0x12E DUP3 CODECOPY RETURN JUMPDEST PUSH3 0x461BCD PUSH1 0xE5 SHL DUP2 MSTORE PUSH1 0x20 PUSH1 0x4 DUP3 ADD MSTORE PUSH1 0x19 PUSH1 0x24 DUP3 ADD MSTORE PUSH32 0x4769667443617264206164647265737320726571756972656400000000000000 PUSH1 0x44 DUP3 ADD MSTORE PUSH1 0x64 SWAP1 REVERT JUMPDEST PUSH1 0x40 MLOAD PUSH4 0x1E4FBDF7 PUSH1 0xE0 SHL DUP2 MSTORE PUSH1 0x0 PUSH1 0x4 DUP3 ADD MSTORE PUSH1 0x24 SWAP1 REVERT JUMPDEST PUSH1 0x0 DUP1 REVERT JUMPDEST PUSH4 0x4E487B71 PUSH1 0xE0 SHL PUSH1 0x0 MSTORE PUSH1 0x41 PUSH1 0x4 MSTORE PUSH1 0x24 PUSH1 0x0 REVERT INVALID PUSH1 0x40 PUSH1 0x80 DUP2 MSTORE PUSH1 0x4 SWAP1 DUP2 CALLDATASIZE LT ISZERO PUSH2 0x15 JUMPI PUSH1 0x0 DUP1 REVERT JUMPDEST PUSH1 0x0 SWAP2 DUP3 CALLDATALOAD PUSH1 0xE0 SHR DUP1 PUSH4 0x7CC0E3D EQ PUSH2 0x59A JUMPI DUP1 PUSH4 0x8AC209B EQ PUSH2 0xA6E JUMPI DUP1 PUSH4 0x150B7A02 EQ PUSH2 0xA08 JUMPI DUP1 PUSH4 0x2DC3DABE EQ PUSH2 0x6F5 JUMPI DUP1 PUSH4 0x5D1FE172 EQ PUSH2 0x6CC JUMPI DUP1 PUSH4 0x715018A6 EQ PUSH2 0x684 JUMPI DUP1 PUSH4 0x8DA5CB5B EQ PUSH2 0x65C JUMPI DUP1 PUSH4 0x98A8FACA EQ PUSH2 0x5D2 JUMPI DUP1 PUSH4 0xA1DAF3B1 EQ PUSH2 0x59A JUMPI DUP1 PUSH4 0xBA5B415A EQ PUSH2 0x13F JUMPI DUP1 PUSH4 0xBE1DCA5F EQ PUSH2 0x521 JUMPI DUP1 PUSH4 0xC07C0F8B EQ PUSH2 0x241 JUMPI DUP1 PUSH4 0xC6CBBE24 EQ PUSH2 0x16A JUMPI DUP1 PUSH4 0xE5A342A3 EQ PUSH2 0x13F JUMPI PUSH4 0xF2FDE38B EQ PUSH2 0xC6 JUMPI PUSH1 0x0 DUP1 REVERT JUMPDEST CALLVALUE PUSH2 0x13B JUMPI PUSH1 0x20 CALLDATASIZE PUSH1 0x3 NOT ADD SLT PUSH2 0x13B JUMPI PUSH2 0xDF PUSH2 0xCD5 JUMP JUMPDEST SWAP1 PUSH2 0xE8 PUSH2 0xDC3 JUMP JUMPDEST PUSH1 0x1 PUSH1 0x1 PUSH1 0xA0 SHL SUB SWAP2 DUP3 AND SWAP3 DUP4 ISZERO PUSH2 0x125 JUMPI POP POP PUSH1 0x0 SLOAD DUP3 PUSH1 0x1 DUP1 PUSH1 0xA0 SHL SUB NOT DUP3 AND OR PUSH1 0x0 SSTORE AND PUSH1 0x0 DUP1 MLOAD PUSH1 0x20 PUSH2 0xE32 DUP4 CODECOPY DUP2 MLOAD SWAP2 MSTORE PUSH1 0x0 DUP1 LOG3 DUP1 RETURN JUMPDEST MLOAD PUSH4 0x1E4FBDF7 PUSH1 0xE0 SHL DUP2 MSTORE SWAP1 DUP2 ADD DUP5 SWAP1 MSTORE PUSH1 0x24 SWAP1 REVERT JUMPDEST DUP3 DUP1 REVERT JUMPDEST POP CALLVALUE PUSH2 0x13B JUMPI PUSH1 0x20 CALLDATASIZE PUSH1 0x3 NOT ADD SLT PUSH2 0x13B JUMPI DUP2 PUSH1 0x20 SWAP4 DUP3 PUSH1 0xFF SWAP4 CALLDATALOAD DUP3 MSTORE DUP6 MSTORE KECCAK256 SLOAD AND SWAP1 MLOAD SWAP1 ISZERO ISZERO DUP2 MSTORE RETURN JUMPDEST POP DUP3 CALLVALUE PUSH2 0x23E JUMPI PUSH1 0x20 SWAP2 DUP3 PUSH1 0x3 NOT CALLDATASIZE ADD SLT PUSH2 0x23A JUMPI DUP1 CALLDATALOAD PUSH1 0x1 PUSH1 0x1 PUSH1 0x40 SHL SUB DUP2 GT PUSH2 0x13B JUMPI SWAP3 PUSH2 0x1A2 PUSH2 0x1B4 SWAP3 DUP3 SWAP7 SWAP6 CALLDATASIZE SWAP2 ADD PUSH2 0xD31 JUMP JUMPDEST DUP2 DUP6 MLOAD SWAP4 DUP3 DUP6 DUP1 SWAP5 MLOAD SWAP4 DUP5 SWAP3 ADD PUSH2 0xC6B JUMP JUMPDEST DUP2 ADD PUSH1 0x2 DUP2 MSTORE SUB ADD SWAP1 KECCAK256 SWAP1 DUP3 MLOAD DUP1 DUP6 DUP5 SLOAD SWAP2 DUP3 DUP2 MSTORE ADD SWAP1 DUP2 SWAP5 DUP5 MSTORE DUP7 DUP5 KECCAK256 SWAP1 DUP5 JUMPDEST DUP2 DUP2 LT PUSH2 0x226 JUMPI POP POP POP DUP2 PUSH2 0x1EB SWAP2 SUB DUP3 PUSH2 0xBA2 JUMP JUMPDEST DUP4 MLOAD SWAP5 DUP6 SWAP5 DUP2 DUP7 ADD SWAP3 DUP3 DUP8 MSTORE MLOAD DUP1 SWAP4 MSTORE DUP6 ADD SWAP4 SWAP3 JUMPDEST DUP3 DUP2 LT PUSH2 0x20F JUMPI POP POP POP POP SUB SWAP1 RETURN JUMPDEST DUP4 MLOAD DUP6 MSTORE DUP7 SWAP6 POP SWAP4 DUP2 ADD SWAP4 SWAP3 DUP2 ADD SWAP3 PUSH1 0x1 ADD PUSH2 0x200 JUMP JUMPDEST DUP3 SLOAD DUP5 MSTORE SWAP3 DUP9 ADD SWAP3 PUSH1 0x1 SWAP3 DUP4 ADD SWAP3 ADD PUSH2 0x1D5 JUMP JUMPDEST POP DUP1 REVERT JUMPDEST DUP1 REVERT JUMPDEST POP DUP3 SWAP1 CALLVALUE PUSH2 0x23A JUMPI PUSH2 0x252 CALLDATASIZE PUSH2 0xD4F JUMP JUMPDEST SWAP2 SWAP3 DUP4 DUP6 MSTORE PUSH1 0x20 SWAP6 DUP2 DUP8 MSTORE PUSH1 0xFF DUP2 DUP8 KECCAK256 SLOAD AND PUSH2 0x4E8 JUMPI PUSH1 0x1 PUSH1 0x1 PUSH1 0xA0 SHL SUB DUP5 DUP2 AND SWAP5 SWAP1 DUP6 ISZERO PUSH2 0x4AB JUMPI DUP7 DUP9 MSTORE PUSH1 0x3 SWAP9 DUP10 DUP2 MSTORE PUSH2 0x28F DUP5 DUP11 KECCAK256 PUSH2 0xBC5 JUMP JUMPDEST DUP2 DUP2 MLOAD SWAP2 ADD KECCAK256 SWAP10 DUP7 MLOAD SWAP11 DUP3 DUP9 ADD SWAP12 DUP13 KECCAK256 SUB PUSH2 0x474 JUMPI SWAP1 PUSH2 0x2D0 SWAP1 DUP10 DUP12 MSTORE DUP7 DUP2 MSTORE DUP6 DUP12 KECCAK256 SWAP12 PUSH1 0x1 SWAP13 DUP14 PUSH1 0xFF NOT DUP3 SLOAD AND OR SWAP1 SSTORE DUP7 MLOAD DUP1 SWAP4 DUP2 SWAP3 DUP12 MLOAD SWAP3 DUP4 SWAP2 PUSH2 0xC6B JUMP JUMPDEST DUP2 ADD PUSH1 0x2 DUP2 MSTORE SUB ADD SWAP1 KECCAK256 SWAP1 DUP11 DUP11 SWAP1 JUMPDEST PUSH2 0x386 JUMPI JUMPDEST POP POP POP DUP8 SWAP9 SWAP8 SWAP5 SWAP6 SWAP7 SWAP8 SLOAD AND SWAP3 DUP4 EXTCODESIZE ISZERO PUSH2 0x382 JUMPI PUSH2 0x31D SWAP4 DUP6 SWAP3 DUP4 DUP11 SWAP4 DUP7 MLOAD SWAP8 DUP9 SWAP6 DUP7 SWAP5 DUP6 SWAP4 PUSH4 0x23B872DD PUSH1 0xE0 SHL DUP6 MSTORE ADDRESS SWAP1 DUP6 ADD PUSH2 0xE0F JUMP JUMPDEST SUB SWAP3 GAS CALL SWAP1 DUP2 ISZERO PUSH2 0x379 JUMPI POP PUSH2 0x361 JUMPI JUMPDEST POP POP PUSH2 0x339 SWAP1 PUSH2 0xDEF JUMP JUMPDEST SWAP2 PUSH32 0xDB3E8F1B679316330981F622BBCEA0BAA4068B63DE4ED4E5ACC3FFDEC9398DB9 DUP5 DUP1 LOG4 DUP1 RETURN JUMPDEST PUSH2 0x36A SWAP1 PUSH2 0xB79 JUMP JUMPDEST PUSH2 0x375 JUMPI DUP4 DUP6 PUSH2 0x32E JUMP JUMPDEST DUP4 DUP1 REVERT JUMPDEST MLOAD RETURNDATASIZE DUP5 DUP3 RETURNDATACOPY RETURNDATASIZE SWAP1 REVERT JUMPDEST DUP5 DUP1 REVERT JUMPDEST DUP3 SLOAD DUP1 DUP3 LT ISZERO PUSH2 0x46E JUMPI DUP11 PUSH2 0x39B DUP4 DUP7 PUSH2 0xD95 JUMP JUMPDEST SWAP1 SLOAD SWAP1 DUP6 SHL SHR EQ PUSH2 0x3CB JUMPI POP PUSH1 0x0 NOT DUP2 EQ PUSH2 0x3B8 JUMPI DUP12 ADD DUP12 PUSH2 0x2DF JUMP JUMPDEST PUSH4 0x4E487B71 PUSH1 0xE0 SHL DUP12 MSTORE PUSH1 0x11 DUP8 MSTORE PUSH1 0x24 DUP12 REVERT JUMPDEST PUSH1 0x0 NOT SWAP13 SWAP4 SWAP2 SWAP1 DUP14 DUP2 ADD SWAP1 DUP2 GT PUSH2 0x45B JUMPI SWAP1 PUSH2 0x3FA PUSH2 0x3ED PUSH2 0x413 SWAP4 DUP6 PUSH2 0xD95 JUMP JUMPDEST SWAP1 SLOAD SWAP1 DUP7 SHL SHR SWAP2 DUP5 PUSH2 0xD95 JUMP JUMPDEST SWAP1 SWAP2 SWAP1 DUP3 SLOAD SWAP1 PUSH1 0x3 SHL SWAP2 DUP3 SHL SWAP2 PUSH1 0x0 NOT SWAP1 SHL NOT AND OR SWAP1 SSTORE JUMP JUMPDEST DUP1 SLOAD SWAP12 DUP13 ISZERO PUSH2 0x448 JUMPI DUP1 DUP13 SWAP14 SWAP13 SWAP10 SWAP11 SWAP12 SWAP13 ADD SWAP3 PUSH2 0x430 DUP5 DUP5 PUSH2 0xD95 JUMP JUMPDEST DUP2 SWAP4 SWAP2 SLOAD SWAP3 SHL SHL NOT AND SWAP1 SSTORE SSTORE SWAP9 SWAP8 SWAP7 SWAP6 SWAP5 DUP11 DUP1 PUSH2 0x2E4 JUMP JUMPDEST PUSH4 0x4E487B71 PUSH1 0xE0 SHL DUP13 MSTORE PUSH1 0x31 DUP9 MSTORE PUSH1 0x24 DUP13 REVERT JUMPDEST PUSH4 0x4E487B71 PUSH1 0xE0 SHL DUP14 MSTORE PUSH1 0x11 DUP10 MSTORE PUSH1 0x24 DUP14 REVERT JUMPDEST POP PUSH2 0x2E4 JUMP JUMPDEST DUP5 MLOAD PUSH3 0x461BCD PUSH1 0xE5 SHL DUP2 MSTORE DUP1 DUP8 ADD DUP4 SWAP1 MSTORE PUSH1 0x11 PUSH1 0x24 DUP3 ADD MSTORE PUSH17 0xAAE6CAE4DCC2DACA40DAD2E6DAC2E8C6D PUSH1 0x7B SHL PUSH1 0x44 DUP3 ADD MSTORE PUSH1 0x64 SWAP1 REVERT JUMPDEST DUP3 MLOAD PUSH3 0x461BCD PUSH1 0xE5 SHL DUP2 MSTORE DUP1 DUP6 ADD DUP11 SWAP1 MSTORE PUSH1 0x17 PUSH1 0x24 DUP3 ADD MSTORE PUSH23 0x496E76616C696420636C61696D65722061646472657373 PUSH1 0x48 SHL PUSH1 0x44 DUP3 ADD MSTORE PUSH1 0x64 SWAP1 REVERT JUMPDEST MLOAD PUSH3 0x461BCD PUSH1 0xE5 SHL DUP2 MSTORE SWAP1 DUP2 ADD DUP7 SWAP1 MSTORE PUSH1 0x14 PUSH1 0x24 DUP3 ADD MSTORE PUSH20 0x10D85C9908185B1C9958591E4818DB185A5B5959 PUSH1 0x62 SHL PUSH1 0x44 DUP3 ADD MSTORE PUSH1 0x64 SWAP1 REVERT JUMPDEST POP CALLVALUE PUSH2 0x13B JUMPI DUP2 PUSH1 0x3 NOT CALLDATASIZE ADD SLT PUSH2 0x13B JUMPI DUP1 CALLDATALOAD SWAP1 PUSH1 0x1 PUSH1 0x1 PUSH1 0x40 SHL SUB DUP3 GT PUSH2 0x375 JUMPI PUSH2 0x54F SWAP2 CALLDATASIZE SWAP2 ADD PUSH2 0xD31 JUMP JUMPDEST SWAP2 PUSH2 0x56B PUSH1 0x20 PUSH1 0x24 CALLDATALOAD SWAP5 DUP2 DUP6 MLOAD SWAP4 DUP3 DUP6 DUP1 SWAP5 MLOAD SWAP4 DUP5 SWAP3 ADD PUSH2 0xC6B JUMP JUMPDEST DUP2 ADD PUSH1 0x2 DUP2 MSTORE SUB ADD SWAP1 KECCAK256 SWAP1 DUP2 SLOAD DUP5 LT ISZERO PUSH2 0x23E JUMPI POP PUSH1 0x20 SWAP3 PUSH2 0x58C SWAP2 PUSH2 0xD95 JUMP JUMPDEST SWAP2 SWAP1 SLOAD SWAP1 MLOAD SWAP2 PUSH1 0x3 SHL SHR DUP2 MSTORE RETURN JUMPDEST POP CALLVALUE PUSH2 0x13B JUMPI PUSH1 0x20 CALLDATASIZE PUSH1 0x3 NOT ADD SLT PUSH2 0x13B JUMPI DUP2 PUSH2 0x5CE SWAP4 PUSH2 0x5C3 SWAP3 CALLDATALOAD DUP2 MSTORE PUSH1 0x3 PUSH1 0x20 MSTORE KECCAK256 PUSH2 0xBC5 JUMP JUMPDEST SWAP1 MLOAD SWAP2 DUP3 SWAP2 DUP3 PUSH2 0xC8E JUMP JUMPDEST SUB SWAP1 RETURN JUMPDEST POP CALLVALUE PUSH2 0x13B JUMPI PUSH1 0x20 CALLDATASIZE PUSH1 0x3 NOT ADD SLT PUSH2 0x13B JUMPI PUSH2 0x5EC PUSH2 0xCD5 JUMP JUMPDEST PUSH2 0x5F4 PUSH2 0xDC3 JUMP JUMPDEST PUSH1 0x1 PUSH1 0x1 PUSH1 0xA0 SHL SUB AND SWAP2 DUP3 ISZERO PUSH2 0x61D JUMPI POP POP PUSH1 0x1 DUP1 SLOAD PUSH1 0x1 PUSH1 0x1 PUSH1 0xA0 SHL SUB NOT AND SWAP2 SWAP1 SWAP2 OR SWAP1 SSTORE DUP1 RETURN JUMPDEST SWAP1 PUSH1 0x20 PUSH1 0x64 SWAP3 MLOAD SWAP2 PUSH3 0x461BCD PUSH1 0xE5 SHL DUP4 MSTORE DUP3 ADD MSTORE PUSH1 0x19 PUSH1 0x24 DUP3 ADD MSTORE PUSH25 0x11DA599D10D85C99081859191C995CDCC81C995C5D5A5C9959 PUSH1 0x3A SHL PUSH1 0x44 DUP3 ADD MSTORE REVERT JUMPDEST POP POP CALLVALUE PUSH2 0x23A JUMPI DUP2 PUSH1 0x3 NOT CALLDATASIZE ADD SLT PUSH2 0x23A JUMPI SWAP1 SLOAD SWAP1 MLOAD PUSH1 0x1 PUSH1 0x1 PUSH1 0xA0 SHL SUB SWAP1 SWAP2 AND DUP2 MSTORE PUSH1 0x20 SWAP1 RETURN JUMPDEST DUP4 CALLVALUE PUSH2 0x23E JUMPI DUP1 PUSH1 0x3 NOT CALLDATASIZE ADD SLT PUSH2 0x23E JUMPI PUSH2 0x69D PUSH2 0xDC3 JUMP JUMPDEST PUSH1 0x0 DUP1 SLOAD PUSH1 0x1 PUSH1 0x1 PUSH1 0xA0 SHL SUB NOT DUP2 AND DUP3 SSTORE PUSH1 0x1 PUSH1 0x1 PUSH1 0xA0 SHL SUB AND PUSH1 0x0 DUP1 MLOAD PUSH1 0x20 PUSH2 0xE32 DUP4 CODECOPY DUP2 MLOAD SWAP2 MSTORE DUP3 DUP1 LOG3 DUP1 RETURN JUMPDEST POP POP CALLVALUE PUSH2 0x23A JUMPI DUP2 PUSH1 0x3 NOT CALLDATASIZE ADD SLT PUSH2 0x23A JUMPI PUSH1 0x1 SLOAD SWAP1 MLOAD PUSH1 0x1 PUSH1 0x1 PUSH1 0xA0 SHL SUB SWAP1 SWAP2 AND DUP2 MSTORE PUSH1 0x20 SWAP1 RETURN JUMPDEST POP CALLVALUE PUSH2 0x13B JUMPI PUSH2 0x704 CALLDATASIZE PUSH2 0xD4F JUMP JUMPDEST PUSH1 0x1 DUP1 SLOAD SWAP4 SWAP5 PUSH1 0x1 PUSH1 0x1 PUSH1 0xA0 SHL SUB SWAP5 DUP6 AND SWAP5 SWAP3 SWAP4 SWAP2 CALLER DUP7 SWAP1 SUB PUSH2 0x9C9 JUMPI DUP3 MLOAD ISZERO PUSH2 0x98B JUMPI DUP8 MLOAD DUP1 SWAP7 PUSH4 0x31A9108F PUSH1 0xE1 SHL DUP3 MSTORE DUP9 DUP5 DUP4 ADD MSTORE DUP2 PUSH1 0x24 PUSH1 0x20 SWAP10 DUP11 SWAP4 GAS STATICCALL SWAP1 DUP2 ISZERO PUSH2 0x981 JUMPI DUP11 SWAP2 PUSH2 0x947 JUMPI JUMPDEST POP DUP5 ADDRESS SWAP2 AND SUB PUSH2 0x90A JUMPI DUP8 MLOAD DUP7 DUP2 DUP6 MLOAD PUSH2 0x770 DUP2 DUP4 DUP6 DUP11 ADD PUSH2 0xC6B JUMP JUMPDEST DUP2 ADD PUSH1 0x2 DUP2 MSTORE SUB ADD SWAP1 KECCAK256 DUP1 SLOAD SWAP1 PUSH1 0x1 PUSH1 0x40 SHL DUP3 LT ISZERO PUSH2 0x8F7 JUMPI PUSH2 0x3FA DUP3 DUP11 SWAP3 DUP6 PUSH2 0x79C SWAP6 ADD DUP2 SSTORE PUSH2 0xD95 JUMP JUMPDEST DUP7 DUP10 MSTORE PUSH1 0x3 DUP7 MSTORE DUP8 DUP10 KECCAK256 DUP4 MLOAD SWAP1 SWAP2 PUSH1 0x1 PUSH1 0x1 PUSH1 0x40 SHL SUB DUP3 GT PUSH2 0x8F7 JUMPI PUSH2 0x7C2 DUP4 SLOAD PUSH2 0xB3F JUMP JUMPDEST PUSH1 0x1F DUP2 GT PUSH2 0x8B0 JUMPI JUMPDEST POP DUP8 DUP12 PUSH1 0x1F DUP5 GT PUSH1 0x1 EQ PUSH2 0x838 JUMPI SWAP3 DUP1 PUSH1 0x0 DUP1 MLOAD PUSH1 0x20 PUSH2 0xE52 DUP4 CODECOPY DUP2 MLOAD SWAP2 MSTORE SWAP11 SWAP10 SWAP9 SWAP8 SWAP6 SWAP4 DUP2 SWAP4 PUSH2 0x823 SWAP9 SWAP7 SWAP4 PUSH2 0x82D JUMPI JUMPDEST POP SHL SWAP2 PUSH1 0x0 NOT SWAP1 PUSH1 0x3 SHL SHR NOT AND OR SWAP1 SSTORE JUMPDEST DUP8 DUP11 MSTORE DUP6 MSTORE DUP8 DUP10 KECCAK256 DUP1 SLOAD PUSH1 0xFF NOT AND SWAP1 SSTORE PUSH2 0xDEF JUMP JUMPDEST SWAP6 MLOAD SWAP2 AND DUP2 MSTORE LOG3 DUP1 RETURN JUMPDEST DUP8 ADD MLOAD SWAP3 POP CODESIZE PUSH2 0x7FD JUMP JUMPDEST POP DUP4 DUP13 MSTORE DUP9 DUP13 KECCAK256 SWAP2 SWAP3 SWAP2 SWAP1 PUSH1 0x1F NOT DUP4 AND DUP14 JUMPDEST DUP2 DUP2 LT PUSH2 0x89B JUMPI POP SWAP2 DUP4 SWAP2 PUSH1 0x0 DUP1 MLOAD PUSH1 0x20 PUSH2 0xE52 DUP4 CODECOPY DUP2 MLOAD SWAP2 MSTORE SWAP12 SWAP11 SWAP10 SWAP9 SWAP7 SWAP5 PUSH2 0x823 SWAP9 SWAP7 SWAP5 LT PUSH2 0x882 JUMPI JUMPDEST POP POP DUP2 SHL ADD SWAP1 SSTORE PUSH2 0x80E JUMP JUMPDEST DUP7 ADD MLOAD PUSH1 0x0 NOT PUSH1 0xF8 DUP5 PUSH1 0x3 SHL AND SHR NOT AND SWAP1 SSTORE CODESIZE DUP1 PUSH2 0x876 JUMP JUMPDEST DUP9 DUP4 ADD MLOAD DUP5 SSTORE SWAP3 DUP6 ADD SWAP3 SWAP2 DUP12 ADD SWAP2 DUP12 ADD PUSH2 0x84A JUMP JUMPDEST DUP4 DUP13 MSTORE DUP9 DUP13 KECCAK256 PUSH1 0x1F DUP5 ADD PUSH1 0x5 SHR DUP2 ADD SWAP2 DUP11 DUP6 LT PUSH2 0x8ED JUMPI JUMPDEST PUSH1 0x1F ADD PUSH1 0x5 SHR ADD SWAP1 DUP3 SWAP1 JUMPDEST DUP3 DUP2 LT PUSH2 0x8E1 JUMPI POP POP PUSH2 0x7CB JUMP JUMPDEST PUSH1 0x0 DUP2 SSTORE ADD DUP3 SWAP1 PUSH2 0x8D3 JUMP JUMPDEST SWAP1 SWAP2 POP DUP2 SWAP1 PUSH2 0x8C8 JUMP JUMPDEST PUSH4 0x4E487B71 PUSH1 0xE0 SHL DUP12 MSTORE PUSH1 0x41 DUP5 MSTORE PUSH1 0x24 DUP12 REVERT JUMPDEST DUP8 MLOAD PUSH3 0x461BCD PUSH1 0xE5 SHL DUP2 MSTORE DUP1 DUP4 ADD DUP8 SWAP1 MSTORE PUSH1 0x17 PUSH1 0x24 DUP3 ADD MSTORE PUSH23 0x15985D5B1D081B5D5CDD081BDDDB881D1A194818D85C99 PUSH1 0x4A SHL PUSH1 0x44 DUP3 ADD MSTORE PUSH1 0x64 SWAP1 REVERT JUMPDEST SWAP1 POP DUP7 DUP2 DUP2 RETURNDATASIZE DUP4 GT PUSH2 0x97A JUMPI JUMPDEST PUSH2 0x95E DUP2 DUP4 PUSH2 0xBA2 JUMP JUMPDEST DUP2 ADD SUB SLT PUSH2 0x976 JUMPI MLOAD DUP5 DUP2 AND DUP2 SUB PUSH2 0x976 JUMPI CODESIZE PUSH2 0x753 JUMP JUMPDEST DUP10 DUP1 REVERT JUMPDEST POP RETURNDATASIZE PUSH2 0x954 JUMP JUMPDEST DUP10 MLOAD RETURNDATASIZE DUP13 DUP3 RETURNDATACOPY RETURNDATASIZE SWAP1 REVERT JUMPDEST DUP8 MLOAD PUSH3 0x461BCD PUSH1 0xE5 SHL DUP2 MSTORE PUSH1 0x20 DUP2 DUP5 ADD MSTORE PUSH1 0x18 PUSH1 0x24 DUP3 ADD MSTORE PUSH24 0x557365726E616D652063616E6E6F7420626520656D707479 PUSH1 0x40 SHL PUSH1 0x44 DUP3 ADD MSTORE PUSH1 0x64 SWAP1 REVERT JUMPDEST DUP8 MLOAD PUSH3 0x461BCD PUSH1 0xE5 SHL DUP2 MSTORE PUSH1 0x20 DUP2 DUP5 ADD MSTORE PUSH1 0x19 PUSH1 0x24 DUP3 ADD MSTORE PUSH25 0x13DB9B1E4811DA599D10D85C990818D85B8819195C1BDCDA5D PUSH1 0x3A SHL PUSH1 0x44 DUP3 ADD MSTORE PUSH1 0x64 SWAP1 REVERT JUMPDEST POP SWAP2 CALLVALUE PUSH2 0x23E JUMPI PUSH1 0x80 CALLDATASIZE PUSH1 0x3 NOT ADD SLT PUSH2 0x23E JUMPI PUSH2 0xA23 PUSH2 0xCD5 JUMP JUMPDEST POP PUSH2 0xA2C PUSH2 0xCBA JUMP JUMPDEST POP PUSH1 0x64 CALLDATALOAD SWAP1 PUSH1 0x1 PUSH1 0x1 PUSH1 0x40 SHL SUB DUP3 GT PUSH2 0x23E JUMPI CALLDATASIZE PUSH1 0x23 DUP4 ADD SLT ISZERO PUSH2 0x23E JUMPI POP PUSH1 0x20 SWAP3 DUP2 PUSH1 0x24 PUSH2 0xA60 SWAP4 CALLDATASIZE SWAP4 ADD CALLDATALOAD SWAP2 ADD PUSH2 0xCEB JUMP JUMPDEST POP MLOAD PUSH4 0xA85BD01 PUSH1 0xE1 SHL DUP2 MSTORE RETURN JUMPDEST POP SWAP1 CALLVALUE PUSH2 0x13B JUMPI DUP1 PUSH1 0x3 NOT CALLDATASIZE ADD SLT PUSH2 0x13B JUMPI DUP2 CALLDATALOAD PUSH2 0xA8A PUSH2 0xCBA JUMP JUMPDEST PUSH2 0xA92 PUSH2 0xDC3 JUMP JUMPDEST DUP2 DUP6 MSTORE DUP4 PUSH1 0x20 MSTORE PUSH1 0xFF DUP4 DUP7 KECCAK256 SLOAD AND PUSH2 0xAFE JUMPI PUSH1 0x1 SLOAD DUP6 SWAP3 SWAP2 PUSH1 0x1 PUSH1 0x1 PUSH1 0xA0 SHL SUB SWAP1 SWAP2 AND SWAP1 DUP2 EXTCODESIZE ISZERO PUSH2 0x375 JUMPI DUP4 PUSH2 0xADE SWAP7 DUP7 MLOAD SWAP8 DUP9 SWAP6 DUP7 SWAP5 DUP6 SWAP4 PUSH4 0x23B872DD PUSH1 0xE0 SHL DUP6 MSTORE ADDRESS SWAP1 DUP6 ADD PUSH2 0xE0F JUMP JUMPDEST SUB SWAP3 GAS CALL SWAP1 DUP2 ISZERO PUSH2 0x379 JUMPI POP PUSH2 0xAF2 JUMPI POP DUP1 RETURN JUMPDEST PUSH2 0xAFB SWAP1 PUSH2 0xB79 JUMP JUMPDEST DUP1 RETURN JUMPDEST DUP3 MLOAD PUSH3 0x461BCD PUSH1 0xE5 SHL DUP2 MSTORE PUSH1 0x20 DUP2 DUP7 ADD MSTORE PUSH1 0x1B PUSH1 0x24 DUP3 ADD MSTORE PUSH27 0x10D85B9B9BDD081C9958DBDD995C8818DB185A5B59590818D85C99 PUSH1 0x2A SHL PUSH1 0x44 DUP3 ADD MSTORE PUSH1 0x64 SWAP1 REVERT JUMPDEST SWAP1 PUSH1 0x1 DUP3 DUP2 SHR SWAP3 AND DUP1 ISZERO PUSH2 0xB6F JUMPI JUMPDEST PUSH1 0x20 DUP4 LT EQ PUSH2 0xB59 JUMPI JUMP JUMPDEST PUSH4 0x4E487B71 PUSH1 0xE0 SHL PUSH1 0x0 MSTORE PUSH1 0x22 PUSH1 0x4 MSTORE PUSH1 0x24 PUSH1 0x0 REVERT JUMPDEST SWAP2 PUSH1 0x7F AND SWAP2 PUSH2 0xB4E JUMP JUMPDEST PUSH1 0x1 PUSH1 0x1 PUSH1 0x40 SHL SUB DUP2 GT PUSH2 0xB8C JUMPI PUSH1 0x40 MSTORE JUMP JUMPDEST PUSH4 0x4E487B71 PUSH1 0xE0 SHL PUSH1 0x0 MSTORE PUSH1 0x41 PUSH1 0x4 MSTORE PUSH1 0x24 PUSH1 0x0 REVERT JUMPDEST PUSH1 0x1F SWAP1 SWAP2 ADD PUSH1 0x1F NOT AND DUP2 ADD SWAP1 PUSH1 0x1 PUSH1 0x1 PUSH1 0x40 SHL SUB DUP3 GT SWAP1 DUP3 LT OR PUSH2 0xB8C JUMPI PUSH1 0x40 MSTORE JUMP JUMPDEST SWAP1 PUSH1 0x40 MLOAD SWAP2 DUP3 PUSH1 0x0 DUP3 SLOAD SWAP3 PUSH2 0xBD9 DUP5 PUSH2 0xB3F JUMP JUMPDEST SWAP1 DUP2 DUP5 MSTORE PUSH1 0x1 SWAP5 DUP6 DUP2 AND SWAP1 DUP2 PUSH1 0x0 EQ PUSH2 0xC48 JUMPI POP PUSH1 0x1 EQ PUSH2 0xC05 JUMPI JUMPDEST POP POP PUSH2 0xC03 SWAP3 POP SUB DUP4 PUSH2 0xBA2 JUMP JUMPDEST JUMP JUMPDEST SWAP1 SWAP4 SWAP2 POP PUSH1 0x0 MSTORE PUSH1 0x20 SWAP1 DUP2 PUSH1 0x0 KECCAK256 SWAP4 PUSH1 0x0 SWAP2 JUMPDEST DUP2 DUP4 LT PUSH2 0xC30 JUMPI POP POP PUSH2 0xC03 SWAP4 POP DUP3 ADD ADD CODESIZE DUP1 PUSH2 0xBF5 JUMP JUMPDEST DUP6 SLOAD DUP9 DUP5 ADD DUP6 ADD MSTORE SWAP5 DUP6 ADD SWAP5 DUP8 SWAP5 POP SWAP2 DUP4 ADD SWAP2 PUSH2 0xC18 JUMP JUMPDEST SWAP2 POP POP PUSH2 0xC03 SWAP5 POP PUSH1 0x20 SWAP3 POP PUSH1 0xFF NOT AND DUP3 DUP5 ADD MSTORE ISZERO ISZERO PUSH1 0x5 SHL DUP3 ADD ADD CODESIZE DUP1 PUSH2 0xBF5 JUMP JUMPDEST PUSH1 0x0 JUMPDEST DUP4 DUP2 LT PUSH2 0xC7E JUMPI POP POP PUSH1 0x0 SWAP2 ADD MSTORE JUMP JUMPDEST DUP2 DUP2 ADD MLOAD DUP4 DUP3 ADD MSTORE PUSH1 0x20 ADD PUSH2 0xC6E JUMP JUMPDEST PUSH1 0x40 SWAP2 PUSH1 0x20 DUP3 MSTORE PUSH2 0xCAE DUP2 MLOAD DUP1 SWAP3 DUP2 PUSH1 0x20 DUP7 ADD MSTORE PUSH1 0x20 DUP7 DUP7 ADD SWAP2 ADD PUSH2 0xC6B JUMP JUMPDEST PUSH1 0x1F ADD PUSH1 0x1F NOT AND ADD ADD SWAP1 JUMP JUMPDEST PUSH1 0x24 CALLDATALOAD SWAP1 PUSH1 0x1 PUSH1 0x1 PUSH1 0xA0 SHL SUB DUP3 AND DUP3 SUB PUSH2 0xCD0 JUMPI JUMP JUMPDEST PUSH1 0x0 DUP1 REVERT JUMPDEST PUSH1 0x4 CALLDATALOAD SWAP1 PUSH1 0x1 PUSH1 0x1 PUSH1 0xA0 SHL SUB DUP3 AND DUP3 SUB PUSH2 0xCD0 JUMPI JUMP JUMPDEST SWAP2 SWAP3 SWAP2 PUSH1 0x1 PUSH1 0x1 PUSH1 0x40 SHL SUB DUP3 GT PUSH2 0xB8C JUMPI PUSH1 0x40 MLOAD SWAP2 PUSH2 0xD14 PUSH1 0x1F DUP3 ADD PUSH1 0x1F NOT AND PUSH1 0x20 ADD DUP5 PUSH2 0xBA2 JUMP JUMPDEST DUP3 SWAP5 DUP2 DUP5 MSTORE DUP2 DUP4 ADD GT PUSH2 0xCD0 JUMPI DUP3 DUP2 PUSH1 0x20 SWAP4 DUP5 PUSH1 0x0 SWAP7 ADD CALLDATACOPY ADD ADD MSTORE JUMP JUMPDEST SWAP1 DUP1 PUSH1 0x1F DUP4 ADD SLT ISZERO PUSH2 0xCD0 JUMPI DUP2 PUSH1 0x20 PUSH2 0xD4C SWAP4 CALLDATALOAD SWAP2 ADD PUSH2 0xCEB JUMP JUMPDEST SWAP1 JUMP JUMPDEST SWAP1 PUSH1 0x60 PUSH1 0x3 NOT DUP4 ADD SLT PUSH2 0xCD0 JUMPI PUSH1 0x4 CALLDATALOAD SWAP2 PUSH1 0x24 CALLDATALOAD SWAP1 PUSH1 0x1 PUSH1 0x1 PUSH1 0x40 SHL SUB DUP3 GT PUSH2 0xCD0 JUMPI PUSH2 0xD7E SWAP2 PUSH1 0x4 ADD PUSH2 0xD31 JUMP JUMPDEST SWAP1 PUSH1 0x44 CALLDATALOAD PUSH1 0x1 PUSH1 0x1 PUSH1 0xA0 SHL SUB DUP2 AND DUP2 SUB PUSH2 0xCD0 JUMPI SWAP1 JUMP JUMPDEST DUP1 SLOAD DUP3 LT ISZERO PUSH2 0xDAD JUMPI PUSH1 0x0 MSTORE PUSH1 0x20 PUSH1 0x0 KECCAK256 ADD SWAP1 PUSH1 0x0 SWAP1 JUMP JUMPDEST PUSH4 0x4E487B71 PUSH1 0xE0 SHL PUSH1 0x0 MSTORE PUSH1 0x32 PUSH1 0x4 MSTORE PUSH1 0x24 PUSH1 0x0 REVERT JUMPDEST PUSH1 0x0 SLOAD PUSH1 0x1 PUSH1 0x1 PUSH1 0xA0 SHL SUB AND CALLER SUB PUSH2 0xDD7 JUMPI JUMP JUMPDEST PUSH1 0x40 MLOAD PUSH4 0x118CDAA7 PUSH1 0xE0 SHL DUP2 MSTORE CALLER PUSH1 0x4 DUP3 ADD MSTORE PUSH1 0x24 SWAP1 REVERT JUMPDEST PUSH2 0xE07 SWAP1 PUSH1 0x20 PUSH1 0x40 MLOAD SWAP3 DUP3 DUP5 DUP1 SWAP5 MLOAD SWAP4 DUP5 SWAP3 ADD PUSH2 0xC6B JUMP JUMPDEST DUP2 ADD SUB SWAP1 KECCAK256 SWAP1 JUMP JUMPDEST PUSH1 0x1 PUSH1 0x1 PUSH1 0xA0 SHL SUB SWAP2 DUP3 AND DUP2 MSTORE SWAP2 AND PUSH1 0x20 DUP3 ADD MSTORE PUSH1 0x40 DUP2 ADD SWAP2 SWAP1 SWAP2 MSTORE PUSH1 0x60 ADD SWAP1 JUMP INVALID DUP12 0xE0 SMOD SWAP13 MSTORE8 AND MSIZE EQ SGT PREVRANDAO 0xCD 0x1F 0xD0 LOG4 CALLCODE DUP5 NOT 0x49 PUSH32 0x9722A3DAAFE3B4186F6B6457E0998A69985B48E618AB4500BB669B84DA565FAB DUP8 OR LOG3 PUSH3 0xF88D11 CALLDATACOPY 0xD0 0xB6 0xA6 MLOAD LOG2 LOG2 PUSH5 0x6970667358 0x22 SLT KECCAK256 DUP10 0x1F 0xE7 PUSH12 0x829878D8D48AF57A98FB0FF2 PUSH25 0xD20BDF938A0AF339ED0A9D0E8165F664736F6C634300081400 CALLER "},"methodIdentifiers":{"claimCard(uint256,string,address)":"c07c0f8b","claimedTokens(uint256)":"e5a342a3","depositCardForUsername(uint256,string,address)":"2dc3dabe","emergencyRecover(uint256,address)":"08ac209b","getPendingCardsForUsername(string)":"c6cbbe24","getUsernameForToken(uint256)":"a1daf3b1","giftCardContract()":"5d1fe172","isCardClaimed(uint256)":"ba5b415a","onERC721Received(address,address,uint256,bytes)":"150b7a02","owner()":"8da5cb5b","renounceOwnership()":"715018a6","setGiftCardContract(address)":"98a8faca","tokenToUsername(uint256)":"07cc0e3d","transferOwnership(address)":"f2fde38b","usernameToTokens(string,uint256)":"be1dca5f"}}}}}