{
  "_format": "hh-sol-artifact-1",
  "contractName": "TwitchCardVault",
  "sourceName": "contracts/TwitchCardVault.sol",
  "abi": [
    {
      "inputs": [
        {
          "internalType": "address",
          "name": "_giftCardAddress",
          "type": "address"
        }
      ],
      "stateMutability": "nonpayable",
      "type": "constructor"
    },
    {
      "inputs": [
        {
          "internalType": "address",
          "name": "owner",
          "type": "address"
        }
      ],
      "name": "OwnableInvalidOwner",
      "type": "error"
    },
    {
      "inputs": [
        {
          "internalType": "address",
          "name": "account",
          "type": "address"
        }
      ],
      "name": "OwnableUnauthorizedAccount",
      "type": "error"
    },
    {
      "anonymous": false,
      "inputs": [
        {
          "indexed": true,
          "internalType": "uint256",
          "name": "tokenId",
          "type": "uint256"
        },
        {
          "indexed": true,
          "internalType": "address",
          "name": "claimer",
          "type": "address"
        },
        {
          "indexed": true,
          "internalType": "string",
          "name": "username",
          "type": "string"
        }
      ],
      "name": "CardClaimed",
      "type": "event"
    },
    {
      "anonymous": false,
      "inputs": [
        {
          "indexed": true,
          "internalType": "uint256",
          "name": "tokenId",
          "type": "uint256"
        },
        {
          "indexed": true,
          "internalType": "string",
          "name": "username",
          "type": "string"
        },
        {
          "indexed": false,
          "internalType": "address",
          "name": "sender",
          "type": "address"
        }
      ],
      "name": "CardDeposited",
      "type": "event"
    },
    {
      "anonymous": false,
      "inputs": [
        {
          "indexed": true,
          "internalType": "address",
          "name": "previousOwner",
          "type": "address"
        },
        {
          "indexed": true,
          "internalType": "address",
          "name": "newOwner",
          "type": "address"
        }
      ],
      "name": "OwnershipTransferred",
      "type": "event"
    },
    {
      "inputs": [
        {
          "internalType": "uint256",
          "name": "tokenId",
          "type": "uint256"
        },
        {
          "internalType": "string",
          "name": "username",
          "type": "string"
        },
        {
          "internalType": "address",
          "name": "claimer",
          "type": "address"
        }
      ],
      "name": "claimCard",
      "outputs": [],
      "stateMutability": "nonpayable",
      "type": "function"
    },
    {
      "inputs": [
        {
          "internalType": "uint256",
          "name": "",
          "type": "uint256"
        }
      ],
      "name": "claimedTokens",
      "outputs": [
        {
          "internalType": "bool",
          "name": "",
          "type": "bool"
        }
      ],
      "stateMutability": "view",
      "type": "function"
    },
    {
      "inputs": [
        {
          "internalType": "uint256",
          "name": "tokenId",
          "type": "uint256"
        },
        {
          "internalType": "string",
          "name": "username",
          "type": "string"
        },
        {
          "internalType": "address",
          "name": "sender",
          "type": "address"
        }
      ],
      "name": "depositCardForUsername",
      "outputs": [],
      "stateMutability": "nonpayable",
      "type": "function"
    },
    {
      "inputs": [
        {
          "internalType": "uint256",
          "name": "tokenId",
          "type": "uint256"
        },
        {
          "internalType": "address",
          "name": "to",
          "type": "address"
        }
      ],
      "name": "emergencyRecover",
      "outputs": [],
      "stateMutability": "nonpayable",
      "type": "function"
    },
    {
      "inputs": [
        {
          "internalType": "string",
          "name": "username",
          "type": "string"
        }
      ],
      "name": "getPendingCardsForUsername",
      "outputs": [
        {
          "internalType": "uint256[]",
          "name": "",
          "type": "uint256[]"
        }
      ],
      "stateMutability": "view",
      "type": "function"
    },
    {
      "inputs": [
        {
          "internalType": "uint256",
          "name": "tokenId",
          "type": "uint256"
        }
      ],
      "name": "getUsernameForToken",
      "outputs": [
        {
          "internalType": "string",
          "name": "",
          "type": "string"
        }
      ],
      "stateMutability": "view",
      "type": "function"
    },
    {
      "inputs": [],
      "name": "giftCardContract",
      "outputs": [
        {
          "internalType": "contract GiftCard",
          "name": "",
          "type": "address"
        }
      ],
      "stateMutability": "view",
      "type": "function"
    },
    {
      "inputs": [
        {
          "internalType": "uint256",
          "name": "tokenId",
          "type": "uint256"
        }
      ],
      "name": "isCardClaimed",
      "outputs": [
        {
          "internalType": "bool",
          "name": "",
          "type": "bool"
        }
      ],
      "stateMutability": "view",
      "type": "function"
    },
    {
      "inputs": [
        {
          "internalType": "address",
          "name": "operator",
          "type": "address"
        },
        {
          "internalType": "address",
          "name": "from",
          "type": "address"
        },
        {
          "internalType": "uint256",
          "name": "tokenId",
          "type": "uint256"
        },
        {
          "internalType": "bytes",
          "name": "data",
          "type": "bytes"
        }
      ],
      "name": "onERC721Received",
      "outputs": [
        {
          "internalType": "bytes4",
          "name": "",
          "type": "bytes4"
        }
      ],
      "stateMutability": "pure",
      "type": "function"
    },
    {
      "inputs": [],
      "name": "owner",
      "outputs": [
        {
          "internalType": "address",
          "name": "",
          "type": "address"
        }
      ],
      "stateMutability": "view",
      "type": "function"
    },
    {
      "inputs": [],
      "name": "renounceOwnership",
      "outputs": [],
      "stateMutability": "nonpayable",
      "type": "function"
    },
    {
      "inputs": [
        {
          "internalType": "address",
          "name": "_giftCardAddress",
          "type": "address"
        }
      ],
      "name": "setGiftCardContract",
      "outputs": [],
      "stateMutability": "nonpayable",
      "type": "function"
    },
    {
      "inputs": [
        {
          "internalType": "uint256",
          "name": "",
          "type": "uint256"
        }
      ],
      "name": "tokenToUsername",
      "outputs": [
        {
          "internalType": "string",
          "name": "",
          "type": "string"
        }
      ],
      "stateMutability": "view",
      "type": "function"
    },
    {
      "inputs": [
        {
          "internalType": "address",
          "name": "newOwner",
          "type": "address"
        }
      ],
      "name": "transferOwnership",
      "outputs": [],
      "stateMutability": "nonpayable",
      "type": "function"
    },
    {
      "inputs": [
        {
          "internalType": "string",
          "name": "",
          "type": "string"
        },
        {
          "internalType": "uint256",
          "name": "",
          "type": "uint256"
        }
      ],
      "name": "usernameToTokens",
      "outputs": [
        {
          "internalType": "uint256",
          "name": "",
          "type": "uint256"
        }
      ],
      "stateMutability": "view",
      "type": "function"
    }
  ],
  "bytecode": "0x608060405234801561001057600080fd5b506040516112e23803806112e283398101604081905261002f9161012b565b338061005657604051631e4fbdf760e01b8152600060048201526024015b60405180910390fd5b61005f816100db565b506001600160a01b0381166100b65760405162461bcd60e51b815260206004820152601960248201527f4769667443617264206164647265737320726571756972656400000000000000604482015260640161004d565b600180546001600160a01b0319166001600160a01b039290921691909117905561015b565b600080546001600160a01b038381166001600160a01b0319831681178455604051919092169283917f8be0079c531659141344cd1fd0a4f28419497f9722a3daafe3b4186f6b6457e09190a35050565b60006020828403121561013d57600080fd5b81516001600160a01b038116811461015457600080fd5b9392505050565b6111788061016a6000396000f3fe608060405234801561001057600080fd5b50600436106100f55760003560e01c806398a8faca11610097578063c07c0f8b11610066578063c07c0f8b14610240578063c6cbbe2414610253578063e5a342a314610273578063f2fde38b1461029657600080fd5b806398a8faca146101c6578063a1daf3b1146101d9578063ba5b415a146101ec578063be1dca5f1461021f57600080fd5b80632dc3dabe116100d35780632dc3dabe1461016f5780635d1fe17214610182578063715018a6146101ad5780638da5cb5b146101b557600080fd5b806307cc0e3d146100fa57806308ac209b14610123578063150b7a0214610138575b600080fd5b61010d610108366004610c2a565b6102a9565b60405161011a9190610c67565b60405180910390f35b610136610131366004610caf565b610343565b005b610156610146366004610d6b565b630a85bd0160e11b949350505050565b6040516001600160e01b0319909116815260200161011a565b61013661017d366004610e12565b61041f565b600154610195906001600160a01b031681565b6040516001600160a01b03909116815260200161011a565b610136610645565b6000546001600160a01b0316610195565b6101366101d4366004610e6d565b610659565b61010d6101e7366004610c2a565b6106d9565b61020f6101fa366004610c2a565b60009081526004602052604090205460ff1690565b604051901515815260200161011a565b61023261022d366004610e8a565b61077b565b60405190815260200161011a565b61013661024e366004610e12565b6107bb565b610266610261366004610ecf565b610b00565b60405161011a9190610f0c565b61020f610281366004610c2a565b60046020526000908152604090205460ff1681565b6101366102a4366004610e6d565b610b6f565b600360205260009081526040902080546102c290610f50565b80601f01602080910402602001604051908101604052809291908181526020018280546102ee90610f50565b801561033b5780601f106103105761010080835404028352916020019161033b565b820191906000526020600020905b81548152906001019060200180831161031e57829003601f168201915b505050505081565b61034b610bad565b60008281526004602052604090205460ff16156103af5760405162461bcd60e51b815260206004820152601b60248201527f43616e6e6f74207265636f76657220636c61696d65642063617264000000000060448201526064015b60405180910390fd5b6001546040516323b872dd60e01b81523060048201526001600160a01b03838116602483015260448201859052909116906323b872dd90606401600060405180830381600087803b15801561040357600080fd5b505af1158015610417573d6000803e3d6000fd5b505050505050565b6001546001600160a01b031633146104795760405162461bcd60e51b815260206004820152601960248201527f4f6e6c792047696674436172642063616e206465706f7369740000000000000060448201526064016103a6565b60008251116104ca5760405162461bcd60e51b815260206004820152601860248201527f557365726e616d652063616e6e6f7420626520656d707479000000000000000060448201526064016103a6565b6001546040516331a9108f60e11b81526004810185905230916001600160a01b031690636352211e90602401602060405180830381865afa158015610513573d6000803e3d6000fd5b505050506040513d601f19601f820116820180604052508101906105379190610f8a565b6001600160a01b03161461058d5760405162461bcd60e51b815260206004820152601760248201527f5661756c74206d757374206f776e20746865206361726400000000000000000060448201526064016103a6565b60028260405161059d9190610fa7565b90815260408051602092819003830190208054600181018255600091825283822001869055858152600390925290206105d6838261100e565b5060008381526004602052604090819020805460ff19169055516105fb908390610fa7565b6040519081900381206001600160a01b03831682529084907f998a69985b48e618ab4500bb669b84da565fab8717a362f88d1137d0b6a651a29060200160405180910390a3505050565b61064d610bad565b6106576000610bda565b565b610661610bad565b6001600160a01b0381166106b75760405162461bcd60e51b815260206004820152601960248201527f476966744361726420616464726573732072657175697265640000000000000060448201526064016103a6565b600180546001600160a01b0319166001600160a01b0392909216919091179055565b60008181526003602052604090208054606091906106f690610f50565b80601f016020809104026020016040519081016040528092919081815260200182805461072290610f50565b801561076f5780601f106107445761010080835404028352916020019161076f565b820191906000526020600020905b81548152906001019060200180831161075257829003601f168201915b50505050509050919050565b815160208184018101805160028252928201918501919091209190528054829081106107a657600080fd5b90600052602060002001600091509150505481565b60008381526004602052604090205460ff16156108115760405162461bcd60e51b815260206004820152601460248201527310d85c9908185b1c9958591e4818db185a5b595960621b60448201526064016103a6565b6001600160a01b0381166108675760405162461bcd60e51b815260206004820152601760248201527f496e76616c696420636c61696d6572206164647265737300000000000000000060448201526064016103a6565b6000838152600360205260408120805461088090610f50565b80601f01602080910402602001604051908101604052809291908181526020018280546108ac90610f50565b80156108f95780601f106108ce576101008083540402835291602001916108f9565b820191906000526020600020905b8154815290600101906020018083116108dc57829003601f168201915b5050505050905082805190602001208180519060200120146109515760405162461bcd60e51b81526020600482015260116024820152700aae6cae4dcc2daca40dad2e6dac2e8c6d607b1b60448201526064016103a6565b600084815260046020526040808220805460ff191660011790555160029061097a908690610fa7565b9081526020016040518091039020905060005b8154811015610a4157858282815481106109a9576109a96110ce565b906000526020600020015403610a2f57815482906109c9906001906110fa565b815481106109d9576109d96110ce565b90600052602060002001548282815481106109f6576109f66110ce565b906000526020600020018190555081805480610a1457610a14611113565b60019003818190600052602060002001600090559055610a41565b80610a3981611129565b91505061098d565b506001546040516323b872dd60e01b81523060048201526001600160a01b03858116602483015260448201889052909116906323b872dd90606401600060405180830381600087803b158015610a9657600080fd5b505af1158015610aaa573d6000803e3d6000fd5b5050505083604051610abc9190610fa7565b604051908190038120906001600160a01b0385169087907fdb3e8f1b679316330981f622bbcea0baa4068b63de4ed4e5acc3ffdec9398db990600090a45050505050565b6060600282604051610b129190610fa7565b908152604080519182900360209081018320805480830285018301909352828452919083018282801561076f57602002820191906000526020600020905b815481526020019060010190808311610b505750505050509050919050565b610b77610bad565b6001600160a01b038116610ba157604051631e4fbdf760e01b8152600060048201526024016103a6565b610baa81610bda565b50565b6000546001600160a01b031633146106575760405163118cdaa760e01b81523360048201526024016103a6565b600080546001600160a01b038381166001600160a01b0319831681178455604051919092169283917f8be0079c531659141344cd1fd0a4f28419497f9722a3daafe3b4186f6b6457e09190a35050565b600060208284031215610c3c57600080fd5b5035919050565b60005b83811015610c5e578181015183820152602001610c46565b50506000910152565b6020815260008251806020840152610c86816040850160208701610c43565b601f01601f19169190910160400192915050565b6001600160a01b0381168114610baa57600080fd5b60008060408385031215610cc257600080fd5b823591506020830135610cd481610c9a565b809150509250929050565b634e487b7160e01b600052604160045260246000fd5b600067ffffffffffffffff80841115610d1057610d10610cdf565b604051601f8501601f19908116603f01168101908282118183101715610d3857610d38610cdf565b81604052809350858152868686011115610d5157600080fd5b858560208301376000602087830101525050509392505050565b60008060008060808587031215610d8157600080fd5b8435610d8c81610c9a565b93506020850135610d9c81610c9a565b925060408501359150606085013567ffffffffffffffff811115610dbf57600080fd5b8501601f81018713610dd057600080fd5b610ddf87823560208401610cf5565b91505092959194509250565b600082601f830112610dfc57600080fd5b610e0b83833560208501610cf5565b9392505050565b600080600060608486031215610e2757600080fd5b83359250602084013567ffffffffffffffff811115610e4557600080fd5b610e5186828701610deb565b9250506040840135610e6281610c9a565b809150509250925092565b600060208284031215610e7f57600080fd5b8135610e0b81610c9a565b60008060408385031215610e9d57600080fd5b823567ffffffffffffffff811115610eb457600080fd5b610ec085828601610deb565b95602094909401359450505050565b600060208284031215610ee157600080fd5b813567ffffffffffffffff811115610ef857600080fd5b610f0484828501610deb565b949350505050565b6020808252825182820181905260009190848201906040850190845b81811015610f4457835183529284019291840191600101610f28565b50909695505050505050565b600181811c90821680610f6457607f821691505b602082108103610f8457634e487b7160e01b600052602260045260246000fd5b50919050565b600060208284031215610f9c57600080fd5b8151610e0b81610c9a565b60008251610fb9818460208701610c43565b9190910192915050565b601f82111561100957600081815260208120601f850160051c81016020861015610fea5750805b601f850160051c820191505b8181101561041757828155600101610ff6565b505050565b815167ffffffffffffffff81111561102857611028610cdf565b61103c816110368454610f50565b84610fc3565b602080601f83116001811461107157600084156110595750858301515b600019600386901b1c1916600185901b178555610417565b600085815260208120601f198616915b828110156110a057888601518255948401946001909101908401611081565b50858210156110be5787850151600019600388901b60f8161c191681555b5050505050600190811b01905550565b634e487b7160e01b600052603260045260246000fd5b634e487b7160e01b600052601160045260246000fd5b8181038181111561110d5761110d6110e4565b92915050565b634e487b7160e01b600052603160045260246000fd5b60006001820161113b5761113b6110e4565b506001019056fea26469706673582212205cf76da956a08b1ebfe11c1bf3be61ab14094ea0385d573ecb9513f288e6fce964736f6c63430008140033",
  "linkReferences": {},
  "deployedLinkReferences": {}
}